:020000040800F2
:10000000B01C002005010008CD330008B927000806
:10001000152F0008750B0008D942000800000000E9
:10002000000000000000000000000000453F000844
:10003000770B000800000000D53D0008473F00088E
:100040001F0100081F0100081F0100081F01000810
:100050001F0100081F0100081F0100081F01000800
:100060001F0100081F0100081F0100081F010008F0
:100070001F0100081F0100081F0100081F010008E0
:100080001F0100081F0100081F0100081F010008D0
:100090001F0100081F0100081F0100081F010008C0
:1000A0001F010008C53F00081F0100081F010008CC
:1000B000D13F00081F0100081F0100081F010008B0
:1000C0001F0100081F0100081F0100081F01000890
:1000D0001F0100081F0100081F0100081F01000880
:1000E0001F0100081F0100081F010008DFF810D0E1
:1000F00000F03CFC00480047E94B0008AFF30080EB
:10010000B01C00200648804706480047FEE7FEE78F
:10011000FEE7FEE7FEE7FEE7FEE7FEE7FEE7FEE7B7
:10012000C33F0008ED000008202A04DB203A21FA32
:1001300002F00021704721FA02F3D040C2F1200200
:10014000914008431946704740EA01039B0703D0DA
:1001500009E008C9121F08C0042AFAD203E011F806
:10016000013B00F8013B521EF9D27047D2B201E0C8
:1001700000F8012B491EFBD270470022F6E710B5AC
:1001800013460A4604461946FFF7F0FF204610BD05
:1001900010B5002200E0521C835C8C5CA34201D1AC
:1001A000002BF8D1D8B2E1B2401A10BDF0B480EA09
:1001B0000102D40F4200B2EB410F02D202460846C0
:1001C00011464A0042D0C30DDDB2C1F3C752AD1A89
:1001D000202D35DAC1F3160141F4000204B1524278
:1001E000C5F1200602FA06F12A411044B3EBD05FB4
:1001F00023D0C4B1012DA0EBC35009DCF0BC4FF0FB
:10020000004202EAC352DBB200F5000000F00BBB73
:10021000400000F1807000EBC350A0F1807040EA14
:10022000D170490009E0490841EAC071A0EBC35010
:1002300000F50000400800EBC350F0BC00F0EABA43
:100240006142012202EB4101001BF6E7F0BC70475E
:1002500081F00041AAE780F00040A7E780EA0102B0
:1002600010B502F00043400022D04A001FD0010E1A
:1002700001EB1261C0F35600C2F3560240F40000D5
:1002800042F40002A0FB022000047F39140400D0D5
:10029000401C50EA124001D44000491EC2B20C0674
:1002A00004EBD010401C4008802A02D003E000205C
:1002B00010BD20F00100002900DA0020184310BD15
:1002C0002DE9FE4F804681EA0300C00F0C460090E6
:1002D00021F0004123F00045B8EB0200A94105D20E
:1002E0004046214690461C460B46024623F00040FD
:1002F000104347D0270DC7F30A00C3F30A510290F9
:10030000401A019040286BDAC3F3130040F4801BBD
:100310000098924620B10023D2EB030A63EB0B0B4B
:1003200001985946C0F14002504600F052FA064684
:100330000D4650465946019A00F05AFA10EB080053
:100340006141002487EA115284EAE7731A4340D0DE
:10035000009A62B3019A012A4FEA075215DC001B8A
:1003600061EB02014FF0004202EA0752CDE9004280
:10037000001C41F5801132462B4600F091FA03B083
:10038000BDE8F08F40462146F9E7001B61EB020112
:10039000001C41F5801300185B412018A2F50017DE
:1003A00047EB030140EAD570B6196D4111E06D08C5
:1003B0004FEA360645EAC0754FEA0752001B61EB6B
:1003C0000201001C41F5801149084FEA3000001974
:1003D000514132462B4603B0BDE8F04F00F051BA10
:1003E0000098012240000023D0EB020263EBE0738F
:1003F000009821464FEAE074B8EB000061EB04017D
:10040000E9E783F000435BE781F0004158E72DE91D
:10041000FE4F81EA030404F0004421F000410094FF
:100420004FF0000B23F0004350EA01045ED052EA83
:1004300003045BD0C3F30A54C1F30A552C44A4F25D
:10044000F3340194A0FB0254C1F3130141F4801171
:10045000C3F3130343F4801301FB024400FB034E78
:10046000840A970A44EA815447EA8357A4FB076841
:1004700002958D0A05FB07854FEA932C04FB0C546B
:100480002705029D4FEA065847EA1637B5EB0805DF
:100490006EEB070C870E920E47EA811742EA831231
:1004A000A7FB0201B6EB0B0164EB00042B0D43EA42
:1004B0000C335E1844EB1C50DA465146E7FB020150
:1004C000C5F313044FEA0B3343EA14534FEA0432E3
:1004D000019C43EA0603A4F10C040294009CCDE9BC
:1004E00000B400F0DDF903B0BDE8F08F0020014654
:1004F000F9E72DE9F04D81EA030404F0004B21F007
:10050000004514464FF0000A23F0004150EA05026E
:1005100020D054EA01021DD0C5F30A570246C5F3A4
:100520001303C1F31300C1F30A5640F4801543F4DA
:100530008013A7EB0608101BD64608F2FD3873EBB4
:10054000050002D308F1010801E092185B41B8F1FF
:10055000000F03DA00200146BDE8F08D00204FF4C3
:100560008011064684460EE0171B73EB050705D382
:10057000121B63EB050306434CEA010C49084FEAE2
:10058000300092185B4150EA0107EDD152EA0300B6
:1005900012D082EA040083EA0501084305D0101B4B
:1005A000AB4106D20122002306E000224FF00043B7
:1005B00002E06FF0010253101AEB06004CEB0851F9
:1005C00010EB0A0041EB0B01BDE8F04D00F059B90A
:1005D00070B521F0004303430CD0C1F30A55002449
:1005E000D5EB040564EB0403D617AD1AB34102DB67
:1005F0000020014670BD201841EB025170BDC10FB3
:1006000080EAE0700844CA079623002100F00BB985
:1006100096230022114600F006B90EB540F2334190
:1006200002910021CDE900110A460B4600F038F98D
:1006300003B000BD00F0004220F00040C10DC0F347
:10064000160040F400007F2901DA00207047962947
:1006500003DCC1F19601C84001E096398840002AC8
:10066000F4D04042704720F00040C10DC0F31600A6
:1006700040F400007F2901DA00207047962903DC4E
:10068000C1F19601C840704796398840704700F024
:10069000004230F000400AD0C10D01F56071C0F396
:1006A000160042EA0151C20840071143704700207A
:1006B0000146704730B5041E71F1000404DB4FF0B1
:1006C0000044404264EB0101141E73F1000405DB99
:1006D0001C464FF00043524263EB0403994208BFAB
:1006E000904230BD01F0004330B421F0004150EAA7
:1006F000010206D00A0DA2F56072C1F31301002AAF
:1007000002DC30BC00207047440F44EAC104C10041
:10071000E01830BC00EBC25000F07CB8002801DBD0
:10072000C0F10040002901DBC1F100418142704766
:10073000002801DBC0F10040002901DBC1F10041CC
:100740008842704730B50B46014600202022012424
:1007500009E021FA02F59D4205D303FA02F5491B8F
:1007600004FA02F52844151EA2F10102F1DC30BDA5
:100770002DE9F05F0546002092469B4688460646D6
:10078000814640241BE02846414647462246FFF763
:10079000CBFC53465A46C01A914110D31146184615
:1007A000224600F016F82D1A67EB01084F46224644
:1007B0000120002100F00DF817EB00094E41201E2A
:1007C000A4F10104DFDC484631462A464346BDE831
:1007D000F09F202A04DB203A00FA02F10020704743
:1007E0009140C2F1200320FA03F31943904070476F
:1007F000202A06DBCB17203A41FA02F043EAE073E5
:1008000006E041FA02F3D040C2F1200291400843D1
:10081000194670470029A8BF7047401C490008BF0F
:1008200020F00100704710B4B0FA80FC00FA0CF020
:1008300050EA010404BF10BC704749B1CCF1200458
:1008400021FA04F411FA0CF118BF012121430843E5
:10085000A3EB0C01CB1D4FEA00614FEA102042BF11
:10086000002010BC704700EBC35010440029A4BF07
:1008700010BC7047401C490008BF20F0010010BCAC
:10088000704710B5141E73F1000408DA401C41F1E2
:10089000000192185B411A4301D120F0010010BD04
:1008A0002DE9F04D92469B4611B1B1FA81F202E07A
:1008B000B0FA80F220329046FFF78BFF04460F46D5
:1008C00040EA0A0041EA0B0153465A46084313D056
:1008D000114653EA010019D0C8F140025046FFF713
:1008E00023FC05460E46504659464246FFF771FF27
:1008F000084305D0012004E020463946BDE8F08DCC
:100900000020054346EAE0762C4337430A98630506
:10091000E40AA0EB08000022FD0A44EA47540A302A
:1009200002D500200146E9E7010510196941DDE91A
:10093000084500196941BDE8F04DA2E7C1F30A522C
:10094000C1F3130140F2FF3341F480119A4202DAFD
:1009500000200146704740F233439A42A2F23342EC
:1009600002DC5242FFF7E0BBFFF733BF064C074DF6
:1009700006E0E06840F0010394E80700984710346F
:10098000AC42F6D3FFF7B6FBB8740008D874000881
:1009900070B58C1810F8015B15F0070301D110F841
:1009A000013B2A1106D110F8012B03E010F8016B6E
:1009B00001F8016B5B1EF9D12B0705D40023521EF1
:1009C0000DD401F8013BFAE710F8013BCB1A921C59
:1009D00003E013F8015B01F8015B521EF9D5A14257
:1009E000D8D3002070BD000070B50446006881684F
:1009F000C943C90717D1816821F00101816000F066
:100A0000A5FE05460AE000BF00F0A0FE401B02283C
:100A100004D920688068C043C00706D02068806879
:100A2000C043C007F0D0002070BDA06A40F01000A5
:100A3000A062E06A40F00100E062012070BD0000A9
:100A4000F8B500260446009600688168C943C907C6
:100A50002DD0816841F00101816016481649006877
:100A6000B0FBF1F000E0401E00900028FBD100F048
:100A70006DFE054616E000BF00F068FE401B022830
:100A800010D920688068C043C0070BD0A06A40F02E
:100A90001000A062E06A40F00100E06284F8246087
:100AA0000120F8BD20688068C043C007E4D1002061
:100AB000F8BD0000440E002040420F0010B502F0C7
:100AC00087FC002108230DA2084602F01DFF082321
:100AD0000FA21021002002F017FF08230CA22021F2
:100AE000002002F011FF08230EA23021002002F0A6
:100AF0000BFFBDE8104002F075BF00002020204130
:100B00004E474C45205445535420202000000000FF
:100B100020202020202020202020202020202020D5
:100B200000000000352F352020202020202020200C
:100B3000204B343E0000000008B50821042001F0DD
:100B4000DBFE10B107490120087003F0EBF90090BB
:100B500005A308221021002002F006FEBDE808408F
:100B600002F040BFB70D00204144313A25303464D3
:100B700000000000FEE7704710B502F029FC0021DC
:100B800008230EA2084602F0BFFE082310A210217F
:100B9000002002F0B9FE08230DA22021002002F05F
:100BA000B3FE08230FA23021002002F0ADFE02F0B8
:100BB00019FFBDE81040002000F04CB82020454E41
:100BC000434F4445522054455354202020000000F8
:100BD0002020202020202020202020202020202015
:100BE00000000000342F352020202020202020204D
:100BF000204B343E0000000008B50821042001F01D
:100C00007BFE10B107491520087000F013F8009022
:100C100005A308221021002002F0A6FDBDE808402F
:100C200002F0E0BEB70D002045413A252B30366476
:100C30000000000002480068406A404200B270476D
:100C4000B80F002002480068406A404200B2704776
:100C5000B80F00200149096848627047B80F0020AA
:100C600072B6FEE706490020C8610648016941F0F6
:100C700004010161016941F0400101617047000018
:100C80009018002000200240064A0021D161064948
:100C90000A6942F002020A614861086940F04000B6
:100CA000086170479018002000200240044B002289
:100CB000DA61044A136943F001031361018070474C
:100CC000901800200020024014480022C168CB0682
:100CD000134904D5CA6942F00202CA611022C368EE
:100CE0005B0705D5CB6943F00103CB6142F00402F9
:100CF000C369DB0707D0CB6943F00403CB61C1694B
:100D000021F00101C161A2F58071013901D0C260F9
:100D10007047C16921F00101C161704700200240A4
:100D20009018002070B5054600F010FD0646114CE5
:100D300009E0681C07D025B100F008FD801BA8421F
:100D400001D9032070BDE068C007F2D1E0688006D9
:100D500001D52020E060E068C00605D4E069C00746
:100D600002D1E068400703D5FFF7AEFF012070BD58
:100D7000002070BD002002402DE9F041164D0027F3
:100D8000284602F021FB4AF2A554AE14A04211D02D
:100D9000284602F0F7FA2146284602F006FB012415
:100DA00005EB4400002102F000FB641CA4B2B44235
:100DB000F6D30127B046094E002400BF05EB4400DE
:100DC00002F002FB26F81400641CA4B24445F5D3DB
:100DD0003846BDE8F081000000FC000890140020B7
:100DE0002DE9F041094D284602F0CCFA0024084EC6
:100DF0005FEAA54705EB440036F8141002F0D5FA77
:100E0000641CA4B2BC42F5D3BDE8F08100FC00082C
:100E100090140020F8B500250446009590F82400B1
:100E200001280BD0012084F824002046FFF7DCFDC8
:100E30002046FFF705FE060002D050E00220F8BD74
:100E4000A06A20F4885040F00200A062022000F066
:100E50001BFD25490968B1FBF0F0400000E0401E91
:100E600000900028FBD12068816841F00801816072
:100E700000F06CFC074608E000F068FCC01B0A2884
:100E800003D920688068000715D4206880680007AF
:100E9000F2D42068816841F00401816000F056FCC2
:100EA000074612E000F052FCC01B0A280DD920684A
:100EB0008068400709D5A06A20F0020040F01000C9
:100EC000A06284F824500120F8BD206880684007A3
:100ED000E8D4A06A20F0020040F00100A06284F88B
:100EE00024503046F8BD0000440E0020F8B5002420
:100EF000009490F824202546012A12D0012280F87F
:100F000024204A681F23072A0DD20668776B521ED9
:100F100002EB820293409F430B6893401F43776329
:100F200019E00220F8BD06680D2A0AD2376BD21FDD
:100F300002EB820293409F430B6893401F43376349
:100F400009E0F76A0D3A02EB820293409F430B6877
:100F500093401F43F7620A68072306680A2A0AD3E8
:100F6000F7680A3A02EB420293409F438B68934032
:100F70001F43F76008E0376902EB420293409F434A
:100F80008B6893401F4337610A68102A01D0112AE9
:100F900020D1124B02689A4217D193681B0219D4D0
:100FA000936843F4000393600968102912D10C4937
:100FB0000C4A0968B1FBF2F101EB8101490000E044
:100FC000491E00910029FBD104E0816A41F0200113
:100FD0008162012480F824502046F8BD002401409D
:100FE000440E002040420F000068C06C70470000B3
:100FF0002DE9F0414FF0000704003D467ED0A06A85
:10100000002628B9E66284F82460204600F07EF8C5
:101010002046FFF7E9FCA16AC90600D420B1A06A06
:1010200040F01000A06269E0A16A21F4885141F00B
:101030000201A1626268E169237B0A4347EA430136
:101040000A43A1684FF48077B94209D0012907D03B
:101050005FF0000194F814C0BCF1010F02D00AE067
:101060003946F7E7F3B1A36A43F02003A362E36ACA
:1010700043F00103E3622368D3F804C02CF4694C05
:101080004CEA010CC3F804C021688B68DFF870C01B
:1010900003EA0C0313438B60A168B9420BD001290A
:1010A00009D00CE0DFF85CC0A3690CEB43330B43C1
:1010B00043F40061DFE7218A0D05A5F5801521685D
:1010C000CB6A23F470032B43CB62216889680E4BF3
:1010D0001940914208D1E662A16A21F0020141F073
:1010E0000101A162BDE8F081A06A20F0020040F099
:1010F0001000A062E06A40F00100E0620120F1E728
:10110000FDF7E1FF00E0FFFFFE0E1FFF00B585B019
:10111000002100910191029103911C4B02681C482F
:1011200003219A4215D1826942F400728261826978
:1011300002F400720492826942F0040282618069C2
:1011400000F0040004903C20CDE9000169461148FC
:1011500017E0114B9A4216D1826942F48062826193
:10116000826902F480620492826942F0080282611C
:10117000806900F0080004900120CDE90001694673
:10118000064800F0E9F905B000BD00000024014068
:10119000001002400008014000280140000C0140FE
:1011A0002DE9F84300270D460446009700F0CEFADB
:1011B000804620688168C90508D5A06A40F02000F3
:1011C000A06284F824700120BDE8F8834168C90555
:1011D00003D4C06A10F4700F2AD0022000F054FB30
:1011E0003B490968B1FBF0F62068036939490B42B5
:1011F0004FEA61014FEAA1121FD1C3684FEA611C97
:1012000013EA0C0F19D103690B4225D1C0681042B3
:1012100022D1142023E0681C0AD02DB100F096FAE8
:10122000A0EB0800A84203D920680068800725D5F4
:10123000206800688007EED52DE003690B4202D1DB
:10124000C168114206D0026923490A4206D1C0682A
:10125000084203D1542002E0292000E0FC2046434C
:10126000009816E0681C11D02DB100F06FFAA0EBC9
:101270000800A8420AD90098B04207D2A06A40F0FC
:101280000400A06284F8247003209DE70098401CAD
:101290000090B042E6D321686FF012000860A06AA7
:1012A00040F40070A06220688068C0F342400728C4
:1012B0000CD1207B50B9A06A20F48070A062A06A93
:1012C000C00403D4A06A40F00100A06200207BE7C4
:1012D000440E0020244992244992240070B504460B
:1012E00090F8240001280DD0012084F82400204625
:1012F000FFF7A6FB02004FF0000005D084F82400A1
:10130000104670BD022070BDA16A40F201239943CE
:1013100041F48071A1621F4D23681F49AB4218D16F
:101320000E6816F4702F14D0A66A46F48016A662D2
:101330000E68760505D5A66A26F4005646F4805652
:10134000A662A66AF6040AD5E66A26F00606E662F2
:1013500006E0A66A26F48016A6625E68E9E7E06207
:1013600084F824006FF00200186020688368C3F3DB
:101370004243072B05D1A84208D1096811F4702F08
:1013800004D0816841F480118160B9E7816841F43B
:10139000A001F9E7002801400424014010B50446EB
:1013A00090F82400012807D0012084F8240020466A
:1013B000FFF71AFB10B107E0022010BDA16A21F46B
:1013C000885141F00101A162002184F8241010BD70
:1013D00070B5044600F0BAF90546601C02D0044816
:1013E0000078044400F0B2F9401BA042FAD370BD6B
:1013F000380E00202DE9F047054626480F46012605
:10140000017E01290FD00121814601762868DFF88D
:1014100088804CF25034022808D0A2462046FFF7BC
:1014200081FCA8B131E00220BDE8F0872046FFF73B
:1014300079FC08BB0120FFF715FC2046FFF772FC82
:10144000D8F81010064621F00401C8F810101CE06E
:101450004FF0FF303860AC6811E02046FFF714FC15
:101460005046FFF75FFCD8F81010060021F002018B
:10147000C8F8101001D03C6007E004F58064D5E99D
:10148000020100EB8120A042E7D8002189F8181062
:101490003046C9E790180020002002400348016947
:1014A00041F08001016100207047000000200240EF
:1014B0002DE9F05F07461C4888460024017E15464A
:1014C0001E46012909D00121814601764CF2503A8D
:1014D0005046FFF727FC18B122E00220BDE8F09F3C
:1014E000012F02D0022F00D00427D346DFF83CA002
:1014F000220128463146FEF717FE81B208EB440070
:10150000FFF7D4FB5846FFF70DFCDAF8102022F065
:101510000102CAF8102018B9641CE4B2BC42E7D337
:10152000002289F81820D9E79018002000200240F6
:10153000064900200A69120607D5054A4A60054A8D
:101540004A600969090600D5012070470020024061
:1015500023016745AB89EFCD2DE9F84FDFF8B8914E
:101560000024A9F1040B23460F2709F1040AABF16B
:10157000040EC9E00125A5402A40AA427DD1674E4C
:10158000D1F804C0ACEB0608B44532D014DCBCF191
:10159000030F3AD009DCBCF1000F2AD0BCF1010FD7
:1015A0001CD0BCF1020F31D11DE0BCF1110F17D0DE
:1015B000BCF1120F2AD119E0B8F5881F19D006DC4A
:1015C000B8F5803F15D0B8F5801F1FD111E0B8F5F0
:1015D000001F0ED0B8F5041F18D10AE0CB6815E043
:1015E000CB681B1D12E0CB6808330FE0CB680C33CF
:1015F0000CE08B682BB1012B4FF0080303D0456141
:1016000004E0042302E0056100E00023FF2A01D882
:10161000064601E000F104064FEA840501D9A5F170
:101620002005D6F8008007FA05FC28EA0C0803FA22
:1016300005F548EA0508C6F800804D68ED0062D55A
:10164000374DAE6946F00106AE61AD6924F0030680
:1016500005F001050095334D06EB050CDCF808504C
:10166000A607360F07FA06F825EA0805DFF8B8805E
:10167000404503D14FF0000817E044E0DFF8AC80AC
:10168000404502D14FF001080FE0DFF8A48040454B
:1016900002D14FF0020808E0DFF89880404502D1FF
:1016A0004FF0030801E04FF0040808FA06F848EA92
:1016B0000508CCF808804D68D9F80060ED024D4669
:1016C00001D5164300E096432E604D68DAF80060BD
:1016D000AD02554601D5164300E096432E604D6895
:1016E000DBF80060AD035D4601D5164300E096438C
:1016F0002E604D68DEF80060ED03754601D5164397
:1017000000E096432E60641C0D682A46E5407FF495
:1017100031AFBDE8F88F000008040140000011104F
:10172000001002400000014000080140000C014090
:1017300000100140001401408068084000D00120E2
:1017400070470AB1016170470904FBE701488068EE
:1017500070470000380E002002488168027811446A
:1017600081607047380E0020074810B5016841F0CD
:1017700010010160032000F075F80F2000F006F85A
:1017800000F024F8002010BD0020024070B50D4D7F
:1017900004464FF47A712878B1FBF0F00A490968E1
:1017A000B1FBF0F000F0A4FB48B9102C07D20022E6
:1017B0002146501E00F036F800206C6070BD0120FC
:1017C00070BD0000380E0020440E00200C4808B503
:1017D000816941F001018161816901F0010100919C
:1017E000C16941F08051C161C06900F08050009032
:1017F0000448416821F0E06141F00071416008BD9A
:101800000010024000000140002809DB00F01F0228
:10181000012191404009800000F1E020C0F8001152
:1018200070470000F0B40E4B1B680C46C3F3022354
:10183000C3F10705042D00D90425191D072901D27C
:10184000002300E0DB1E012606FA05F1491E2140B7
:1018500099409E40761E16403143F0BC02F050BDC8
:101860000CED00E0064900F0070208684FF6FF03A0
:10187000184040EA0220034A104308607047000005
:101880000CED00E00000FA0510B501460020234CE5
:10189000012922D0022939D010291DD1616822687E
:1018A000D20119D51E48C1F38342C903805C0AD511
:1018B00061681B4AC1F34041921E515C194AB2FB58
:1018C000F1F1484301E0184948436168490203D4F3
:1018D00040000321B0FBF1F010BD226AC2F30121E8
:1018E000012903D1920701D5C80310BD022905D1F2
:1018F000626A920702D549F6404010BD0329FCD127
:1019000021688903F9D54FF2244010BD00F02AF96F
:101910006168C1F38131491C4900DBE700100240D6
:101920007D74000800127A0000093D002DE9F8439B
:1019300005460078354CC00754D0E0690026C00049
:1019400008D4E06940F08050E061E069012600F0D1
:10195000805000902E480168C90512D40168804665
:1019600041F480710160FFF7F1FE074605E000BF1A
:10197000FFF7ECFEC01B642823D8D8F80000C00590
:10198000F6D5206A10F4407021D0A98801F4407186
:1019900081421CD0206A1F49012220F440700A6055
:1019A00000220A602062C00711D0FFF7CFFE074671
:1019B00041F2883808E000BFFFF7C8FEC11B41456F
:1019C00002D90320BDE8F883206A8007F4D5206A95
:1019D000696820F44070084320621EB1E06920F07D
:1019E0008050E0612878800705D56068A96820F4F8
:1019F0004040084360602878C00605D56068E96803
:101A000020F48000084360600020DBE70010024003
:101A100000700040400442422DE9F0470F460500A7
:101A200061D0434E306800F00700B84209D23068F8
:101A300020F0070038433060306800F00700B842FB
:101A400051D128683B4C810712D5400703D5606807
:101A500040F4E06060602878000703D5606840F4D7
:101A6000605060606068A96820F0F0000843606022
:101A70002878C00728D06868012810D0216802287B
:101A800010D0890700292EDA616821F00301014393
:101A90006160FFF75BFE804641F288390DE0216806
:101AA0008903EFE78901EDE7FFF750FEA0EB08019E
:101AB000494502D90320BDE8F0876068696800F0F5
:101AC0000C00B0EB810FEFD1306800F00700B84296
:101AD0000BD9306820F0070038433060306800F0E0
:101AE0000700B84201D00120E5E72878400705D576
:101AF0006068E96820F4E0600843606028780007C7
:101B000006D56068296920F4605040EAC100606031
:101B100000F038F86168084AC1F30311515CC8400D
:101B20000649086006480068FFF730FE0020C2E75B
:101B300000200240001002408D740008440E002076
:101B40003C0E00200448054900684968044AC1F376
:101B50000221515CC8407047440E00200010024032
:101B60009D7400080448054900684968044AC1F3A7
:101B7000C221515CC8407047440E00200010024052
:101B80009D7400080E4A51680E4801F00C03042BA6
:101B900011D0082B0FD10C48C1F38343C903C05C9B
:101BA0000AD55168084AC1F34041921E515C054A6A
:101BB0005043B0FBF1F070470449484370470000C0
:101BC0000010024000127A006B74000800093D000A
:101BD0002DE9F84F040070D02078C04DC00749D0DF
:101BE0006868C0F38100012807D06868C0F38100ED
:101BF000022809D16868C00306D52868800339D552
:101C000060680028E7D035E06068B0F5803F0BD011
:101C100010B1B0F5A02F11D0286820F480302860D2
:101C2000286820F4802002E0286840F48030286092
:101C3000606890B1FFF78AFD06460AE0286840F424
:101C400080202860F0E700BFFFF780FD801B64283C
:101C500073D828688003F7D50CE0FFF777FD0646B8
:101C600005E000BFFFF772FD801B6428F0D82868EC
:101C70008003F7D420789A4E80074FF001094FF087
:101C8000000839D5686810F00C0F07D06868C0F3F9
:101C90008100022809D16868C00306D4286880073B
:101CA00014D52069012808D110E02069B0B1C6F828
:101CB0000090FFF74BFD074605E00AE1FFF746FD00
:101CC000C01B0228C4D828688007F7D52868616936
:101CD00020F0F80040EAC10028600DE0C6F800805E
:101CE000FFF734FD074604E0FFF730FDC01B022874
:101CF00023D828688007F7D4207800072CD57948A6
:101D0000A169D9B1C0F80090FFF720FD074604E0B3
:101D1000FFF71CFDC01B02280FD8686A8007F7D5A3
:101D200071484FF4FA510068B0FBF1F0009000BF29
:101D30000098411E0091FAD20EE080E0C0F80080C9
:101D4000FFF704FD074604E0FFF700FDC01B022873
:101D500075D8686A8007F7D42078400760D5E869AD
:101D60000027C00008D4E86940F08050E861E869C5
:101D7000012700F0805000905C480168C90513D429
:101D80000168834641F480710160FFF7DFFC824601
:101D900006E000BFFFF7DAFCA0EB0A0064284ED88B
:101DA000DBF80000C005F5D5E06801280AD008B1CD
:101DB000052813D0286A20F001002862286A20F044
:101DC000040002E0286A40F001002862E06841F265
:101DD000883B98B1FFF7BAFC82460BE0286A40F0D6
:101DE00004002862EEE700BFFFF7B0FCA0EB0A0199
:101DF00059455AD8286A8007F6D50CE0FFF7A6FCAB
:101E0000824605E0FFF7A2FCA0EB0A0159454CD839
:101E1000286A8007F6D41FB1E86920F08050E86195
:101E2000E06988B36968C1F38101022944D00228BE
:101E3000C6F8608004D0FFF789FC044638E034E03F
:101E4000FFF784FC074604E0FFF780FCC01B022874
:101E50002BD828688001F7D4206AB0F5803F05D1DF
:101E60006868A16820F4003008436860D4E908017C
:101E70000843696821F4741108436860C6F86090EB
:101E8000FFF764FC044606E025E000BFFFF75EFCB8
:101E9000001B022809D828688001F7D51BE000BF85
:101EA000FFF754FC001B022802D90320BDE8F88F7D
:101EB00028688001F4D40EE00128F7D06868226A0F
:101EC00000F48031914204D1616A00F470108842BC
:101ED00001D00120EAE70020E8E7000000100240FE
:101EE0000000424280044242440E00200070004044
:101EF00010B5401EB0F1807F01D3012010BD4FF01E
:101F0000E02460610F21601702F0FAF90020A0615F
:101F100007202061002010BD7047704770B590F811
:101F20003C20012A26D0012480F83C40022280F87F
:101F30003D2003685A689D6822F070060A683243A3
:101F40005A600D4B02689A4208D0B2F1804F05D01A
:101F50000A4B9A4202D00A4B9A4204D1496825F0B2
:101F600080031943916080F83D40002180F83C10C7
:101F7000084670BD022070BD002C014000040040E6
:101F80000008004010B5040003D094F83D0010B1E3
:101F900007E0012010BD002084F83C00204600F03E
:101FA0001FF8022084F83D00211D206802F016F879
:101FB000012084F8460084F83E0084F83F0084F84D
:101FC000400084F8410084F8420084F8430084F81B
:101FD000440084F8450084F83D00002010BD000056
:101FE00008B5154A0168154891420ED1816941F43E
:101FF000006181618069002200F400600090114658
:102000001920FFF70FFC192010E0B1F1804F11D11A
:10201000C16941F00101C161C069002200F0010005
:10202000009011461C20FFF7FDFB1C20BDE8084076
:10203000FFF7EABB08BD0000002C01400010024081
:1020400090F83D10012901D001207047022180F84D
:102050003D100168CA6842F00102CA6000680B497D
:10206000884208D0B0F1804F05D00949884202D09B
:102070000849884204D1816801F00701062903D08C
:10208000016841F00101016000207047002C01400F
:10209000000400400008004070B5044690F83C0081
:1020A0000025012817D0012684F83C60022084F81E
:1020B0003D002068826822F0770222F47F4282602D
:1020C0000868502838D00DDC20284FD005DC90B3AC
:1020D000102811D14AE0022070BD302846D0402897
:1020E0000AD13BE060282FD070280DD0B0F5805F7A
:1020F00003D0B0F5005F12D0012584F83D600020C8
:1021000084F83C00284670BDCB68D1E901212068E5
:1021100001F0ADFF2068816841F0770109E0CB68EC
:10212000D1E90121206801F0A2FF2068816841F413
:1021300080418160E1E719E0CA684968206802F0DF
:102140004BF85021206806E0CA684968206802F010
:1021500054F86021206801F094FFCEE7CA6849680E
:10216000206802F039F840212068F4E7226801462F
:102170001046F0E72DE9F0410D46040003D094F835
:102180003D0018B108E00120BDE8F081002084F88E
:102190003C00204600F040F8022084F83D00206812
:1021A000816844F2070291438160211D206801F09B
:1021B00015FF226890689169166A2B68AF6903431E
:1021C00040F20330814341EA0721A868EF690843E0
:1021D0004FF6FC418843E96840EA0720014328693B
:1021E0002F6A000140EA0730084369686D6926F0EC
:1021F000220646EA0515294393602268906154F847
:10220000460B0162012004F81F09E0752076E07694
:102210002077A0750020B7E700B585B000210091B8
:102220000191029103911A4B02681A48C0219A4207
:1022300013D1C26942F00202C261C26902F0020215
:102240000492826942F0040282618069009100F088
:10225000040004906946104815E0104B9A4214D1CE
:10226000C26942F00402C261C26902F0040204922F
:10227000826942F0080282618069009100F00800E2
:10228000049069460648FFF767F905B000BD0000F5
:102290000004004000100240000801400008004017
:1022A000000C014070B590F83E60044690F83F5035
:1022B00090F8423090F84320022021B104290ED03A
:1022C000012E1BD114E0012E18D1012B16D184F858
:1022D0003E0084F8420001220021206820E0012D08
:1022E0000CD1012A0AD184F83F0084F8430014E09D
:1022F000012D03D1012B01D1012A01D0012070BD94
:1023000084F83E0084F83F0084F8420084F84300DB
:1023100001220021206801F09DFE01220421206895
:1023200001F098FE2068016841F001010160002081
:1023300070BD70472DE9F04104460068C668056924
:102340004FF00007A90713D5B10711D5F91E016198
:1023500001202077206880698007204602D0FFF79F
:10236000E8FF04E000F0A2F8204600F034F92777F7
:10237000680716D5700714D521686FF0040008614E
:10238000022020772068806910F4407F204602D028
:10239000FFF7CFFF04E000F089F8204600F01BF9BA
:1023A0002777280715D5300713D521686FF0080067
:1023B0000861042020772068C0698007204602D089
:1023C000FFF7B7FF04E000F071F8204600F003F9D2
:1023D0002777E80616D5F00614D521686FF01000AF
:1023E0000861082020772068C06910F4407F2046EB
:1023F00002D0FFF79EFF04E000F058F8204600F0FE
:10240000EAF82777E80708D0F00706D021686FF0D0
:1024100001000861204600F02DF9280608D5300695
:1024200006D521686FF0800008612046FFF774FD33
:10243000680608D5700606D521686FF0400008616F
:10244000204600F04DF9A8060AD5B00608D5216847
:102450006FF0200008612046BDE8F041FFF75DBD48
:10246000BDE8F08100B585B0002100910191029195
:1024700003910068B0F1804F11D10A48816941F0A1
:10248000040181618069694600F004000490032022
:1024900000900220019003900348FFF75DF805B01B
:1024A00000BD00000010024000080140704770B5F8
:1024B000044690F83C0000260D4601280FD001206C
:1024C00084F83C006AB1042A1DD0082A2FD00C2AB7
:1024D0003FD00126002084F83C00304670BD022029
:1024E00070BD206801F0D6FD2068816941F00801C7
:1024F00081612068816921F004018161206881691E
:102500002A69114311E0206801F0ECFD206881691F
:1025100041F4006181612068816921F480618161F9
:10252000206881692A6941EA02218161D2E7206835
:1025300001F004FE2068C16941F00801C161206812
:10254000C16921F00401C1612068C1692A69114390
:1025500011E0206801F01EFE2068C16941F40061AD
:10256000C1612068C16921F48061C1612068C169CD
:102570002A6941EA0221C161ACE710B5040003D029
:1025800094F83D0010B107E0012010BD002084F850
:102590003C00204600F01EF8022084F83D00211D7A
:1025A000206801F01BFD012084F8460084F83E00FD
:1025B00084F83F0084F8400084F8410084F8420029
:1025C00084F8430084F8440084F8450084F83D0012
:1025D000002010BD7047704710B50446022249B173
:1025E00004290ED0082913D094F84100012816D0F0
:1025F000012010BD94F83E000128F9D184F83E2056
:102600000FE094F83F000128F2D184F83F2008E061
:1026100094F840000128EBD184F8402001E084F8D0
:1026200041200122206801F015FD0F4920688842F1
:1026300003D1426C42F4004242642068884208D0D0
:10264000B0F1804F05D00949884202D0084988423C
:1026500004D1816801F00701062903D0016841F027
:1026600001010160002010BD002C01400004004069
:102670000008004010B5164900680968884226D154
:1026800000F076F9134814490078097888420ED191
:10269000212804D0222805D0312808D105E003F0F4
:1026A00015F804E002F096FD01E003F0E7FB0B48AB
:1026B00000230188491C8AB202804188491C89B2E2
:1026C0004180282A00D30380282900D3438010BDED
:1026D000280F0020B60D0020B70D0020B80D0020F7
:1026E000704770B5040004D094F84100002510B183
:1026F00006E0012070BD84F84050204600F024F828
:10270000242084F841002068C16821F40051C16090
:10271000204601F085FD2068016921F490410161A6
:102720002068416921F02A0141612068C16841F4B3
:102730000051C1606564202084F8410084F84200A3
:102740006563002070BD000030B585B000240094A2
:1027500001940294039400681449884224D11448D7
:10276000816941F480418161816901F48041049172
:10277000816941F00401816180690E4D00F004001F
:1027800004904FF400700090022001900320039009
:1027900069462846FEF7E0FE2815CDE900046946A3
:1027A00028460294FEF7D8FE05B030BD003801403F
:1027B0000010024000080140FEE7000010B500F0E4
:1027C00007FE002108230DA2084601F09DF808230A
:1027D0000FA21021002001F097F8082311A2202158
:1027E000002001F091F8082313A23021002001F00D
:1027F0008BF8BDE8104001F0F5B800002020202043
:102800004B455920544553542020202000000000FF
:102810004B31204B32204B33202020202020202001
:102820000000000020202020202020202020202028
:102830002020202000000000312F352020202020E3
:1028400020202020204B343E0000000010B508213D
:10285000012000F051F890B110231A4619460020CB
:1028600000F098FF01F0BEF86420FEF7B1FD1023E0
:102870001A461946002000F08DFF01F0B3F8082138
:10288000022000F039F890B110231A46194618209A
:1028900000F080FF01F0A6F86420FEF799FD1023F8
:1028A0001A461946182000F075FF01F09BF8082120
:1028B000032000F021F890B110231A461946302069
:1028C00000F068FF01F08EF86420FEF781FD102310
:1028D0001A461946302000F05DFF01F083F8082108
:1028E000042000F009F8002802D0024912200870E4
:1028F00010BD0000B70D0020074A104410F8012C4D
:102900000A4206D0012902D08A4300F8012C012096
:102910007047002070470000C90D002001200449C5
:1029200000220A54401CC0B20528FAD370470000A8
:10293000C90D002010B50C4A40B1D114012807D0B0
:102940000A4A022804D0032808D005E04FF4806129
:102950001046FEF7F1FE20B1002010BD4FF480516B
:10296000F6E7012010BD0000000C01400008014006
:102970002DE9F05F4A4D002035F8101011B1491EC5
:1029800025F81010401CC0B20428F5D34448123872
:102990000178491CC9B2017014297ED34FF0000A96
:1029A000471D80F800A05446461C00F1090900F1BB
:1029B0000D084FF0640B305D38552046FFF7BAFF25
:1029C000305518F804200128414604D022F00102B5
:1029D0000A5540B10EE042F001020A553B5D4BB989
:1029E00042F0020204E03B5D012B03D142F00402FD
:1029F00008F8042019F80420052A4AD2DFE802F07A
:102A0000030B1F363800012843D14FF4FA6025F834
:102A10001400012020E018B135F8140028B138E086
:102A2000C82025F81400022016E018F8042004201D
:102A300042F0200208F8042025F814B00CE0012828
:102A400003D035F8140050B123E018F80420032017
:102A500042F0100208F8042009F8040019E018F800
:102A6000042042F0080208F8042007E030B110E02A
:102A700020B135F8140020B10BE00EE009F804A0F5
:102A800007E018F8041041F0400108F8041025F898
:102A900014B0641CE4B2042C8DD3BDE8F09F000098
:102AA000CE0D002010B500F093FC0021082313A2E6
:102AB000084600F029FF082315A21021002000F08D
:102AC00023FF082317A22021002000F01DFF082368
:102AD00019A23021002000F017FF00F083FF082129
:102AE0000420FFF709FF0028F9D0FFF717FF174967
:102AF00031200870BDE8104001F088B82020202067
:102B0000205BCCE1CABE5D20202020200000000018
:102B10002020C7EBBDABC9E8B1B8D6C3D3DA2020BB
:102B200000000000202020B5B9C1A2B0DAD7B4CC93
:102B3000AC20202000000000202020202020202089
:102B400020202020204B343E00000000B70D002044
:102B5000FEB500262148009601961F4902960160A5
:102B600089158160067301240475042546604FF4BD
:102B700060210561C0E90641FEF73AFA08B1FEF7A7
:102B80006FF802270097CDE9014669461348FEF722
:102B9000ADF908B1FEF764F80324CDE900476946B2
:102BA0000E48FEF7A3F908B1FEF75AF8CDE9005434
:102BB00069460A48FEF79AF908B1FEF751F8052070
:102BC000CDE9000569460548FEF790F9002801D0D7
:102BD000FEF746F8FEBD000000240140C80E0020AC
:102BE0003EB500211148009101910F4A0291026007
:102BF00081600173017501244FF460220461C26198
:102C00004160FEF7F5F908B1FEF72AF80820CDE992
:102C100000040720029069460448FEF767F900287F
:102C200001D0FEF71DF83EBD00280140F80E00203F
:102C30002DE9F04186B000242C48009401940294C0
:102C40000394816941F010018161816901F01001F3
:102C50000491816941F020018161816901F02001C5
:102C60000491816941F004018161816901F00401ED
:102C70000491816941F00801816180691C4F00F075
:102C800008004FF400550490002229463846FEF70C
:102C900058FDDFF860804FF4405600223146404630
:102CA000FEF74FFD0220CDE902400095012569465F
:102CB00001953846FEF750FCB0108DE831006946AA
:102CC0004046FEF749FC0320CDE90240CDE900650E
:102CD00069464046FEF740FC70108DE831006946B9
:102CE0000548FEF739FC06B0BDE8F081001002404F
:102CF00000100140000C01400008014010B586B0F2
:102D000000241748009401940294039404941349F6
:102D10000594C0E900144FF6FF71C0E90241046157
:102D200044618461FFF72EF908B1FDF799FF4FF474
:102D30008050009069460A48FFF7AEF908B1FDF7E8
:102D40008FFF049404A906480594FFF7E7F80028CC
:102D500001D0FDF785FF06B010BD0000002C01403A
:102D6000280F002010B58EB0002407940894099411
:102D70000A940B941C2168460C94FDF7FEF9214837
:102D80004FF0804101604721C0E901146321C0E98F
:102D900003148461FFF7F6F808B1FDF761FF4FF403
:102DA0008050079007A91748FFF776F908B1FDF79B
:102DB00057FF1448FFF7E1FB08B1FDF751FF0B94F3
:102DC0000BA910480C94FFF7A9F808B1FDF748FFCC
:102DD0006020CDE900040294002269460948049469
:102DE000FFF765FB08B1FDF73BFF04226946054884
:102DF000FFF75DFB08B1FDF733FF0248FFF732FB39
:102E00000EB010BD700F002010B58CB024216846A4
:102E1000FDF7B3F900241648099414490A94C0E94F
:102E200000144FF6FF71C0E9024104618461032080
:102E3000CDE900040120CDE902040494CDE9054068
:102E4000079469460A480894FFF794F908B1FDF71A
:102E500007FF099409A906480A94FFF75FF80028BC
:102E600001D0FDF7FDFE0CB010BD000000040040D5
:102E7000B80F002010B58CB024216846FDF77DF90D
:102E800000241548099413490A94C0E900144FF628
:102E9000FF71C0E90241046184610120CDE90004B1
:102EA000CDE902040494CDE90540079469460A4837
:102EB0000894FFF75FF908B1FDF7D2FE099409A95C
:102EC00005480A94FFF72AF8002801D0FDF7C8FE4C
:102ED0000CB010BD00080040001000200C4810B5D8
:102EE0000A4901604FF416514160002181600C22B3
:102EF000C160C0E904128161C161FFF7F2FB0028E3
:102F000003D0BDE81040FDF7ABBE10BD0038014056
:102F100048100020FEE700000D490C48B1F90020E0
:102F200050F82200B0F9242002EB820303EBC20226
:102F3000282303EBC202104400228287B1F900006B
:102F4000002801DD401E088070470000480E002068
:102F50007C00002070B59CB000F03AFA30492F4850
:102F60000024B1F9001050F8215043E0288C682269
:102F7000204400B200EB800101EBC00005EBC00172
:102F800002A82831FDF7E0F802A82601009025A349
:102F900008223146002000F0E7FBBDF9300001288F
:102FA00002D002280AD023E0BDF9320000901EA30F
:102FB00008223146502000F0D7FB19E00D98FDF7AC
:102FC00066FBCDE90001082231465020129B00F03B
:102FD000CBFBBDF8440058B114A308223146482069
:102FE00000F0C2FB12A308223146782000F0BCFB9F
:102FF000641CE4B2B5F92200A042B7DCA88C298C8D
:103000001023401A000101B28022002000F0C2FB10
:103010001CB0BDE8704000F0E5BC0000480E002088
:103020007C00002025730000256400003C000000A7
:103030003E0000001B4910B51948B1F9001050F8C6
:103040002100B0F9241001EB810202EBC10200EB78
:10305000C204B4F8642028345AB1A16BE06AFDF7C9
:10306000A5F8E062216BFDF763FB01D2206BE06203
:1030700010BD491C09B28184B0F92620914203DBBE
:1030800000218184018410BDB0F92020B0F92230E4
:10309000891A09B28B42F6DC521C028410BD000072
:1030A000480E00207C00002070B5194E174DB6F96F
:1030B000000055F82000B0F9241001EB810202EB6A
:1030C000C101282202EBC1014418206A00B18047E7
:1030D000B4F9280001280BD0022810D0606A00281B
:1030E00005D03188491C09B2318045F8210070BDF6
:1030F000608D10B10020608570BD0120FBE7A08FBE
:1031000010B10020A08770BD0120FBE7480E002011
:103110007C00002070470000064810B5021F0649D9
:10312000B2F9002041F8220000F052F9BDE8104049
:1031300000F058BC80000020480E002010B5082187
:103140000120FFF7D9FB08B100F01EF8082102208A
:10315000FFF7D2FB08B1FFF76DFF08210320FFF74F
:10316000CBFB08B1FFF7A0FF08210420FFF7C4FB49
:1031700020B1FFF7D1FE034931200870BDE81040AF
:10318000FFF7E8BEB70D00201A4910B51848B1F98D
:10319000001050F82100B0F9241001EB810202EB7D
:1031A000C10200EBC204B4F8642028345AB1A16B08
:1031B000E06AFDF74DF8E062616BFDF7AFFA01D20E
:1031C000606BE06210BD491E0AB28284002A05DAF3
:1031D000C18C4A1E8284428C891A06E0B0F9201004
:1031E000521A12B2002AEDDA491E018410BD000005
:1031F000480E00207C00002010B500F0E9F8002106
:10320000082327A2084600F07FFB082329A21021EB
:10321000002000F079FB08232BA22021002000F0E1
:1032200073FB08232DA23021002000F06DFB00F07D
:10323000D9FB08210420FFF75FFB0028F9D0FFF736
:103240006DFB00F0C5F80021082329A2084600F014
:103250005BFB08232BA21021002000F055FB082364
:103260002DA22021002000F04FFB00F0BBFB2F4CD3
:1032700008210120FFF740FB08B1212006E00821CA
:103280000220FFF739FB0028F2D022202070FFF740
:1032900045FB00F0A7FCBDE8104000F087BC000033
:1032A00020202020205BCCE1CABE5D2020202020F1
:1032B000000000002020C7EBBDABC9E8B1B8D6C301
:1032C000D3DA2020000000002020B5E7BBFABFD8E9
:1032D000D6C6D7B4CCAC202000000000202020208F
:1032E0002020202020202020204B343E0000000001
:1032F00020202020B5E7BBFABFD8D6C6202020204A
:1033000000000000204B31A3BAB6A8CBD9BFD8D655
:10331000C620202000000000204B32A3BAB6A8CE61
:10332000BBD6C3BFD8D6C62000000000B70D002012
:103330002DE9F04104001148114E4FF400554FF4AF
:1033400080574FF001020CD429460546FEF7F9F9E3
:10335000002239462846FEF7F4F930684463BDE898
:10336000F08139460746FEF7ECF900222946384637
:10337000FEF7E7F9316860424863F0E7000C01406E
:10338000700F002030B585B0002504460495FEF787
:10339000CFF80120CDE9024004A900956846FEF768
:1033A00029F8FEF77BF805B030BD70B50C46054630
:1033B000FEF7BEF82246002329460120FEF778F8E2
:1033C000BDE87040FEF76AB800887047FEE700006D
:1033D00010B50021074C0A46002004EBC1131A5413
:1033E000401CC0B28028FAD3491CC9B20829F3D3C3
:1033F00010BD000090100020F0B50B4424E00446FE
:1034000085181DE07F2C19D8002917DB3F2915DC12
:10341000CE1701EB56764FEAE60C0D4F26F0070665
:1034200007EBCC172744A1EB060E97F800C0012646
:1034300006FA0EF62CEA060C87F800C0641C24B2CB
:10344000A542DFDC491C09B28B42D8DCF0BD00008C
:10345000901000202DE9F04F1E464FF00009044661
:103460000D461746C846B1420ED1BC4208DD27467C
:10347000144605E02946204600F062F8641C24B298
:10348000BC42F7DDBDE8F08FBC420DD1B54208DD8E
:103490001D460E4605E02946204600F051F86D1CF9
:1034A0002DB2B542F7DDEDE703DD274614461D4694
:1034B0000E46B54205DD684205B2704206B24FF0D5
:1034C0000109701B391B884207DD20462C46054642
:1034D0003846374606464FF00108701B4200391B3C
:1034E0000FFA82FB421A52000FFA82FAC1EB400037
:1034F00019E0604201B203E0684201B203E02146F4
:10350000284601E02946204600F01AF8BC42B9DA04
:10351000641C24B2002E02DA06EB0B0003E06D1CE3
:103520002DB206EB0A0006B2B9F1000F03D0B8F1D4
:10353000000FE1D0DDE7B8F1000FE3D0DFE70000D6
:1035400010B57F2813D8002911DB3F290FDCCA17DB
:1035500001EB5272D410064B22F0070203EBC413A6
:1035600018448A1A0378012191400B43037010BD5F
:10357000901000202DE9F0430446CD1807988846A6
:10358000A618274668BB681E0FFA80F909E0414675
:103590003846FFF7D5FF49463846FFF7D1FF7F1C75
:1035A0003FB2BE42F3DC761E474636B209E03946EA
:1035B0002046FFF7C5FF30463946FFF7C1FF7F1CA5
:1035C0003FB2BD42F3DCBDE8F083444605E021464E
:1035D0003846FFF7B5FF641C24B2A542F7DC7F1C18
:1035E0003FB2BE42F1DCEEE770B586B0002000903D
:1035F0000190029001464FF47A7203900020401C23
:103600009042FCD3491C9142F8D31248816941F0A1
:10361000080181618069112400F0080004904FF4D2
:103620008070CDE900040C4E0225694603953046B2
:10363000FDF792FF2802CDE9000469460395304664
:10364000FDF78AFF012000F0E1F9012000F0E6F922
:1036500006B070BD00100240000C014070B500249F
:103660000646802525FA04F0304000D0012000F005
:10367000D5F9012000F0CAF9002000F0C7F9641C58
:10368000E4B2082CEED3012000F0C0F9BDE8704090
:10369000002000F0BBB910B5012000F0BFF90120F7
:1036A00000F0B4F9002000F0B9F9BDE810400020A6
:1036B00000F0ACB910B5002000F0B0F9012000F026
:1036C000A5F9BDE81040012000F0A8B910B5FFF73A
:1036D0008BFFAE2000F0AAF9D52000F0A7F98020DA
:1036E00000F0A4F9A82000F0A1F93F2000F09EF915
:1036F000D32000F09BF9002000F098F9402000F062
:1037000095F9A12000F092F9C82000F08FF9DA2095
:1037100000F08CF9122000F089F9812000F086F980
:10372000CF2000F083F9D92000F080F9F12000F0DB
:103730007DF9DB2000F07AF9302000F077F9A42041
:1037400000F074F9A62000F071F98D2000F06EF9F8
:10375000142000F06BF9AF2000F068F9FFF738FE95
:10376000BDE8104000F03EB90FB470B5C0B01446CB
:103770000D46064648AA6846479900F0AFFD234625
:103780006A462946304600F0BFF840B070BC5DF88C
:1037900014FB0000F0B50B4423E0044685181CE040
:1037A0007F2C18D8002916DB3F2914DCCE1701EB3B
:1037B000567C4FEAEC070C4E2CF0070C06EBC716B4
:1037C0002644A1EB0C0E37784FF0010C0CFA0EFCDE
:1037D00087EA0C073770641C24B2A542E0DC491C60
:1037E00009B28B42D9DCF0BD9010002010B50C4618
:1037F00040F0B00000F01AF9102040EA141000F078
:1038000015F904F00F00BDE8104000F00FB90000FA
:1038100008B5082B0DD0062B0AD10A4B02EB420249
:1038200003EB4202C03A00920823062200F00EF891
:1038300008BD054B03EB0212A2F5007210230092A3
:103840000822F3E734680008446200082DE9F04FCD
:103850001F4616460D4682460024FFF7CDFD7F1E0B
:10386000F81707EB50700121DFF898B001EBE00783
:1038700043E000203DE000BF0AEB00037F2B36D879
:10388000E91705EB5171CA1021F00701691A002DE3
:1038900003DA521E083112B209B202EB0409B9F17F
:1038A000070F0ED8099A04FB06F802440BEBC91E59
:1038B00018F802201EF803C08A404CEA020C0EF8E9
:1038C00003C009F10102072A11D80BEBC91202EB60
:1038D0000308099A04FB06FC024498F880301CF89F
:1038E0000220C1F10801CA40134388F88030401C0F
:1038F000C0B2B042C0D3641CE4B2A742B9DCBDE898
:10390000F08F0000901000202DE9FF4F002583B0BC
:103910009B4690462C46AA46DFF8C09056E010061B
:103920008DF8042005F101050DD40398ADB22044B3
:103930008DF805A000B25B460499FFF769FF04EB20
:103940000B0084B242E0A8B218F80010002941D060
:10395000401C8DF8051085B28DF806A0002606E003
:10396000384601A9FCF714FC68B1761CB6B2C6EB68
:10397000C60000EB800101EB0900074618A1FCF727
:1039800007FC0028ECD1BBF1080F03D0BBF1060FF8
:103990001CD111E0C6EBC60000EB800101EB090071
:1039A000C01C009003981023204400B21A460499CA
:1039B000FFF74CFF103408E003980623204400B2C0
:1039C0003F220499FFF724FFA41DA4B218F8052094
:1039D000002AA4D107B0BDE8F08F00006E6A00088D
:1039E0000000000070B5084D002400212046FFF7BC
:1039F000FDFE05EBC410802100F029F8641CE4B240
:103A0000082CF2D370BD00009010002002464FF445
:103A100080710148FDF795BE000C014002464FF44D
:103A200000710148FDF78DBE000C014010B5044641
:103A3000FFF731FE7820FFF711FE0020FFF70EFEA2
:103A40002046FFF70BFEBDE81040FFF733BE70B510
:103A50000D460646FFF71FFE7820FFF7FFFD4020CA
:103A6000FFF7FCFD002404E0305DFFF7F7FD641C68
:103A7000E4B2AC42F8D3BDE87040FFF71BBE0000D3
:103A80002DE9F0410E4604007ED0E0682061D4E9C3
:103A90000001FCF7DDFB00250146E060012E13D09C
:103AA000206A10F0FF4F57D0A26912F0FF4F06D0E6
:103AB00021F000401146FCF731FE4DD2E16860690B
:103AC000FCF774FB606148E0344A21F0004090420A
:103AD0003ADB226A12F0FF4F0DD0A26912F0FF4FBD
:103AE00004D01146FCF71AFE05D2E1686069FCF7C4
:103AF0005DFB606100E06561D4E903713846FCF765
:103B0000A7FB616AFCF7AAFB06466169206AFCF71D
:103B1000A5FB80463946E069FCF7A0FB4146FCF76F
:103B200045FB3146FCF742FB1D4A1E49A06090420E
:103B300003DB00BFFCF73AFB04E01B4A904203D9C9
:103B4000FCF786FBA06000E0A560A16AA068FCF716
:103B5000EFFD1AD2A06A1EE06561D4E90361304628
:103B6000FCF776FB616AFCF779FB05466169206A20
:103B7000FCF774FB07463146E069FCF76FFB3946FA
:103B8000FCF714FB2946D5E706E0E16AA068FCF7DC
:103B9000C5FD01D2E06AA060BDE8F0810000A04050
:103BA000CDCCCC3D0000C040CDCCCCBD0B220249D9
:103BB000024801F00FB8000090140020080E002009
:103BC0000B220249024801F047BE00009014002079
:103BD000080E0020002803D00021C160016141616E
:103BE0007047000001220249024800F0F3BF0000C4
:103BF00090140020D80D002001220249024801F053
:103C00002BBE000090140020D80D00200E480F4954
:103C100050F82A2FCA6142680A6282684A623031CB
:103C20004269CA6182690A62C2694A620849826A53
:103C30004A65C26AC1F8BC20026BC1F82421406BFE
:103C4000C1F88C017047000090140020140000207F
:103C5000800000201B491C488A8B20F82A2FCA8B21
:103C600042800A8C82804A8CC2808A8C0281C98CF4
:103C70004181144930318A8B8282CA8BC2820A8C7C
:103C800002834A8C42838A8C8283C98CC1830F4908
:103C900031F8542F02854A884285B1F86820828520
:103CA000B1F86A20C285B1F8D0200286B1F8D220DE
:103CB0004286B1F838218286B1F83A11C186FDF703
:103CC0008FB8000014000020901400208000002015
:103CD000024900200880FFF72BBB0000B40D002034
:103CE00010B5FFF775FB002108230DA20846FFF76A
:103CF0000BFE08230FA210210020FFF705FE08236A
:103D00000CA220210020FFF7FFFD08230EA2302186
:103D10000020FFF7F9FDBDE81040FFF763BE00008B
:103D20002020204D4F544F522054455354202020E2
:103D30000000000020202020202020202020202003
:103D40002020202000000000332F352020202020BC
:103D500020202020204B343E0000000038B50821F0
:103D60000120FEF7C9FD164C10B12088401D2080AF
:103D700008210220FEF7C0FD10B12088401F2080DE
:103D800008210320FEF7B8FD08B10020208008219B
:103D90000420FEF7B1FD10B10A4914200870B4F9EF
:103DA0000000FFF7C5FAB4F90000009006A308224E
:103DB00010210020FFF7D8FCBDE83840FFF712BE05
:103DC000B40D0020B70D002050574D3A252B30344C
:103DD000640000007047000010B5FFF7F9FA0021F9
:103DE00008230DA20846FFF78FFD08230FA210211C
:103DF0000020FFF789FD08230CA220210020FFF7F7
:103E000083FD08230EA230210020FFF77DFDBDE8D1
:103E10001040FFF7E7BD0000202020205250202056
:103E20005445535420202020000000002020202052
:103E30002020202020202020202020200000000002
:103E4000322F35202020202020202020204B343EDF
:103E5000000000001FB508210420FEF74DFD10B141
:103E600010491320087002A800F02EF8BDF80A10BF
:103E7000BDF80800CDE900010BA3082210210020A5
:103E8000FFF772FCBDF80E10BDF80C00CDE9000183
:103E900009A3082220210020FFF766FCFFF7A2FDFE
:103EA0001FBD0000B70D0020313A253034642020BA
:103EB000323A253034640000333A2530346420200F
:103EC000343A2530346400002DE9FF4106460020D5
:103ED0000090019002900446471E6D4603901048E2
:103EE000FDF7FCF939460E48FDF75AF938B90C4888
:103EF000FDF77AF855F82410084445F82400641CAE
:103F0000042CECDB0648FDF749FA002135F82100C6
:103F100026F81100491C0429F8DBBDE8FF810000E8
:103F2000C80E002010B50648FDF7D8F93221044824
:103F3000FDF736F90248FDF757F880B210BD0000D2
:103F4000F80E00207047FDF707BC30B593B028216C
:103F50006846FCF712F914210AA8FCF70EF90025AF
:103F600001200F9510951195010412958DE82300FD
:103F700004904FF4E010CDE908100224079468463D
:103F8000FDF726FE08B172B6FEE70AA90F2081E808
:103F900031004FF48060CDE90D0502210AA8FDF73C
:103FA0003BFD08B172B6FEE74FF4004011900F944C
:103FB0000FA8FDF7BBFC002801D072B6FEE713B0D6
:103FC00030BD70470148FEF7B5B90000280F00204A
:103FD0000148FEF7AFB90000700F0020F0B502688D
:103FE000194B1A4C1A4D4FF08047984205D0B842F1
:103FF00003D0A04201D0A84203D122F070064A6843
:104000003243984205D0B84203D0A04201D0A84222
:1040100003D122F44074CA6822434C6922F0800222
:10402000224302608A68C2620A688262984201D1B1
:1040300009690163012141610169C90703D001696F
:1040400021F001010161F0BD002C0140000400409D
:104050000008004010B501F01F030121046A9940D7
:104060008C430462016A9A401143016210BD10B58D
:10407000846842EA032224F47F440A432243826094
:1040800010BD826822F070020A4342F0070181608D
:104090007047000030B5036A026A22F00102026232
:1040A0004268846924F073050C682C4323F00205F0
:1040B0008B682B430A4DA8420BD123F00805CB682F
:1040C00022F440722B434D6923F0040315438A699F
:1040D0002A434260846149684163036230BD000045
:1040E000002C014030B5026A036A23F0100303621A
:1040F000436884690D6824F4E64444EA05248D6825
:1041000022F0200242EA05120B4DA8420ED1CD68E2
:1041100022F0800242EA05124D6923F4406343EA2B
:1041200085038D6922F0400243EA85034360846180
:1041300049688163026230BD002C014030B5036ADA
:10414000026A22F4807202624268C46923F4007336
:1041500024F073050C682C438D6843EA05230C4D4D
:10416000A8420ED1CD6823F4006343EA05234D69CC
:1041700022F4405242EA05128D6923F4806342EA38
:1041800005124260C4614968C163036230BD00002A
:10419000002C014030B5046A026A22F480520262A7
:1041A0004268C3690D6823F4E64343EA05238D683A
:1041B00024F4005444EA0534064DA84204D14D6964
:1041C00022F4804242EA85124260C3614968016478
:1041D000046230BD002C014010B5036A046A24F06B
:1041E00001040462846924F0F00444EA021423F018
:1041F0000A020A438461026210BD10B5036A046AB0
:1042000024F010040462846923F0A00324F47044B1
:1042100044EA023243EA01118261016210BD0000EA
:1042200070B5044600680169E26821F44051114309
:1042300001612169A0680843616908432168CA686F
:1042400041F20C639A430243CA6020684169A26943
:1042500021F44071114341611E492068884202D116
:10426000FDF780FC01E0FDF76DFC00EBC00101EB08
:104270000012606864218000B2FBF0F3B3FBF1F33D
:104280006FF018067343B2FBF0F5B2FBF0F605EBE6
:104290008305322303EB0515B5FBF1F5B6FBF1F60B
:1042A00005F0F00505EB0615B2FBF0F6B2FBF0F0F9
:1042B000B0FBF1F06FF01802504306EB800003EB07
:1042C0000010B0FBF1F0216800F00F002844886076
:1042D00070BD000000380140FEE7000037B514460D
:1042E0000846064B6A46214600F0ECF8044669464B
:1042F000002000F06AFC20463EBD0000CB4B0008C9
:104300000907090E002804DB00F1E02080F8001402
:10431000704700F00F0000F1E02080F8141D704796
:1043200002E008C8121F08C1002AFAD1704770477E
:10433000002001E001C1121F002AFBD170470000DC
:104340002DE9FF5F82B00021DDE90430020DDDF8C8
:1043500040B0034318D044F61050A2F2FF3242435B
:104360001514119801281FD0A5EB0B00401C5FEA23
:10437000000A4FF000064E4FDFF83891B046504625
:1043800015D5CAF1000413E0119801244AA30128AD
:1043900001D16FEA0B010298119AC0E90031C0E91E
:1043A000024206B0BDE8F09FCBF10000DFE7044613
:1043B0000021404A491842EB0450CDE9001012E0B8
:1043C000E00707D032463B4640464946FCF71FF817
:1043D0008046894632463B4610461946FCF717F898
:1043E00006460F466410002CEAD1DDE90401DDE940
:1043F0000023BAF1000F06DAFCF709F842464B46F3
:10440000FCF705F805E0FCF774F842464B46FCF76C
:1044100070F804460E460022284BFCF74BF903D8EF
:104420004FF0FF30014607E00022254B2046314681
:10443000FBF746FFFCF782FA102409E0002C0ADBA8
:104440000A220023FCF794F9039B30321A55641EAC
:1044500050EA0102F2D1641C039AC4F1110314441E
:10446000119A012A03D0012208430DD10AE0084322
:1044700004D000204FF0110B119072E7A3EB0B0555
:104480006D1E0DE05B4504DD4FF0000205F10105F6
:1044900004E003DA4FF00002A5F10105002AECD098
:1044A00002981199C0E90231C0E9004579E700009E
:1044B000000014400000F03F300000000000F04316
:1044C0000000E03F2DE9FF4F95B09A46884606462A
:1044D0000025EEE1252877D100242746F94A01215D
:1044E000039400E0044316F8013F203B01FA03F077
:1044F0001042F7D130782A2811D06FF02F0330788E
:10450000A0F13002092A16D8039A44F0020402EB03
:10451000820203EB42021044761C0390EFE758F846
:10452000042B0392002A03DA504244F4005403900F
:1045300044F00204761C30782E2816D116F8010FAC
:1045400044F004042A280DD06FF02F023078A0F137
:104550003003092B09D807EB870302EB4303C71885
:10456000761CF3E758F8047B761C30786C280FD063
:1045700006DC4C2817D068280DD06A2814D104E036
:10458000742810D07A280FD10DE044F400140AE00A
:1045900044F4801401E044F440147278824202D161
:1045A00004F58014761C761C307866280BD013DC5A
:1045B000582877D009DC002875D04528F6D0462841
:1045C000F4D047281AD193E118E0632835D0642845
:1045D00079D0652812D18BE1702873D008DC672868
:1045E000F1D069286FD06E280DD06F2806D1ACE0CD
:1045F00073282CD0752874D0782853D05246179938
:1046000090476D1C54E1C4F30250022809D00328DE
:104610000DD0D8F8001004280DD00D6008F1040862
:1046200046E1D8F80010EA17C1E90052F6E7D8F8D9
:1046300000100D80F2E70D70F0E718F8041B8DF8FC
:10464000001000208DF80100EB46012003E058F82F
:1046500004BB4FF0FF3061074FF0000102D40DE0C2
:1046600009F101018946B9420FDA8145F8DB1BF8EF
:1046700009100029F4D108E009F1010189468142BD
:10468000FADB1BF809100029F6D103985346A0EB7A
:10469000090721463846179A00F080FA284400EBB3
:1046A000090507E044E008E10DE01BF8010B524664
:1046B00017999047B9F10109F7D253462146384678
:1046C000179AF2E039E00A21C4F302524FF0000BCE
:1046D0000091022A06D058F8040BC117032A09D00A
:1046E0000AE023E008F1070020F00702F2E80201E7
:1046F000904605E000B2C117042A01D140B2C117AB
:10470000002906DA0A460021404261EB02012D220F
:1047100002E0220504D52B228DF80420012203E0BB
:10472000E20701D02022F7E7914657E00A2100E096
:1047300010214FF0000B00910BE010214FF0000B07
:1047400044F004040827009103E008204FF0000B18
:104750000090C4F30252022A05D058F8040B00213D
:10476000032A08D008E008F1070020F00702F2E869
:104770000201904603E080B2042A00D1C0B24FF09B
:10478000000922072AD53278702A07D0DDF800C048
:104790008CF0100C5CEA0B0C05D00EE040228DF87A
:1047A0000420012208E050EA010306D030238DF8EE
:1047B00004308DF8052002229146009B83F0080307
:1047C00053EA0B030AD150EA010201D1620705D571
:1047D00030228DF804204FF001097F1E3278582ACC
:1047E00004D039A20C920CAA02920BE03BA2F9E78A
:1047F0005B46009AFBF7BCFF0C9B9B5C029A521E27
:104800000292137050EA0102F2D1029804A9081A28
:1048100000F1200B600702D524F4803400E001276A
:104820005F4502DDA7EB0B0000E0002000EB0B0171
:10483000009003984944401A0390E00306D453467D
:104840002146179A039800F0A9F90544002706E0CD
:1048500001A85246C05D179990476D1C7F1C4F45BB
:10486000F6DBE0030CD553462146179A039800F077
:1048700095F9054404E030205246179990476D1C85
:104880000099481E00900029F5DC08E00298029982
:1048900052460078491C0291179990476D1CBBF154
:1048A0000001ABF1010BF1DC5BE100F065F90544BF
:1048B000761C307800287FF40DAE19B02846BDE88C
:1048C000F08F00000928010030313233343536379B
:1048D000383961626364656600000000303132334C
:1048E00034353637383941424344454600000000EC
:1048F000600700D4062708F1070020F00700F0E861
:104900000223804603F0004C5FEA0C0001D097A020
:1049100009E0200501D596A005E0E00701D095A0AB
:1049200001E0AFF24C001390307823F0004365288B
:104930000CD006DC452809D046281DD047287FD159
:104940003BE0662818D067287AD136E00021112F85
:1049500001DB112000E0781CCDE9000104A90CA8BE
:10496000FFF7EEFCDDE90D010C9A4FF0000B07F1AB
:104970000109109200914EE04FF000400097CDE900
:10498000011004A90CA8FFF7DBFCDDE90D020C9B6C
:104990000F994FF0000B91461093009211B9791CBA
:1049A00000EB0109B7EB090003D4C0F1FF3B07F1AD
:1049B0000109A9EB0700019042E0012F00DA01276D
:1049C0000021112F01DD112000E03846CDE9000162
:1049D00004A90CA8FFF7B4FCDDE90D010C9A0091C5
:1049E0004FF0000BB946109221070FD4009A4A45A8
:1049F00003DA914601E0A9F10109B9F1010F05DDE2
:104A0000109AA9F10101515C3029F4D0B84202DAC0
:104A100010F1040F03DA0121CDE9011010E00028A4
:104A200003DC8344A9EB000102E0411C494500DDA1
:104A30008946A0EB0B00401C01904FF00040029013
:104A4000200705D40198484502DB4FF0FF30019064
:104A500000208DF84B0002980DF14B07B0F1004F8C
:104A600025D002200C902B200D90029800280CDA03
:104A7000404202902D200D9007E00A210298FBF79A
:104A800061FE3031029007F8011D0C99481E0C9010
:104A90000029F2DC02980028EFD1791E0D980870E9
:104AA000307800F0200040F0450007F8020D11A812
:104AB000C01BC01D02901398007800B1012000EBCC
:104AC0000901019801EBE071029801440398401A32
:104AD000401E0390E00306D453462146179A0398DC
:104AE00000F05CF805441398007818B15246179905
:104AF00090476D1CE00323D553462146179A03982F
:104B000000F04CF805441BE0BBF1000F07DB0098F8
:104B1000584504DD1098179910F80B0001E017991B
:104B200030205246904701980BF1010B401E05F1D1
:104B30000105019004D12E205246179990476D1C13
:104B4000B9F10001A9F10109DEDC05E017F8010B5C
:104B50005246179990476D1C0299481E02900029F1
:104B6000F4DC53462146179A03989EE62D00000078
:104B70002B000000200000002DE9F0410446002534
:104B80001E461746880404D405E039462020B04765
:104B90006D1C641EF9D52846BDE8F0812DE9F04171
:104BA000044600251E469046C80301D5302700E084
:104BB0002027880404D505E041463846B0476D1CDF
:104BC000641EF9D52846BDE8F0810A68531C0B60C5
:104BD0001070704701EB42010A68C2614A680262C4
:104BE0008968416270470000FCF7BEFDFFF7ADF930
:104BF000FEF71EF8FDF7ACFFFEF7B4F8FEF704F978
:104C0000FEF738F9FEF76AF9FEF778F8FDF7E8FFE6
:104C10005348FCF7FFF85348FCF7FCF8FEF756FD45
:104C200000F0FAFA5048FDF70BFA00F0BFFD00F073
:104C300075FD08210420FDF75FFE0028F9D0FDF77F
:104C40006DFE4A4C0120607061782078814233D13A
:104C5000152825D010DC12281CD006DC012816D01F
:104C60001128F1D1FDF7F2FDEEE7132815D0142835
:104C7000EAD1FBF7C1FFE7E7212814D0222815D09D
:104C8000312816D03228DFD1FEF758FADCE701F0E0
:104C900063FAD9E7FFF7DEF8D6E7FFF75FF8D3E767
:104CA000FBF74AFFD0E700F00FFBCDE700F094F8E8
:104CB000CAE700F027FEC7E7132804D0312805D043
:104CC000322808D105E0FFF703F804E000F0D8FD32
:104CD00001E0FEF71FFA60782070FDF71FFE607894
:104CE000202830D012DC132827D008DC01281ED061
:104CF00011281FD01228A7D1FFF76EF8A4E71428B7
:104D00001ED01528A0D1FBF7D9FE9DE7302820D072
:104D100006DC21281AD0222896D100F029F893E742
:104D2000312819D032288FD1FEF7F6F98CE701F03F
:104D3000CBF989E7FDF742FD86E7FEF7D1FF83E770
:104D4000FBF71AFF80E7FEF757FA7DE700F074FAE9
:104D50007AE7FDF7A7FE77E700F0A4FD74E700000F
:104D6000C80E0020F80E0020280F0020B60D0020ED
:104D700010B5FEF72DFB002108230DA20846FEF713
:104D8000C3FD08230FA210210020FEF7BDFD08235C
:104D90000CA220210020FEF7B7FD082309A2302134
:104DA0000020FEF7B1FDBDE81040FEF71BBE00007D
:104DB000202020B6A8CEBBD6C3BFD8D6C620202080
:104DC0002000000020202020202020202020202043
:104DD00020202020000000002DE9FF5F0821012095
:104DE000FDF78AFDC54FC64DC64C002648B1267159
:104DF00039462868FBF7DAF9C3492860884200DDA4
:104E0000296008210220FDF777FD48B12671394657
:104E10002868FBF71DFABD492860884200D929603F
:104E200008210320FDF768FD08B126712E600821D6
:104E30000420FDF761FD40B1207800287ED00020DD
:104E400020706670A670E670267120210420FDF7A0
:104E500053FD002841D0FEF7B3FEFEF7B9FA00215A
:104E60000823ABA20846FEF74FFD0823ADA2102190
:104E70000020FEF749FD0823AFA220210020FEF705
:104E800043FD0823B1A230210020FEF73DFDFEF7CF
:104E9000A9FD08210420FDF72FFD0028F9D0FDF71A
:104EA0003DFDFEF795FA00210823ADA20846FEF766
:104EB0002BFD0823A0A210210020FEF725FD0823CA
:104EC0009DA220210020FEF71FFD08239AA2302179
:104ED0000020FEF719FDFEF785FD207800287DD023
:104EE00002A8FEF7F1FFBDF80800FBF796FBDFF81C
:104EF000848200224346FBF7FCFA9F4F00223B4688
:104F0000FBF785FAFBF7EEFB8346BDF80A00FBF7DB
:104F100084FB00224346FBF7ECFA00223B46FBF7FA
:104F200076FAFBF7DFFB8246BDF80C00FBF775FB5A
:104F300000224346FBF7DDFA002200E0A0E03B46FA
:104F4000FBF765FAFBF7CEFB8146BDF80E00FBF7D9
:104F500064FB00224346FBF7CCFA0022874BFBF7A9
:104F600056FA0022864BFBF74CFAFBF7BBFB804658
:104F70005846E969FBF76CF920F0004181480127A8
:104F8000814200DA67705046296AFBF761F920F028
:104F900000417C48814200DAA7704846696AFBF705
:104FA00057F920F000417748814200DAE770404627
:104FB0002968FBF74DF9744920F00040884200DA77
:104FC0002771607808B1C5F81CB0A07808B1C5F8A1
:104FD00020A0E07808B1C5F8249000E003E0207933
:104FE00008B1C5F80080E869FBF751FBCDE9000185
:104FF00066A3082210210020FEF7B6FB286AFBF703
:1050000046FBCDE9000164A3082220210020FEF721
:10501000ABFB686AFBF73BFBCDE9000161A308220B
:1050200030210020FEF7A0FB2868FBF703FB00B24D
:1050300000905FA3082210214020FEF795FB6868CE
:10504000FBF7F8FA00B200905CA308222021402070
:10505000FEF78AFBA868FBF7EDFA00B200905AA3AE
:10506000082230214020FEF77FFB2078C8B360780B
:1050700040B10F23202211211820FEF78BFB08E0FE
:105080000120DDE60F232022112118200096FEF7D3
:1050900071FAA07830B10F23202221211820FEF7C9
:1050A00079FB06E00F232022212118200096FEF72D
:1050B00061FAE07830B10F23202231211820FEF769
:1050C00069FB06E00F232022312118200096FEF70D
:1050D00051FA207930B10F23202211216020FEF7F0
:1050E00059FB06E00F232022112160200096FEF7D5
:1050F00041FAFEF777FCBDE8FF9F00000000CC43BB
:10510000080E00207400002000004C4400004CC435
:1051100020202020205BCCE1CABE5D202020202062
:1051200000000000202020D2D1B1A3B4E6B2CECA44
:10513000FD20202000000000202020202020202012
:1051400020202020202020200000000020202020DF
:105150002020202020202020204B343E0000000072
:10516000202020B6A8CEBBD6C3BFD8D6C6202020CC
:105170000000000000FEAF400000084000807940C1
:1051800000806940CDCC4C3D0000A0404B703A25DA
:1051900030342E32660000004B693A2530342E320E
:1051A000660000004B643A2530342E326600000061
:1051B0005461723A252B3034640000004163743A24
:1051C000252B3034640000004F75743A252B3034A1
:1051D000640000000E4810B5C188491C89B2C18026
:1051E000282913D30021C180FBF724FDFBF707FA20
:1051F000084C012160602046FEF742FCA068FBF7E6
:1052000019FABDE8104000B2FEF792B810BD0000D8
:1052100074000020080E002010B500210448FDF79E
:10522000DBF9BDE810403C210248FDF73BB8000027
:10523000700F0020B80F002010B5FEF7C9F800214C
:1052400008230DA20846FEF75FFB08230FA21021DA
:105250000020FEF759FB082311A220210020FEF7B1
:1052600053FB082313A230210020FEF74DFBBDE8BD
:105270001040FEF7B7BB0000205350454544204383
:105280004F4E54524F4C20200000000020204B3144
:10529000202B323020202020202020200000000061
:1052A00020204B32202D3230202020202020202092
:1052B0000000000020204B33202020302020202020
:1052C00020202020000000002DE9FF5F08210120A0
:1052D000FDF712FBC54FC64DC64C002648B12671DE
:1052E00039462868FAF762FFC3492860884200DD22
:1052F000296008210220FDF7FFFA48B126713946DE
:105300002868FAF7A5FFBD492860884200D92960BE
:1053100008210320FDF7F0FA08B126712E6008215C
:105320000420FDF7E9FA40B1207800287ED0002063
:1053300020706670A670E670267120210420FDF7AB
:10534000DBFA002841D0FEF757FCFEF741F80021B8
:105350000823ABA20846FEF7D7FA0823ADA2102116
:105360000020FEF7D1FA0823B0A220210020FEF78A
:10537000CBFA0823B2A230210020FEF7C5FAFEF7CF
:1053800031FB08210420FDF7B7FA0028F9D0FDF71A
:10539000C5FAFEF71DF800210823AEA20846FEF765
:1053A000B3FA0823A1A210210020FEF7ADFA0823CA
:1053B0009EA220210020FEF7A7FA08239BA23021FD
:1053C0000020FEF7A1FAFEF70DFB207800287DD023
:1053D00002A8FEF779FDBDF80800FBF71EF9DFF81B
:1053E0008C8200224346FBF784F8A14F00223B4603
:1053F000FBF70DF8FBF776F98346BDF80A00FBF7DB
:105400000CF900224346FBF774F800223B46FAF7FA
:10541000FEFFFBF767F98246BDF80C00FBF7FDF8CD
:1054200000224346FBF765F8002200E0A0E03B467F
:10543000FAF7EDFFFBF756F98146BDF80E00FBF7D2
:10544000ECF800224346FBF754F80022894BFAF7A8
:10545000DEFF0022884BFAF7D4FFFBF743F98046C2
:105460005846E969FAF7F4FE20F000418348012725
:10547000814200DA67705046296AFAF7E9FE20F0A7
:1054800000417E48814200DAA7704846696AFAF70F
:10549000DFFE20F000417948814200DAE7704046A3
:1054A0002968FAF7D5FE764920F00040884200DAF4
:1054B0002771607808B1C5F81CB0A07808B1C5F8AC
:1054C00020A0E07808B1C5F8249000E003E020793E
:1054D00008B1C5F80080E869FBF7D9F8CDE900010B
:1054E00068A3082210210020FEF73EF9286AFBF786
:1054F000CEF8CDE9000166A3082220210020FEF7A6
:1055000033F9686AFBF7C3F8CDE9000163A3082209
:1055100030210020FEF728F92868FBF78BF800B24D
:10552000009061A3082210214020FEF71DF9686851
:10553000FBF780F800B200905EA3082220214020F3
:10554000FEF712F9A868FBF775F800B200905CA3AB
:10555000082230214020FEF707F92078C8B3607890
:1055600040B10F23202211211820FEF713F908E083
:105570000120DDE60F232022112118200096FDF7DF
:10558000F9FFA07830B10F23202221211820FEF747
:1055900001F906E00F232022212118200096FDF7B3
:1055A000E9FFE07830B10F23202231211820FEF7E7
:1055B000F1F806E00F232022312118200096FDF794
:1055C000D9FF207930B10F23202211216020FEF76E
:1055D000E1F806E00F232022112160200096FDF75C
:1055E000C9FFFEF7FFF9BDE8FF9F00000000A041E2
:1055F000D80D0020A80D00200000C8420000C8C23D
:1056000020202020205BE68F90E7A4BA5D20202098
:1056100020200000202020E5B7B2E4BF9DE5AD9832
:10562000E58F82E695B02020200000002020202079
:1056300020202020202020202020202000000000EA
:10564000202020202020202020202020204B343EFD
:105650000000000020202020E5AE9AE9809FE68E21
:10566000A7E588B6202020200000000000FEAF4003
:10567000000008400000694000005940CDCC4C3D7E
:105680000000A0404B703A2530342E3266000000F6
:105690004B693A2530342E32660000004B643A25BF
:1056A00030342E32660000005461723A252B3034BB
:1056B000640000004163743A252B3034640000001C
:1056C0004F75743A252B30346400000010B5114C2E
:1056D000E088401C80B2E080282819D30020E080B8
:1056E00060892081FBF7AEFA60812189401A00B2FF
:1056F000FAF785FF084C002160602046FEF7C0F9EC
:10570000A068FAF797FFBDE8104000B2FDF710BEA1
:1057100010BD0000A80D0020D80D002010B5FDF729
:1057200057FE002108230DA20846FEF7EDF80823D6
:105730000FA210210420FEF7E7F8082311A2202170
:105740000020FEF7E1F8082313A230210020FEF725
:10575000DBF8BDE81040FEF745B90000202020200E
:105760005B46595A2D4848485D2020200000000023
:10577000504944D7DBBACFB2E2CAD4B3CCD0F2207E
:105780002000000020202020202056312E31202013
:105790002020202000000000202020202020202089
:1057A00020202020204B343E0000000010B5FBF7E5
:1057B000E3FA002827D0FEF71FFAFEF701FAFEF7FA
:1057C00049FAFDF705FE002108230FA20846FEF75F
:1057D0009BF8082311A210210020FEF795F808235A
:1057E00013A220210020FEF78FF8082315A23021F4
:1057F0000020FEF789F8FEF7F5F8BDE810404FF4F9
:105800007A70FBF7E5BD10BD20202020205BCCE1A5
:10581000CABE5D202020202000000000202020D2D1
:10582000D1D6D8D6C3B2CECAFD20202000000000B9
:105830002020202020202020202020202020202068
:1058400000000000202020202020202020202020D8
:10585000204B343E0000000030B4838B21F812301E
:1058600001EB4201C38B4B80028C8A80428CCA8040
:10587000828C0A81C08C488130BCFBF7B1BA000031
:10588000064910B500208872FDF752FD0122BDE8DF
:10589000104051030248FBF754BF000000000020F5
:1058A0000010014010B5FDF793FD002108230EA262
:1058B0000846FEF729F808230BA210210020FEF766
:1058C00023F8082308A220210020FEF71DF8082352
:1058D00005A230210020FEF717F8FEF783F80748ED
:1058E0000749406D086010BD202020202020202086
:1058F0002020202020202020000000008000002008
:10590000140000202DE9FF5F08210120FCF7F4FFBF
:10591000F84C002610B1A07A58B3A67208210220D4
:10592000FCF7EAFFF34DF44F443540B1394628689F
:10593000FAF73CFCF1492860884200DD2960082123
:105940000320FCF7D9FF40B139462868FAF780FCFC
:10595000EB492860884200D9296008210420FCF71F
:10596000CBFF98B12078401CC0B22070032803D030
:1059700006E00D20A072D1E7E249267032200870BF
:105980006670A670E67026716671A67120210420EB
:10599000FCF7B2FF002841D0FEF75CF9FDF718FDD7
:1059A00000210823D8A20846FDF7AEFF0823DBA29A
:1059B00010210020FDF7A8FF0823DDA220210020F0
:1059C000FDF7A2FF0823DFA230210020FDF79CFF96
:1059D000FEF708F808210420FCF78EFF0028F9D014
:1059E000FCF79CFFFDF7F4FC00210823D0A2084639
:1059F000FDF78AFF0823CEA210210020FDF784FFC7
:105A00000823CBA220210020FDF77EFF0823C8A297
:105A100030210020FDF778FFFDF7E4FF2078012713
:105A2000012859D102A8FEF74FFABDF80800FAF78D
:105A3000F4FDDFF8248300224346FAF75AFDFAF713
:105A400051FE8146BDF80A00FAF7E7FD0022434601
:105A5000FAF74FFDBA1EFAF7BBFDFAF743FE82468E
:105A6000BDF80C00FAF7D9FD00224346FAF741FDD4
:105A7000FAF738FEDFF87C82834608F114084846BE
:105A8000D8F81C10FAF7E4FB20F00041B34881423B
:105A900000DC67705046D8F82010FAF7D9FB20F0E8
:105AA0000041AF48814200DAA7705846D8F8241068
:105AB000FAF7CEFB20F00041A848814200DCE770F5
:105AC000607808B1C8F81C90A07808B1C8F820A088
:105AD000E07808B1C8F824B02078022857D102A88D
