:020000040800F2
:10000000300A002005010008C52500081920000855
:1000100025250008910900081330000800000000A1
:10002000000000000000000000000000BF2B0008DE
:10003000AB09000800000000BD2B0008C12B000820
:100040001F0100081F0100081F0100081F01000810
:100050001F0100081F0100081F0100081F01000800
:100060001F0100081F0100081F0100081F010008F0
:100070001F0100081F0100081F0100081F010008E0
:100080001F0100081F0100081F0100081F010008D0
:100090001F0100081F0100081F0100081F010008C0
:1000A0001F010008412C00081F0100081F01000863
:1000B0004D2C00081F0100081F0100081F01000847
:1000C0001F0100081F0100081F0100081F01000890
:1000D0001F0100081F0100081F0100081F01000880
:1000E0001F0100081F0100081F010008DFF810D0E1
:1000F00000F0D2FB0048004745390008AFF300800C
:10010000300A00200648804706480047FEE7FEE721
:10011000FEE7FEE7FEE7FEE7FEE7FEE7FEE7FEE7B7
:100120003D2C0008ED000008202A04DB203A21FACB
:1001300002F00021704721FA02F3D040C2F1200200
:100140009140084319467047D2B201E000F8012BF4
:10015000491EFBD270470022F6E710B513460A4647
:1001600004461946FFF7F0FF204610BD10B50022E7
:1001700000E0521C835C8C5CA34201D1002BF8D1BF
:10018000D8B2E1B2401A10BDF0B480EA0102D40F37
:100190004200B2EB410F02D20246084611464A0025
:1001A00042D0C30DDDB2C1F3C752AD1A202D35DAEE
:1001B000C1F3160141F4000204B15242C5F1200618
:1001C00002FA06F12A411044B3EBD05F23D0C4B148
:1001D000012DA0EBC35009DCF0BC4FF0004202EA55
:1001E000C352DBB200F5000000F0B3BA400000F1EA
:1001F000807000EBC350A0F1807040EAD1704900DC
:1002000009E0490841EAC071A0EBC35000F50000C5
:10021000400800EBC350F0BC00F092BA61420122EA
:1002200002EB4101001BF6E7F0BC704781F0004192
:10023000AAE780F00040A7E780EA010210B502F0CB
:100240000043400022D04A001FD0010E01EB126192
:10025000C0F35600C2F3560240F4000042F400021C
:10026000A0FB022000047F39140400D0401C50EA97
:10027000124001D44000491EC2B20C0604EBD0105B
:10028000401C4008802A02D003E0002010BD20F06E
:100290000100002900DA0020184310BD2DE9FE4FAF
:1002A000804681EA0300C00F0C46009021F0004117
:1002B00023F00045B8EB0200A94105D24046214693
:1002C00090461C460B46024623F00040104347D0A0
:1002D000270DC7F30A00C3F30A510290401A019098
:1002E00040286BDAC3F3130040F4801B0098924659
:1002F00020B10023D2EB030A63EB0B0B01985946A4
:10030000C0F14002504600F0FAF906460D4650464C
:100310005946019A00F002FA10EB080061410024EE
:1003200087EA115284EAE7731A4340D0009A62B315
:10033000019A012A4FEA075215DC001B61EB02010A
:100340004FF0004202EA0752CDE90042001C41F59D
:10035000801132462B4600F039FA03B0BDE8F08F29
:1003600040462146F9E7001B61EB0201001C41F504
:10037000801300185B412018A2F5001747EB03011A
:1003800040EAD570B6196D4111E06D084FEA3606A6
:1003900045EAC0754FEA0752001B61EB0201001CE1
:1003A00041F5801149084FEA3000001951413246A9
:1003B0002B4603B0BDE8F04F00F0F9B900980122D8
:1003C00040000023D0EB020263EBE073009821466B
:1003D0004FEAE074B8EB000061EB0401E9E783F059
:1003E00000435BE781F0004158E72DE9FE4F81EAC9
:1003F000030404F0004421F0004100944FF0000B8E
:1004000023F0004350EA01045ED052EA03045BD0BB
:10041000C3F30A54C1F30A552C44A4F2F3340194F3
:10042000A0FB0254C1F3130141F48011C3F3130381
:1004300043F4801301FB024400FB034E840A970A35
:1004400044EA815447EA8357A4FB076802958D0A62
:1004500005FB07854FEA932C04FB0C542705029DEE
:100460004FEA065847EA1637B5EB08056EEB070C5E
:10047000870E920E47EA811742EA8312A7FB020118
:10048000B6EB0B0164EB00042B0D43EA0C335E1852
:1004900044EB1C50DA465146E7FB0201C5F3130456
:1004A0004FEA0B3343EA14534FEA0432019C43EA08
:1004B0000603A4F10C040294009CCDE900B400F002
:1004C00085F903B0BDE8F08F00200146F9E72DE97A
:1004D000F04D81EA030404F0004B21F0004514467E
:1004E0004FF0000A23F0004150EA050220D054EA00
:1004F00001021DD0C5F30A570246C5F31303C1F329
:100500001300C1F30A5640F4801543F48013A7EB9F
:100510000608101BD64608F2FD3873EB050002D31F
:1005200008F1010801E092185B41B8F1000F03DA0D
:1005300000200146BDE8F08D00204FF480110646F2
:1005400084460EE0171B73EB050705D3121B63EB04
:10055000050306434CEA010C49084FEA30009218A3
:100560005B4150EA0107EDD152EA030012D082EA62
:10057000040083EA0501084305D0101BAB4106D2F5
:100580000122002306E000224FF0004302E06FF05A
:10059000010253101AEB06004CEB085110EB0A0055
:1005A00041EB0B01BDE8F04D00F001B9C10F80EA4D
:1005B000E0700844CA079623002100F0CAB800F092
:1005C000004220F00040C10DC0F3160040F40000CE
:1005D0007F2901DA00207047962903DCC1F19601DA
:1005E000C84001E096398840002AF4D04042704764
:1005F00000F0004230F000400AD0C10D01F56071FA
:10060000C0F3160042EA0151C20840071143704787
:10061000002001467047000030B5041E71F100044F
:1006200004DB4FF00044404264EB0101141E73F1FF
:10063000000405DB1C464FF00043524263EB040309
:10064000994208BF904230BD002801DBC0F1004054
:10065000002901DBC1F1004181427047002801DB24
:10066000C0F10040002901DBC1F100418842704720
:1006700030B50B46014600202022012409E021FA72
:1006800002F59D4205D303FA02F5491B04FA02F56F
:100690002844151EA2F10102F1DC30BD2DE9F05F06
:1006A0000546002092469B468846064681464024E1
:1006B0001BE02846414647462246FFF735FD534694
:1006C0005A46C01A914110D311461846224600F0EE
:1006D00016F82D1A67EB01084F462246012000212B
:1006E00000F00DF817EB00094E41201EA4F10104A3
:1006F000DFDC484631462A464346BDE8F09F202AC3
:1007000004DB203A00FA02F1002070479140C2F168
:10071000200320FA03F3194390407047202A06DB98
:10072000CB17203A41FA02F043EAE07306E041FABF
:1007300002F3D040C2F120029140084319467047AD
:100740000029A8BF7047401C490008BF20F00100E5
:10075000704710B4B0FA80FC00FA0CF050EA0104C3
:1007600004BF10BC704749B1CCF1200421FA04F455
:1007700011FA0CF118BF012121430843A3EB0C012E
:10078000CB1D4FEA00614FEA102042BF002010BC91
:10079000704700EBC35010440029A4BF10BC704741
:1007A000401C490008BF20F0010010BC704710B584
:1007B000141E73F1000408DA401C41F10001921884
:1007C0005B411A4301D120F0010010BD2DE9F04D2D
:1007D00092469B4611B1B1FA81F202E0B0FA80F282
:1007E00020329046FFF78BFF04460F4640EA0A008E
:1007F00041EA0B0153465A46084313D0114653EAC7
:10080000010019D0C8F140025046FFF78DFC0546A3
:100810000E46504659464246FFF771FF084305D041
:10082000012004E020463946BDE8F08D0020054354
:1008300046EAE0762C4337430A986305E40AA0EBC6
:1008400008000022FD0A44EA47540A3002D500207D
:100850000146E9E7010510196941DDE9084500197C
:100860006941BDE8F04DA2E7C1F30A52C1F313019B
:1008700040F2FF3341F480119A4202DA002001462F
:10088000704740F233439A42A2F2334202DC5242B2
:10089000FFF74ABCFFF733BF064C074D06E0E068A0
:1008A00040F0010394E8070098471034AC42F6D3B7
:1008B000FFF720FC1C4500083C45000870B50446C5
:1008C00000688168C943C90717D1816821F0010117
:1008D000816000F015FB05460AE000BF00F010FB48
:1008E000401B022804D920688068C043C00706D096
:1008F00020688068C043C007F0D0002070BDA06AA7
:1009000040F01000A062E06A40F00100E0620120C7
:1009100070BD0000F8B500260446009600688168A6
:10092000C943C9072DD0816841F001018160164893
:1009300016490068B0FBF1F000E0401E009000286E
:10094000FBD100F0DDFA054616E000BF00F0D8FA52
:10095000401B022810D920688068C043C0070BD014
:10096000A06A40F01000A062E06A40F00100E0627E
:1009700084F824600120F8BD20688068C043C00767
:10098000E4D10020F8BD00003400002040420F00F8
:10099000FEE710B5044602F087F8A068E06204F1B3
:1009A0002C00BDE8104002F07FB870470348016892
:1009B000486A00224A62404200B27047FC000020B0
:1009C00072B6FEE7F8B500250446009590F82400BD
:1009D00001280BD0012084F824002046FFF76EFF89
:1009E0002046FFF797FF060002D050E00220F8BD36
:1009F000A06A20F4885040F00200A062022000F0BB
:100A00001DFB25490968B1FBF0F0400000E0401EE5
:100A100000900028FBD12068816841F008018160C6
:100A200000F06EFA074608E000F06AFAC01B0A28D8
:100A300003D920688068000715D420688068000703
:100A4000F2D42068816841F00401816000F058FA16
:100A5000074612E000F054FAC01B0A280DD920689E
:100A60008068400709D5A06A20F0020040F010001D
:100A7000A06284F824500120F8BD206880684007F7
:100A8000E8D4A06A20F0020040F00100A06284F8DF
:100A900024503046F8BD000034000020F8B5002492
:100AA000009490F824202546012A12D0012280F8D3
:100AB00024204A681F23072A0DD20668776B521E2E
:100AC00002EB820293409F430B6893401F4377637E
:100AD00019E00220F8BD06680D2A0AD2376BD21F32
:100AE00002EB820293409F430B6893401F4337639E
:100AF00009E0F76A0D3A02EB820293409F430B68CC
:100B000093401F43F7620A68072306680A2A0AD33C
:100B1000F7680A3A02EB420293409F438B68934086
:100B20001F43F76008E0376902EB420293409F439E
:100B30008B6893401F4337610A68102A01D0112A3D
:100B400020D1124B02689A4217D193681B0219D424
:100B5000936843F4000393600968102912D10C498B
:100B60000C4A0968B1FBF2F101EB8101490000E098
:100B7000491E00910029FBD104E0816A41F0200167
:100B80008162012480F824502046F8BD00240140F1
:100B90003400002040420F002DE9F0414FF00007E3
:100BA00004003D467ED0A06A002628B9E66284F89B
:100BB0002460204600F07EF82046FFF77FFEA16A01
:100BC000C90600D420B1A06A40F01000A06269E01C
:100BD000A16A21F4885141F00201A1626268E169D1
:100BE000237B0A4347EA43010A43A1684FF4807715
:100BF000B94209D0012907D05FF0000194F814C070
:100C0000BCF1010F02D00AE03946F7E7F3B1A36A5D
:100C100043F02003A362E36A43F00103E362236825
:100C2000D3F804C02CF4694C4CEA010CC3F804C09E
:100C300021688B68DFF870C003EA0C0313438B60F4
:100C4000A168B9420BD0012909D00CE0DFF85CC0E3
:100C5000A3690CEB43330B4343F40061DFE7218AC4
:100C60000D05A5F580152168CB6A23F470032B438D
:100C7000CB62216889680E4B1940914208D1E66227
:100C8000A16A21F0020141F00101A162BDE8F081F9
:100C9000A06A20F0020040F01000A062E06A40F07C
:100CA0000100E0620120F1E7FDF7E1FF00E0FFFF56
:100CB000FE0E1FFF00B585B0002100910191029149
:100CC000039100680E49884218D10E48816941F4A9
:100CD00000718161816901F400710491816941F0C1
:100CE000040181618069694600F0040004903C20A1
:100CF000009003200190044800F008F805B000BD02
:100D00000024014000100240000801402DE9F84F86
:100D1000DFF8B8910024A9F1040B23460F2709F14D
:100D2000040AABF1040EC9E00125A5402A40AA42FD
:100D30007DD1674ED1F804C0ACEB0608B44532D083
:100D400014DCBCF1030F3AD009DCBCF1000F2AD04F
:100D5000BCF1010F1CD0BCF1020F31D11DE0BCF180
:100D6000110F17D0BCF1120F2AD119E0B8F5881F66
:100D700019D006DCB8F5803F15D0B8F5801F1FD11B
:100D800011E0B8F5001F0ED0B8F5041F18D10AE025
:100D9000CB6815E0CB681B1D12E0CB6808330FE071
:100DA000CB680C330CE08B682BB1012B4FF00803A0
:100DB00003D0456104E0042302E0056100E0002364
:100DC000FF2A01D8064601E000F104064FEA840537
:100DD00001D9A5F12005D6F8008007FA05FC28EA1C
:100DE0000C0803FA05F548EA0508C6F800804D68C6
:100DF000ED0062D5374DAE6946F00106AE61AD69D2
:100E000024F0030605F001050095334D06EB050CB3
:100E1000DCF80850A607360F07FA06F825EA080599
:100E2000DFF8B880404503D14FF0000817E044E0F8
:100E3000DFF8AC80404502D14FF001080FE0DFF849
:100E4000A480404502D14FF0020808E0DFF8988006
:100E5000404502D14FF0030801E04FF0040808FAC2
:100E600006F848EA0508CCF808804D68D9F8006013
:100E7000ED024D4601D5164300E096432E604D68C5
:100E8000DAF80060AD02554601D5164300E09643FE
:100E90002E604D68DBF80060AD035D4601D516435A
:100EA00000E096432E604D68DEF80060ED03754665
:100EB00001D5164300E096432E60641C0D682A4657
:100EC000E5407FF431AFBDE8F88F00000804014031
:100ED0000000111000100240000001400008014015
:100EE000000C0140001001400014014080680840DF
:100EF00000D0012070470AB1016170470904FBE787
:100F0000014880687047000028000020024881687E
:100F1000027811448160704728000020074810B50E
:100F2000016841F010010160032000F075F80F2006
:100F300000F006F800F024F8002010BD0020024068
:100F400070B50D4D04464FF47A712878B1FBF0F07E
:100F50000A490968B1FBF0F000F0A4FB48B9102C75
:100F600007D200222146501E00F036F800206C60A7
:100F700070BD012070BD000028000020340000205A
:100F80000C4808B5816941F001018161816901F076
:100F900001010091C16941F08051C161C06900F057
:100FA000805000900448416821F0E06141F00071F8
:100FB000416008BD0010024000000140002809DB2C
:100FC00000F01F02012191404009800000F1E02063
:100FD000C0F8001170470000F0B40E4B1B680C46BF
:100FE000C3F30223C3F10705042D00D90425191DFD
:100FF000072901D2002300E0DB1E012606FA05F1D5
:10100000491E214099409E40761E16403143F0BC57
:1010100002F022B80CED00E0064900F00702086873
:101020004FF6FF03184040EA0220034A10430860CD
:10103000704700000CED00E00000FA0510B5014615
:101040000020234C012922D0022939D010291DD19A
:1010500061682268D20119D51E48C1F38342C903D1
:10106000805C0AD561681B4AC1F34041921E515C05
:10107000194AB2FBF1F1484301E01849484361685D
:10108000490203D440000321B0FBF1F010BD226AF5
:10109000C2F30121012903D1920701D5C80310BD74
:1010A000022905D1626A920702D549F6404010BD77
:1010B0000329FCD121688903F9D54FF2244010BDE2
:1010C00000F02AF96168C1F38131491C4900DBE76E
:1010D00000100240F344000800127A0000093D00AD
:1010E0002DE9F84305460078354CC00754D0E06937
:1010F0000026C00008D4E06940F08050E061E0695B
:10110000012600F0805000902E480168C90512D4D5
:101110000168804641F480710160FFF7F1FE0746E7
:1011200005E000BFFFF7ECFEC01B642823D8D8F809
:101130000000C005F6D5206A10F4407021D0A988BF
:1011400001F4407181421CD0206A1F49012220F421
:1011500040700A6000220A602062C00711D0FFF7C9
:10116000CFFE074641F2883808E000BFFFF7C8FE0F
:10117000C11B414502D90320BDE8F883206A8007DE
:10118000F4D5206A696820F44070084320621EB1DB
:10119000E06920F08050E0612878800705D560681C
:1011A000A96820F44040084360602878C00605D54F
:1011B0006068E96820F48000084360600020DBE795
:1011C0000010024000700040400442422DE9F04708
:1011D0000F46050061D0434E306800F00700B8426A
:1011E00009D2306820F0070038433060306800F0E2
:1011F0000700B84251D128683B4C810712D54007FF
:1012000003D5606840F4E06060602878000703D58B
:10121000606840F4605060606068A96820F0F00089
:10122000084360602878C00728D06868012810D07B
:101230002168022810D0890700292EDA616821F080
:10124000030101436160FFF75BFE804641F288398C
:101250000DE021688903EFE78901EDE7FFF750FE14
:10126000A0EB0801494502D90320BDE8F08760687A
:10127000696800F00C00B0EB810FEFD1306800F02E
:101280000700B8420BD9306820F0070038433060BF
:10129000306800F00700B84201D00120E5E7287867
:1012A000400705D56068E96820F4E06008436060A5
:1012B0002878000706D56068296920F4605040EA64
:1012C000C100606000F038F86168084AC1F303119A
:1012D000515CC8400649086006480068FFF730FEC8
:1012E0000020C2E700200240001002400345000831
:1012F000340000202C00002004480549006849689B
:10130000044AC1F30221515CC840704734000020F8
:101310000010024013450008044805490068496868
:10132000044AC1F3C221515CC84070473400002018
:1013300000100240134500080E4A51680E4801F0A3
:101340000C03042B11D0082B0FD10C48C1F383439D
:10135000C903C05C0AD55168084AC1F34041921ED6
:10136000515C054A5043B0FBF1F0704704494843D3
:10137000704700000010024000127A00E1440008AB
:1013800000093D002DE9F84F040070D02078C04DD1
:10139000C00749D06868C0F38100012807D0686899
:1013A000C0F38100022809D16868C00306D5286807
:1013B000800339D560680028E7D035E06068B0F573
:1013C000803F0BD010B1B0F5A02F11D0286820F4C9
:1013D00080302860286820F4802002E0286840F4EB
:1013E00080302860606890B1FFF78AFD06460AE009
:1013F000286840F480202860F0E700BFFFF780FDF8
:10140000801B642873D828688003F7D50CE0FFF7A9
:1014100077FD064605E000BFFFF772FD801B6428DC
:10142000F0D828688003F7D420789A4E80074FF0D0
:1014300001094FF0000839D5686810F00C0F07D08B
:101440006868C0F38100022809D16868C00306D427
:101450002868800714D52069012808D110E0206988
:10146000B0B1C6F80090FFF74BFD074605E00AE172
:10147000FFF746FDC01B0228C4D828688007F7D5AF
:101480002868616920F0F80040EAC10028600DE09A
:10149000C6F80080FFF734FD074604E0FFF730FD93
:1014A000C01B022823D828688007F7D420780007BB
:1014B0002CD57948A169D9B1C0F80090FFF720FD7B
:1014C000074604E0FFF71CFDC01B02280FD8686A1E
:1014D0008007F7D571484FF4FA510068B0FBF1F07E
:1014E000009000BF0098411E0091FAD20EE080E00B
:1014F000C0F80080FFF704FD074604E0FFF700FD99
:10150000C01B022875D8686A8007F7D42078400786
:1015100060D5E8690027C00008D4E86940F0805031
:10152000E861E869012700F0805000905C4801689C
:10153000C90513D40168834641F480710160FFF747
:10154000DFFC824606E000BFFFF7DAFCA0EB0A00F2
:1015500064284ED8DBF80000C005F5D5E068012806
:101560000AD008B1052813D0286A20F001002862AB
:10157000286A20F0040002E0286A40F00100286296
:10158000E06841F2883B98B1FFF7BAFC82460BE075
:10159000286A40F004002862EEE700BFFFF7B0FCC5
:1015A000A0EB0A0159455AD8286A8007F6D50CE005
:1015B000FFF7A6FC824605E0FFF7A2FCA0EB0A01BC
:1015C00059454CD8286A8007F6D41FB1E86920F045
:1015D0008050E861E06988B36968C1F3810102293C
:1015E00044D00228C6F8608004D0FFF789FC044686
:1015F00038E034E0FFF784FC074604E0FFF780FCA6
:10160000C01B02282BD828688001F7D4206AB0F5C7
:10161000803F05D16868A16820F400300843686005
:10162000D4E908010843696821F47411084368602B
:10163000C6F86090FFF764FC044606E025E000BFB2
:10164000FFF75EFC001B022809D828688001F7D547
:101650001BE000BFFFF754FC001B022802D9032047
:10166000BDE8F88F28688001F4D40EE00128F7D097
:101670006868226A00F48031914204D1616A00F402
:101680007010884201D00120EAE70020E8E700005E
:101690000010024000004242800442423400002018
:1016A0000070004010B5401EB0F1807F01D30120D2
:1016B00010BD4FF0E02460610F21601701F0CCFCF9
:1016C0000020A06107202061002010BD70477047F6
:1016D00070B590F83C20012A26D0012480F83C40C7
:1016E000022280F83D2003685A689D6822F0700647
:1016F0000A6832435A600D4B02689A4208D0B2F130
:10170000804F05D00A4B9A4202D00A4B9A4204D12C
:10171000496825F080031943916080F83D4000211D
:1017200080F83C10084670BD022070BD002C0140BE
:10173000000400400008004010B5040003D094F8F5
:101740003D0010B107E0012010BD002084F83C00EE
:10175000204600F01FF8022084F83D00211D20687B
:1017600001F07AFA012084F8460084F83E0084F8FB
:101770003F0084F8400084F8410084F8420084F877
:10178000430084F8440084F8450084F83D000020BC
:1017900010BD000008B5154A0168154891420ED1E8
:1017A000816941F4006181618069002200F4006078
:1017B000009011461920FFF70FFC192010E0B1F13D
:1017C000804F11D1C16941F00101C161C06900229E
:1017D00000F00100009011461C20FFF7FDFB1C20CB
:1017E000BDE80840FFF7EABB08BD0000002C01403F
:1017F0000010024090F83D10012901D001207047EF
:10180000022180F83D100168CA6842F00102CA60F6
:1018100000680B49884208D0B0F1804F05D00949D3
:10182000884202D00849884204D1816801F007014A
:10183000062903D0016841F00101016000207047D2
:10184000002C0140000400400008004070B5044630
:1018500090F83C000025012817D0012684F83C6050
:10186000022084F83D002068826822F0770222F48A
:101870007F4282600868502838D00DDC20284FD085
:1018800005DC90B3102811D14AE0022070BD302849
:1018900046D040280AD13BE060282FD070280DD0D8
:1018A000B0F5805F03D0B0F5005F12D0012584F859
:1018B0003D60002084F83C00284670BDCB68D1E92B
:1018C0000121206801F011FA2068816841F0770158
:1018D00009E0CB68D1E90121206801F006FA20680F
:1018E000816841F480418160E1E719E0CA68496894
:1018F000206801F0AFFA5021206806E0CA68496804
:10190000206801F0B8FA6021206801F0F8F9CEE70C
:10191000CA684968206801F09DFA40212068F4E710
:10192000226801461046F0E72DE9F0410D4604001B
:1019300003D094F83D0018B108E00120BDE8F08123
:10194000002084F83C00204600F040F8022084F893
:101950003D002068816844F2070291438160211DA7
:10196000206801F079F9226890689169166A2B68FD
:10197000AF69034340F20330814341EA0721A8687D
:10198000EF6908434FF6FC418843E96840EA0720C5
:10199000014328692F6A000140EA0730084369685B
:1019A0006D6926F0220646EA0515294393602268F0
:1019B000906154F8460B0162012004F81F09E0759C
:1019C0002076E0762077A0750020B7E700B585B0D7
:1019D000002100910191029103911A4B02681A486B
:1019E000C0219A4213D1C26942F00202C261C269A7
:1019F00002F002020492826942F00402826180696C
:101A0000009100F0040004906946104815E0104B66
:101A10009A4214D1C26942F00402C261C26902F062
:101A200004020492826942F0080282618069009196
:101A300000F00800049069460648FFF767F905B012
:101A400000BD0000000400400010024000080140FA
:101A500000080040000C014070B590F83E6004465C
:101A600090F83F5090F8423090F84320022021B186
:101A700004290ED0012E1BD114E0012E18D1012B08
:101A800016D184F83E0084F842000122002120682B
:101A900020E0012D0CD1012A0AD184F83F0084F8FE
:101AA000430014E0012D03D1012B01D1012A01D003
:101AB000012070BD84F83E0084F83F0084F84200A5
:101AC00084F8430001220021206801F001F901227D
:101AD0000421206801F0FCF82068016841F0010150
:101AE0000160002070BD70472DE9F0410446006898
:101AF000C66805694FF00007A90713D5B10711D5CE
:101B0000F91E016101202077206880698007204646
:101B100002D0FFF7E8FF04E000F0A2F8204600F052
:101B200034F92777680716D5700714D521686FF048
:101B300004000861022020772068806910F4407F4B
:101B4000204602D0FFF7CFFF04E000F089F82046DE
:101B500000F01BF92777280715D5300713D5216822
:101B60006FF008000861042020772068C0698007B2
:101B7000204602D0FFF7B7FF04E000F071F82046DE
:101B800000F003F92777E80616D5F00614D521688A
:101B90006FF010000861082020772068C06910F4F9
:101BA000407F204602D0FFF79EFF04E000F058F887
:101BB000204600F0EAF82777E80708D0F00706D0BB
:101BC00021686FF001000861204600F02DF9280619
:101BD00008D5300606D521686FF0800008612046E0
:101BE000FFF774FD680608D5700606D521686FF00A
:101BF00040000861204600F053F9A8060AD5B00657
:101C000008D521686FF0200008612046BDE8F0414A
:101C1000FFF75DBDBDE8F08100B585B00021009102
:101C20000191029103910068B0F1804F11D10A48EF
:101C3000816941F0040181618069694600F0040016
:101C40000490032000900220019003900348FFF7C6
:101C50005DF805B000BD0000001002400008014022
:101C6000704770B5044690F83C0000260D460128E8
:101C70000FD0012084F83C006AB1042A1DD0082A44
:101C80002FD00C2A3FD00126002084F83C0030469B
:101C900070BD022070BD206801F03AF820688169AB
:101CA00041F0080181612068816921F004018161AE
:101CB000206881692A69114311E0206801F050F819
:101CC0002068816941F4006181612068816921F4A3
:101CD00080618161206881692A6941EA022181610C
:101CE000D2E7206801F068F82068C16941F0080176
:101CF000C1612068C16921F00401C1612068C16926
:101D00002A69114311E0206801F082F82068C16956
:101D100041F40061C1612068C16921F48061C16141
:101D20002068C1692A6941EA0221C161ACE710B5A6
:101D3000040003D094F83D0010B107E0012010BD6D
:101D4000002084F83C00204600F01EF8022084F8B1
:101D50003D00211D206800F07FFF012084F846002F
:101D600084F83E0084F83F0084F8400084F8410085
:101D700084F8420084F8430084F8440084F8450065
:101D800084F83D00002010BD7047704710B5044630
:101D9000022249B104290ED0082913D094F8410039
:101DA000012816D0012010BD94F83E000128F9D179
:101DB00084F83E200FE094F83F000128F2D184F827
:101DC0003F2008E094F840000128EBD184F840203F
:101DD00001E084F841200122206800F079FF0F49DA
:101DE0002068884203D1426C42F400424264206879
:101DF000884208D0B0F1804F05D00949884202D00E
:101E00000849884204D1816801F00701062903D0FE
:101E1000016841F001010160002010BD002C01406B
:101E2000000400400008004070B5184900680968C7
:101E3000884229D100F020F915480188491C89B24F
:101E400001804288521C428028291DD30021018034
:101E5000FEF7ACFD0F4908800F490A88024415B20D
:101E60000D80FEF7A3FB0D4C20632846FEF79EFB7A
:101E700060602046FEF78DFD606BFEF7A0FBBDE8BD
:101E8000704000B200F074BB70BD00006C00002018
:101E9000000000201E00002020000020D4050020AB
:101EA000704770B5040004D094F84100002510B1CB
:101EB00006E0012070BD84F84050204600F024F870
:101EC000242084F841002068C16821F40051C160D9
:101ED000204601F009F82068016921F49041016170
:101EE0002068416921F02A0141612068C16841F4FC
:101EF0000051C1606564202084F8410084F84200EC
:101F00006563002070BD000030B585B000240094EA
:101F100001940294039400681449884224D114481F
:101F2000816941F480418161816901F480410491BA
:101F3000816941F00401816180690E4D00F0040067
:101F400004904FF400700090022001900320039051
:101F500069462846FEF7DAFE2815CDE900046946F1
:101F600028460294FEF7D2FE05B030BD003801408D
:101F700000100240000801402DE9F843044690F8A3
:101F80004100984616460D46202802D00220BDE8A2
:101F9000F88385B17EB100206064212084F841007F
:101FA000FEF7AEFFA6848146E684A0682027B0F540
:101FB000805F02D003E00120E9E7206910B12E46DE
:101FC00000250EE000260CE08021204600F0E8FF0E
:101FD000A8B9C6B116F8010B21684860E08C401E14
:101FE000E084E08C4B464FF00002CDF800800028E2
:101FF000EAD14FF04001204600F0D2FF40B184F812
:1020000041700320C3E735F8020BC0F30800E3E793
:1020100084F841700020BAE7FEE70000064B10B5D7
:102020001A5C0A4205D0012901D08A431A540120C2
:1020300010BD002010BD00001100002010B50C4A9A
:1020400040B1D114012807D00A4A022804D003283D
:1020500008D005E04FF480611046FEF747FF20B13D
:10206000002010BD4FF48051F6E7012010BD0000A4
:10207000000C0140000801402DE9F05F4A4D0020AE
:1020800035F8101011B1491E25F81010401CC0B2CF
:102090000428F5D3444812380178491CC9B20170AC
:1020A00014297ED34FF0000A471D80F800A0544643
:1020B000461C00F1090900F10D084FF0640B305D7A
:1020C00038552046FFF7BAFF305518F8042001288C
:1020D000414604D022F001020A5540B10EE042F020
:1020E00001020A553B5D4BB942F0020204E03B5D40
:1020F000012B03D142F0040208F8042019F804204F
:10210000052A4AD2DFE802F0030B1F363800012807
:1021100043D14FF4FA6025F81400012020E018B1F3
:1021200035F8140028B138E0C82025F81400022042
:1021300016E018F80420042042F0200208F80420D9
:1021400025F814B00CE0012803D035F8140050B184
:1021500023E018F80420032042F0100208F80420BD
:1021600009F8040019E018F8042042F0080208F801
:10217000042007E030B110E020B135F8140020B1A0
:102180000BE00EE009F804A007E018F8041041F095
:10219000400108F8041025F814B0641CE4B2042CC3
:1021A0008DD3BDE8F09F000016000020FEB5002191
:1021B0002148009101911F4A0291026092158260AC
:1021C000017301240475042505614FF46022416008
:1021D000C0E90642FEF7E0FC08B1FEF7F1FB02267B
:1021E000CDE900640524694613480294FEF756FCC5
:1021F00008B1FEF7E5FB0327CDE9007669460E48F6
:10220000FEF74CFC08B1FEF7DBFBCDE90057694651
:102210000948FEF743FC08B1FEF7D2FB69460648C1
:10222000CDE90045FEF73AFC002801D0FEF7C8FBD7
:10223000FEBD0000002401403C0000202DE9F041DB
:1022400086B000242D48009401940294039481697F
:1022500041F010018161816901F0100104918169EF
:1022600041F020018161816901F0200104918169BF
:1022700041F004018161816901F0040104918169E7
:1022800041F00801816180691D4F00F008004FF4A2
:1022900000550490002229463846FEF72CFEDFF850
:1022A00064804FF44056002231464046FEF723FE3C
:1022B0000220CDE902400095012569460195384686
:1022C000FEF724FD40F603408DE8310069464046A4
:1022D000FEF71CFD0320CDE90240CDE9006569460B
:1022E0004046FEF713FD70108DE831006946064840
:1022F000FEF70CFD06B0BDE8F081000000100240C2
:1023000000100140000C01400008014010B586B0EB
:1023100000241748009401940294039404941349F0
:102320000594C0E900144FF6FF71C0E90241046151
:1023300044618461FFF700FA08B1FEF741FB4FF4F6
:102340008050009069460A48FFF780FA08B1FEF70E
:1023500037FB049404A906480594FFF7B9F900284F
:1023600001D0FEF72DFB06B010BD0000002C01408F
:102370006C00002010B58EB00024079408940994D6
:102380000A940B941C2168460C94FDF7E4FE214846
:102390004FF0804101604721C0E901146321C0E989
:1023A00003148461FFF7C8F908B1FEF709FB4FF485
:1023B0008050079007A91748FFF748FA08B1FEF7C1
:1023C000FFFA1448FFF7B3FC08B1FEF7F9FA0B94D3
:1023D0000BA910480C94FFF77BF908B1FEF7F0FA4F
:1023E0006020CDE900040294002269460948049463
:1023F000FFF737FC08B1FEF7E3FA04226946054807
:10240000FFF72FFC08B1FEF7DBFA0248FFF704FCE8
:102410000EB010BDB400002010B58CB02421684669
:10242000FDF799FE00241648099414490A94C0E95E
:1024300000144FF6FF71C0E902410461846103207A
:10244000CDE900040120CDE902040494CDE9054062
:10245000079469460A480894FFF766FA08B1FEF740
:10246000AFFA099409A906480A94FFF731F9002840
:1024700001D0FEF7A5FA0CB010BD0000000400402A
:10248000FC00002010B58CB024216846FDF763FEE7
:1024900000241548099413490A94C0E900144FF622
:1024A000FF71C0E90241046184610120CDE90004AB
:1024B000CDE902040494CDE90540079469460A4831
:1024C0000894FFF731FA08B1FEF77AFA099409A9DE
:1024D00005480A94FFF7FCF8002801D0FEF770FACF
:1024E0000CB010BD00080040440100200C4810B59D
:1024F0000A4901604FF416514160002181600C22AD
:10250000C160C0E904128161C161FFF7CAFC002803
:1025100003D0BDE81040FEF753BA10BD00380140AB
:102520008C010020FEE700007CB50B480B4CCDE988
:1025300000400C4D0A4B002229460B4800F0A3FA3C
:102540000A482A46CDE900400748002311462C30AE
:1025500000F099FA7CBD0000000048C20000C842AB
:10256000CDCCCC3E9A99993ED40500200000C8C23B
:102570002DE9F04104001148114E4FF400554FF47D
:1025800080574FF001020CD429460546FEF7B3FCF4
:10259000002239462846FEF7AEFC30684463BDE8A9
:1025A000F08139460746FEF7A6FC00222946384648
:1025B000FEF7A1FC316860424863F0E7000C01407F
:1025C000B4000020FEE7000010B50021074C0A46C9
:1025D000002004EBC1131A54401CC0B28028FAD367
:1025E000491CC9B20829F3D310BD0000D401002052
:1025F000F0B50B4424E0044685181DE07F2C19D863
:10260000002917DB3F2915DCCE1701EB56764FEA80
:10261000E60C0D4F26F0070607EBCC172744A1EB7D
:10262000060E97F800C0012606FA0EF62CEA060CF4
:1026300087F800C0641C24B2A542DFDC491C09B243
:102640008B42D8DCF0BD0000D401002070B586B00C
:10265000002000900190029001464FF47A7203909E
:102660000020401C9042FCD3491C9142F8D31248F0
:10267000816941F0080181618069112400F008003E
:1026800004904FF48070CDE900040C4E0225694699
:1026900003953046FEF73AFB2802CDE9000469466F
:1026A00003953046FEF732FB012000F0B3F901201C
:1026B00000F0B8F906B070BD00100240000C0140F7
:1026C00070B500240646802525FA04F0304000D07D
:1026D000012000F0A7F9012000F09CF9002000F093
:1026E00099F9641CE4B2082CEED3012000F092F9B1
:1026F000BDE87040002000F08DB910B5012000F059
:1027000091F9012000F086F9002000F08BF9BDE876
:102710001040002000F07EB910B5002000F082F9D2
:10272000012000F077F9BDE81040012000F07AB9EF
:1027300010B5FFF78BFFAE2000F07CF9D52000F03C
:1027400079F9802000F076F9A82000F073F93F2095
:1027500000F070F9D32000F06DF9002000F06AF964
:10276000402000F067F9A12000F064F9C82000F0D3
:1027700061F9DA2000F05EF9122000F05BF98120A7
:1027800000F058F9CF2000F055F9D92000F052F9A7
:10279000F12000F04FF9DB2000F04CF9302000F080
:1027A00049F9A42000F046F9A62000F043F98D2055
:1027B00000F040F9142000F03DF9AF2000F03AF9A4
:1027C000FFF702FFBDE8104000F010B90FB470B57C
:1027D000C0B014460D46064648AA6846479900F020
:1027E00029FC23466A462946304600F091F840B05D
:1027F00070BC5DF814FB10B50C4640F0B00000F062
:1028000019F9102040EA141000F014F904F00F0038
:10281000BDE8104000F00EB908B5082B0DD0062B0E
:102820000AD10A4B02EB420203EB4202C03A009289
:102830000823062200F00EF808BD054B03EB021238
:10284000A2F50072102300920822F3E7B0410008BD
:10285000C03B00082DE9F04F1F4616460D46824644
:102860000024FFF7C5FE7F1EF81707EB507001210B
:10287000DFF898B001EBE00743E000203DE000BF47
:102880000AEB00037F2B36D8E91705EB5171CA100C
:1028900021F00701691A002D03DA521E083112B225
:1028A00009B202EB0409B9F1070F0ED8099A04FB2B
:1028B00006F802440BEBC91E18F802201EF803C0EC
:1028C0008A404CEA020C0EF803C009F10102072A03
:1028D00011D80BEBC91202EB0308099A04FB06FCA2
:1028E000024498F880301CF80220C1F10801CA4067
:1028F000134388F88030401CC0B2B042C0D3641C7F
:10290000E4B2A742B9DCBDE8F08F0000D40100209A
:102910002DE9FF4F002583B09B4690462C46AA46E2
:10292000DFF8C09056E010068DF8042005F101058F
:102930000DD40398ADB220448DF805A000B25B46DB
:102940000499FFF769FF04EB0B0084B242E0A8B2E0
:1029500018F80010002941D0401C8DF8051085B2F0
:102960008DF806A0002606E0384601A9FDF7FEFB1B
:1029700068B1761CB6B2C6EBC60000EB800101EB75
:102980000900074618A1FDF7F1FB0028ECD1BBF1C7
:10299000080F03D0BBF1060F1CD111E0C6EBC60037
:1029A00000EB800101EB0900C01C0090039810238C
:1029B000204400B21A460499FFF74CFF103408E097
:1029C00003980623204400B23F220499FFF724FF16
:1029D000A41DA4B218F80520002AA4D107B0BDE8B0
:1029E000F08F0000EA4300080000000070B5084DB9
:1029F000002400212046FFF7FEFE05EBC4108021D5
:102A000000F029F8641CE4B2082CF2D370BD000079
:102A1000D401002002464FF480710148FEF76BBAE2
:102A2000000C014002464FF400710148FEF763BA02
:102A3000000C014010B50446FFF75FFE7820FFF759
:102A40003FFE0020FFF73CFE2046FFF739FEBDE8C1
:102A50001040FFF761BE70B50D460646FFF74DFE0C
:102A60007820FFF72DFE4020FFF72AFE002404E027
:102A7000305DFFF725FE641CE4B2AC42F8D3BDE83C
:102A80007040FFF749BE30B500F10C0CDDE903459D
:102A90008CE80E00002102C002C040F8101B02C0EA
:102AA00002C080E8320030BD2DE9F041044685695E
:102AB000C561D4E90001FDF7B9FBA06127690646AD
:102AC00017F0FF4F35D029463046FDF7AFFB61695F
:102AD000FDF7B2FB05463846216AFDF7ADFB074618
:102AE0003146E068FDF7A8FB3946FDF74DFB294666
:102AF000FDF74AFB0546616AFDF7A6FD03D3A06911
:102B0000B0F5000F17DA2846A16AFDF7A7FD03D339
:102B1000A06910F1FF4F0ED2A169206AFDF734FBC6
:102B200021492062884202DC2049884203D921627F
:102B300001E000202062D4E906512846FDF776FB2B
:102B40000146DFF86C801B48FDF776FB1A4F0646FE
:102B500040463968FDF770FB3146FDF715FB01462D
:102B600038606069FDF768FB0746216A2069FDF758
:102B700063FB06462946E068FDF75EFB3146FDF73C
:102B800003FB3946FDF700FBA060616AFDF766FDB7
:102B900001D2606AA060A16AA068FDF755FD01D26C
:102BA000A06AA060BDE8F0810000FA430000FAC30B
:102BB000CDCC4C3FCCCC4C3E24000020704770471D
:102BC000FEF7A4B930B593B028216846FDF7C3FAE3
:102BD00014210AA8FDF7BFFA002501200F951095D2
:102BE0001195010412958DE8230004904FF4E01034
:102BF000CDE90810022407946846FEF7C3FB08B12C
:102C000072B6FEE70AA90F2081E831004FF4806018
:102C1000CDE90D0502210AA8FEF7D8FA08B172B66F
:102C2000FEE74FF4004011900F940FA8FEF758FAFA
:102C3000002801D072B6FEE713B030BD7047000027
:102C40000148FEF751BF00006C0000200148FEF76C
:102C50004BBF0000B4000020F0B50268194B1A4CBD
:102C60001A4D4FF08047984205D0B84203D0A04299
:102C700001D0A84203D122F070064A68324398423C
:102C800005D0B84203D0A04201D0A84203D122F41B
:102C90004074CA6822434C6922F0800222430260D9
:102CA0008A68C2620A688262984201D10969016336
:102CB000012141610169C90703D0016921F00101C6
:102CC0000161F0BD002C01400004004000080040FC
:102CD00010B501F01F030121046A99408C4304627E
:102CE000016A9A401143016210BD10B5846842EA3E
:102CF000032224F47F440A432243826010BD826889
:102D000022F070020A4342F0070181607047000020
:102D100030B5036A026A22F00102026242688469E5
:102D200024F073050C682C4323F002058B682B43B9
:102D30000A4DA8420BD123F00805CB6822F440725B
:102D40002B434D6923F0040315438A692A434260EB
:102D5000846149684163036230BD0000002C01407A
:102D600030B5026A036A23F0100303624368846982
:102D70000D6824F4E64444EA05248D6822F020021C
:102D800042EA05120B4DA8420ED1CD6822F0800216
:102D900042EA05124D6923F4406343EA85038D69D5
:102DA00022F0400243EA85034360846149688163FD
:102DB000026230BD002C014030B5036A026A22F481
:102DC000807202624268C46923F4007324F07305C0
:102DD0000C682C438D6843EA05230C4DA8420ED1A4
:102DE000CD6823F4006343EA05234D6922F4405281
:102DF00042EA05128D6923F4806342EA05124260BB
:102E0000C4614968C163036230BD0000002C014009
:102E100030B5046A026A22F4805202624268C369D1
:102E20000D6823F4E64343EA05238D6824F4005437
:102E300044EA0534064DA84204D14D6922F480428B
:102E400042EA85124260C36149680164046230BD90
:102E5000002C014010B5036A046A24F001040462E6
:102E6000846924F0F00444EA021423F00A020A43BD
:102E70008461026210BD10B5036A046A24F0100474
:102E80000462846923F0A00324F4704444EA02320B
:102E900043EA01118261016210BD01680C3151E801
:102EA000002F22F4907241E80023002BF5D1016835
:102EB000143151E8002F22F0010241E80023002BD9
:102EC000F5D1016B012909D101680C3151E8002FBE
:102ED00022F0100241E80023002BF5D1202180F8D8
:102EE000421000210163704770B504460068016913
:102EF000E26821F44051114301612169A06808434F
:102F0000616908432168CA6841F20C639A4302432D
:102F1000CA6020684169A26921F44071114341618E
:102F20001E492068884202D1FEF7F6F901E0FEF75B
:102F3000E3F900EBC00101EB00126068642180003E
:102F4000B2FBF0F3B3FBF1F36FF018067343B2FB7F
:102F5000F0F5B2FBF0F605EB8305322303EB051524
:102F6000B5FBF1F5B6FBF1F605F0F00505EB06153E
:102F7000B2FBF0F6B2FBF0F0B0FBF1F06FF018022C
:102F8000504306EB800003EB0010B0FBF1F021682A
:102F900000F00F002844886070BD00000038014038
:102FA0002DE9F843984617460D460446089E24E04E
:102FB000701C22D0FDF7A4FFA0EB0800B0421AD885
:102FC000CEB12068C168490717D5802D15D0402D96
:102FD00013D00168C94309070FD401680025406870
:102FE00000902046FFF759FF0820606484F84050A5
:102FF0000120BDE8F8830320FBE72068006835EA7C
:10300000000004D00020B842D2D00020F1E7012017
:10301000F9E7FEE70FB4054B10B503A9044A02987F
:1030200000F0FCF810BC5DF814FB00002D3900081E
:103030003800002037B514460846064B6A4621463C
:1030400000F0ECF804466946002000F06AFC2046D7
:103050003EBD0000233900080907090E002804DBE3
:1030600000F1E02080F80014704700F00F0000F13C
:10307000E02080F8141D704702E008C8121F08C144
:10308000002AFAD170477047002001E001C1121FE9
:10309000002AFBD1704700002DE9FF5F82B00021BC
:1030A000DDE90430020DDDF840B0034318D044F6EA
:1030B0001050A2F2FF3242431514119801281FD07C
:1030C000A5EB0B00401C5FEA000A4FF000064E4FD4
:1030D000DFF83891B046504615D5CAF1000413E028
:1030E000119801244AA3012801D16FEA0B0102982B
:1030F000119AC0E90031C0E9024206B0BDE8F09F74
:10310000CBF10000DFE704460021404A491842EBBA
:103110000450CDE9001012E0E00707D032463B46EC
:1031200040464946FDF761F98046894632463B46AE
:1031300010461946FDF759F906460F466410002C53
:10314000EAD1DDE90401DDE90023BAF1000F06DA76
:10315000FDF74BF942464B46FDF747F905E0FDF711
:10316000B6F942464B46FDF7B2F904460E46002238
:10317000284BFDF751FA03D84FF0FF30014607E026
:103180000022254B20463146FDF788F8FDF76CFB01
:10319000102409E0002C0ADB0A220023FDF77EFA46
:1031A000039B30321A55641E50EA0102F2D1641CAE
:1031B000039AC4F111031444119A012A03D0012285
:1031C00008430DD10AE0084304D000204FF0110B52
:1031D000119072E7A3EB0B056D1E0DE05B4504DD5E
:1031E0004FF0000205F1010504E003DA4FF00002A0
:1031F000A5F10105002AECD002981199C0E902312D
:10320000C0E9004579E70000000014400000F03FED
:10321000300000000000F0430000E03F2DE9FF4FC8
:1032200095B09A46884606460025EEE1252877D1D6
:1032300000242746F94A0121039400E0044316F8CC
:10324000013F203B01FA03F01042F7D130782A28E1
:1032500011D06FF02F033078A0F13002092A16D870
:10326000039A44F0020402EB820203EB4202104490
:10327000761C0390EFE758F8042B0392002A03DA38
:10328000504244F40054039044F00204761C307819
:103290002E2816D116F8010F44F004042A280DD068
:1032A0006FF02F023078A0F13003092B09D807EB1B
:1032B000870302EB4303C718761CF3E758F8047B37
:1032C000761C30786C280FD006DC4C2817D0682884
:1032D0000DD06A2814D104E0742810D07A280FD1B8
:1032E0000DE044F400140AE044F4801401E044F4D6
:1032F00040147278824202D104F58014761C761C48
:10330000307866280BD013DC582877D009DC0028E9
:1033100075D04528F6D04628F4D047281AD193E135
:1033200018E0632835D0642879D0652812D18BE164
:10333000702873D008DC6728F1D069286FD06E2818
:103340000DD06F2806D1ACE073282CD0752874D02E
:10335000782853D05246179990476D1C54E1C4F316
:103360000250022809D003280DD0D8F800100428F4
:103370000DD00D6008F1040846E1D8F80010EA17F6
:10338000C1E90052F6E7D8F800100D80F2E70D70A1
:10339000F0E718F8041B8DF8001000208DF80100EC
:1033A000EB46012003E058F804BB4FF0FF30610703
:1033B0004FF0000102D40DE009F101018946B94244
:1033C0000FDA8145F8DB1BF809100029F4D108E079
:1033D00009F1010189468142FADB1BF80910002935
:1033E000F6D103985346A0EB090721463846179AB1
:1033F00000F080FA284400EB090507E044E008E10A
:103400000DE01BF8010B524617999047B9F10109DD
:10341000F7D2534621463846179AF2E039E00A219E
:10342000C4F302524FF0000B0091022A06D058F864
:10343000040BC117032A09D00AE023E008F10700B2
:1034400020F00702F2E80201904605E000B2C11741
:10345000042A01D140B2C117002906DA0A46002128
:10346000404261EB02012D2202E0220504D52B220D
:103470008DF80420012203E0E20701D02022F7E7C3
:10348000914657E00A2100E010214FF0000B009117
:103490000BE010214FF0000B44F0040408270091CA
:1034A00003E008204FF0000B0090C4F30252022A00
:1034B00005D058F8040B0021032A08D008E008F1D1
:1034C000070020F00702F2E80201904603E080B214
:1034D000042A00D1C0B24FF0000922072AD5327861
:1034E000702A07D0DDF800C08CF0100C5CEA0B0CE1
:1034F00005D00EE040228DF80420012208E050EAB9
:10350000010306D030238DF804308DF80520022207
:103510009146009B83F0080353EA0B030AD150EA5B
:10352000010201D1620705D530228DF804204FF049
:1035300001097F1E3278582A04D039A20C920CAAB5
:1035400002920BE03BA2F9E75B46009AFDF7A6F872
:103550000C9B9B5C029A521E0292137050EA01026D
:10356000F2D1029804A9081A00F1200B600702D5D5
:1035700024F4803400E001275F4502DDA7EB0B0057
:1035800000E0002000EB0B01009003984944401A32
:103590000390E00306D453462146179A039800F09F
:1035A000A9F90544002706E001A85246C05D179915
:1035B00090476D1C7F1C4F45F6DBE0030CD553464E
:1035C0002146179A039800F095F9054404E030204D
:1035D0005246179990476D1C0099481E009000298B
:1035E000F5DC08E00298029952460078491C0291E5
:1035F000179990476D1CBBF10001ABF1010BF1DC99
:103600005BE100F065F90544761C307800287FF412
:103610000DAE19B02846BDE8F08F00000928010062
:103620003031323334353637383961626364656638
:1036300000000000303132333435363738394142FA
:103640004344454600000000600700D4062708F107
:10365000070020F00700F0E80223804603F0004C4A
:103660005FEA0C0001D097A009E0200501D596A0E3
:1036700005E0E00701D095A001E0AFF24C00139007
:10368000307823F0004365280CD006DC452809D0AB
:1036900046281DD047287FD13BE0662818D06728F0
:1036A0007AD136E00021112F01DB112000E0781CD7
:1036B000CDE9000104A90CA8FFF7EEFCDDE90D013E
:1036C0000C9A4FF0000B07F10109109200914EE0A7
:1036D0004FF000400097CDE9011004A90CA8FFF7B6
:1036E000DBFCDDE90D020C9B0F994FF0000B9146BE
:1036F0001093009211B9791C00EB0109B7EB090096
:1037000003D4C0F1FF3B07F10109A9EB07000190C9
:1037100042E0012F00DA01270021112F01DD1120E5
:1037200000E03846CDE9000104A90CA8FFF7B4FC7D
:10373000DDE90D010C9A00914FF0000BB946109293
:1037400021070FD4009A4A4503DA914601E0A9F116
:103750000109B9F1010F05DD109AA9F10101515CD0
:103760003029F4D0B84202DA10F1040F03DA012153
:10377000CDE9011010E0002803DC8344A9EB00012F
:1037800002E0411C494500DD8946A0EB0B00401CCE
:1037900001904FF000400290200705D40198484561
:1037A00002DB4FF0FF30019000208DF84B000298B3
:1037B0000DF14B07B0F1004F25D002200C902B20CB
:1037C0000D90029800280CDA404202902D200D90B6
:1037D00007E00A210298FCF74BFF3031029007F80E
:1037E000011D0C99481E0C900029F2DC029800285B
:1037F000EFD1791E0D980870307800F0200040F06D
:10380000450007F8020D11A8C01BC01D02901398B7
:10381000007800B1012000EB0901019801EBE07193
:10382000029801440398401A401E0390E00306D416
:1038300053462146179A039800F05CF80544139804
:10384000007818B15246179990476D1CE00323D5B4
:1038500053462146179A039800F04CF805441BE0A4
:10386000BBF1000F07DB0098584504DD109817994D
:1038700010F80B0001E0179930205246904701984C
:103880000BF1010B401E05F10105019004D12E2022
:103890005246179990476D1CB9F10001A9F1010931
:1038A000DEDC05E017F8010B5246179990476D1CB6
:1038B0000299481E02900029F4DC53462146179ACB
:1038C00003989EE62D0000002B0000002000000061
:1038D0002DE9F041044600251E461746880404D40D
:1038E00005E039462020B0476D1C641EF9D52846F6
:1038F000BDE8F0812DE9F041044600251E469046C2
:10390000C80301D5302700E02027880404D505E04E
:1039100041463846B0476D1C641EF9D52846BDE8BF
:10392000F0810A68531C0B601070704713B56FF07C
:103930007F43012269460248FEF71EFB00981CBD2A
:103940008C0100201FB5FDF7E9FAFFF73BF9FEF700
:1039500075FCFEF72BFCFEF70DFDFEF75DFDFEF797
:1039600091FDFEF7C3FDFEF7D1FC6648FDF72AF88E
:10397000FEF7DEFE00F008F9FEF7D6FD6248FDF71F
:1039800039FF002161A308220846FEF71FFFFFF759
:103990002DF8DFF88891624C00F006F930B101286B
:1039A00009D002280DD0032810D10CE04946206828
:1039B000FCF7EAFB03E049462068FCF737FC20608F
:1039C00004E00020FBE757A0FFF724FBE068FCF7CA
:1039D0000FFECDE9000157A3062210210020FEF7BB
:1039E000F5FE2069FCF704FECDE9000154A3062290
:1039F00018210020FEF7EAFE6069FCF7F9FDCDE929
:103A0000000152A3062220210020FEF7DFFE2068DD
:103A1000FCF7EEFDCDE900014FA30622282100208E
:103A2000FEF7D4FE6068FCF7E3FDCDE900014DA38D
:103A3000062230210020FEF7C9FEA068FCF7D8FD61
:103A4000CDE900014AA3062238210020FEF7BEFE80
:103A5000A06BFCF7CDFDCDE9000136A306221021B5
:103A60004020FEF7B3FEE06BFCF7C2FDCDE900019C
:103A700033A3062218214020FEF7A8FE206CFCF795
:103A8000B7FDCDE9000131A3062220214020FEF739
:103A90009DFEE06AFCF7ACFDCDE900012EA30622F5
:103AA00028214020FEF792FE206BFCF7A1FDCDE916
:103AB00000012CA3062230214020FEF787FE606B18
:103AC000FCF796FDCDE9000129A30622382140200C
:103AD000FEF77CFEFEF78AFFA068FCF789FD07462B
:103AE00088466068FCF784FD05460E462068FCF7B2
:103AF0007FFD8DE8E00102460B4620A0FFF78AFA21
:103B00004AE700003C0000206C000020322A5049A7
:103B10004420436F6E74726F6C0000000000CC4351
:103B2000D40500206B657934207072657373656409
:103B300021720A004B703A25342E326600000000D4
:103B40004B693A25342E3266000000004B643A255A
:103B5000342E3266000000005461723A252B303456
:103B60002E3066004163743A252B30342E306600C7
:103B70004F75743A252B30342E30660025662C257F
:103B8000662C25660D0A000010B500210448FEF7DA
:103B9000FDF8BDE810403C210248FDF75DBF000084
:103BA000B4000020FC00002010B50024E0B2022187
:103BB000FEF734FA10B9641C042CF7DBE0B210BD38
:103BC00000000000000000000000000000000000F5
:103BD000000000F80000000000000033300000008A
:103BE00000160E00160E000000000000000000008D
:103BF00040C07840C0784000043F04043F04040003
:103C0000007088FC08300000001820FF211E000012
:103C1000F008F000E018000000211C031E211E0027
:103C200000F00888700000001E21232419272110AD
:103C3000000000160E000000000000000000000060
:103C4000000000E0180402000000000718204000F7
:103C500000020418E00000000040201807000000E7
:103C6000404080F0804040000202010F010202004B
:103C7000000000F0000000000101011F010101002F
:103C8000000000000000000000B070000000000014
:103C9000000000000000000000010101010101011D
:103CA00000000000000000000030300000000000B4
:103CB0000000000080601804006018060100000089
:103CC00000E010080810E000000F102020100F0086
:103CD000001010F8000000000020203F202000000D
:103CE0000070080808887000003028242221300065
:103CF00000300888884830000018202020110E006D
:103D00000000C02010F8000000070424243F240015
:103D100000F80888880808000019212020110E00EA
:103D200000E0108888180000000F112020110E00FC
:103D300000380808C83808000000003F00000000F4
:103D40000070880808887000001C222121221C00B5
:103D500000E010080810E0000000312222110F00DE
:103D6000000000C0C0000000000000303000000073
:103D7000000000C0C0000000000080B07000000023
:103D800000008040201008000001020408102000FC
:103D90004040404040404000040404040404040047
:103DA00000081020408000000020100804020100DC
:103DB000007048080808F0000000003036010000DC
:103DC000C030C828E810E0000718272423140B008F
:103DD0000000C038E0000000203C23020227382009
:103DE00008F8888888700000203F202020110E00ED
:103DF000C0300808080838000718202020100800E4
:103E000008F808080810E000203F202020100F00CC
:103E100008F88888E8081000203F20202320180098
:103E200008F88888E8081000203F20000300000000
:103E3000C03008080838000007182020221E0200A1
:103E400008F808000008F808203F210101213F2060
:103E5000000808F8080800000020203F202000008B
:103E600000000808F8080800C08080807F0000007B
:103E700008F888C028180800203F200126382000B4
:103E800008F8080000000000203F2020202030001B
:103E900008F8F800F8F80800203F003F003F200035
:103EA00008F830C00008F808203F200007183F003D
:103EB000E01008080810E0000F10202020100F006C
:103EC00008F808080808F000203F2101010100005F
:103ED000E01008080810E0000F18242438504F00A4
:103EE00008F8888888887000203F2000030C302064
:103EF00000708808080838000038202121221C00A2
:103F0000180808F8080818000000203F20000000EA
:103F100008F808000008F808001F202020201F00D3
:103F20000878880000C83808000007380E01000033
:103F3000F80800F80008F800033C0700073C0300FD
:103F4000081868808068180820302C03032C302063
:103F50000838C800C83808000000203F20000000D2
:103F600010080808C838080020382621202018002A
:103F7000000000FE020202000000007F40404000FE
:103F8000000C30C000000000000000010638C00036
:103F900000020202FE000000004040407F000000DE
:103FA000002010080408102000000000000000009D
:103FB0000000000000000000808080808080808001
:103FC00000020408000000000000000000000000E3
:103FD00000008080808000000019242222223F20DF
:103FE00008F8008080000000003F112020110E0022
:103FF0000000008080800000000E112020201100B1
:10400000000000808088F800000E112020103F2062
:104010000000808080800000001F222222221300E6
:10402000008080F0888888180020203F2020000031
:104030000000808080808000006B949494936000E6
:1040400008F8008080800000203F210000203F20F1
:1040500000809898000000000020203F20200000F1
:10406000000000809898000000C08080807F0000E1
:1040700008F8000080808000203F24022D302000BE
:10408000000808F8000000000020203F2020000069
:104090008080808080808000203F20003F20003F83
:1040A000008080008080000000203F2100203F2011
:1040B0000000808080800000001F202020201F0042
:1040C000808000808000000080FFA12020110E0071
:1040D0000000008080808000000E112020A0FF8062
:1040E000808080008080800020203F21200001000F
:1040F0000000808080808000003324242424190064
:10410000008080E0808000000000001F2020000070
:104110008080000000808000001F202020103F20B1
:10412000808080000080808000010E300806010041
:1041300080800080008080800F300C030C300F00E6
:1041400000808000808080000020312E0E31200011
:10415000808080000080808080818E701806010041
:1041600000808080808080000021302C222130005F
:1041700000000000807C020200000000003F404080
:1041800000000000FF00000000000000FF00000031
:104190000002027C800000000040403F0000000060
:1041A000008040408000008000000000000101000D
:1041B0000000000000000000002F000000000700C9
:1041C000070000147F147F1400242A7F2A12002382
:1041D00013086462003649552250000000070000B1
:1041E00000001C224100000041221C000014083E77
:1041F00008140008083E0808000000A0600000083D
:104200000808080800006060000000201008040290
:10421000003E5149453E0000427F4000004261514E
:104220004946002141454B31001814127F100027E8
:1042300045454539003C4A494930000171090503AB
:1042400000364949493600064949291E00003636DC
:10425000000000005636000000081422410000143F
:10426000141414140000412214080002015109061C
:10427000003E4955592E007C1211127C007F49499D
:104280004936003E41414122007F4141221C007FCE
:1042900049494941007F09090901003E4149497ADC
:1042A000007F0808087F0000417F41000020404156
:1042B0003F01007F08142241007F40404040007FC2
:1042C000020C027F007F0408107F003E4141413E06
:1042D000007F09090906003E4151215E007F09194E
:1042E00029460046494949310001017F0101003F4B
:1042F0004040403F001F2040201F003F4038403FCB
:10430000006314081463000708700807006151492E
:10431000454300007F4141000002040810200000D6
:1043200041417F000004020102040040404040403F
:10433000000001020400002054545478007F4844D7
:10434000443800384444442000384444487F00380E
:104350005454541800087E0901020018A4A4A47C37
:10436000007F080404780000447D40000040808401
:104370007D00007F102844000000417F4000007C49
:1043800004180478007C0804047800384444443855
:1043900000FC242424180018242418FC007C0804A1
:1043A000040800485454542000043F444020003C7A
:1043B0004040207C001C2040201C003C4030403C01
:1043C000004428102844001CA0A0A07C0044645491
:1043D0004C440000087F41000000007F0000000006
:1043E000417F0800000804081008A3AC000000008A
:1043F0000000000000000000000000000000005865
:1044000038000000000000000000000000A1A30030
:10441000000000000000000000000000000000009C
:104420000000182424180000000000000000000014
:10443000C4E300008060F8074020180F08C808088F
:10444000281800010000FF00100C0340807F0001CD
:10445000061800BAC3001010F01F10F0008082820E
:10446000E2928A8680004022150816610000408092
:104470007F0000000000CAC000202020FE2020FF96
:10448000202020FF20202020000000007F40404707
:10449000444444474040400000BDE700000000FEA7
:1044A000929292FE929292FE00000000080804840C
:1044B000621E010001FE020404080800000000FF63
:1044C0000101013109090909897101010101FFFF98
:1044D0008080808080809681808080808080FF01C5
:1044E0000202030405060708090A0B0C0D0E0F1043
:1044F00010010202030405060708090A0B0C0D0E41
:104500000F1010000000000000000001020304066C
:104510000708090000000001020304003C450008F0
:10452000000000203C0000007830000878450008BA
:104530003C000020F4090000883000080000000062
:10454000000000000000000000000000000000006B
:10455000000000000000000000000000000000005B
:10456000000000000100000010000000000000003A
:0845700000127A0000000000B7
:04000005080000ED02
:00000001FF
