:020000040800F2
:10000000480B00209D0100081B1F00081B1800085A
:10001000191F0008190500087528000800000000D5
:10002000000000000000000000000000A9230008FC
:100030001B05000800000000832100084926000875
:10004000B7010008B7010008B7010008B7010008B0
:10005000B7010008B70100081D050008B701000836
:10006000B7010008B7010008B7010008B701000890
:10007000B7010008B7010008B7010008B701000880
:10008000B7010008B7010008B7010008B701000870
:10009000B7010008B7010008B701000825050008EE
:1000A000B7010008B7010008B7010008B701000850
:1000B000B7010008B7010008B7010008B701000840
:1000C000B7010008B7010008B7010008B701000830
:1000D000B7010008B7010008B7010008B701000820
:1000E000B7010008B7010008B7010008B701000810
:1000F000B7010008B7010008B7010008B701000800
:10010000B7010008B7010008B7010008B7010008EF
:10011000B7010008B7010008B7010008B7010008DF
:10012000B7010008B7010008B7010008B7010008CF
:10013000B7010008B7010008B7010008B7010008BF
:10014000B7010008B7010008B7010008B7010008AF
:10015000B7010008B7010008B7010008B70100089F
:10016000B7010008B7010008B7010008B70100088F
:10017000B7010008B7010008B7010008000000003F
:10018000B7010008B7010008DFF80CD000F06CF9E7
:1001900000480047ED2D0008480B00200648804726
:1001A00006480047FEE7FEE7FEE7FEE7FEE7FEE75C
:1001B000FEE7FEE7FEE7FEE7E1260008890100080A
:1001C0002DE9F05F0546002092469B46884606468C
:1001D000814640241BE0284641464746224600F01F
:1001E000D6F853465A46C01A914110D311461846C4
:1001F000224600F0BDF82D1A67EB01084F46224653
:100200000120002100F0B4F817EB00094E41201E38
:10021000A4F10104DFDC484631462A464346BDE8E6
:10022000F09FD2B201E000F8012B491EFBD27047CB
:100230000022F6E710B513460A4604461946FFF7B2
:10024000F0FF204610BD2DE9F04D81EA030404F0D3
:10025000004B21F0004514464FF0000A23F0004106
:1002600050EA050220D054EA01021DD0C5F30A5716
:100270000246C5F31303C1F31300C1F30A5640F459
:10028000801543F48013A7EB0608101BD64608F22E
:10029000FD3873EB050002D308F1010801E0921864
:1002A0005B41B8F1000F03DA00200146BDE8F08D94
:1002B00000204FF48011064684460EE0171B73EBB6
:1002C000050705D3121B63EB050306434CEA010C3B
:1002D00049084FEA300092185B4150EA0107EDD11E
:1002E00052EA030012D082EA040083EA05010843BF
:1002F00005D0101BAB4106D20122002306E00022EC
:100300004FF0004302E06FF0010253101AEB0600B9
:100310004CEB085110EB0A0041EB0B01BDE8F04D2E
:1003200000F045B80EB540F2334102910021CDE90D
:1003300000110A460B4600F049F803B000BDC1F3B6
:100340000A5210B5C1F3130140F2FF3341F480119A
:100350009A4201DA002010BD40F233439A42A2F2E1
:10036000334203DC524200F012F810BD904010BD41
:10037000202A04DB203A00FA02F100207047914065
:10038000C2F1200320FA03F3194390407047202A5A
:1003900004DB203A21FA02F00021704721FA02F32F
:1003A000D040C2F12002914008431946704710B571
:1003B000141E73F1000408DA401C41F10001921888
:1003C0005B411A4301D120F0010010BD2DE9F04D31
:1003D00092469B4611B1B1FA81F202E0B0FA80F286
:1003E00020329046FFF7C4FF04460F4640EA0A0059
:1003F00041EA0B0153465A46084313D0114653EACB
:10040000010019D0C8F140025046FFF7C0FF054671
:100410000E46504659464246FFF7AAFF084305D00C
:10042000012004E020463946BDE8F08D0020054358
:1004300046EAE0762C4337430A986305E40AA0EBCA
:1004400008000022FD0A44EA47540A3002D5002081
:100450000146E9E7010510196941DDE90845001980
:100460006941BDE8F04DA2E7064C074D06E0E068A3
:1004700040F0010394E8070098471034AC42F6D3EB
:10048000FFF786FE543800087438000870B58C18E1
:1004900010F8015B15F0070301D110F8013B2A1198
:1004A00006D110F8012B03E010F8016B01F8016B85
:1004B0005B1EF9D12B0705D40023521E0DD401F881
:1004C000013BFAE710F8013BCB1A921C03E013F84A
:1004D000015B01F8015B521EF9D5A142D8D300207F
:1004E00070BD000008B500208DF80000C82301226F
:1004F0006946034800F06CFE9DF8000008BD00004E
:100500005406002001B5C82301226946014800F0C5
:100510000CFF08BD54060020FEE77047012000F0E4
:1005200053B8000010B504A002F0DAF9BDE810409D
:10053000202000F049B8000045585449395F355F24
:1005400049525148616E646C6572210A00000000D6
:1005500072B6FEE770B5044600F04CF90546601C23
:1005600002D004480078044400F044F9401BA04243
:10057000FAD370BDE404002070B54FF0E0240022EF
:1005800065690949A36909684843A1699942FCD092
:1005900002D2A3EB010302E0A5EB010633441A44A7
:1005A0000B468242F1D370BDE0000020202805D028
:1005B000012805D10421034800F00FB901F02EB93C
:1005C0007047000000040240044910B50A68024266
:1005D00002D00860FFF7EAFF10BD0000143C0140A4
:1005E0002DE9F84FDFF8BCA1002201250AF1040B28
:1005F00003264FF00F090BF1040E00BF0B6805FA3C
:1006000002F42340A34270D10F7907F00307012FB2
:1006100001D0022F16D187684FEA420806FA08FC7B
:1006200027EA0C07D1F80CC00CFA08FC4CEA070CBE
:10063000C0F808C04768A7430C79C4F3001494407D
:100640003C4344600C79E443A4070AD0C4684FEAF1
:10065000420C06FA0CF7BC438F6807FA0CF72743E5
:10066000C7600C7904F00304022C12D1D40800EB0B
:10067000840CDCF820405707FF0E09FA07F824EA3B
:100680000804D1F8108008FA07F848EA0408CCF802
:10069000208004684FEA420C06FA0CF7BC430F793D
:1006A00007F0030707FA0CF7274307604C6814F4B8
:1006B000403F70D03C4C276847F48047276024684F
:1006C00022F0030704F480440094384C07EB040C38
:1006D000DCF8084897074FEA177809FA08F7BC438F
:1006E000334FB84202D1002724E054E0314FB842E2
:1006F00001D101271EE0304FB84201D1022719E095
:100700002E4FB84201D1032714E02D4FB84201D13A
:1007100004270FE02B4FB84201D105270AE02A4FEA
:10072000B84201D1062705E0284FB84201D107277A
:1007300000E0082707FA08F72743CCF80878DAF82A
:1007400000405746D1F804C09C435FEACC3C00D53A
:100750001C433C60DBF800405F46D1F804C09C437A
:100760005FEA8C3C00D51C433C60DEF800407746D5
:10077000D1F804C09C435FEACC2C00D51C433C60FC
:10078000084F0C373C68D1F804C09C435FEA8C2CBE
:1007900000D51C433C60521C102AFFF42FAFBDE86B
:1007A000F88F0000003C0140443802400030014016
:1007B000000002400004024000080240000C024019
:1007C000001002400014024000180240001C0240C9
:1007D0000069084000D001207047426921EA020305
:1007E0000A4043EA0241816170470AB18161704762
:1007F0000904FBE70148806870470000E40400201A
:1008000070B5040025D094F83D00002520B984F887
:100810003C50204600F0B8F8242084F83D002068C1
:10082000016821F0010101602068016841F4004184
:1008300001602068016821F40041016000F00CFAB9
:100840004D4A6168914201D84C4900E04C498842C8
:1008500001D2012070BD4B492368B0FBF1F15E6805
:1008600026F03F060E435E606368934206D94FF45C
:10087000967359434FF47A73B1FBF3F12368491C23
:100880001E6A26F03F06314319626168914210D812
:100890004900401EB0FBF1F2521CC2F30B02042AC5
:1008A00001D2042022E0B0FBF1F0401CC0F30B00A9
:1008B0001CE0A268F2B301EBC10303EB0116431E77
:1008C000B3FBF6F35B1C43F480431B0549D092B3A2
:1008D00001EBC10202EB0111401EB0FBF1F0401C24
:1008E000C0F30B0040F4804040F400402168CA6926
:1008F0004CF6FF739A431043C861D4E907100143D3
:100900002068026822F0C00211430160D4E90301AB
:1009100001432068826848F2FF339A4311438160A3
:10092000D4E9050108432168CA6822F0FF02104398
:10093000C86001E00EE016E02068016841F00101A6
:1009400001602564202084F83D00256384F83E5032
:10095000002070BD01EB4106431EB3FBF6F35B1CA8
:10096000B3E70120C2E701EB4101401EB0FBF1F00B
:10097000401CC0F30B00B7E7A086010080841E0076
:1009800000093D0040420F0010B586B00446142116
:100990006846FFF74DFC13492068884220D1124871
:1009A0000021026842F002020260006800F00200CA
:1009B0000590C02000901220CDE901010320039092
:1009C0000420049069460948FFF70AFE06481030E3
:1009D000016841F400110160006800F40010059006
:1009E00006B010BD00540040303802400004024000
:1009F000024881680278114481607047E404002055
:100A00000B4810B5016841F400710160016841F4C0
:100A100080610160016841F480710160032000F091
:100A20006FF80F2000F006F800F024F8002010BD49
:100A3000003C024070B50D4D04464FF47A712878A1
:100A4000B1FBF0F00A490968B1FBF0F000F011FECB
:100A500048B9102C07D200222146501E00F030F871
:100A600000206C6070BD012070BD0000E404002017
:100A7000F00400200A4808B5016841F48041016093
:100A8000006800F4804000900548001F016841F0B4
:100A900080510160006800F08050009008BD0000A7
:100AA00044380240002809DB00F01F020121914078
:100AB0004009800000F1E020C0F8001170470000FC
:100AC000F0B40E4B1B680C46C3F30223C3F10705B9
:100AD000042D00D90425191D072901D2002300E0A7
:100AE000DB1E012606FA05F1491E214099409E4071
:100AF000761E16403143F0BC01F016BF0CED00E04D
:100B0000064900F0070208684FF6FF03184040EA64
:100B10000220034A10430860704700000CED00E01B
:100B20000000FA052DE9F0470E46050065D0DFF814
:100B30001481D8F80000F7B200F00700B04207D2E5
:100B400088F80070D8F8000000F00700B04254D1D7
:100B500028683D4C810712D5400703D5206840F432
:100B6000E05020602878000703D5206840F46040FA
:100B700020602068A96820F0F000084320602878F1
:100B8000C0072DD0304968680839012812D00228E2
:100B900013D0032811D00968890700292DDA2168AC
:100BA00021F0030101432160FFF724FE814641F259
:100BB000883A0EE009688903EFE709688901ECE7E4
:100BC000FFF718FEA0EB0901514502D90320BDE84B
:100BD000F0872068696800F00C00B0EB810FEFD15E
:100BE000D8F80010404601F00701B14207D907705C
:100BF000006800F00700B04201D00120E7E7287844
:100C0000400705D52068E96820F4E05008432060DB
:100C10002878000706D52068296920F4604040EA5A
:100C2000C100206000F038F82168084AC1F30311C0
:100C3000515CC8400649086006480068FFF7FAFEA4
:100C40000020C4E7003C0240083802403C3800085D
:100C5000F0040020E8040020044805490068096801
:100C6000044AC1F38221515CC8407047F00400205F
:100C7000083802404C3800080448054900680968F3
:100C8000044AC1F34231515CC8407047F00400206F
:100C9000083802404C380008154810B5006810F0BC
:100CA0000C02144813D04110042A0FD0082A0ED188
:100CB0000F4C241F2268236802F03F025B0207D515
:100CC0002068C0F38810A0FB010106E0084610BDB3
:100CD0002168C1F38811A1FB00010023FFF770FA1E
:100CE0002168C1F30141491C4900B0FBF1F010BD7E
:100CF000083802400024F4002DE9F84F04006ED0BB
:100D00002078DFF84C93C007A9F104054AD009F117
:100D100004000168C1F38101012908D00068C0F313
:100D2000810002280AD1D9F80000400206D52868BF
:100D3000800337D560680028E1D033E06068B0F503
:100D4000803F10D0B0F5A02F286810D020F480305C
:100D50002860286820F4802028606068A8B1FFF728
:100D600049FD06460DE0286840F48030F4E740F481
:100D700080202860F7E700BFFFF73CFD801B642858
:100D800073D828688003F7D50CE0FFF733FD0646DB
:100D900005E000BFFFF72EFD801B6428F0D828680F
:100DA0008003F7D42078DFF8AC8280074FF0000A88
:100DB0003ED5A748001D016811F00C0F08D000684F
:100DC000C0F3810002280BD1D9F80000400207D4FB
:100DD0002868800716D5E068012800D112E033E1C9
:100DE000E068B8B10120C8F80000FFF703FD06462F
:100DF00005E000BFFFF7FEFC801B0228C0D8286872
:100E00008007F7D52868216920F0F80040EAC10082
:100E100028600DE0C8F800A0FFF7ECFC064604E0EF
:100E2000FFF7E8FC801B02281FD828688007F7D44A
:100E30002078000722D5864F87486169703771B1E5
:100E400001210160FFF7D6FC064604E0FFF7D2FC63
:100E5000801B022809D838688007F7D50EE0C0F853
:100E600000A0FFF7C7FC064605E082E0FFF7C2FCE2
:100E7000801B02287DD838688007F7D42078400787
:100E800068D5DFF8CCB100270BF13C0BDBF8000094
:100E9000C0000BD4DBF8001041F08051CBF80010FB
:100EA000DBF80000012700F0805000906B4E3068A6
:100EB000C00510D4306840F480703060FFF79AFCB1
:100EC000009005E0FFF796FC0099401A022850D8E0
:100ED0003068C005F6D55E4EA0686C3601280FD08C
:100EE0000528306810D020F001003060306820F014
:100EF00004003060A068B8B1FFF77CFC00900FE000
:100F0000306840F00100F4E740F004003060F7E79B
:100F1000FFF770FC0099411A41F28830814266D88F
:100F200030688007F4D50EE0FFF764FC009007E01E
:100F3000FFF760FC0099411A41F28830814256D88F
:100F400030688007F4D42FB1DBF8001021F0805115
:100F5000CBF80010A069C8B33D49091D0968C1F369
:100F6000810102294AD00228504607D0C8F8600003
:100F700000E03CE0FFF73EFC04463BE04746C8F893
:100F80006000FFF737FC064605E000BFFFF732FCC4
:100F9000801B02282BD828688001F7D4D4E90701E8
:100FA0000843A16A2E4A490802EB0141626A41EAFC
:100FB0008211084394F82C1040EA0161C9F800102E
:100FC00001203866FFF716FC044606E03EE000BF4D
:100FD000FFF710FC001B022809D828688001F7D50C
:100FE00034E000BFFFF706FC001B022802D90320F3
:100FF000BDE8F88F28688001F4D427E00128F7D0F5
:10100000D9F80000E26900F4800191421CD1226A03
:1010100000F03F01914217D147F6C071626A01406A
:10102000B1EB821F10D1A26A4FF0FF3300F44031C0
:1010300003EB5202B1EB024F06D194F82C1000F0F2
:101040007060B0EB016F01D00120D1E70020CFE745
:101050000438024000004742800E474200700040C2
:101060000000FFFF70B5040009D0606A002540B1A0
:1010700025616561A56294F8510040B10CE0012042
:1010800070BD6068B0F5827FF4D0E561F2E784F866
:101090005050204600F044F8022084F851002068A7
:1010A000016821F040010160A088218900F482706C
:1010B00001F404410843A18901F400610843217C43
:1010C00001F002010843217D01F001010843218B59
:1010D00001F400710843217F01F03801084394F8BE
:1010E000201001F080010843218D01F400510843D4
:1010F00021680860A069042101EA104094F82410D6
:1011000001F010010843216848602068C16921F49A
:101110000061C1616565012084F85100002070BD47
:1011200030B587B0044614216846FFF781F8234D97
:1011300022680021224802230324AA421BD1204A0C
:101140001432156845F480551560126802F4805217
:101150000592026842F0010202600068CDE90214C3
:1011600000F001000590E020CDE900030520049087
:10117000694614481EE0144DAA421DD1104A10328F
:10118000156845F400451560126802F400420592A6
:10119000026842F0040202600068CDE9021400F027
:1011A000040005904FF4E050CDE9000306200490C0
:1011B00069460648FFF714FA07B030BD0030014019
:1011C0003038024000000240003C0040000802406D
:1011D0002DE9F84F044640680025984616460F460C
:1011E0004FF0040BB0F5827F01D1A06888B194F86C
:1011F0005000012818D0012084F85000FFF7FAFAB7
:10120000814694F851004FF0000A01280ED00225C3
:1012100082E084F851B013460A462046CDF800809B
:1012200000F036F9BDE8F88F0220FBE7002F72D0FE
:10123000002E70D084F851B0C4F854A0A763A687DC
:10124000E687C4F830A0A4F834A0A4F836A0C4F807
:1012500040A0C4F844A0A068B0F5004F09D12068B0
:10126000016821F0400101602068016821F480419B
:10127000016020680168490603D4016841F040011B
:101280000160E068D8B139E020688168C90709D0F9
:10129000007BA16B0870A06B401CA063E08F401E18
:1012A000E0870CE0FFF7A6FAA0EB0901414503D364
:1012B000B8F1FF3F03D036E0B8F1000F33D0E08F34
:1012C0000028E1D11DE020688168C90709D0C06805
:1012D000A16B0880A06B801CA063E08F401EE0879C
:1012E0000CE0FFF787FAA0EB0901414503D3B8F101
:1012F000FF3F03D017E0B8F1000F14D0E08F0028B3
:10130000E1D14A464146204600F07EFF08B1202048
:101310006065606D00B10125012084F8510084F8FA
:1013200050A028467EE70325F6E72DE9F84F04464E
:1013300090F8500000271D461646894601280DD01A
:101340004FF0010B84F850B0FFF754FA804694F840
:101350005100BA46012804D0022793E00220BDE8DC
:10136000F88FB9F1000F73D0002E71D0032084F8EC
:101370005100C4F854A0C4F83090A686E686C4F89C
:1013800038A0A4F83CA0A4F83EA0C4F844A0C4F837
:1013900040A0A068B0F5004F09D12068016821F095
:1013A000400101602068016841F4804101602068CB
:1013B0000168490603D4016841F040010160E0681A
:1013C000B0F5006F606803D030B3012E24D041E047
:1013D00008B1012E1CD1206B21680088C86006E08E
:1013E00020688168890709D5216B0988C160206B55
:1013F000801C2063E08E401EE08609E0FFF7FAF9CA
:10140000A0EB0800A84202D3681C01D031E07DB3F4
:10141000E08E0028E4D120E0206B2168007808737A
:1014200006E020688168890709D5216B0978017376
:10143000206B401C2063E08E401EE0860AE0FFF730
:10144000D9F9A0EB0800A84203D3681C02D010E031
:1014500017E06DB1E08E0028E3D1424629462046D0
:1014600000F000FF08B120206065A06818B106E018
:10147000FFE7032706E02068C16880680090606D80
:1014800000B1012784F851B084F850A0384666E7CF
:101490002DE9F84F044690F8500000270A9E1D469B
:1014A00092468B464FF0010901280ED0012084F8A6
:1014B0005000FFF79FF9804694F8510061680128B9
:1014C0000CD0B1F5827F07D102E00220BDE8F88F91
:1014D000A16809B9042801D00227C2E0BBF1000FBE
:1014E00027D0BAF1000F24D01DB394F8510004287E
:1014F00002D0052084F8510000206065C4F838A0AF
:10150000E587A587C4F830B0E586A58620646064C9
:1015100020680168490603D4016841F04001016078
:10152000E068B0F5006F606805D0E8B3012D46D0E3
:101530007FE0012795E008B1012D39D1206B2168AA
:101540000088C860206B801C2063E08E401EE0860F
:101550002EE02068816889070FD5E18E69B1B9F165
:10156000010F0AD1216B0988C160206B801C2063A8
:10157000E08E401EE0864FF0000920688168C907B0
:101580000CD0E18F51B1C068A16B0880A06B801CAA
:10159000A063E08F401EE0874FF00109FFF72AF9B2
:1015A000A0EB0800B04200E009E001D3701C50D16C
:1015B000E08E0028CDD1E08F0028CAD13FE0206B1B
:1015C000216800780873206B401C2063E08E401E69
:1015D000E0862EE02068816889070FD5E18E69B129
:1015E000B9F1010F0AD1216B09780173206B401CFE
:1015F0002063E08E401EE0864FF00009206881687D
:10160000C9070CD0E18F51B1C068A16B0870A06B05
:10161000401CA063E08F401EE0874FF00109FFF7F8
:10162000E9F8A0EB0800B04202D3701C01D010E032
:101630007EB1E08E0028CDD1E08F0028CAD142468D
:101640003146204600F00EFE28B1012720206065BB
:1016500007E0032705E0A06818B92068C168806822
:101660000090012084F85100002084F85000384692
:101670002CE710B5401EB0F1807F01D3012010BDD2
:101680004FF0E02460610F21601701F04DF9002058
:10169000A06107202061002010BD70B5040004D0B7
:1016A00094F83D00002510B106E0012070BD84F8DB
:1016B0003C50204600F022F8242084F83D002068A9
:1016C000C16821F40051C160204601F011F8206882
:1016D000016921F4904101612068416921F02A01EA
:1016E00041612068C16841F40051C1602564202037
:1016F00084F83D0084F83E00002070BD10B586B02F
:10170000044614216846FEF793FD14492068884278
:1017100021D113480021026842F0100202600068E3
:1017200000F0100005900E481438026842F00102E3
:101730000260006800F0010005904FF4C060009066
:101740000220CDE90101032003900720049069469F
:101750000448FEF745FF06B010BD00000010014030
:1017600044380240000002402DE9F843044690F856
:101770003D001F4616460D4620284CD1C5B1BEB1CE
:1017800094F83C00012846D0012084F83C004FF03A
:101790000008C4F84080212084F83D00FFF72AF8B3
:1017A000A6848146E684A068B0F5805F03D004E09B
:1017B0000120BDE8F883206928B12E465FF00005BE
:1017C00084F83C800EE00026FAE78021204601F0F4
:1017D00015F8A0B9AEB116F8010B21684860E08C8D
:1017E000401EE084E08C4B464FF00002009700283A
:1017F000EBD14FF04001204601F000F830B103205A
:10180000D7E735F8020BC0F30800E6E7202084F89C
:101810003D000020CDE70220CBE7FEE72DE9F041B7
:10182000244C0125FF26A078234F01282ED0607874
:10183000012839D121A001F053F83E700122394628
:10184000122001F0CDFB381D417A01292ED0012252
:1018500004F58271132000F095FC01221649102036
:1018600000F090FC012214490D2001F0B9FB94F81E
:101870000421211D002000F085FCE57094F804117E
:10188000221DBDE8F04113A001F02AB819A001F013
:1018900027F83E7001220849122001F0A1FB002028
:1018A000A07000F077F96570BDE8F081007E84F8E3
:1018B0000401D2E7F804002000000020784C6F7289
:1018C00061202E52784D6F646520737461727421AB
:1018D0000D0A00006C6F726120BDD3CAD5B5BD2062
:1018E000256420B8F6D7D6BDDACAFDBEDD3A20257C
:1018F000730D0A00784C6F7261202E54784D6F641E
:1019000065207374617274210D0A0000F8B50446F5
:1019100016460F4681A000F0E3FF8648864D4443FB
:1019200000222C60854CAF716E7110212046FEF7AD
:101930005CFF6420FEF70EFE012210212046FEF718
:1019400054FFC820FEF706FE0122291F062000F0E2
:1019500019FC2C1F20786C2804D079A0BDE8F84031
:1019600000F0BEBF002001F025FB73490122091FD2
:10197000104600F007FC20786F4940F0800020708E
:101980000122091F104601F02BFB20206A4920701C
:101990000122091F0C2001F023FB2868FEF7C2FC7E
:1019A0009FED701B53EC112BFEF74DFCFEF7C7FCAF
:1019B000010C8DF80010010A8DF801108DF802005D
:1019C00003226946062001F00BFBA87900F0EEFC2B
:1019D0005949EE790122091F1D2000F0D3FB207820
:1019E000554900F0F10040EA460020700122091F2D
:1019F0001D2001F0F5FA50492E7A0122091F1E2000
:101A000000F0C0FB20784C4900F0FB0040EA860063
:101A100020700122091F1E2001F0E2FA46496E796A
:101A20000122091F1D2000F0ADFB2078424966F31A
:101A30001F1020700122091F1D2001F0D1FA3E491C
:101A40006D7A0122091F1D2000F09CFB20783A4985
:101A500000F0FE00284320700122091F1D2001F024
:101A6000BFFA022269461E2000F08CFB9DF80000A0
:101A7000FF2500F0FC0040F003008DF800008DF819
:101A80000150022269461E2001F0AAFA2A490122C9
:101A90001831222001F0A4FA27490122091F26202B
:101AA00000F070FB2078244900F0F70040F00800B7
:101AB00020700122091F262001F092FA1E490122FE
:101AC000091F092000F05EFB20781B4900F07F0011
:101AD00040F0800020700122091F092001F080FAE7
:101AE0008720154920700122091F4D2001F078FA46
:101AF0008F20114920700122091F092001F070FA7E
:101B00000D4925700122091F122001F069FA1749B9
:101B10000120087000F03EF815A01FE773783132FD
:101B200037382D4C6F7261B3F5CABCBBAF0D0A0AD2
:101B30000000000040420F000400002000080240A6
:101B400020202020C1ACBDD3CAA7B0DCA3ACBDAB64
:101B5000CDCBB3F6535831323736CABCBBAF210DAB
:101B60000A0A00000000000080844E40F8040020B3
:101B70002020202020BCECB2E2B3C9B9A6A3BBD27E
:101B8000D1BDF8C8EBBDD3CAD5D7B4CCACD6D00D37
:101B90000A0A000070B5164D287820B3012001F024
:101BA00009FA144C0026012226702146242001F057
:101BB00017FA9F20207001222146112001F010FA0F
:101BC000267001222146402001F00AFAFF202070F1
:101BD00001222146122001F003FA052001F0EAF962
:101BE0000120687070BDBDE8704003A000F078BEB1
:101BF000F8040020000000200D0A4C4F524120B391
:101C0000F5CABCBBAFCAA7B0DCA3ACB2BBC4DCC9CD
:101C1000E8D6C3CEAABDD3CAD5C4A3CABDA3A10D5D
:101C20000A0000002DE9F041244E80460D46307830
:101C3000D0B3B078012839D0002D3CD0012001F07C
:101C4000B9F91F4C0027012227702146242001F0FA
:101C5000C7F9F720207001222146112001F0C0F9B8
:101C60004120207001222146402001F0B9F927705F
:101C7000012221460E2001F0B3F9012221460D2058
:101C800001F0AEF9257001222146222001F0A8F9C9
:101C90002A464146002001F0A3F90120B070BDE8BA
:101CA000F041032001F086B906A000E00DA0BDE8D8
:101CB000F04100F015BEBDE8F0810000F8040020FE
:101CC000000000200D0A4C4F524120B3F5CABCBBA6
:101CD000AFCAA7B0DC2C20B2BBC4DCB7A2CBCDA36B
:101CE000A10D0A00C9CFB4CEB7A2CBCDBBB9C3BB3F
:101CF000CDEAB3C9A3ACB1BEB4CEB7A2CBCDCAA70F
:101D0000B0DC0D0A000000002DE9F04387B014217B
:101D10006846FEF78DFA3B480024016841F0040153
:101D20000160016801F004010591016841F0800142
:101D30000160016801F080010591016841F0010135
:101D40000160016801F001010591016841F00201A3
:101D5000016000682C4F00F002000590012218215C
:101D60003846FEF742FDDFF8A480012210214046EC
:101D7000FEF73BFDDFF89890012204214846FEF76C
:101D800034FD01254FF488160095CDE901646946BC
:101D90003846FEF725FC18200090CDE9015469462D
:101DA00038460394FEF71CFC10200090CDE9015446
:101DB000694640460394FEF713FC2020CDE9000657
:101DC0000220029069464046FEF70AFC042000907B
:101DD000CDE90154694648460394FEF701FC002210
:101DE00011460620FEF76CFE0620FEF75BFE002281
:101DF00011461720FEF764FE1720FEF753FE07B0CA
:101E0000BDE8F08330380240000002400008024084
:101E1000000402400D4810B50B4901600C494160B7
:101E200000214FF480428160C0E903124161816169
:101E3000C1610162FEF7E4FC002803D0BDE8104058
:101E4000FEF786BB10BD00000054004000060020D5
:101E5000A0860100104810B50E4901604FF4827150
:101E60004160002102228160C0E903120122426127
:101E70005202C0E906210162416281620A21C16207
:101E8000FFF7F0F8002803D0BDE81040FEF760BB74
:101E900010BD000000300140540600200F4810B56E
:101EA0000D4901604FF48271416000218160C16081
:101EB0004FF400720161C0E90512C1610162416223
:101EC00081620A21C162FFF7CDF8002803D0BDE886
:101ED0001040FEF73DBB10BD003C0040AC060020AA
:101EE0000C4810B50A4901604FF4E131416000210E
:101EF00081600C22C160C0E904128161C161FFF7F9
:101F0000CCFB002803D0BDE81040FEF721BB10BD7C
:101F10000010014004070020FEE7FEE770B5002432
:101F200004F1B000C0B200F0A6FC002000F0A3FC59
:101F3000102000F0A0FC0025002000F0B6FC6D1C75
:101F4000EDB2802DF8D3641CE4B2082CE8D370BD48
:101F50002DE9F04798461746824600260C46DDF8E4
:101F6000209011E02146504600F073F8554607E0F6
:101F700019F80600761CB6B200F097FC6D1CEDB2A5
:101F8000BD42F5D3641CE4B24445EBD3BDE8F08711
:101F900010B54FF4FA70FEF7DDFAAE2000F06BFCDE
:101FA000002000F068FC102000F065FC402000F0EC
:101FB00062FC812000F05FFCFF2000F05CFCA120AF
:101FC00000F059FCC82000F056FCA62000F053FC9D
:101FD000A82000F050FC3F2000F04DFCD32000F082
:101FE0004AFC002000F047FCD52000F044FC802093
:101FF00000F041FCD92000F03EFCF12000F03BFC59
:10200000DA2000F038FC122000F035FCDB2000F074
:1020100032FC402000F02FFC202000F02CFC02209D
:1020200000F029FC8D2000F026FC142000F023FC99
:10203000A42000F020FCA62000F01DFCAF2000F042
:102040001AFCFFF76BFF0021BDE810400846AFF314
:10205000008010B50446B031C8B200F00CFC10206E
:1020600040EA141000F007FC04F00F00BDE8104037
:1020700040F0010000F0FFBB2DE9F04115460E468F
:102080000746FFF7E6FF0E48002400EB8515285DA4
:1020900000F00BFC641CE4B2102CF8D3761CF1B2F7
:1020A0003846FFF7D6FF0024281990F8200000F0EA
:1020B000FCFB641CE4B2102CF6D3BDE8F0810000F8
:1020C000200000202DE9F041203A00240D468046F2
:1020D000D6B27F2803D900204D1C8046EDB2102BCC
:1020E00029460FD0FFF7B5FF164906EB460001EB76
:1020F0004005285D00F0D9FB641CE4B2062CF8D33F
:10210000BDE8F081FFF7A5FF0F4F00BF04EB0610FD
:10211000385C00F0CAFB641CE4B2082CF6D36D1CDA
:10212000E9B24046FFF795FF5FF0000404EB0610AC
:102130003844007A00F0B9FB641CE4B2082CF5D3F3
:10214000DEE70000243000084C3200082DE9F041A1
:10215000984617460E46044600250DE04346314694
:102160002046FFF7AFFF0834E4B2782C02D90024F0
:10217000B61CF6B26D1CEDB27A5D002AEED1BDE858
:10218000F08170472DE9F0410E4F15460E4604468A
:10219000002210213846FEF728FB04F07F0000F0F3
:1021A0009DF8002405E000BF00F088F83055641C5D
:1021B000E4B2AC42F8D33846BDE8F0410122102128
:1021C000FEF713BB0000024070B50B4D0022082142
:1021D0002846FEF70AFB8020FEF794F9FEF782F905
:1021E0000446014605A000F07BFB01220821284699
:1021F000FEF7FBFA204670BD0000024069643A25F4
:102200003032780D0A000000F8B5044640684FF4FB
:102210008273984221D1A0684FF48065B0F5004FD9
:1022200001D0A8420AD12068066826F04006066060
:102230006068984211D1A068A8420ED000920B4667
:1022400000228021204600F053F8002804D0606D61
:1022500040F0200060650320F8BD00920B4600228C
:102260000121EFE738B504461248134B0068B0FB74
:10227000F3F04FF47A73584300906068B0F5827FB2
:102280000DD10B46009200228021204600F030F84C
:1022900070B1606D40F020006065032038BD00988B
:1022A00030B1401E009020688068C0430006F6D51B
:1022B000002038BDF004002000366E0108B5002073
:1022C0008DF80000C823012269460348FEF780FF0D
:1022D0009DF8000008BD0000AC06002001B5C82331
:1022E000012269460148FFF720F808BDAC0600202E
:1022F0002DE9F8431E46914688460446089DFEF7A0
:1023000079FA401B351AFEF775FA0746254800682A
:10231000C0F3CB30684338E0701C37D0FEF76AFA60
:10232000C01BA84203D215B1009860B32CE020680E
:10233000416821F0E00141606068B0F5827F0BD117
:10234000A068B0F5004F02D0B0F5806F04D12068CE
:10235000016821F040010160A06AB0F5005F09D179
:102360002068016821F4005101602068016841F48F
:1023700000510160012084F85100002084F85000D1
:102380000320BDE8F8830025401E00902068816886
:1023900038EA010004D000214945BDD10020F0E712
:1023A0000121F9E7F00400207047000070B51A4DD4
:1023B00004460C2801D90C2408E0062C06D2062479
:1023C000012215493120FFF7DDFE20E001221249EC
:1023D0003120FFF7D7FE062C19D0287800F0F8003E
:1023E000C01C287001220C49312000F0F9FD0122A7
:1023F00009491E20FFF7C6FE2878012264F31F104A
:102400002870BDE8704004491E2000F0E9BD28781E
:1024100000F0F800401DE4E70000002070B586B031
:1024200014216846FDF704FF14480025016841F0B7
:10243000010101600068012400F001000590802086
:10244000CDE900040E4E69463046CDE90245FEF75F
:10245000C7F84020CDE9000469463046CDE9024581
:10246000FEF7BEF8012240213046FEF7BEF90122F8
:1024700080213046FEF7B9F906B070BD3038024011
:102480000008024000B585B0002001904020009077
:102490000220039069460248FEF7A2F805B000BD8D
:1024A0000008024000B585B0012001904020009056
:1024B0000220039069460248FEF792F805B000BD7D
:1024C0000008024010B5FFF7EDFF0E4C012240213D
:1024D0002046FEF78AF9012280212046FEF785F981
:1024E0000120FEF749F8002240212046FEF77DF941
:1024F0000120FEF741F820460022BDE8104080216F
:10250000FEF773B90008024010B5FFF7CBFF0E4C81
:10251000002280212046FEF768F900224021204653
:10252000FEF763F9012280212046FEF75EF90120C3
:10253000FEF722F8012240212046FEF756F9BDE8B9
:1025400010400120FEF718B80008024070B5FFF7F0
:10255000A9FF134D012240212846FEF746F9FFF757
:1025600091FF012280212846FEF73FF90120FEF766
:1025700003F807E0641CE4B2C82C03D9FFF7C4FFDA
:10258000002070BD40212846FEF722F90028F1D135
:10259000002280212846FEF728F9012070BD0000A6
:1025A0000008024070B50546FFF77CFF80242542F5
:1025B00002D000F009F801E000F026F86408F6D136
:1025C000BDE87040FFF7C2BF10B50E4C002280215D
:1025D0002046FEF70AF9012240212046FEF705F9C0
:1025E0000120FDF7C9FF012280212046FEF7FDF8FA
:1025F0000120FDF7C1FF20460022BDE810408021E8
:10260000FEF7F3B80008024010B50E4C00228021FE
:102610002046FEF7EAF8002240212046FEF7E5F8C2
:102620000120FDF7A9FF012280212046FEF7DDF8F9
:102630000120FDF7A1FF20460022BDE810408021C7
:10264000FEF7D3B800080240FEF7D2B930B593B018
:1026500030216846FDF7ECFD14210CA8FDF7E8FDDC
:102660001D480025016841F080510160006800F0BC
:10267000805011901948016841F480410160006860
:10268000022400F480401190012000900004019089
:102690008001CDE9064008AA0420602182E81300E9
:1026A0000B906846FEF728FB08B172B6FEE70CA94E
:1026B0000F2081E831004FF4A0500F904FF480506C
:1026C000109003210CA8FEF72DFA002801D072B655
:1026D000FEE713B030BD00004038024000700040FB
:1026E0000248016841F470010160704788ED00E024
:1026F00070B5044600680169E26821F44051114355
:1027000001612169A068E2690843616911430843D6
:102710002168CA6849F20C639A430243CA60206880
:102720004169A26921F44071114341613149206836
:10273000884202D03049884202D1FEF79DFA01E07A
:10274000FEF78AFAE2690023192164253226B2F5E0
:10275000004F626828D0A0FB0101930F9200FDF7A3
:102760002FFD0146B0FBF5F06FF01802504301EB6E
:10277000800006EB0010B0FBF5F000F0F002B1FBBA
:10278000F5F002EB0012B1FBF5F06FF018035843BF
:1027900001EB800006EB0010B0FBF5F000F00F003D
:1027A00021681044886070BDA0FB010192185B4154
:1027B000FDF706FD0146B0FBF5F00201B1FBF5F0B7
:1027C0006FF01803584301EB800006EBC000B0FB2C
:1027D000F5F000F0F80002EB4002B1FBF5F05843D1
:1027E00001EB800006EBC000B0FBF5F000F0070045
:1027F000D6E7000000100140001401402DE9F0412F
:10280000984617460E460446069D27E0681C25D0CC
:102810002DB1FDF7EFFFA0EB0800A8421ED92068FC
:102820000C3050E8001F21F4D07140E80012002A5B
:10283000F5D12068143050E8001F21F0010140E874
:102840000012002AF5D1202084F83D0084F83E00D3
:10285000002084F83C000320BDE8F0812068006877
:1028600036EA000004D00020B842CFD00020F3E7C1
:102870000120F9E7FEE710B50446FFF723FE7820B4
:10288000FFF790FE0120FDF777FE0020FFF78AFE9C
:102890000120FDF771FE2046FFF784FE0120FDF7C1
:1028A0006BFEBDE81040FFF72FBE10B50446FFF7E2
:1028B00009FE7820FFF776FE0120FDF75DFE40203F
:1028C000FFF770FE0120FDF757FE2046FFF76AFE76
:1028D0000120FDF751FEBDE81040FFF715BE0000D6
:1028E0000FB4054B10B503A9044A029800F03CF858
:1028F00010BC5DF814FB0000D52D0008F404002086
:102900000FB4084B10B504A902AA039800F02CF8E4
:10291000044602A9002000F058FA204610BC5DF8D9
:1029200014FB0000CB2D00080907090E002804DB6A
:1029300000F1E02080F80014704700F00F0000F173
:10294000E02080F8141D704702E008C8121F08C17B
:10295000002AFAD170477047002001E001C1121F20
:10296000002AFBD1704700002DE9FF4F8DB00F46C4
:102970000546002606E025280BD0DDE90F1290471A
:102980006D1C761C28780028F5D111B03046BDE8C2
:10299000F08F0024A246A1460122EC4900E0044346
:1029A00015F8013F203B02FA03F00842F7D12878DE
:1029B0002A2810D06FF02F022878A0F130010929C1
:1029C00014D80AEB8A0102EB410144F0020400EB47
:1029D000010A6D1CF0E701CF5FEA000A03D544F459
:1029E0000054CAF1000A44F002046D1C28782E2815
:1029F00017D115F8010F44F004042A280ED06FF007
:102A00002F022878A0F1300109290AD809EB8901A1
:102A100002EB410100EB01096D1CF2E757F8049B42
:102A20006D1C28786C280FD006DC4C2817D068283D
:102A30000DD06A2814D104E0742810D07A280FD160
:102A40000DE044F400140AE044F4801401E044F47E
:102A500040146978814202D104F580146D1C6D1C0C
:102A60002A786E2A1FD00CDC632A31D004DC002ABD
:102A70008BD0582A11D1A3E0642A68D0692A0CD1DE
:102A800065E0732A2ED004DC6F2A73D0702A04D13B
:102A90009BE0752A6FD0782A6ED01046DDE90F12C0
:102AA0009047761C50E1C4F30250022806D0032858
:102AB00009D0042801CF09D0066045E101CFF11704
:102AC000C0E9006140E101CF06803DE106703BE1D5
:102AD00017F8040B8DF8000000208DF80100EB467C
:102AE000012003E057F804BB4FF0FF3061074FF0BF
:102AF000000102D40DE008F10101884649450FDAD2
:102B00008045F8DB1BF808100029F4D108E008F133
:102B1000010188468142FADB1BF808100029F6D132
:102B2000DDE90F23AAEB08008146214600F036F9C3
:102B3000304400EB080604E0DDE90F121BF8010B3E
:102B40009047B8F10108F7D221464846F7E00A213C
:102B5000C4F302534FF0000B0891022B04D001CFB5
:102B6000C117032B09D00AE0FF1D27F00707F7E87C
:102B7000020108E032E01FE020E000B2C117042BA0
:102B800001D140B2C117031E71F1000307DA4FF003
:102B9000000CD0EB0C006CEB01012D2302E02305AF
:102BA00004D52B238DF82430012303E0E30701D063
:102BB0002023F7E7984658E00A2110E010210EE0A4
:102BC00010204FF0000B08900CE010214FF0000B8C
:102BD00044F004044FF00809089103E008214FF085
:102BE000000B0891C4F30253022B04D001CF002143
:102BF000032B06D006E0FF1D27F00707F7E80201C8
:102C000003E080B2042B00D1C0B24FF000082307CC
:102C10002BD5702A07D0DDF820C08CF0100C5CEAB0
:102C20000B0C05D00EE040238DF82430012308E082
:102C300050EA010306D030238DF824308DF825208A
:102C400002239846DDF820C08CF0080C5CEA0B0CDF
:102C50000BD150EA010301D1630706D530238DF86B
:102C600024304FF00108A9F10109582A04D038A2F4
:102C70000B9208AA0A920BE03AA2F9E75B46089A7F
:102C8000FDF79EFA0B9B9B5C0A9A521E0A921370E8
:102C900050EA0102F2D10A98ADEB000000F1200BDE
:102CA000600702D524F4803401E04FF00109D945D2
:102CB00002DDA9EB0B0000E0002000EB0B0141441A
:102CC0000890AAEB010AE00306D4DDE90F232146B0
:102CD000504600F063F806444FF0000908E009A9E7
:102CE00011F80900DDE90F12904709F10109761C7E
:102CF000C145F4DBE0030CD5DDE90F232146504646
:102D000000F04CF8064404E0DDE90F123020904753
:102D1000761C0899481E08900029F5DC08E00A98FE
:102D20000A990078491C0A91DDE90F129047761C38
:102D3000BBF10001ABF1010BF1DC21465046DDE9AE
:102D40000F2300F019F806446D1C1BE6092801004A
:102D50003031323334353637383961626364656611
:102D600000000000303132333435363738394142D3
:102D700043444546000000002DE9F041044600258B
:102D80001E461746880404D405E039462020B04783
:102D90006D1C641EF9D52846BDE8F0812DE9F0418F
:102DA000044600251E469046C80301D5302700E0A2
:102DB0002027880404D505E041463846B0476D1CFD
:102DC000641EF9D52846BDE8F0810A68531C0B60E3
:102DD0001070704713B56FF07F43012269460248B7
:102DE000FEF7C2FC00981CBD040700208AB0002436
:102DF000FDF706FE554961200860FFF727FCFEF746
:102E000083FFFFF727F8FFF76BF8FFF703F8FFF7EB
:102E100045F84FF47A70FDF79DFBFFF7D5F90822CE
:102E20000B214FF4D070FEF771FDFFF7F7FAFFF7B3
:102E3000AFF84FF4FA70FDF78DFB45A0FFF750FD9A
:102E4000424E4FF4FA65361DFFF768F80021102353
:102E500041220846FFF736F91023422202210020C2
:102E6000FFF730F91023432204210020FFF72AF94D
:102E70001023442206210020FFF724F90C234122CD
:102E800000210F20FFF71EF90C23422201210F2001
:102E9000FFF718F90C23432202210F20FFF712F944
:102EA0000C23442203210F20FFF70CF90C234522A9
:102EB00004210F20FFF706F90C23462205210F20DD
:102EC000FFF700F90C23472206210F20FFF7FAF83D
:102ED0000C23482207210F20FFF7F4F80C2321A22E
:102EE00000211E20FFF732F9002202212320FFF7E4
:102EF000C3F8012202214120FFF7BEF80222114649
:102F00005F20FFF7B9F8102319A206212420FFF74C
:102F10001DF92846FDF71EFB0021082380220846E4
:102F20000096FFF715F82846FDF714FB2246611CB2
:102F3000CCB212A101A8FFF7E3FC202101A8FEF703
:102F400071FE214615A0FFF7CBFC7DE7E0000020D5
:102F50007379737465726D207374617274210D0AD4
:102F60000000000066797A6868686668780000008A
:102F7000496F543F426F617264000000CED2CAC7ED
:102F80006C6F7261B5DA2564B4CEB2E2CAD4B5C44E
:102F9000CAFDBEDD215A5A5A00000000D2D1B7A2A4
:102FA000CBCDB5DA20256420B4CECAFDBEDD2C0D14
:102FB0000A00000010B50446012208491046FFF738
:102FC000E1F80648017801F0F8012143017001227F
:102FD0000146BDE81040104600F002B80000002095
:102FE0002DE9F0410E4F15460E46044600221021F1
:102FF0003846FDF7FAFB44F08000FFF76FF9002434
:1030000004E0305DFFF76AF9641CE4B2AC42F8D327
:103010003846BDE8F04101221021FDF7E6BB000073
:10302000000002400000000000000000002F00002F
:1030300000000700070000147F147F1400242A7F7B
:103040002A120062640813230036495522500000FA
:103050000503000000001C224100000041221C006A
:103060000014083E08140008083E0808000000A0EC
:1030700060000008080808080000606000000020E8
:1030800010080402003E5149453E0000427F4000C6
:10309000004261514946002141454B31001814124C
:1030A0007F10002745454539003C4A494930000119
:1030B0007109050300364949493600064949291E68
:1030C00000003636000000005636000000081422CA
:1030D00041000014141414140000412214080002CA
:1030E0000151090600324959513E007C1211127CEF
:1030F000007F49494936003E41414122007F41411C
:10310000221C007F49494941007F09090901003E0D
:103110004149497A007F0808087F0000417F41004B
:10312000002040413F01007F08142241007F4040C1
:103130004040007F020C027F007F0408107F003EA9
:103140004141413E007F09090906003E4151215E8F
:10315000007F091929460046494949310001017F8C
:103160000101003F4040403F001F2040201F003F22
:103170004038403F006314081463000708700807D4
:1031800000615149454300007F41410000552A55E7
:103190002A55000041417F00000402010204004062
:1031A0004040404000000102040000205454547884
:1031B000007F4844443800384444442000384444A4
:1031C000487F00385454541800087E090102001842
:1031D000A4A4A47C007F080404780000447D40007F
:1031E000004080847D00007F102844000000417F63
:1031F0004000007C04180478007C0804047800383F
:103200004444443800FC242424180018242418FCC6
:10321000007C0804040800485454542000043F442F
:103220004020003C4040207C001C2040201C003CF2
:103230004030403C004428102844001CA0A0A07C42
:10324000004464544C44141414141414000000007A
:10325000000000000000000000000000000000F876
:1032600000000000000000333000000000100C06D9
:10327000100C0600000000000000000040C0784074
:10328000C0784000043F04043F040400007088FC40
:1032900008300000001820FF211E0000F008F00098
:1032A000E018000000211C031E211E0000F0088809
:1032B000700000001E2123241927211010160E0073
:1032C000000000000000000000000000000000E01E
:1032D0001804020000000007182040000002041833
:1032E000E00000000040201807000000404080F08F
:1032F000804040000202010F01020200000000F0C5
:10330000000000000101011F010101000000000098
:103310000000000080B0700000000000000000000D
:103320000000000000010101010101010000000096
:10333000000000000030300000000000000000002D
:1033400080601804006018060100000000E010080A
:103350000810E000000F102020100F00001010F8DF
:10336000000000000020203F20200000007008081E
:10337000088870000030282422213000003008889E
:10338000884830000018202020110E000000C020C6
:1033900010F8000000070424243F240000F80888E7
:1033A000880808000019212020110E0000E0108874
:1033B00088180000000F112020110E0000380808A6
:1033C000C83808000000003F0000000000708808B6
:1033D00008887000001C222121221C0000E0100837
:1033E0000810E0000000312222110F00000000C090
:1033F000C00000000000003030000000000000802D
:10340000000000000000806000000000000080401C
:103410002010080000010204081020004040404035
:103420004040400004040404040404000008102088
:1034300040800000002010080402010000704808CD
:103440000808F0000000003036010000C030C82835
:10345000E810E0000718272423140B000000C038F0
:10346000E0000000203C23020227382008F888886A
:1034700088700000203F202020110E00C030080876
:1034800008083800071820202010080008F808084D
:103490000810E000203F202020100F0008F8888846
:1034A000E8081000203F20202320180008F8888812
:1034B000E8081000203F200003000000C03008088A
:1034C0000838000007182020221E020008F8080013
:1034D0000008F808203F210101213F20000808F8DA
:1034E000080800000020203F2020000000000808FD
:1034F000F8080800C08080807F00000008F888C0BD
:1035000028180800203F20012638200008F808006D
:1035100000000000203F20202020300008F8F800A4
:10352000F8F80800203F003F003F200008F830C0B6
:103530000008F808203F200007183F00E0100808A6
:103540000810E0000F10202020100F0008F80808D5
:103550000808F000203F210101010000E0100808E8
:103560000810E0000F18242438504F0008F888880D
:1035700088887000203F2000030C302000708808ED
:10358000080838000038202121221C00180808F8FB
:10359000080818000000203F2000000008F808007C
:1035A0000008F808001F202020201F00087888004D
:1035B00000C83808000007380E010000F80800F8BD
:1035C0000008F800033C0700073C03000818688067
:1035D0008068180820302C03032C30200838C800DD
:1035E000C83808000000203F20000000100808082C
:1035F000C83808002038262120201800000000FECE
:10360000020202000000007F40404000000C30C079
:1036100000000000000000010638C00000020202A5
:10362000FE000000004040407F0000000000040257
:103630000202040000000000000000000000000082
:103640000000000080808080808080800002020472
:10365000000000000000000000000000000080806A
:10366000808000000019242222223F2008F80080D8
:1036700080000000003F112020110E00000000809B
:1036800080800000000E112020201100000000802A
:103690008088F800000E112020103F20000080805C
:1036A00080800000001F222222221300008080F070
:1036B000888888180020203F20200000000080809B
:1036C00080808000006B94949493600008F80080E0
:1036D00080800000203F210000203F20008098983B
:1036E000000000000020203F20200000000000809B
:1036F0009898000000C08080807F000008F80000DB
:1037000080808000203F24022D302000000808F82F
:10371000000000000020203F2020000080808080EA
:1037200080808000203F20003F20003F808000807C
:1037300080800000203F210000203F20000080808A
:1037400080800000001F202020201F00808000803B
:103750008000000080FFA12020110E0000000080EA
:1037600080808000000E112020A0FF8080808000DB
:103770008080800020203F21200001000000808008
:10378000808080000033242424241900008080E0FD
:10379000808000000000001F2020000080800000CA
:1037A00000808000001F202020103F2080808000AB
:1037B0000080808000010E300806010080800080BB
:1037C000008080800F300C030C300F0000808000E0
:1037D000808080000020312E0E312000808080000B
:1037E0000080808080818E701806010000808080BB
:1037F000808080000021302C222130000000000059
:10380000807C020200000000003F404000000000F9
:10381000FF00000000000000FF0000000002027C2A
:10382000800000000040403F000000000006010151
:10383000020204040000000000000000000000007C
:103840000000000001020304060708090000000050
:10385000010203047438000800000020F80400008E
:103860008C040008CC390008F80400205006000041
:103870005829000841300AB0B1821B14080B01011D
:10388000320414A086011440420F628032E032FFFD
:103890005B204011C1240804035440807F031201BF
:1038A0000E17ECAAA9A8AAEC0712DF2424A2A238BA
:1038B0001008806F020222CA0F071227C9090828C0
:1038C000CE151060028C080A10FC04E42424E212D5
:1038D0001312811704047E81601F000916FF402027
:1038E000030C1221401E060AFE0AC6C812F062F836
:1038F0004EFE7DBBC7EF01053EC7BB7DFE300D0808
:103900000CFEFE0C082060FEFE60208F7848FE82D0
:10391000BABA0309135EAA0101017E6CFEFF03011E
:10392000CBFFFF0F39BBECC0C0C0271918F9270126
:10393000392975990B6CFFFF0C01491A0C22E1E142
:10394000E12701396C0F1F1801FB1F0F0F092E27EC
:103950000136168C4222120C26FC020202FC3304B1
:10396000FE16205844FE402A10015912491E4912E1
:10397000A92A0123300A24A42E24E4242EA424C03E
:103980000AF84A4C48F8484C4AF82A0101390749D4
:103990000D5915991F9918091412712BC020A1AB4C
:1039A00020C00A11300A120A07027F02070A121EFB
:1039B0000B0A0A0A7F0402560B980A1F2040404057
:0C39C00050205F800A29A582105324F4D7
:040000050800018965
:00000001FF
