:020000040800F2
:10000000C00700200501000833240008391B000840
:1000100031240008BF030008A12A000800000000E6
:100020000000000000000000000000007D26000825
:10003000C10300080000000035240008F126000874
:100040001F0100081F0100081F0100081F01000810
:100050001F0100081F0100081F0100081F01000800
:100060001F0100081F010008CB0300081F01000842
:100070001F0100081F0100081F0100081F010008E0
:100080001F0100081F0100081F0100081F010008D0
:100090001F0100081F0100081F010008D10300080C
:1000A0001F010008592700081F0100081F01000850
:1000B0001F0100081F0100081F0100081F010008A0
:1000C0001F0100081F0100081F0100081F01000890
:1000D0001F010008952A00081F0100081F010008E1
:1000E000C30300081F0100081F010008DFF810D03B
:1000F00000F044F900480047092D0008AFF30080E4
:10010000C00700200648804706480047FEE7FEE794
:10011000FEE7FEE7FEE7FEE7FEE7FEE7FEE7FEE7B7
:1001200055270008ED000008202A04DB203A21FAB8
:1001300002F00021704721FA02F3D040C2F1200200
:100140009140084319467047D2B201E000F8012BF4
:10015000491EFBD270470022F6E710B513460A4647
:1001600004461946FFF7F0FF204610BD2DE9F04D7B
:1001700081EA030404F0004B21F0004514464FF0DF
:10018000000A23F0004150EA050220D054EA01029F
:100190001DD0C5F30A570246C5F31303C1F313007C
:1001A000C1F30A5640F4801543F48013A7EB060808
:1001B000101BD64608F2FD3873EB050002D308F198
:1001C000010801E092185B41B8F1000F03DA00204A
:1001D0000146BDE8F08D00204FF4801106468446AC
:1001E0000EE0171B73EB050705D3121B63EB05032A
:1001F00006434CEA010C49084FEA300092185B4173
:1002000050EA0107EDD152EA030012D082EA04005D
:1002100083EA0501084305D0101BAB4106D2012239
:10022000002306E000224FF0004302E06FF00102DD
:1002300053101AEB06004CEB085110EB0A0041EB8F
:100240000B01BDE8F04D00F03CB80EB540F2334173
:1002500002910021CDE900110A460B4600F040F85A
:1002600003B000BDC1F30A5210B5C1F3130140F24F
:10027000FF3341F480119A4201DA002010BD40F2B0
:1002800033439A42A2F2334203DC5242FFF74CFF5F
:1002900010BD904010BD30B50B4601460020202215
:1002A000012409E021FA02F59D4205D303FA02F583
:1002B000491B04FA02F52844151EA2F10102F1DCE3
:1002C00030BD10B5141E73F1000408DA401C41F172
:1002D000000192185B411A4301D120F0010010BDCA
:1002E0002DE9F04D92469B4611B1B1FA81F202E040
:1002F000B0FA80F22032904600F052F804460F46E1
:1003000040EA0A0041EA0B0153465A46084313D01B
:10031000114653EA010019D0C8F140025046FFF7D8
:1003200003FF05460E4650465946424600F038F84F
:10033000084305D0012004E020463946BDE8F08D91
:100340000020054346EAE0762C4337430A986305CC
:10035000E40AA0EB08000022FD0A44EA47540A30F0
:1003600002D500200146E9E7010510196941DDE9E0
:10037000084500196941BDE8F04DA2E7064C074D5C
:1003800006E0E06840F0010394E807009847103465
:10039000AC42F6D3FFF7AEFE0C2F00082C2F00085E
:1003A000202A04DB203A00FA02F100207047914035
:1003B000C2F1200320FA03F3194390407047FEE78F
:1003C00070474FF4005000F0B3B8102000F0B0B800
:1003D0004FF4807000F0ACB872B6FEE710B590F83C
:1003E00021100022022905D00421816380F82020F9
:1003F000012010BD01680B6823F00E030B6001683B
:100400000B6823F001030B6090F84030C46B0121AE
:1004100001FA03F3636080F8211080F82020104671
:1004200010BD000010B590F821100024022903D05F
:100430000421816301243DE001680A6822F00E0274
:100440000A6001680A6822F001020A601A4A01681B
:10045000914201D1012121E0174A1432914201D188
:1004600010211BE0144A2832914201D1891515E070
:10047000114A3C32914201D189140FE00E4A5032A8
:10048000914202D14FF4803108E00B4A643291422C
:1004900002D14FF4801101E04FF08071064A083A12
:1004A0005160012180F82110002180F82010416B5B
:1004B00001B18847204610BD0800024070B50446CF
:1004C00000F040F90546601C02D00448007804445E
:1004D00000F038F9401BA042FAD370BD4000002064
:1004E00010B5B0F5005F08D0B0F5807F0ED01028B1
:1004F00010D1BDE8104001F099BB07A002F0D2FA7C
:10050000BDE810408021094800F00EB9BDE8104058
:1005100001F014BB10BD0000657874692063616C44
:100520006C6261636B210D0A0A000000000C01403F
:10053000044910B50A68024202D00860FFF7D0FFF4
:1005400010BD0000140401402DE9F84FDFF8B89108
:100550000024A9F1040B23460F2709F1040AABF18B
:10056000040EC9E00125A5402A40AA427DD1674E6C
:10057000D1F804C0ACEB0608B44532D014DCBCF1B1
:10058000030F3AD009DCBCF1000F2AD0BCF1010FF7
:100590001CD0BCF1020F31D11DE0BCF1110F17D0FE
:1005A000BCF1120F2AD119E0B8F5881F19D006DC6A
:1005B000B8F5803F15D0B8F5801F1FD111E0B8F510
:1005C000001F0ED0B8F5041F18D10AE0CB6815E063
:1005D000CB681B1D12E0CB6808330FE0CB680C33EF
:1005E0000CE08B682BB1012B4FF0080303D0456161
:1005F00004E0042302E0056100E00023FF2A01D8A3
:10060000064601E000F104064FEA840501D9A5F190
:100610002005D6F8008007FA05FC28EA0C0803FA42
:1006200005F548EA0508C6F800804D68ED0062D57A
:10063000374DAE6946F00106AE61AD6924F00306A0
:1006400005F001050095334D06EB050CDCF808506C
:10065000A607360F07FA06F825EA0805DFF8B8807E
:10066000404503D14FF0000817E044E0DFF8AC80CC
:10067000404502D14FF001080FE0DFF8A48040456B
:1006800002D14FF0020808E0DFF89880404502D11F
:100690004FF0030801E04FF0040808FA06F848EAB2
:1006A0000508CCF808804D68D9F80060ED024D4689
:1006B00001D5164300E096432E604D68DAF80060DD
:1006C000AD02554601D5164300E096432E604D68B5
:1006D000DBF80060AD035D4601D5164300E09643AC
:1006E0002E604D68DEF80060ED03754601D51643B7
:1006F00000E096432E60641C0D682A46E5407FF4B6
:1007000031AFBDE8F88F000008040140000011106F
:10071000001002400000014000080140000C0140B0
:100720000010014000140140C26821EA02030A409F
:1007300043EA0241016170470AB10161704709044F
:10074000FBE700000148806870470000400000207F
:10075000024881680278114481607047400000209F
:10076000074810B5016841F010010160032000F056
:1007700075F80F2000F006F800F024F8002010BDF6
:100780000020024070B50D4D04464FF47A71287870
:10079000B1FBF0F00A490968B1FBF0F000F0E7FDA9
:1007A00048B9102C07D200222146501E00F036F81E
:1007B00000206C6070BD012070BD00004000002072
:1007C0004C0000200C4808B5816941F001018161AD
:1007D000816901F001010091C16941F08051C1615D
:1007E000C06900F0805000900448416821F0E06149
:1007F00041F00071416008BD00100240000001405E
:10080000002809DB00F01F0201219140400980000F
:1008100000F1E020C0F8001170470000F0B40E4B6A
:100820001B680C46C3F30223C3F10705042D00D94E
:100830000425191D072901D2002300E0DB1E012633
:1008400006FA05F1491E214099409E40761E164049
:100850003143F0BC02F04AB90CED00E0064900F06B
:10086000070208684FF6FF03184040EA0220034AD7
:1008700010430860704700000CED00E00000FA052E
:100880002DE9F0470F46050061D0434E306800F077
:100890000700B84209D2306820F0070038433060C2
:1008A000306800F00700B84251D128683B4C8107FE
:1008B00012D5400703D5606840F4E0606060287896
:1008C000000703D5606840F4605060606068A96804
:1008D00020F0F000084360602878C00728D06868DE
:1008E000012810D02168022810D0890700292EDAAB
:1008F000616821F0030101436160FFF723FF804637
:1009000041F288390DE021688903EFE78901EDE7BD
:10091000FFF718FFA0EB0801494502D90320BDE805
:10092000F0876068696800F00C00B0EB810FEFD1D0
:10093000306800F00700B8420BD9306820F007009B
:1009400038433060306800F00700B84201D0012021
:10095000E5E72878400705D56068E96820F4E0609D
:10096000084360602878000706D56068296920F48C
:10097000605040EAC100606000F038F86168084AE1
:10098000C1F30311515CC84006490860064800687D
:10099000FFF7F8FE0020C2E70020024000100240EE
:1009A000F22E00084C0000204400002004480549B5
:1009B00000684968044AC1F30221515CC84070478D
:1009C0004C00002000100240022F00080448054996
:1009D00000684968044AC1F3C221515CC8407047AD
:1009E0004C00002000100240022F00080E4A5168FF
:1009F0000E4801F00C03042B11D0082B0FD10C482A
:100A0000C1F38343C903C05C0AD55168084AC1F3E6
:100A10004041921E515C054A5043B0FBF1F07047D3
:100A200004494843704700000010024000127A0059
:100A3000E22E000800093D002DE9F84F040070D0B7
:100A40002078C04DC00749D06868C0F381000128F4
:100A500007D06868C0F38100022809D16868C00324
:100A600006D52868800339D560680028E7D035E0CE
:100A70006068B0F5803F0BD010B1B0F5A02F11D059
:100A8000286820F480302860286820F4802002E064
:100A9000286840F480302860606890B1FFF752FE0B
:100AA00006460AE0286840F480202860F0E700BF8E
:100AB000FFF748FE801B642873D828688003F7D5A9
:100AC0000CE0FFF73FFE064605E000BFFFF73AFEE9
:100AD000801B6428F0D828688003F7D420789A4EC9
:100AE00080074FF001094FF0000839D5686810F011
:100AF0000C0F07D06868C0F38100022809D168682C
:100B0000C00306D42868800714D52069012808D1BD
:100B100010E02069B0B1C6F80090FFF713FE074659
:100B200005E00AE1FFF70EFEC01B0228C4D82868C2
:100B30008007F7D52868616920F0F80040EAC10015
:100B400028600DE0C6F80080FFF7FCFD074604E0D2
:100B5000FFF7F8FDC01B022823D828688007F7D4C8
:100B6000207800072CD57948A169D9B1C0F8009048
:100B7000FFF7E8FD074604E0FFF7E4FDC01B02288D
:100B80000FD8686A8007F7D571484FF4FA510068AA
:100B9000B0FBF1F0009000BF0098411E0091FAD226
:100BA0000EE080E0C0F80080FFF7CCFD074604E0CF
:100BB000FFF7C8FDC01B022875D8686A8007F7D404
:100BC0002078400760D5E8690027C00008D4E869AC
:100BD00040F08050E861E869012700F08050009003
:100BE0005C480168C90513D40168834641F48071EB
:100BF0000160FFF7A7FD824606E000BFFFF7A2FDF8
:100C0000A0EB0A0064284ED8DBF80000C005F5D53B
:100C1000E06801280AD008B1052813D0286A20F01E
:100C200001002862286A20F0040002E0286A40F0EF
:100C300001002862E06841F2883B98B1FFF782FD2D
:100C400082460BE0286A40F004002862EEE700BF0D
:100C5000FFF778FDA0EB0A0159455AD8286A8007AA
:100C6000F6D50CE0FFF76EFD824605E0FFF76AFD62
:100C7000A0EB0A0159454CD8286A8007F6D41FB169
:100C8000E86920F08050E861E06988B36968C1F3E1
:100C90008101022944D00228C6F8608004D0FFF701
:100CA00051FD044638E034E0FFF74CFD074604E010
:100CB000FFF748FDC01B02282BD828688001F7D415
:100CC000206AB0F5803F05D16868A16820F4003043
:100CD00008436860D4E908010843696821F4741185
:100CE00008436860C6F86090FFF72CFD044606E0F4
:100CF00025E000BFFFF726FD001B022809D8286861
:100D00008001F7D51BE000BFFFF71CFD001B022888
:100D100002D90320BDE8F88F28688001F4D40EE0E2
:100D20000128F7D06868226A00F48031914204D12A
:100D3000616A00F47010884201D00120EAE70020C7
:100D4000E8E70000001002400000424280044242F6
:100D50004C0000200070004070B5040009D0606AAB
:100D6000002540B125616561A56294F8510040B14C
:100D70000CE0012070BD6068B0F5827FF4D0E561C1
:100D8000F2E784F85050204600F040F8022084F842
:100D900051002068016821F040010160A08821898C
:100DA00000F4827001F404410843A18901F4006158
:100DB0000843217C01F002010843217D01F001017B
:100DC0000843218B01F400710843217F01F03801B1
:100DD000084394F8201001F080010843218D01F4AC
:100DE0000051084321680860A069042101EA10400D
:100DF000216848602068C16921F40061C1616565AE
:100E0000012084F85100002070BD000030B585B08D
:100E100000240094019402940394254D036825480E
:100E200002210322AB421AD1836943F480538361C8
:100E3000836903F480530493836943F0040383615B
:100E400080691D4D00F004000490A020CDE9000150
:100E5000039269462846FFF777FB40201EE0174DB6
:100E6000AB4222D1C36943F48043C361C36903F435
:100E700080430493836943F0080383618069104DC4
:100E800000F0080004904FF42040CDE900010392E7
:100E900069462846FFF758FB4FF48040CDE900042F
:100EA000694628460294FFF74FFB05B030BD0000AD
:100EB00000300140001002400008014000380040AE
:100EC000000C01402DE9F84F044690F851001D46F2
:100ED00016460F46012838D160684FF00408B0F577
:100EE000827F01D1A06830B3FFF72CFC8246002F2F
:100EF00075D0002E73D094F85000012825D04FF003
:100F0000010984F8509084F851804FF00008C4F82B
:100F10005480A763A687E687C4F83080A4F834809D
:100F2000A4F83680C4F84080C4F84480A068B0F5C6
:100F3000004F0CD015E084F85180009313460A4608
:100F4000204600F01CF9BDE8F88F0220FBE720687E
:100F5000016821F0400101602068016821F48041AE
:100F6000016020680168490603D4016841F040012E
:100F70000160E068C0B134E020688168C90709D029
:100F8000007BA16B0870A06B401CA063E08F401E2B
:100F9000E08709E0FFF7D6FBA0EB0A00A84202D3E6
:100FA000681C01D032E085B3E08F0028E4D11BE05B
:100FB00020688168C90709D0C068A16B0880A06B50
:100FC000801CA063E08F401EE0870AE0FFF7BAFBB9
:100FD000A0EB0A00A84203D3681C02D016E012E07E
:100FE0009DB1E08F0028E3D152462946204601F00A
:100FF00087FA08B12020606584F8519084F8508009
:10100000606D00289FD001209DE7FFE784F8519094
:1010100084F85080032096E72DE9F84F984616464D
:101020008A460446FFF78EFB814694F8510001285A
:101030001ED1BAF1000F73D0002E71D094F8500079
:10104000012815D0012784F85070032084F851003E
:1010500000256565C4F830A0A686E686A563A58749
:10106000E58765642564A068B0F5004F03D00CE007
:101070000220BDE8F88F2068016821F0400101607E
:101080002068016841F480410160206801684906D8
:1010900003D4016841F040010160E068B0F5006FE1
:1010A000606803D048B3012E27D047E008B1012E75
:1010B0001FD1206B21680088C86006E02068816825
:1010C000890709D5216B0988C160206B801C2063CA
:1010D000E08E401EE0860CE0FFF734FBA0EB090138
:1010E000414503D3B8F1FF3F03D035E0B8F1000F1D
:1010F00032D0E08E0028E1D123E0206B2168007817
:10110000087306E02068816889070AD5216B097891
:101110000173206B401C2063E08E401EE0860DE0D2
:101120002BE0FFF70FFBA0EB0901414503D3B8F11A
:10113000FF3F03D010E0B8F1000F0DD0E08E002883
:10114000E0D14A464146204601F008FA08B1202085
:101150006065A06830B109E084F8517084F850509F
:10116000032086E72068C1688068009084F8517089
:1011700004F8505F60680028F3D0012079E72DE97A
:10118000FF4F81B01D46934604464FF001090E9E65
:10119000FFF7D8FA074694F851006168012806D095
:1011A000B1F5827F3CD1A168C9BB042838D102982F
:1011B000002871D0BBF1000FFBD0002DF9D094F8BE
:1011C000500001282CD04FF0010A84F850A094F868
:1011D0005100042802D0052084F851004FF0000887
:1011E000C4F85480C4F838B0E587A5870299216314
:1011F000E586A586C4F84080C4F84480206801686C
:10120000490603D4016841F040010160E068B0F58F
:10121000006F606808D0F0B3012D49D081E0FFE78E
:10122000022005B0BDE8F08F08B1012D39D1206B47
:1012300021680088C860206B801C2063E08E401EFF
:10124000E0862EE02068816889070FD5E18E69B1BC
:10125000B9F1010F0AD1216B0988C160206B801C94
:101260002063E08E401EE0864FF000092068816810
:10127000C9070CD0E18F51B1C068A16B0880A06B89
:10128000801CA063E08F401EE0874FF00109FFF74C
:1012900059FAC01B01E00BE067E0B04201D3701CBB
:1012A00050D1E08E0028CDD1E08F0028CAD13EE099
:1012B000206B216800780873206B401C2063E08E4F
:1012C000401EE0862DE02068816889070FD5E18EF9
:1012D00069B1B9F1010F0AD1216B09780173206B53
:1012E000401C2063E08E401EE0864FF0000920681D
:1012F0008168C9070CD0E18F51B1C068A16B08703B
:10130000A06B401CA063E08F401EE0874FF00109F6
:10131000FFF718FAC01BB04202D3701C01D011E0D5
:1013200086B1E08E0028CED1E08F0028CBD13A469E
:101330003146204601F012F950B12020606584F852
:10134000508012E084F851A084F85080032068E7B0
:10135000A06818B92068C1688068009084F851A01E
:1013600084F85080606D0028F1D0012059E710B555
:10137000401EB0F1807F01D3012010BD4FF0E0246A
:1013800060610F21601701F0B1FB0020A061072010
:101390002061002010BD70477047000070B590F8C4
:1013A0003C20012A26D0012480F83C40022280F80B
:1013B0003D2003685A689D6822F070060A6832432F
:1013C0005A600D4B02689A4208D0B2F1804F05D0A6
:1013D0000A4B9A4202D00A4B9A4204D1496825F03E
:1013E00080031943916080F83D40002180F83C1053
:1013F000084670BD022070BD002C01400004004072
:101400000008004010B5040003D094F83D0010B16E
:1014100007E0012010BD002084F83C00204600F0C9
:101420001FF8022084F83D00211D206801F09AF980
:10143000012084F8460084F83E0084F83F0084F8D8
:10144000400084F8410084F8420084F8430084F8A6
:10145000440084F8450084F83D00002010BD0000E1
:1014600008B500680B49884212D10B48816941F4E4
:10147000006181618069002200F4006000901146E3
:101480001920FFF7CBF9BDE808401920FFF7B8B9DC
:1014900008BD0000002C01400010024090F83D10F3
:1014A000012901D001207047022180F83D10016818
:1014B000CA6842F00102CA6000680B49884208D03D
:1014C000B0F1804F05D00949884202D008498842CE
:1014D00004D1816801F00701062903D0016841F0B9
:1014E0000101016000207047002C01400004004011
:1014F0000008004070B5044690F83C000025012823
:1015000017D0012684F83C60022084F83D00206852
:10151000826822F0770222F47F42826008685028B5
:1015200038D00DDC20284FD005DC90B3102811D125
:101530004AE0022070BD302846D040280AD13BE066
:1015400060282FD070280DD0B0F5805F03D0B0F5A3
:10155000005F12D0012584F83D60002084F83C0033
:10156000284670BDCB68D1E90121206801F036F929
:101570002068816841F0770109E0CB68D1E9012159
:10158000206801F02BF92068816841F48041816076
:10159000E1E719E0CA684968206801F031F9502193
:1015A000206806E0CA684968206801F03AF96021BD
:1015B000206801F01DF9CEE7CA684968206801F08B
:1015C0001FF940212068F4E7226801461046F0E741
:1015D00070472DE9F04104460068C66805694FF080
:1015E0000007A90713D5B10711D5F91E0161012024
:1015F0002077206880698007204602D0FFF7E8FF47
:1016000004E000F07EF8204600F07CF827776807B9
:1016100016D5700714D521686FF004000861022008
:1016200020772068806910F4407F204602D0FFF7C1
:10163000CFFF04E000F065F8204600F063F827775C
:10164000280715D5300713D521686FF00800086109
:10165000042020772068C0698007204602D0FFF769
:10166000B7FF04E000F04DF8204600F04BF8277774
:10167000E80616D5F00614D521686FF01000086151
:10168000082020772068C06910F4407F204602D0EF
:10169000FFF79EFF04E000F034F8204600F032F837
:1016A0002777E80708D0F00706D021686FF001001F
:1016B0000861204600F028F8280608D5300606D52F
:1016C00021686FF0800008612046FFF764FE68061D
:1016D00008D5700606D521686FF0400008612046E5
:1016E00000F02CF8A8060AD5B00608D521686FF0DE
:1016F000200008612046BDE8F041FFF74DBEBDE87F
:10170000F081704770470000094988420ED10948AE
:101710000188491C89B20180B1F57A7F06D3002186
:1017200001804FF480710448FEF7FEBF704700004F
:10173000300300203E000020000C0140704770473D
:1017400070470000F8B5016804460868CA684B692C
:1017500010F00F0F4FF0000559D003F0010602F40E
:101760009077374365D0C10705D0D10503D5616CAB
:1017700041F001016164410705D5D90703D0616CCF
:1017800041F002016164810705D5D90703D0616C7E
:1017900041F004016164010707D502F020013143E3
:1017A00003D0616C41F008016164616C00293AD09A
:1017B000800604D5900602D5204601F073F8206813
:1017C0004069616CC0F38010090700D460B3204603
:1017D00001F041F820684069400621D520681430A6
:1017E00050E8001F21F0400140E80012002AF5D126
:1017F000E06BA8B16D494163E06BFEF713FE002872
:1018000011D0E06B416B01B0BDE8F04008478306A2
:101810000FD593060DD52046BDE8F84001F042B83B
:101820002046FFF78DFFF8BD2046FFF789FF65646E
:10183000F8BD266B2023012E7CD1C6067AD5D606AC
:1018400078D508684868009048694FF0020640065D
:1018500040D5E16B086840680004000CE8D0A28D18
:101860008242E5D9E085886920282DD020680C3097
:1018700050E8001F21F4807140E80012002AF5D1E1
:101880002068143050E8001F21F0010140E80012E8
:10189000002AF5D12068143050E8001F21F04001E3
:1018A00040E80012002AF5D184F842302563206810
:1018B0000C3050E8001F21F0100140E80012002A0F
:1018C000F5D1E06BFEF78AFD6663A08DE18D401ACD
:1018D00081B22AE0A08DE18D401A81B2E08D00280E
:1018E000A6D00029A4D022680C3252E8000F20F4C0
:1018F000907042E80007002FF5D12068143050E8BE
:10190000002F22F0010240E80027002FF5D184F8D3
:101910004230256320680C3050E8002F22F010027E
:1019200040E80023002BF5D166632046FFF707FF50
:10193000F8BDFFE705062BD5150629D594F841001B
:101940002128F5D1A068B0F5805F01D12069B0B140
:10195000206A411C2162216800784860E08C401EAA
:101960000004000CE084E3D12068C16821F080010C
:10197000C1602068C16841F04001C160D8E7206AB9
:101980000088C0F308004860206A801C2062E5E7F8
:101990004006CDD55006CBD5CA68204622F040027D
:1019A000CA6084F8413000F0C6F8C1E74728000853
:1019B00070B5040004D094F84100002510B106E091
:1019C000012070BD84F84050204600F023F8242008
:1019D00084F841002068C16821F40051C1602046AC
:1019E00000F0C2FF2068016921F490410161206884
:1019F000416921F02A0141612068C16841F4005128
:101A0000C1606564202084F8410084F84200656369
:101A1000002070BD30B585B000240094019402947C
:101A200003940068184988422CD11848816941F410
:101A300080418161816901F480410491816941F0B3
:101A4000040181618069124D00F0040004904FF49C
:101A50000070009002200190032003906946284600
:101A6000FEF772FD2815CDE9000469462846029468
:101A7000FEF76AFD002211462520FEF7CFFE252045
:101A8000FEF7BEFE05B030BD003801400010024038
:101A90000008014070472DE9F843044690F84100E2
:101AA000984616460D46202802D00220BDE8F8834D
:101AB00085B17EB100206064212084F84100FEF7EA
:101AC00041FEA6848146E684A0682027B0F5805FA9
:101AD00002D003E00120E9E7206910B12E4600257D
:101AE0000EE000260CE08021204600F099FFA8B906
:101AF000C6B116F8010B21684860E08C401EE084F6
:101B0000E08C4B464FF00002CDF800800028EAD16F
:101B10004FF04001204600F083FF40B184F841704F
:101B20000320C3E735F8020BC0F30800E3E784F8AD
:101B300041700020BAE77047FEE700002DE9F04150
:101B4000244C0125FF26A078234F01282ED0607851
:101B5000012839D121A000F0A5FF3E7001223946AD
:101B6000122001F073F9381D417A01292ED001228B
:101B700004F58271132000F05FFC01221649102049
:101B800000F05AFC012214490D2001F05FF994F88D
:101B90000421211D002000F04FFCE57094F8041191
:101BA000221DBDE8F04113A000F07CBF19A000F099
:101BB00079FF3E7001220849122001F047F9002008
:101BC000A07000F0F3F96570BDE8F081007E84F844
:101BD0000401D2E75400002000000020784C6F720E
:101BE00061202E52784D6F64652073746172742188
:101BF0000D0A00006C6F726120BDD3CAD5B5BD203F
:101C0000256420B8F6D7D6BDDACAFDBEDD3A202558
:101C1000730D0A00784C6F7261202E54784D6F64FA
:101C200065207374617274210D0A00002DE9F04182
:101C3000254C0125FF26A078244F01282FD060785D
:101C400001283AD122A000F02DFF3E700122394632
:101C5000122001F021F907F12000417A01292ED04C
:101C6000012204F58271132000F00CFC01221749B7
:101C7000102000F007FC012214490D2001F00CF99E
:101C800094F80421211D002000F0FCFBE57094F87D
:101C90000411221DBDE8F04113A000F003BF1BA0FA
:101CA00000F000FF3E7001220849122001F0F4F814
:101CB0000020A07000F0C2F96570BDE8F081007EE0
:101CC00084F80401D2E70000590100200000002040
:101CD000784C6F726132202E52784D6F646520739C
:101CE00074617274210D0A006C6F72613220BDD371
:101CF000CAD5B5BD20256420B8F6D7D6BDDACAFD51
:101D0000BEDD3A2025730D0A00000000784C6F728A
:101D10006132202E54784D6F646520737461727443
:101D2000210D0A00F8B5044616460F4682A000F0C1
:101D3000B9FE8748874D44432C60AF716E7100F047
:101D4000E1FA854E4FF40044002221463046FEF76A
:101D5000F3FC6420FEF7B2FB012221463046FEF779
:101D6000EBFCC820FEF7AAFB0122291F062000F089
:101D700063FB2C1F20786C2804D078A0BDE8F840C5
:101D800000F090BE002001F035F872490122091FD1
:101D9000104600F051FB20786E4940F08000207022
:101DA0000122091F104601F051F8202069492070D6
:101DB0000122091F0C2001F049F82868FEF745FAB6
:101DC00000226F4BFEF7D2F9FEF74CFA010C8DF8AA
:101DD0000010010A8DF801108DF8020003226946F7
:101DE000062001F033F8A87900F04AFC5949EE7951
:101DF0000122091F1D2000F01FFB2078554900F02B
:101E0000F10040EA460020700122091F1D2001F068
:101E10001DF850492E7A0122091F1E2000F00CFBEC
:101E200020784C4900F0FB0040EA86002070012237
:101E3000091F1E2001F00AF846496E790122091F88
:101E40001D2000F0F9FA2078424966F31F10207037
:101E50000122091F1D2000F0F9FF3E496D7A012281
:101E6000091F1D2000F0E8FA20783A4900F0FE0032
:101E7000284320700122091F1D2000F0E7FF0222E5
:101E800069461E2000F0D8FA9DF80000FF2500F0FA
:101E9000FC0040F003008DF800008DF80150022294
:101EA00069461E2000F0D2FF2A4901221831222063
:101EB00000F0CCFF27490122091F262000F0BCFAC0
:101EC0002078244900F0F70040F00800207001223B
:101ED000091F262000F0BAFF1E490122091F092010
:101EE00000F0AAFA20781B4900F07F0040F0800043
:101EF00020700122091F092000F0A8FF8720154942
:101F000020700122091F4D2000F0A0FF8F201149F1
:101F100020700122091F092000F098FF0D4925704B
:101F20000122091F122000F091FF164901200870BC
:101F300000F03CF814A021E77378313237382D4C8B
:101F40006F7261B3F5CABCBBAF0D0A0A0000000096
:101F500040420F0004000020000801402020202003
:101F6000C1ACBDD3CAA7B0DCA3ACBDABCDCBB3F67F
:101F7000535831323736CABCBBAF210D0A0A0000B4
:101F800080844E40540000202020202020BCECB251
:101F9000E2B3C9B9A6A3BBD2D1BDF8C8EBBDD3CAC1
:101FA000D5D7B4CCACD6D00D0A0A000070B5164D0A
:101FB000287820B3012000F01DFF144C00260122D8
:101FC00026702146242000F041FF9F20207001222E
:101FD0002146112000F03AFF2670012221464020C0
:101FE00000F034FFFF20207001222146122000F073
:101FF0002DFF052000F0FEFE0120687070BDBDE8D9
:10200000704003A000F04EBD5400002000000020EE
:102010000D0A4C4F524120B3F5CABCBBAFCAA7B0A2
:10202000DCA3ACB2BBC4DCC9E8D6C3CEAABDD3CA5C
:10203000D5C4A3CABDA3A10D0A00000070B5164DFA
:10204000287820B3012000F0EBFE144C002601227A
:1020500026702146242000F01FFF9F2020700122BF
:102060002146112000F018FF267001222146402051
:1020700000F012FFFF20207001222146122000F004
:102080000BFF052000F0CCFE0120687070BDBDE89C
:10209000704003A000F006BD5901002000000020A0
:1020A0000D0A4C4F52413220B3F5CABCBBAFCAA790
:1020B000B0DCA3ACB2BBC4DCC9E8D6C3CEAABDD3E6
:1020C000CAD5C4A3CABDA3A10D0A00002DE9F041E1
:1020D000244E80460D463078D0B3B078012839D0F0
:1020E000002D3CD0012000F085FE1F4C002701226E
:1020F00027702146242000F0A9FEF720207001223D
:102100002146112000F0A2FE41202070012221462C
:10211000402000F09BFE2770012221460E2000F097
:1021200095FE012221460D2000F090FE257001222F
:102130002146222000F08AFE2A464146002000F077
:1021400085FE0120B070BDE8F041032000F052BED2
:1021500006A000E00DA0BDE8F04100F0A3BCBDE882
:10216000F081000054000020000000200D0A4C4FB8
:10217000524120B3F5CABCBBAFCAA7B0DC2C20B219
:10218000BBC4DCB7A2CBCDA3A10D0A00C9CFB4CE8E
:10219000B7A2CBCDBBB9C3BBCDEAB3C9A3ACB1BE6B
:1021A000B4CEB7A2CBCDCAA7B0DC0D0A00000000A8
:1021B0002DE9F04F85B000264C4800960196029616
:1021C0000396816941F010018161816901F010017C
:1021D0000491816941F020018161816901F0200150
:1021E0000491816941F004018161816901F0040178
:1021F0000491816941F0080181618069DFF8F0B0E4
:1022000000F008000490002202215846FEF794FADC
:102210004FF40048012241465846FEF78DFA4FF42C
:102220001879012249463348FEF786FA4FF4C07AFE
:10223000002251462F48FEF77FFA4FF400500090DD
:102240002D480124CDE9010469462C48FEF77CF9AC
:102250000225CDE90054CDE9026569465846FEF7EE
:1022600073F9274F2002CDE90007694602945846CA
:10227000FEF76AF9CDE9008469465846CDE9024582
:10228000FEF762F91020CDE900076946029519486A
:10229000FEF75AF9CDE9009469461648CDE90245A2
:1022A000FEF752F9CDF800A00395CDE90146694645
:1022B0001048FEF749F9002211460A20FEF7AEFA4F
:1022C0000A20FEF79DFA002211461720FEF7A6FA13
:1022D0001720FEF795FA002211462820FEF79EFAF5
:1022E0002820FEF78DFA05B0BDE8F08F00100240FF
:1022F00000080140000C01400000211000100140C6
:10230000000011100F4810B50D4901604FF48271A3
:10231000416000218160C1604FF400720161C0E939
:102320000512C1610162416281620A21C162FEF748
:1023300013FD002803D0BDE81040FEF74DB810BDD6
:1023400000300140800200200F4810B50D490160A7
:102350004FF48271416000218160C1604FF40072CE
:102360000161C0E90512C1610162416281620A2115
:10237000C162FEF7F1FC002803D0BDE81040FEF773
:102380002BB810BD00380040D802002010B586B030
:10239000002418480094019402940394049414496E
:1023A0000594016040F23F11C0E901146321C0E9C6
:1023B00003148021C0E90541FFF724F808B1FEF7B6
:1023C0000BF84FF48050009069460A48FFF792F8E6
:1023D00008B1FEF701F8049404A906480594FEF735
:1023E000DDFF002801D0FDF7F7FF06B010BD0000AB
:1023F000002C0140300300200C4810B50A49016050
:102400004FF4E1314160002181600C22C160C0E9DC
:1024100004128161C161FFF7CBFA002803D0BDE847
:102420001040FDF7D9BF10BD0038014078030020EF
:10243000FEE7FEE7704700002DE9F04115460E4625
:102440000446FFF75FFFDFF838804FF40077002283
:1024500039464046FEF770F904F07F0000F0A8F816
:10246000002404E000F094F83055641CE4B2AC425F
:10247000F8D339464046BDE8F0410122FEF75CB989
:10248000000C01402DE9F04115460E460446FFF7C9
:102490005BFF0D4F002240213846FEF74DF904F056
:1024A0007F0000F023F8002405E000BF00F00EF8E4
:1024B0003055641CE4B2AC42F8D33846BDE8F04174
:1024C00001224021FEF738B9000C014008B5002078
:1024D0008DF80000C823012269460348FEF7F2FC8C
:1024E0009DF8000008BD0000D802002001B5C823F7
:1024F000012269460148FEF78FFD08BDD802002081
:10250000F8B5044640684FF48273984217D1A0682A
:102510004FF48065B0F5004F01D0A8420FD120687C
:10252000066826F0400606606068984207D1A068F9
:10253000A84204D100920B460022012103E0009240
:102540000B4600228021204600F03CF8002804D0F1
:10255000606D40F0200060650320F8BDF8B51546B9
:102560000E460B46009204460122022100F02AF892
:1025700040B93346002280212046009500F022F821
:10258000002804D0606D40F0200060650320F8BD95
:1025900008B500208DF80000C823012269460348D1
:1025A000FEF790FC9DF8000008BD000080020020AE
:1025B00001B5C823012269460148FEF72DFD08BD7B
:1025C000800200202DE9F8431E46914688460446C5
:1025D000089DFEF7B7F8401B351AFEF7B3F807461B
:1025E00025480068C0F3CB30684338E0701C37D012
:1025F000FEF7A8F8C01BA84203D215B1009860B33B
:102600002CE02068416821F0E00141606068B0F58D
:10261000827F0BD1A068B0F5004F02D0B0F5806F7B
:1026200004D12068016821F040010160A06AB0F582
:10263000005F09D12068016821F400510160206821
:10264000016841F400510160012084F8510000202C
:1026500084F850000320BDE8F8830025401E009058
:102660002068816838EA010004D000214945BDD1C5
:102670000020F0E70121F9E74C000020704700003E
:1026800070B51A4D04460C2801D90C2408E0062C1C
:1026900006D20624012215493120FFF7CDFE20E0A5
:1026A000012212493120FFF7C7FE062C19D02878E5
:1026B00000F0F800C01C287001220C49312000F005
:1026C000C5FB012209491E20FFF7B6FE287801222A
:1026D00064F31F102870BDE8704004491E2000F00C
:1026E000B5BB287800F0F800401DE4E700000020AA
:1026F000FEF72EB810B590B028216846FDF72BFDE7
:1027000014210AA8FDF727FD0120010400228DE80D
:10271000070004904FF4E010CDE90810022407945C
:102720006846FEF789F908B172B6FEE70F20CDE9D9
:102730000A0480200C90C0000D904FF4A0600E9011
:1027400002210AA8FEF79CF8002801D072B6FEE725
:1027500010B010BD704700000148FEF73ABF0000FE
:1027600030030020F0B50268194B1A4C1A4D4FF097
:102770008047984205D0B84203D0A04201D0A84279
:1027800003D122F070064A683243984205D0B8421D
:1027900003D0A04201D0A84203D122F44074CA68F9
:1027A00022434C6922F08002224302608A68C2629E
:1027B0000A688262984201D109690163012141617D
:1027C0000169C90703D0016921F001010161F0BD70
:1027D000002C0140000400400008004010B584684F
:1027E00042EA032224F47F440A432243826010BD5C
:1027F000826822F070020A4342F00701816070474C
:1028000010B5036A046A24F001040462846924F0A8
:10281000F00444EA021423F00A020A4384610262CB
:1028200010BD10B5036A046A24F0100404628469C0
:1028300023F0A00324F4704444EA023243EA011175
:102840008261016210BD10B5406A0021C185C1845A
:10285000FEF776FF10BD01680C3151E8002F22F41D
:10286000907241E80023002BF5D10168143151E842
:10287000002F22F0010241E80023002BF5D1016B6B
:10288000012909D101680C3151E8002F22F0100212
:1028900041E80023002BF5D1202180F842100021CF
:1028A0000163704708B590F84210222901D0022038
:1028B00008BD82684FF480539A4201D1016921B169
:1028C000816A9A421BD04AB10AE00268816A526862
:1028D000C2F308020A80816A891C08E0026972B1A9
:1028E0000268526802F07F020A70816A491C8162A4
:1028F000C18D491E0904090CC18503D01BE0026883
:102900005268F1E70168CA6822F02002CA600168D3
:10291000CA6822F48072CA6001684A6922F0010222
:102920004A61202180F8421000214163026B012A94
:1029300003D0FFF7AFF8002008BD016301680C3138
:1029400051E8002F22F0100241E80023002BF5D1BE
:1029500001680A68D20602D50A6849680091818D2B
:10296000FEF7EDFEE7E7000070B504460068016978
:10297000E26821F44051114301612169A0680843D4
:10298000616908432168CA6841F20C639A430243B3
:10299000CA6020684169A26921F440711143416114
:1029A0001E492068884202D1FEF710F801E0FDF7C9
:1029B000FDFF00EBC00101EB0012606864218000A4
:1029C000B2FBF0F3B3FBF1F36FF018067343B2FB05
:1029D000F0F5B2FBF0F605EB8305322303EB0515AA
:1029E000B5FBF1F5B6FBF1F605F0F00505EB0615C4
:1029F000B2FBF0F6B2FBF0F0B0FBF1F06FF01802B2
:102A0000504306EB800003EB0010B0FBF1F02168AF
:102A100000F00F002844886070BD000000380140BD
:102A20002DE9F843984617460D460446089E24E0D3
:102A3000701C22D0FDF786FEA0EB0800B0421AD829
:102A4000CEB12068C168490717D5802D15D0402D1B
:102A500013D00168C94309070FD4016800254068F5
:102A600000902046FFF7F7FE0820606484F840508D
:102A70000120BDE8F8830320FBE72068006835EA01
:102A8000000004D00020B842D2D00020F1E701209D
:102A9000F9E700000148FEF755BE0000780300206A
:102AA000FEE700000FB4054B10B503A9044A0298D5
:102AB00000F03CF810BC5DF814FB0000F12C00089D
:102AC000500000200FB4084B10B504A902AA0398C7
:102AD00000F02CF8044602A9002000F003F920467B
:102AE00010BC5DF814FB0000E52C00080907090E76
:102AF000002804DB00F1E02080F80014704700F0AB
:102B00000F0000F1E02080F8141D704702E008C8B3
:102B1000121F08C1002AFAD170477047002001E057
:102B200001C1121F002AFBD1704700002DE9FF4FA1
:102B30008BB09A460F460546002606E025280BD0A6
:102B400052460D9990476D1C761C28780028F5D1C7
:102B50000FB03046BDE8F08F0024A0460122604946
:102B600000E0044315F8013F203B02FA03F008425D
:102B7000F7D128782E2817D115F8010F44F0040456
:102B80002A280ED06FF02F022878A0F130010929F1
:102B90000AD808EB880102EB410100EB01086D1C2B
:102BA000F2E757F8048B6D1C287869283ED006DCC4
:102BB0000028CDD063280BD0642804D136E07328D8
:102BC00010D075284BD052460D999047761C85E061
:102BD00017F8040B8DF8000000208DF80100E9467D
:102BE000012003E057F8049B4FF0FF3061074FF0DE
:102BF000000401D40AE0641C44450DDA8442FADB87
:102C000019F804100029F6D106E0641C8442FCDBAC
:102C100019F804100029F8D1264404E019F8010B32
:102C200052460D999047641EF8D257E001CF4FF0FD
:102C30000A0B002802DA40422D2102E0210504D5CA
:102C40002B218DF82410012103E0E10705D020217C
:102C5000F7E70DF1200908910CE00021F9E701CF19
:102C60004FF00A0BF9E75946FDF715FB01F1300269
:102C700009F8012D0028F6D1ADEB090000F1200B79
:102C8000600701D44FF00108D84502DDA8EB0B0026
:102C900000E000208046002406E009A85246005DBE
:102CA0000D999047641C761C08988442F5DB04E07B
:102CB000302052460D999047761CB8F10001A8F1DA
:102CC0000108F5DC05E019F8010B52460D99904713
:102CD000761CBBF10001ABF1010BF4DC6D1C34E799
:102CE000092801000A68531C0B601070704700002F
:102CF00013B56FF07F43012269460248FEF7CBFE11
:102D000000981CBD780300201FB51FA30FCB8DE8D2
:102D10000F00FDF725FDFFF7EDFCFFF749FAFFF780
:102D2000F1FAFFF733FBFFF767FBFFF70DFB4FF4FB
:102D3000FA70FDF7C3FB08220B214FF4D070FEF7A9
:102D4000F1FF1548FEF7AAFB14A0FFF7ABFE6FF0EA
:102D50007F430D2269461648FEF79DFE154C41F251
:102D6000883515A12288501C20801B48FFF7AAFE39
:102D700020211948FFF7AAF9218818A0FFF792FE31
:102D80002846FDF79BFBECE768656C6C6F20776F5E
:102D9000726C640D0A0000003003002073797374B4
:102DA00065726D207374617274210D0A0000000059
:102DB000780300203C000020313233343536373878
:102DC0003939393938383837373766666679797935
:102DD0007A7A7A25640000005E020020D2D1B7A280
:102DE000CBCDB5DA20256420B4CECAFDBEDD2C0DD6
:102DF0000A00000010B50446012208491046FFF7FA
:102E00001BFB0648017801F0F80121430170012203
:102E10000146BDE81040104600F018B80000002040
:102E200010B50446012208491046FFF72BFB06485F
:102E3000017801F0F8012143017001220146BDE84B
:102E40001040104600F028B8000000202DE9F041A5
:102E500015460E460446FFF755FADFF838804FF462
:102E60000077002239464046FDF766FC44F08000BA
:102E7000FFF79EFB002404E0305DFFF799FB641C24
:102E8000E4B2AC42F8D339464046BDE8F0410122F5
:102E9000FDF752BC000C01402DE9F04115460E46ED
:102EA0000446FFF751FA0D4F002240213846FDF746
:102EB00043FC44F08000FFF719FB002404E0305D80
:102EC000FFF714FB641CE4B2AC42F8D33846BDE80B
:102ED000F04101224021FDF72FBC0000000C014011
:102EE000010202030405060708090A0B0C0D0E0F68
:102EF000101000000000000000000102030406079B
:102F00000809000000000102030400002C2F000843
:102F100000000020540000000C2B0008802F000847
:102F2000540000206C0700001C2B0008000000006B
:102F3000B0B1821B14080B01010000000400000066
:102F4000A086010040420F0080000000B0B1821B4B
:102F500014080B010100000004000000A08601001D
:102F600040420F008000000000000000010000004F
:102F7000100000000000000000127A0000000000B5
:04000005080000ED02
:00000001FF
