:020000040800F2
:10000000B01100201D030008BF440008D13E0008C5
:10001000BD44000839210008054E0008000000001A
:10002000000000000000000000000000DF490008A0
:10003000652200080000000029490008E149000885
:1000400037030008370300083703000837030008A8
:100050003703000837030008370300083703000898
:100060003703000837030008370300083703000888
:100070003703000837030008370300083703000878
:100080003703000837030008370300084921000838
:100090003D21000837030008370300083703000834
:1000A00037030008894A00083703000837030008AF
:1000B0003703000837030008370300083703000838
:1000C0003703000837030008370300083703000828
:1000D00037030008F94D000837030008370300080C
:1000E0003703000837030008370300083703000808
:1000F00037030008370300083703000837030008F8
:1001000037030008370300083703000837030008E7
:1001100037030008370300083703000837030008D7
:1001200037030008370300083703000837030008C7
:1001300037030008370300083703000837030008B7
:1001400037030008370300083703000837030008A7
:100150003703000837030008370300083703000897
:100160003703000837030008370300083703000887
:1001700037030008370300083703000800000000B9
:10018000370300083703000800F002F800F0B6F863
:100190000AA090E8000C82448344AAF10107DA45E2
:1001A00001D100F0ABF8AFF2090EBAE80F0013F07E
:1001B000010F18BFFB1A43F0010318474059000014
:1001C000605900000A444FF0000C10F8013B13F096
:1001D000070408BF10F8014B1D1108BF10F8015BA0
:1001E000641E05D010F8016B641E01F8016BF9D193
:1001F00013F0080F1EBF10F8014BAD1C0C1B09D1EA
:100200006D1E58BF01F801CBFAD505E014F8016B5B
:1002100001F8016B6D1EF9D59142D6D370470000ED
:100220000023002400250026103A28BF78C1FBD8FF
:10023000520728BF30C148BF0B6070476E2900F0DD
:10024000EE84702900F06B82662904F038876529F6
:1002500004F03587672904F03287612904F031877B
:1002600003681B0A28BF41F08001692900F0DC8186
:10027000642900F0D981752900F0D6816F2900F03A
:10028000DC85782900F03782E92900F07785E429B8
:1002900000F07485F52900F07185EF2900F0D9850B
:1002A000F82900F036820368DB0928BF41F080019D
:1002B000632900F0F884732900F0FD84E32901F03C
:1002C000FF81F32901F00482002070471FB504F07C
:1002D000F1FE9DE8030000F001FC01F053FA040078
:1002E0000020002104F0D0FE401C606000200021AE
:1002F00004F0B4FEE0601FBD10B510BD01F014FAAB
:100300001146FFF7E3FF04F03BFE01F0F1FA03B4FE
:10031000FFF7F2FF03BC01F021FB00000948804712
:1003200009480047FEE7FEE7FEE7FEE7FEE7FEE7D7
:10033000FEE7FEE7FEE7FEE704480549054A064BEF
:1003400070470000794A000889010008B00B0020BE
:10035000B0110020B00D0020B00D002070B5064691
:1003600000F0A0FB056806F10B0020F00704B44282
:100370009CBF002070BD2B466A68BAB11068A042CD
:1003800010D304F1080188423CBF5068586007D37D
:100390005168101941601168091B016058601460B0
:1003A000101D70BD13465268002AE7D12146284629
:1003B00000F080FB0028DED170BD70B50446051F3B
:1003C00000F070FB0068002C14BF446870BD002C66
:1003D00018BFAC423CBF20466468F8D301680A18D5
:1003E000AA4218BF456003D12A680546114401603E
:1003F00028684119A1421CBF6C6070BD61686960CA
:1004000021680844286070BD53EA020C00F069803E
:100410002DE9F04B4FF00006002B1FBFB3FA83F518
:1004200003FA05F424FA05F65E4012BF1643B2FA49
:1004300082F502FA05F4C5F120051EBF22FA05FC7B
:1004400044EA0C04203556EA044C4FEA144418BF21
:10045000641C4FF000084FF00009904271EB030C50
:1004600039D3002919BFB1FA81F701FA07F6B0FABA
:1004700080F700FA07F6C7F120071EBF20FA07FC35
:1004800046EA0C062037B6FBF4FCA7EB0507103F45
:1004900007F01F0BCBF120060CFA0BFB2CFA06F62B
:1004A00044BFB3460026202FA4BF5E464FF0000B8A
:1004B0005BEA060C08BF4FF0010B19EB0B09ABFB15
:1004C000027C48EB0608C01B06FB02CC0BFB03CCEE
:1004D00071EB0C01C1E70B46024641464846BDE8B8
:1004E000F08B13B54FF000004FF00001AFF3008028
:1004F000BDE81C40704700001CB50C46064B7B4411
:1005000069460090204600F0A4FB0446002069469E
:1005100000F0B2FB20461CBD770700007CB51D46ED
:1005200016460C00009001D02044401E074B7B442F
:100530002A4669460190304600F08BFB05461CB107
:100540000020694600F098FB28467CBD510700005A
:100550000FB47CB50C0009AA009001D02044401EC5
:10056000084B7B4469460190089800F072FB0546F1
:100570001CB10020694600F07FFB28467CBC5DF87A
:1005800014FB00001D07000070B504468569006873
:10059000C10601D5302600E02026C00707D070BD77
:1005A000D4E9012130469047206A401C20626D1E2C
:1005B000F6D570BD70B5044685690078C00707D1CF
:1005C00070BDD4E9012120209047206A401C2062A0
:1005D0006D1EF6D570BD70B50C460546012A05D0D6
:1005E0002878800600D5EA69002302E0012305E0AF
:1005F0005B1C934202D2E05C0028F9D1A869E6189E
:10060000C01AA861286A184428622846FFF7BCFF70
:1006100004E0D5E9012114F8010B9047B442F8D366
:100620002846FFF7C7FF70BD2DE9F04106460024BC
:1006300010687529314616A510D000F085FA0028FB
:1006400002DA404213A507E031688A0701D512A5F6
:1006500002E0490704D511A5012401E000F07DFA6C
:1006600000210A2206F1240709E0B0FBF2FCB0FBEE
:10067000F2F302FB1C00303078541846491C002865
:10068000F3D123462A463046BDE8F04100F06EBA69
:10069000000000002D0000002B00000020000000E2
:1006A000F0B40D460188090502D5214C7C4402E0D6
:1006B0001F4C7C440E34002100F1240608E002F0B7
:1006C0000F071209E75D42EA03721B097754491CC0
:1006D00052EA0307F3D102780023120704D5702DE4
:1006E00006D009B1022311342246F0BC00F03EBA14
:1006F00001231034F8E770B504460D462146106812
:1007000000F02BFA024629462046BDE8704000233F
:10071000C6E7D21D22F00703D3E90023C0E7036830
:10072000126843F0200303600823C3610023B7E786
:100730004D5300002DE9F05F894604464FF0000A52
:10074000DFF874B1FB44C0F820A02046E168884778
:10075000002874D0252806D0D4E901219047206ACA
:10076000401C2062F1E700265F462046E16888478A
:100770002028054607DB312D05D2781910F8200C0A
:1007800008B10643F1E7B00701D526F00406C4F826
:100790001CA00027C4F818A02A2D09D0284604F070
:1007A000E8FB38B304EB8708303DC8F8185019E06F
:1007B00059F8041B204604EB87029161E1688847E1
:1007C000012F054618D1E069002820DA26F020061E
:1007D0001DE0D8F8180000EB800005EB4000303831
:1007E000C8F818002046E1688847054604F0C1FBB8
:1007F0000028EED1012F0AD02E2D08D12046E16825
:1008000088477F1C0546022F46F02006C4DBA069FE
:10081000002803DA404246F00106A061F00701D04B
:1008200026F010066C2D0BD0682D09D04C2D39D038
:100830006A2D35D0742D35D07A2D33D016E038E0BE
:10084000E1682F4620468847B842054609D16C2FFB
:1008500026D04FF48060E16806432046884705466D
:1008600004E06C2F1AD04FF4807006430DB3A5F14D
:100870004100192802D8203546F400664A46294628
:10088000204626604E46FFF7D9FC80B101280BD0E8
:10089000F61D26F0070000F1080956E74020E4E7BE
:1008A0008020D8E70020D6E706F104094DE7284666
:1008B00052E7206ABDE8F09FDD52000040EA0103E4
:1008C000024630B59B0710D14FF0013400E008C25A
:1008D00008C91D1B9D4315EAC41FF8D013F0FF0182
:1008E00002F8011B0DD01B0AF8E711F8013B002BA1
:1008F00002F8013B05D011F8013B002B02F8013B47
:10090000F3D130BD10B5431C02E010F8011B71B1EA
:100910008107FAD14FF0013202C88C1A8C4314EAD5
:10092000C211F9D0C01A0A0603D0C01E10BDC01AE9
:1009300010BD0A0401D0801E10BD0902FCD0401E6B
:1009400010BD032A40F2308010F0030C00F0158037
:1009500011F8013BBCF1020F624498BF11F801CBC2
:1009600000F8013B38BF11F8013BA2F1040298BF27
:1009700000F801CB38BF00F8013B11F0030300F091
:100980007382083AC0F0088051F8043B083A51F8E5
:1009900004CBA0E80810F5E7121D5CBF51F8043B3A
:1009A00040F8043BAFF30080D20724BF11F8013BAD
:1009B00011F801CB48BF11F8012B24BF00F8013B0F
:1009C00000F801CB48BF00F8012B70474FF0000240
:1009D00000B5134694469646203922BFA0E80C5035
:1009E000A0E80C50B1F12001BFF4F7AF090728BF10
:1009F000A0E80C5048BF0CC05DF804EB890028BF8C
:100A000040F8042B08BF704748BF20F8022B11F0B4
:100A1000804F18BF00F8012B704700004FF0013CD9
:100A200050F8042B51F8043B9A4221D1A2EB0C035D
:100A3000934313EACC1317D150F8042B51F8043B1D
:100A40009A4215D1A2EB0C03934313EACC130BD1BA
:100A500050F8042B51F8043B9A4209D1A2EB0C0345
:100A6000934313EACC13DBD04FF00000704700BF74
:100A7000D01A01BAB1FA81F101F0180122FA01F09D
:100A8000CB40C1F12001DBB2C0B2C01A2CFA01F395
:100A9000D11A914311EAC311E6D1704770477047EC
:100AA0007047000000487047540B002070477047A3
:100AB0007047704738B504460A4600206946AFF3D0
:100AC0000080002808BF38BD02460099204600F08B
:100AD00001FA012038BD012000F01EBEF8B5AFF3C9
:100AE0000080054600200C46102000BF0646A819CD
:100AF000A0420DD9324669460020AFF300800700BE
:100B000008BF00F009FE0098A04218BF0546C419AE
:100B1000FFF7C8FF05600746F01D20F007004619E3
:100B2000284600F00AF8B44208BFF8BDA21B3146BF
:100B30003868BDE8F84000F0CDB900210160C0E997
:100B4000011070471020704709684A0501D540B26E
:100B50007047C905FCD500B2704709684A0501D540
:100B6000C0B27047C905FCD580B270472DE9F04787
:100B70000D4699469246044600F12408016888060D
:100B800004D5E06921F01001216000E00120A842B5
:100B900001DD471B00E00027A1697A1902EB09007B
:100BA000081AA0612078C00602D42046FFF7ECFCAA
:100BB000002608E0D4E901211AF806009047206ACF
:100BC000401C761C20624E45F4DB2078C0060AD516
:100BD0002046FFF7D9FC06E0D4E9012130209047F8
:100BE000206A401C2062381EA7F10107F4DC07E0F0
:100BF000D4E9012118F805009047206A401C2062C2
:100C0000281EA5F10105F3DC2046FFF7D3FC207870
:100C1000000602D50220BDE8F0870120FBE711683D
:100C20000268006A530501D508700AE0D30501D5B2
:100C3000088006E0130603D5C217C1E9000200E0F0
:100C4000086001207047000001694A1C02610878B1
:100C5000704700B58FB0CDE90131002105910549FC
:100C60007944CDE9031011466846FFF763FD0FB0E4
:100C700000BD0000E5FFFFFF0A6802F8010B0A60F3
:100C80007047D1E900239A4202D2531C0B601070C6
:100C9000704710B5436913B1AFF3008001E0FFF76F
:100CA0009AFC012010BD127800F124010A70002284
:100CB0004A700122EDE711684FF0FF32E9E70000CA
:100CC0002DE9FF5F15468A460446DFF8AC80F844FC
:100CD0000027D8E900103E46CDE9001010E03AF8B0
:100CE00016106A4602A800F0F7FC411C07D02178D4
:100CF000890603D5E269391891420DD80744761C5C
:100D00002078800602D5E069B84205DDAE42E6DB18
:100D10003AF816000028E2D1A069C01BA061204665
:100D2000FFF732FCD8E90010CDE90010002017E0F1
:100D30003AF818106A4602A800F0CEFCB0F1FF3F66
:100D400081460BD000250DF1080B05E0D4E9012107
:100D50001BF8050090476D1C4D45F7D308F10100C5
:100D6000B0428046E4DB206A384420622046FFF728
:100D700021FCBDE8FF9F0000664D00002DE9F04119
:100D80008046D21D22F007020025D2E90002F52993
:100D900015A614D0011E72F1000106DA0023D0EB73
:100DA000030063EB020211A608E0D8F800108B07DD
:100DB00001D50FA602E0490701D50EA6012511466F
:100DC000002408F1240704E000F09EF830323A5580
:100DD000641C50EA0102F7D12B46324621464046B8
:100DE000BDE8F041FFF7C2BE000000002D0000008A
:100DF0002B0000002000000030B4002100F124048A
:100E000008E002F00705D208303542EA4372DB08F9
:100E10006554491C52EA0305F3D10468002310A26B
:100E2000250707D5A40600D421B1C46901230DA26A
:100E3000641EC46130BCFFF799BE10B5044621465C
:100E40001068FFF78AFE02462046BDE810400023E6
:100E5000D2E7D21D22F00701D1E90023CCE7000040
:100E6000000000003000000010B5203AC0F00B80F8
:100E7000B1E81850203AA0E81850B1E81850A0E89E
:100E80001850BFF4F5AF5FEA027C24BFB1E81850F8
:100E9000A0E8185044BF18C918C0BDE810405FEA68
:100EA000827C24BF51F8043B40F8043B08BF7047E4
:100EB000D20728BF31F8023B48BF11F8012B28BFE9
:100EC00020F8023B48BF00F8012B704700487047EC
:100ED0004C0B0020034640688C46002818BF88420F
:100EE0003CBF03464068F8D318681844884207D0CE
:100EF0000CF1030020F00700001D411A521A0146B0
:100F0000081D0A60FFF759BA30B5B0F10A024FEA7E
:100F1000900E71F100034EEA817EB0EB0E0061EBA2
:100F200091014FEA101E4EEA017E10EB0E0041EBDC
:100F300011114FEA102E4EEA016E10EB0E0041EB3C
:100F400011214FEA104E4EEA014E10EB0E0041EB1C
:100F50001141401841F100014FEAD00040EA4170D0
:100F60004FEAD10110EB80054FEA810444EA907406
:100F700044EB01046D1944EB0404521BA3414FF0F0
:100F8000000348BF0A3200D530BD401C41F10001CA
:100F900030BD70472DE9FF4F0C461E464FF0FF371E
:100FA0008BB0D2E90001DDF860800A908A46C1F377
:100FB0000A5505B93D46002108464FF00000BAF138
:100FC000000F00F4400005DA00EB80004FF4400110
:100FD00001EA50004FEA9059B9F1010F00DDB9461E
:100FE0000A9850EA4A000ED044F61050A5F2FF3598
:100FF00045432F14B8F1000F1ED07542291E1EDD87
:10100000C9F100021CE0B8F1010F4FF0000001D05F
:10101000302103E0F24305E02154401CB042FBDBE9
:1010200030460022002121540B99C1F80880C1E903
:1010300000200FB0BDE8F08FBD1B6D1CDEE74A46F7
:1010400000DA694206A800F0E1FB06AB93E807006E
:1010500003AB83E8070050460A9900F0A5FC8DE831
:101060000700A0F500501F3800900398002D0ADDFE
:1010700042F21F014A460844002303A90390684630
:1010800000F00EFF09E0A0F500504A461F3800238B
:1010900003A90390684600F018FF8DE807000004DC
:1010A000000C03D04FF0FF30410800E01046B8F1CB
:1010B000000F03D00022009215461EE0751E05D4D5
:1010C000FFF722FF303262556D1EF9D5B34601227B
:1010D000084302D000227F1C04E02078302801D190
:1010E00000227F1E002A099784D01DE0112D07DA07
:1010F000FFF70AFF303262556D1C50EA0102F5D14C
:10110000084302D00098C8B10EE00021681E05E037
:10111000235C625C63542254401E491C8142F7DB0D
:10112000AB46A81B401E0990002004F80B000B984A
:10113000099AC0F80880C0E9002B7AE711264FF021
:10114000000857E72DE9F04F88460446D21D22F0EB
:10115000070191B0D1E90001CDE90A0103F0E1FEF8
:1011600002460B98C00F01D02D2007E020688107B0
:1011700001D52B2002E0202101EAC000032A0990BA
:1011800001D0072A05DB03464146204600F0FEFA5F
:101190000BE12078800601D5E06900E00620B8F177
:1011A000650F814606D0B8F1660F18D0B8F1670F09
:1011B00070D131E00020B9F1110F009001DB112353
:1011C00001E009F101030AAA01A90CA8FFF7E2FE58
:1011D000DDE90C70002609F10105834647E0012096
:1011E0004B4600904FF000470AAA01A90CA8FFF750
:1011F000D1FEDDE90DB00C995D46002610B909F16C
:1012000001000D18B9EB050003D4C0F1FF3609F158
:101210000105A5EB09002BE0B9F1010F01DA4FF050
:1012200001090020B9F1110F0090484601DD11239A
:1012300000E003460AAA01A90CA8FFF7ABFEDDE90E
:101240000C704D4600268346207800070AD4AB4533
:1012500000DA5D4601A8012D04DD411911F8011CD9
:10126000302907D04F4502DA17F1040F04DA0120C4
:1012700082460FE06D1EEEE7002F02DCED1B3E44C0
:1012800003E0781CA84200DD7D1CB81B00F1010AB8
:101290004FF000472078000703D4AA4501DB4FF048
:1012A000FF3A0021B7F1004F0DF143088DF84310CC
:1012B00024D002202B23002F01DA7F422D230A2184
:1012C000021EA0F1010000DC5FB197FBF1FC97FB6F
:1012D000F1F201FB1C7C17460CF1300C08F801CD33
:1012E000EEE7A8F1010003702188090501D5452129
:1012F00000E06521A0F1010800F8011C09980FA980
:10130000A1EB0807FF1D00B10120411901EBEA70B4
:10131000A1693844081A401EA0612078C00602D492
:101320002046FFF731F9099828B1D4E90121904707
:10133000206A401C20622078C00622D52046FFF794
:1013400023F91EE0002E04DBB34502DD01A8805D19
:1013500000E03020D4E901219047206A401C20623F
:10136000761CAAF101005FEA000A0AD100F00AFA2D
:10137000C0680168405CD4E901219047206A401CA4
:101380002062281EA5F10105DCDC07E0D4E901217B
:1013900018F8010B9047206A401C2062381EA7F104
:1013A0000107F3DC2046FFF705F9032011B041E601
:1013B0002DE9F04F04460D46D21D22F0070089B0FA
:1013C000D0E900974846394603F0ABFD0246F80FD6
:1013D00001D02D2307E02068810701D52B2302E0EF
:1013E000202101EAC0038DF820300BB1012000E07C
:1013F0000020032A824601D0072A04DB2946204622
:1014000000F0C4F93FE12078800601D40D2500E00A
:10141000E569C7F30A560D2D49DA00214FEA175B3B
:1014200008464FF00000002F00F4400007DA00EB00
:1014300080004FF4400100EBD07001EA600081159C
:10144000012901DD4FF0FF3100224FEA850CBCF18C
:10145000180F06D31346ACF118004FF08052C2406B
:1014600003E04FF4801323FA0CF30CF10C0CBCF1E5
:10147000200F04D3ACF1200C09FA0CF001E007FABC
:101480000CF000294FF0004801DD18B90FE00ED133
:1014900040450CD319EB02095F4121B9404502D107
:1014A0009F4329EA0209BBEB175F00D0761C208816
:1014B000000502D57B48784402E07A487844193820
:1014C00008AA302302F80A30037C0AF10101002E39
:1014D0000AF1020A53546A4602DC4FF0300101E07F
:1014E0004FF031014FF001088DF8001002D0A6F244
:1014F000FF3603E059EA470100D06B4E002D02DCB5
:101500002178090704D54FF002082E218DF801102B
:10151000C44600210BE0C7F303433F01C35C491CF1
:101520006D1E02F80830052908F1010801DA002DC6
:10153000F1DC00210CE000EB1973491C1B786D1ED7
:10154000082902F808304FEA091908F1010801DA00
:10155000002DF0DC21688B0602D516E0A8F1010809
:10156000E04505DD02EB080313F8013C302BF5D014
:10157000B8F1000F09DD02EB080313F8013C2E2B34
:1015800003D1090701D4A8F10108002D05DD3E2192
:1015900002F808106D1E08F10108407C002E02F8C8
:1015A000080008F1010804DA2D20764202F808004C
:1015B00002E02B2002F808000A214FF47A708642DC
:1015C00008F101080BDB96FBF0F3303302F808302A
:1015D00096FBF0F308F1010800FB136601E0642EAE
:1015E0000CDB642096FBF0F3303302F8083096FBF6
:1015F000F0F308F1010800FB136601E00A2E06DB98
:1016000096FBF1F0303002F8080008F1010896FB73
:10161000F1F001FB1060303002F80800A16908F118
:10162000010808EB050202EB0A00081AA061207805
:10163000C00602D42046FEF7A7FF216A08AE01EBE0
:101640000A00206204E0D4E9012116F8010B90475A
:10165000BAF1010AF7D22078C00602D52046FEF77B
:1016600093FF6E4609E016F8010B3E280FD0D4E92F
:1016700001219047206A401C2062B8F10108F2D293
:101680002046FEF797FF09B00320BDE8F08F206ADF
:101690002844206203E0D4E90121302090476D1EE8
:1016A000EBD3F8E79945000002FCFFFF10B5436952
:1016B00013B1AFF3008001E0FFF702FB012010BD82
:1016C000128800F1240182840022C2840122EDE705
:1016D00011684FF0FF32E9E770B516460C46054633
:1016E00000F048F8036893F80101012806D0FF2CA8
:1016F0000FD8185D68B101202C7070BDD3F80701B8
:101700003246214603F2071303442846BDE87040E1
:1017100018474FF0FF3070BD10B500F0F7F8BDE886
:10172000104000F0EEB870477546FFF7CFFBAE46AD
:1017300005006946534620F00700854618B020B5DD
:10174000FEF7FAFDBDE820404FF000064FF000071D
:101750004FF000084FF0000B21F00701AC46ACE859
:10176000C009ACE8C009ACE8C009ACE8C0098D46C6
:101770007047000010B500F005F8001D10BD00BF57
:1017800009390000004870476C0B00202DE9F0413A
:101790001F46044603260168072A01F4006004DBA3
:1017A00008B116A505E016A503E008B115A500E0EF
:1017B00015A521F010002060A069C01EA0610FB126
:1017C000401EA0612046FEF7DFFE4FB1D4E90121A3
:1017D00038469047206A401C2062C01C206206E008
:1017E000206AFAE7D4E9012115F8010B9047761E2B
:1017F000F8D22046FEF7DEFEBDE8F0814E414E00F5
:101800006E616E00494E4600696E66002DE9F04734
:10181000814616468AB0354878440DC88DE80D00DB
:1018200032487844801C03AC0DC884E80D0041F6B2
:101830009B300844372190FBF1F290FBF1F5A5F1C4
:10184000800501FB12041B3C02D56442012000E02C
:101850000020DFF898A080460027FA44AAF1BE0ACB
:101860000EE0E0070AD03246684607EB4701012345
:101870000AEB810100F029FB8DE8070064107F1C52
:10188000002CEED1194F7F44AE3F19E0E80715D088
:1018900007EB04100DF1180A90E80E008AE80E001C
:1018A000C068F04201D1981908903246012306A978
:1018B00003A800F00AFB03AB83E807006D10641C6B
:1018C000002DE3D14FF0010332466946B8F1000F15
:1018D00003A802D000F0E4FA01E000F0F6FAC9E94A
:1018E0000001C9F808200AB0BDE8F087C84200002E
:1018F00010B50446AFF300802046BDE81040FEF767
:1019000006BD002801D000F029B8704710B50128A5
:1019100005D0002103A000F027F8012010BD09A187
:10192000F8E7000053494752544D454D3A204F7552
:1019300074206F662068656170206D656D6F7279C7
:10194000000000003A2048656170206D656D6F727F
:101950007920636F72727570746564000149182094
:10196000ABBEFEE72600020070B505460C460A2015
:1019700000E06D1C00F011F835B128780028F8D18E
:1019800002E0641C00F009F814B120780028F8D1B6
:10199000BDE870400A20AFF3008008B569468DF8B5
:1019A00000000320ABBE08BD5FEA400C08BF91F009
:1019B000000F4FEA8C234FEAC12243EA51514FEA0C
:1019C0001C5018BF00F5F0404FEA300018BF41F03E
:1019D00000415FEA6C5C00F02980BCF1FF3F08BF6A
:1019E00040F080407047130C06BF12044FF0100CFB
:1019F0004FF0000C130E04BF12020CF1080C130F71
:101A000004BF12010CF1040C930F04BF92000CF1FF
:101A1000020CD30F04BF52000CF1010C11464FF021
:101A20000002A0F11F00A0EB0C00704711F0004F66
:101A300008BF704731F000413FF4D5AF0B0C06BF33
:101A400009044FF0100C4FF0000C0B0E04BF0902FC
:101A50000CF1080C0B0F04BF09010CF1040C8B0FE7
:101A600004BF89000CF1020CCB0F04BF49000CF13C
:101A7000010CCCF12003A0EB0C0022FA03F302FAD4
:101A80000CF241EA030100F10100704720F07F4CA5
:101A900080EA030023F07F47ACEB070303F57C5398
:101AA00000F0004003F1FF032DE980494FEA154B98
:101AB00009B44FEA144325EA0B4E24EA03480FF217
:101AC000042606EB132749083E785FEA320203FB3F
:101AD0000667C7F5000707FB06F64FEA54374FEADB
:101AE000D64606F1020607FB066CCCF1005C4FEA15
:101AF0001C472CEA074C07FB06F40CFB06F504EB2D
:101B000015464FEA961634BF00204FF000404FEACA
:101B1000D13706FB07FC4FEA1C4C0CFB0BF7D21B22
:101B200003FB0CF761EB07010CFB0EF7B0EB074072
:101B300072EB17420CFB08F734BFA2EB0742B2EB83
:101B4000074261EB17414FEA0C444FEA910706FB4D
:101B500007FC4FEA1C4C0CFB0BF7B0EBC74072EBD9
:101B6000573203FB0CF734BFA2EBC742B2EBC742BC
:101B700061EB57310CFB0EF7B0EBC70072EB5772FD
:101B80000CFB08F734BFA2EBC702B2EBC70261EB54
:101B90005771039F4FEA816141EA921104EBCC0433
:101BA0004FEAD1374FEA826206FB07FC42EA901205
:101BB0004FEA80604FEA1C4C0CFB0BF7D21B03FB77
:101BC0000CF761EB07010CFB0EF7B0EB074072EB73
:101BD00017420CFB08F734BFA2EB0742B2EB0742F7
:101BE00061EB17414FEA8C554FEA910704EB9C24B7
:101BF00006FB07FC4FEA1C4C0CFB0BF7B0EBC74095
:101C000072EB573203FB0CF734BFA2EBC742B2EBC7
:101C1000C74261EB57310CFB0EF7B0EBC70072EB1C
:101C200057720CFB08F734BFA2EBC702B2EBC70236
:101C300061EB577115EB4C254FEA816141EA921136
:101C40004FEA82624FEAD13742EA901206FB07FC64
:101C500044F100044FEA80604FEA1C4C0CFB0BF788
:101C6000D21B03FB0CF761EB07010CFB0EF7B0EB8B
:101C7000074072EB17420CFB08F734BFA2EB074298
:101C8000B2EB074261EB174115EB1C154FEA8131AE
:101C900041EA92414FEA823242EA90424FEA803072
:101CA0004FEA0C7644F1000448EA03434EEA0B483D
:101CB0004FF0000EB2EB080C71EB030724BF624635
:101CC00039464EEB0E0E4FF0000B001852414941C1
:101CD0004BEB0B0BB2EB080C71EB03077BF1000B2A
:101CE00024BF624639464EEB0E0E4FF0000B001833
:101CF000524149414BEB0B0BB2EB080C71EB030764
:101D00007BF1000B24BF624639464EEB0E0E51EAC2
:101D1000020718BF46F0010616EB0E7655F10002D9
:101D200054F1000103D5BDE88901BDE80088BDE894
:101D30008901BDE80048B619524141EB0101A3F108
:101D40000103704780807F7E7D7C7B7A797877760F
:101D500076757473727171706F6E6E6D6C6C6B6A88
:101D60006A69686867666665646463636261616026
:101D7000605F5F5E5E5D5D5C5C5B5B5A5A595958A3
:101D8000585757565655555554545353525252510D
:101D9000515050504F4F4F4E4E4D4D4D4C4C4C4B63
:101DA0004B4B4A4A4A4949494848484747474746AA
:101DB00046464545454444444443434343424242E6
:101DC00042414141002B9C4630D477002BD01CB5BA
:101DD0004FEA370703B44FF010004FF01001BAF18B
:101DE000000F06D0BCF1000FDCBF40F0080040F04F
:101DF00008014FF000000FBCBDE810400BF1010BD3
:101E0000BBF1010F08BF5FEA170722BF12F1010201
:101E100011F101014FF0004143F1000300F00040D7
:101E200043EA00007047F9D35708D0E746EA064670
:101E300013F1400F4FEA16461FDD13F1200FDFBFED
:101E400016430A46002120335B42BED0C3F120076F
:101E500046EA064602FA07F74FEA164646EA07063A
:101E6000C3F1200722FA03F201FA07F721FA03F17E
:101E70004FF0000342EA0702A7E746EA020646EAF5
:101E800006464FEA164646EA0106BCBF46EA064643
:101E9000360C4FF000034FF000024FF0000194E7C2
:101EA0002DE9804C9A46934670B491E8380007C8F3
:101EB00031EA400C48BF34EA430C03D5FFF7E6FD96
:101EC000FFF780FFF0BCBDE8008C2DE9804C9A46FE
:101ED000934670B491E8380007C810F0804F08BFEF
:101EE00013F0804F03D100F005F8FFF76BFFF0BC53
:101EF000BDE8008C20F07F4780EA030023F07F4C90
:101F000007EB0C03A3F57C5300F00040A3F1FE03A4
:101F100092F0000F00F0B38095F0000F00F0778092
:101F20002DE901494FEA11404FEA144621EA0048E1
:101F300000FB06FC24EA064708FB06F607FB08F848
:101F400000FB07F718EB06484CEB164C4FEA124B18
:101F500018EB07484FEA15464CEB174022EA0B4EA8
:101F60000BFB06FC25EA06470EFB06F607FB0EFEFA
:101F70000BFB07F71EEB064E4CEB164C4FF0000622
:101F80001EEB074E4CEB174B18EB0B0840F1000013
:101F900018EB0E0B58EB000840F100008F1A4FF0C1
:101FA00000013CBFC943661B14BFB5EB040C002104
:101FB0003CBFC943F61B4FEA17444EEA8E0E27EA90
:101FC00004454FEA1C4704FB07622CEA074C05FB5B
:101FD00007F70CFB05F604FB0CFC16EB074642EB7F
:101FE000174216EB0C4642EB1C421BEB060658EB65
:101FF0000202414146EA9E0601D5BDE80189B619B3
:10200000524141EB0101A3F10103BDE801894FEA0F
:1020100014454FEA114724EA054621EA074C05FB1F
:1020200007F406FB07F70CFB06F105FB0CFC11EBB4
:10203000074144EB17444FEA124711EB0C4144EBC4
:102040001C4422EA074C05FB07F206FB07F70CFBD2
:1020500006F605FB0CFC16EB074642EB174216EBA7
:102060000C4642EB1C456A1854F1000148BF70470A
:10207000B619524141EB0101A3F10103704795F0FC
:10208000000F37D04FEA11424FEA144721EA0246C7
:1020900024EA074C02FB07F106FB07F70CFB06F4EA
:1020A00002FB0CFC14EB074441EB17414FEA1547C8
:1020B00014EB0C4441EB1C4125EA074C02FB07F5ED
:1020C00006FB07F70CFB06F602FB0CFC16EB0746BB
:1020D00045EB174516EB0C4645EB1C42121951F126
:1020E000000148BF7047B619524141EB0101A3F10D
:1020F000010370474FEA14454FEA114724EA0546A9
:1021000021EA074C05FB07F106FB07F70CFB06F27B
:102110004FF0000605FB0CFC12EB074241EB1741A8
:1021200012EB0C4251EB1C4148BF7047921841EB37
:102130000101A3F101037047FEE70000014800F030
:1021400010BA0000400A0020014800F00ABA00005E
:10215000400A002000B58BB000200121CDE9060126
:1021600004900590D0200891009004204FF6F8715B
:10217000CDE9010103906946024800F0F1F80BB087
:1021800000BD0000400A00200C4910B54FF080400F
:102190008860084600F0E3FA08B100F064F8FFF741
:1021A000D9FF064800F052FC08B100F05CF8BDE829
:1021B00010400221014800F058B80000400A0020F9
:1021C00010B51E4C8AB0207800EB8001201D50F81D
:1021D000212000EB8101029248680390087A049064
:1021E000487A05908A7A0020059B06928DF81C009B
:1021F000E3B10090019008AB6A4602A9104800F0D4
:1022000046F808B100F02FF80498A0B1039A21789D
:102210000CA002F007FF2078401CC0B21221B0FBD6
:10222000F1F201FB120020700AB010BD68460B31BC
:10223000FEF787FBDFE7029AE9E7000008000020CD
:10224000400A002043414E204672616D652025649E
:102250002073656E74212049443A20307825580D4A
:102260000A000000704772B6FEE790F82020012AAD
:1022700007D0022A05D0416A41F480214162012041
:102280007047006842690A43426100207047F0B518
:1022900090F820500468A468012D05D0022D03D0C9
:1022A000416A41F4802157E014F0406F01D1E5000C
:1022B0004FD5C4F301640125A5401D608D684FF41E
:1022C000C0739DB1CE6835434E6845EAC6050668C1
:1022D00003EB0417F5514FF4C275076805EB0415BD
:1022E0000E697E51097D012905D009E00E88CD686F
:1022F00045EA4655EBE701684E5946F480764E5163
:102300001179D579567941EA056195792D0445EA27
:10231000062529434FF4C676056806EB0416A95135
:102320001178D57841EA0561957852782D0445EA0F
:10233000022211434FF4C475026805EB0415515194
:10234000006803EB0411425842F0010242500020A1
:10235000F0BD416A41F4001141620120F0BD00006E
:1023600010B590F82020012A07D0022A05D0416A32
:1023700041F480214162012010BD3B48D0F8002289
:1023800042F00102C0F80022D0F8002222F47C5270
:10239000C0F80022D0F800224B6A42EA0322C0F8BB
:1023A00000220A7D02F01F0301229A40D0F81C325D
:1023B0009343C0F81C32CB69B3B9D0F80C329343C5
:1023C000C0F80C328C894B6864F31F434C6900EBF6
:1023D000C404C4F840320C890B6864F31F434C6991
:1023E00000EBC404C4F84432CB69012B16D1D0F8F9
:1023F0000C321343C0F80C320C884B6864F31F4353
:102400004C6900EBC404C4F840320C89CB6864F317
:102410001F434C6900EBC404C4F844328B69002BA1
:10242000D0F804320ED01343C0F804320B69002BED
:10243000D0F8143208D01343C0F81432096A0129C5
:1024400004D008E09343EFE79343F5E7D0F81C127C
:102450001143C0F81C12D0F8001221F00101C0F89D
:102460000012002010BD000000640040704770B5ED
:1024700090F82040012C05D0022C03D0416A41F491
:10248000802128E0046809B32469A40720D04FF410
:10249000D874056804EB01142D5915F004059560F6
:1024A00005682D591AD0ED08556005682C5904F0BF
:1024B0000204D4604FF4DA74056804EB01142E5959
:1024C00006F00F06082E0CD308250DE0E468DCE7C3
:1024D000416A41F400114162012070BD6D0D15602B
:1024E000E3E72D5905F00F05156105682D59C5F372
:1024F0000725956105682C59240C54614FF4DC7252
:10250000046802EB0112A4581C700468A458240A41
:102510005C700468A458240C9C700468A258120EC5
:10252000DA704FF4DE72046802EB0112A4581C71D9
:102530000468A458240A5C710468A458240C9C7193
:102540000468A258120EDA71006829B1016941F0DD
:1025500020010161002070BDC16841F02001C1600F
:10256000F8E72DE9F05F0546006800244669D0F8D9
:1025700004908768D0F80CB0D0F810A0D0F818807C
:10258000F10748D0F90714D001218160B80703D5BD
:10259000284600F088FA0CE0780702D54FF4006472
:1025A00007E0380702D54FF4805402E0284600F0D7
:1025B00079FAF80516D529684FF480708860B80557
:1025C00003D5284600F071FA0CE0780502D544F4F2
:1025D000005407E0380502D544F4804402E0284660
:1025E00000F062FAF80316D529684FF4803088604D
:1025F000B80303D5284600F05AFA0CE0780302D558
:1026000044F4004407E0380302D544F4803402E087
:10261000284600F04BFA300707D55FEACB6004D5B7
:102620002968102044F40074C86070074FF0080750
:1026300007D55FEA0B7004D52868C760284600F00C
:1026400061F9B00706D52868C068800702D028461F
:1026500000F05AF9700607D55FEACA6004D5296808
:10266000102044F480640861B00607D55FEA0A7060
:1026700004D528680761284600F0E4F9F00606D57D
:1026800028680069800702D0284600F0DCF9B00312
:1026900008D55FEAC96005D529681020486028463A
:1026A00000F0D2F9F00307D55FEA097004D5286875
:1026B0004760284600F0FCF9300446D55FEA4970CF
:1026C00040D5F00504D55FEAC87001D044F001049C
:1026D000B00504D55FEA887001D544F002047005A6
:1026E00004D55FEA487001D544F00404300529D5CB
:1026F00018F0700F26D008F07000402815D006DCC6
:10270000102809D020280AD0302816D10AE05028F5
:102710000ED0602811D10EE044F008040DE044F022
:1027200010040AE044F0200407E044F0400404E010
:1027300044F0800401E044F480742868816921F049
:1027400070018161296804204860002C05D0686A06
:10275000204368622846FFF789FEBDE8F09F70B508
:10276000040003D094F8200010B104E0012070BDF3
:10277000204600F081F82068016841F00101016005
:1027800000F00EFB0546052604E000F009FB401BA7
:102790000A2811D820684068C007F6D02068016870
:1027A00021F00201016000F0FBFA05460BE000F0A9
:1027B000F7FA401B0A2806D9606A40F400306062CC
:1027C00084F82060D2E7206840688007EFD4207E3C
:1027D0000128206801683DD021F080010160607E01
:1027E00001282068016838D021F040010160A07EF6
:1027F00001282068016833D021F020010160E07ECB
:102800000128206801682ED041F010010160207F6E
:1028100001282068016829D021F008010160607F4B
:1028200001282068016824D021F004010160D4E966
:1028300002010843D4E90412114308436168491EA8
:1028400008432168C86100206062012084F82000EC
:10285000002070BD41F08001C0E741F04001C5E7B4
:1028600041F02001CAE721F01001CFE741F0080153
:10287000D4E741F00401D9E710B586B0044614212D
:102880006846FEF7A3F81C492068884231D11B48EE
:102890000021026842F000720260006800F00070DF
:1028A000059016481038026842F001020260006884
:1028B00000F0010005904FF4C05000900220CDE9D7
:1028C0000101032003900920049069460C4800F0A0
:1028D0005DF900221146132000F05EFC132000F089
:1028E0004DFC00221146142000F056FC142000F08C
:1028F00045FC06B010BD00000064004040380240B6
:10290000000002407047000030B593B000210191F3
:1029100001AB03AA0291FFF7AAFD08B1FFF7A3FCE0
:10292000079A059838B125A0DDF8101002F07AFB5F
:10293000069818B111E02CA00399F7E735A002F032
:1029400071FB002401AD05E0295D34A002F06AFBB3
:10295000641CE4B20798A042F6D832A002F062FBF1
:102960000598002804D00498009003D12EA302E01B
:102970000398F9E72DA32EA24FF020010AA8FDF736
:10298000E7FD08230AAA1021022001F0CBFE2BA2AA
:1029900020210AA8079BFDF7DBFD08230AAA2021B6
:1029A000022001F0BFFE079801A9C2B2302001F059
:1029B00027FF01F073FF13B030BD000043414E20EC
:1029C0006D657373616765207265636569766564BB
:1029D0003A2045787449443D3078253038582044B1
:1029E0004C433D256400000043414E206D657373E8
:1029F0006167652072656365697665643A20537422
:102A00006449443D30782530335820444C433D25BB
:102A100064000000446174613D00000025303258BC
:102A2000200000000D0A0000535444004558540093
:102A300049443A2025732025303658004C656E3ABB
:102A400025640000704770477047000070B5044669
:102A500090F82000012804D0606A40F400206062F1
:102A600018E0022084F820002068016821F00101AC
:102A7000016000F095F905460EE000BF00F090F906
:102A8000401B0A2808D9606A40F4003060620520C3
:102A900084F82000012070BD20684068C007EDD197
:102AA000606270BD704770477047704770477047ED
:102AB00070472DE9F0410446876D00F071F9064634
:102AC00094F835000025022806D08020606584F83F
:102AD00034500120BDE8F0812068016821F0160122
:102AE00001602068416921F080014161206C08B9D2
:102AF000A06C20B12068016821F008010160206805
:102B0000016821F0010101600CE000F049F9801B2F
:102B1000052807D920206065032084F8350084F853
:102B20003450D7E720680068C007EED194F85C10F5
:102B30003F208840B860012084F8350084F8345084
:102B40000020C7E790F83510022903D080214165A5
:102B500001207047052180F835100068016821F0D8
:102B6000010101600020704770B5044600F018F9BB
:102B70000546601C02D004480078044400F010F9B7
:102B8000401BA042FAD370BD780100202DE9F84F18
:102B9000DFF8BCA10022012503264FF00F090AF13E
:102BA000040BAAF1040E00BF0B6805FA02F42340DF
:102BB000A34270D10F7907F00307012F01D0022F34
:102BC00016D187684FEA420806FA08FC27EA0C0784
:102BD000D1F80CC00CFA08FC4CEA070CC0F808C08D
:102BE0004768A7430C79C4F3001494403C43446005
:102BF0000C79E443A4070AD0C4684FEA420C06FAF1
:102C00000CF7BC438F6807FA0CF72743C7600C79B1
:102C100004F00304022C12D1D40800EB840CDCF87D
:102C200020405707FF0E09FA07F824EA0804D1F8F4
:102C3000108008FA07F848EA0408CCF820800468F5
:102C40004FEA420C06FA0CF7BC430F7907F0030772
:102C500007FA0CF7274307604C6814F4403F70D024
:102C60003C4C276847F480472760246822F003071C
:102C700004F480440094384C07EB040CDCF808485A
:102C800097074FEA177809FA08F7BC43334FB84261
:102C900002D1002724E054E0314FB84201D101278E
:102CA0001EE0304FB84201D1022719E02E4FB84242
:102CB00001D1032714E02D4FB84201D104270FE0C2
:102CC0002B4FB84201D105270AE02A4FB84201D163
:102CD000062705E0284FB84201D1072700E0082762
:102CE00007FA08F72743CCF80878DAF80040574687
:102CF000D1F804C09C435FEACC2C00D51C433C6057
:102D0000DBF800405F46D1F804C09C435FEA8C2C9E
:102D100000D51C433C60DEF800407746D1F804C083
:102D20009C435FEA8C3C00D51C433C60084F083F45
:102D30003C68D1F804C09C435FEACC3C00D51C43FE
:102D40003C60521C102AFFF42FAFBDE8F88F000042
:102D5000083C01404438024000300140000002407D
:102D60000004024000080240000C02400010024033
:102D70000014024000180240001C02400069084094
:102D800000D001207047426921EA02030A4043EA69
:102D90000241816170470AB1816170470904FBE714
:102DA00001488068704700007801002070B5040079
:102DB00025D094F83D00002520B984F83C502046E9
:102DC00000F04EF9242084F83D002068016821F0CD
:102DD000010101602068016841F400410160206840
:102DE000016821F40041016000F0A2FA4D4A6168D7
:102DF000914201D84C4900E04C49884201D201205F
:102E000070BD4B492368B0FBF1F15E6826F03F06C8
:102E10000E435E606368934206D94FF4967359433C
:102E20004FF47A73B1FBF3F12368491C1E6A26F054
:102E30003F06314319626168914210D84900401E33
:102E4000B0FBF1F2521CC2F30B02042A01D204209F
:102E500022E0B0FBF1F0401CC0F30B001CE0A268C4
:102E6000F2B301EBC10303EB0116431EB3FBF6F310
:102E70005B1C43F480431B0549D092B301EBC102B4
:102E800002EB0111401EB0FBF1F0401CC0F30B003F
:102E900040F4804040F400402168CA694CF6FF735A
:102EA0009A431043C861D4E90710014320680268BF
:102EB00022F0C00211430160D4E9030101432068FC
:102EC000826848F2FF339A4311438160D4E90501D7
:102ED00008432168CA6822F0FF021043C86001E07D
:102EE0000EE016E02068016841F0010101602564F0
:102EF000202084F83D00256384F83E50002070BDFA
:102F000001EB4106431EB3FBF6F35B1CB3E7012064
:102F1000C2E701EB4101401EB0FBF1F0401CC0F3E1
:102F20000B00B7E7A086010080841E0000093D0069
:102F300040420F002DE9F84F1F4690468A4604464E
:102F4000DDF82890FFF72CFF054694F83D00202877
:102F50007FD11923012240492046009501F04AF80B
:102F6000002876D194F83C00012872D0012084F822
:102F70003C0020680168C90703D1016841F00101E4
:102F800001602068016821F400610160212084F85B
:102F90003D00102084F83E0000262664C4F82480FA
:102FA0006785608D20852D48E0622B464A46514654
:102FB000204600F0A5FF90B9206841698069009023
:102FC00036E02A464946204601F0BAF850B1206C56
:102FD000042804D12068016841F4007101600120D7
:102FE000BDE8F88F606A216800780861606A401C5B
:102FF0006062618D491E6185218D491E89B22185DE
:1030000022685369DB435B070BD451B10078106130
:10301000606A401C6062608D401E6085208D401E8D
:1030200020852A464946204600F0B8FF0028CED128
:10303000208D0028C5D154F83D0B016841F4007182
:103040000160202004F81E09E67766770020C7E7B4
:10305000FFE70220C4E70000020010000000FFFFAD
:1030600010B586B0044614216846FDF7AFFC13493D
:103070002068884220D112480021026842F00202F2
:103080000260006800F002000590C020009012204D
:10309000CDE901010320039004200490694609480A
:1030A000FFF774FD06481030016841F4001101601B
:1030B000006800F40010059006B010BD00540040F8
:1030C000303802400004024002488168027811440E
:1030D00081607047780100200B4810B5016841F409
:1030E00000710160016841F480610160016841F490
:1030F00080710160032000F06FF80F2000F006F8E7
:1031000000F024F8002010BD003C024070B50D4DC9
:1031100004464FF47A712878B1FBF0F00A49096847
:10312000B1FBF0F000F00AFB48B9102C07D20022E6
:103130002146501E00F030F800206C6070BD012068
:1031400070BD000078010020840100200A4808B505
:10315000016841F480410160006800F48040009003
:103160000548001F016841F080510160006800F0CF
:103170008050009008BD000044380240002809DB60
:1031800000F01F02012191404009800000F1E02081
:10319000C0F8001170470000F0B40E4B1B680C46DD
:1031A000C3F30223C3F10705042D00D90425191D1B
:1031B000072901D2002300E0DB1E012606FA05F1F3
:1031C000491E214099409E40761E16403143F0BC76
:1031D00001F0BFBE0CED00E0064900F007020868F0
:1031E0004FF6FF03184040EA0220034A10430860EC
:1031F000704700000CED00E00000FA052DE9F047F3
:103200000E46050065D0DFF81481D8F80000F7B24B
:1032100000F00700B04207D288F80070D8F800002C
:1032200000F00700B04254D128683D4C810712D508
:10323000400703D5206840F4E0502060287800075C
:1032400003D5206840F4604020602068A96820F021
:10325000F000084320602878C0072DD03049686806
:103260000839012812D0022813D0032811D0096888
:10327000890700292DDA216821F00301014321602B
:10328000FFF78EFD814641F2883A0EE00968890316
:10329000EFE709688901ECE7FFF782FDA0EB090180
:1032A000514502D90320BDE8F0872068696800F025
:1032B0000C00B0EB810FEFD1D8F80010404601F0C0
:1032C0000701B14207D90770006800F00700B0425B
:1032D00001D00120E7E72878400705D52068E96894
:1032E00020F4E050084320602878000706D52068C5
:1032F000296920F4604040EAC100206000F038F8FD
:103300002168084AC1F30311515CC84006490860AE
:1033100006480068FFF7FAFE0020C4E7003C0240C0
:1033200008380240E5590008840100207C01002093
:103330000448054900680968044AC1F38221515CC8
:10334000C84070478401002008380240F559000841
:103350000448054900680968044AC1F34231515CD8
:10336000C84070478401002008380240F559000821
:10337000154810B5006810F00C02144813D0411025
:10338000042A0FD0082A0ED10F4C241F226823686C
:1033900002F03F025B0207D52068C0F38810A0FB53
:1033A000010106E0084610BD2168C1F38811A1FBA8
:1033B00000010023FDF728F82168C1F30141491CF1
:1033C0004900B0FBF1F010BD083802400024F400C1
:1033D0002DE9F84F04006ED02078DFF84C93C00739
:1033E000A9F104054AD009F104000168C1F3810183
:1033F000012908D00068C0F3810002280AD1D9F859
:103400000000400206D52868800337D56068002890
:10341000E1D033E06068B0F5803F10D0B0F5A02F68
:10342000286810D020F480302860286820F480209C
:1034300028606068A8B1FFF7B3FC06460DE0286875
:1034400040F48030F4E740F480202860F7E700BFC4
:10345000FFF7A6FC801B642873D828688003F7D583
:103460000CE0FFF79DFC064605E000BFFFF798FC67
:10347000801B6428F0D828688003F7D42078DFF810
:10348000AC8280074FF0000A3ED5A748001D0168B6
:1034900011F00C0F08D00068C0F3810002280BD196
:1034A000D9F80000400207D42868800716D5E068E4
:1034B000012800D112E033E1E068B8B10120C8F87A
:1034C0000000FFF76DFC064605E000BFFFF768FC53
:1034D000801B0228C0D828688007F7D52868216992
:1034E00020F0F80040EAC10028600DE0C8F800A014
:1034F000FFF756FC064604E0FFF752FC801B02284B
:103500001FD828688007F7D42078000722D5864F77
:1035100087486169703771B101210160FFF740FC94
:10352000064604E0FFF73CFC801B022809D83868F7
:103530008007F7D50EE0C0F800A0FFF731FC064683
:1035400005E082E0FFF72CFC801B02287DD838685C
:103550008007F7D42078400768D5DFF8CCB1002782
:103560000BF13C0BDBF80000C0000BD4DBF80010C3
:1035700041F08051CBF80010DBF80000012700F08B
:10358000805000906B4E3068C00510D4306840F415
:1035900080703060FFF704FC009005E0FFF700FC4E
:1035A0000099401A022850D83068C005F6D55E4E02
:1035B000A0686C3601280FD00528306810D020F0A4
:1035C00001003060306820F004003060A068B8B1BD
:1035D000FFF7E6FB00900FE0306840F00100F4E7F1
:1035E00040F004003060F7E7FFF7DAFB0099411A7A
:1035F00041F28830814266D830688007F4D50EE009
:10360000FFF7CEFB009007E0FFF7CAFB0099411AD5
:1036100041F28830814256D830688007F4D42FB107
:10362000DBF8001021F08051CBF80010A069C8B37E
:103630003D49091D0968C1F3810102294AD00228C8
:10364000504607D0C8F8600000E03CE0FFF7A8FB58
:1036500004463BE04746C8F86000FFF7A1FB06467A
:1036600005E000BFFFF79CFB801B02282BD82868D1
:103670008001F7D4D4E907010843A16A2E4A49081A
:1036800002EB0141626A41EA8211084394F82C106E
:1036900040EA0161C9F8001001203866FFF780FB9D
:1036A000044606E03EE000BFFFF77AFB001B02285D
:1036B00009D828688001F7D534E000BFFFF770FB18
:1036C000001B022802D90320BDE8F88F286880017A
:1036D000F4D427E00128F7D0D9F80000E26900F41B
:1036E000800191421CD1226A00F03F01914217D122
:1036F00047F6C071626A0140B1EB821F10D1A26A25
:103700004FF0FF3300F4403103EB5202B1EB024FB4
:1037100006D194F82C1000F07060B0EB016F01D06E
:103720000120D1E70020CFE70438024000004742E3
:10373000800E4742007000400000FFFF10B5401EA1
:10374000B0F1807F01D3012010BD4FF0E024606113
:103750000F21601701F0FDFB0020A0610720206110
:10376000002010BD7047704770B590F83C20012ACA
:1037700032D0012480F83C40022280F83D200368CA
:103780005A689D6822F070060A6832435A60134BEB
:1037900002689A4214D0B2F1804F11D0104B9A4275
:1037A0000ED0104B9A420BD00F4B9A4208D00F4BC1
:1037B0009A4205D00E4B9A4202D00E4B9A4204D147
:1037C000496825F080031943916080F83D4000214D
:1037D00080F83C10084670BD022070BD000001401A
:1037E0000004004000080040000C004000040140BC
:1037F000004001400018004010B5040003D094F8C8
:103800003D0010B107E0012010BD002084F83C000D
:10381000204600F01FF8022084F83D00211D20689A
:1038200001F038F9012084F8460084F83E0084F85D
:103830003F0084F8400084F8410084F8420084F896
:10384000430084F8440084F8450084F83D000020DB
:1038500010BD000008B500680B49884212D10B4822
:10386000016841F0010101600068002200F00100E0
:10387000009011461920FFF78FFCBDE80840192081
:10388000FFF77CBC08BD0000000001404438024046
:1038900090F83D10012901D001207047022180F8E5
:1038A0003D100168CA6842F00102CA60006811490F
:1038B000884214D0B0F1804F11D00F4988420ED009
:1038C0000E4988420BD00E49884208D00D498842E3
:1038D00005D00D49884202D00C49884204D1816844
:1038E00001F00701062903D0016841F001010160E0
:1038F0000020704700000140000400400008004024
:10390000000C00400004014000400140001800404D
:1039100070B5044690F83C000025012817D0012618
:1039200084F83C60022084F83D002068826822F020
:10393000770222F47F4282600868502838D00DDC7C
:1039400020284FD005DC90B3102811D14AE0022086
:1039500070BD302846D040280AD13BE060282FD0E7
:1039600070280DD0B0F5805F03D0B0F5005F12D0A5
:10397000012584F83D60002084F83C00284670BD95
:10398000CB68D1E90121206801F0ECF8206881685A
:1039900041F0770109E0CB68D1E90121206801F00D
:1039A000E1F82068816841F480418160E1E719E035
:1039B000CA684968206801F0E7F85021206806E0ED
:1039C000CA684968206801F0F0F86021206801F0B9
:1039D000D3F8CEE7CA684968206801F0D5F84021DD
:1039E0002068F4E7226801461046F0E770472DE9A9
:1039F000F04104460068C66805694FF00007A90752
:103A000013D5B10711D5F91E016101202077206877
:103A100080698007204602D0FFF7E8FF04E000F04D
:103A20007EF8204600F07CF82777680716D57007E7
:103A300014D521686FF00400086102202077206807
:103A4000806910F4407F204602D0FFF7CFFF04E0EA
:103A500000F065F8204600F063F82777280715D5B1
:103A6000300713D521686FF0080008610420207723
:103A70002068C0698007204602D0FFF7B7FF04E046
:103A800000F04DF8204600F04BF82777E80616D5F1
:103A9000F00614D521686FF0100008610820207727
:103AA0002068C06910F4407F204602D0FFF79EFFD7
:103AB00004E000F034F8204600F032F82777E807F9
:103AC00008D0F00706D021686FF001000861204699
:103AD00000F028F8280608D5300606D521686FF0D2
:103AE000800008612046FFF73DFE680608D5700695
:103AF00006D521686FF040000861204600F032F8DA
:103B0000A8060AD5B00608D521686FF02000086124
:103B10002046BDE8F041FFF726BEBDE8F0817047C2
:103B20007047000010B509490068096888420CD147
:103B300000F04EFB0821002000F02EFB012804D1EC
:103B4000BDE8104002A001F06DBA10BDBC0A002013
:103B50004B45595F312070726573736564210D0A9E
:103B6000000000007047704770470000F8B501681A
:103B700004460868CA684B6910F00F0F4FF0000543
:103B800059D003F0010602F49077374365D0C1079E
:103B900005D0D10503D5616C41F001016164410795
:103BA00005D5D90703D0616C41F00201616481073A
:103BB00005D5D90703D0616C41F0040161640107A8
:103BC00007D502F02001314303D0616C41F00801B8
:103BD0006164616C00293AD0800604D5900602D554
:103BE000204601F022F820684069616CC0F3801023
:103BF000090700D460B3204600F0F0FF2068406958
:103C0000400621D52068143050E8001F21F0400103
:103C100040E80012002AF5D1E06BA8B172490165B5
:103C2000E06BFEF78FFF002811D0E06B016D01B053
:103C3000BDE8F040084783060FD593060DD5204612
:103C4000BDE8F84000F0F1BF2046FFF78DFFF8BD5A
:103C50002046FFF789FF6564F8BD266B2023012EFF
:103C60007ED1C6067CD5D6067AD50868486800900D
:103C700048694FF0020640064DD5E26B1068406877
:103C80004FF480770004000C3AD0A18D814237D9DF
:103C9000E085D069B8422DD020680C3050E8001F74
:103CA00021F4807140E80012002AF5D12068143018
:103CB00050E8001F21F0010140E80012002AF5D170
:103CC0002068143050E8001F21F0400140E8001245
:103CD000002AF5D184F84230256320680C3050E882
:103CE000001F21F0100140E80012002AF5D1E06B1E
:103CF000FEF7DFFE6663A08DE18D401A81B206E01B
:103D0000A18D8142A8D1D069B842A5D16663204671
:103D1000FFF729FFF8BDA08DE18D401A81B2E08D3B
:103D20000028F7D00029F5D020680C3050E8002F8B
:103D300022F4907240E80027002FF5D1206814305B
:103D400050E8002F22F0010240E80027002FF5D1B3
:103D500084F84230256320680C3050E8002F00E0E2
:103D600006E022F0100240E80023002BF3D1CDE75B
:103D700005062BD5150629D594F841002128C9D16F
:103D8000A068B0F5805F01D12069B0B1206A411C04
:103D90002162216800784860E08C401E0004000C1D
:103DA000E084B7D12068C16821F08001C16020683B
:103DB000C16841F04001C160F8BD206A0088C0F3CD
:103DC00008004860206A801C2062E5E74006F3D5C1
:103DD0005006F1D5CA68204622F04002CA6084F835
:103DE000413000F074F8F8BDCF4B000870B5040006
:103DF00004D094F84100002510B106E0012070BD08
:103E000084F84050204600F023F8242084F8410034
:103E10002068C16821F40051C160204600F066FFAF
:103E20002068016921F4904101612068416921F015
:103E30002A0141612068C16841F40051C160656494
:103E4000202084F8410084F842006563002070BDA2
:103E500010B586B0044614216846FCF7B7FD184932
:103E60002068884229D117480021026842F01002D8
:103E70000260006800F010000590124814380268D3
:103E800042F001020260006800F0010005904FF46A
:103E9000C06000900220CDE90101032003900720BB
:103EA000049069460848FEF771FE0022114625205D
:103EB000FFF772F92520FFF761F906B010BD000089
:103EC0000010014044380240000002407047704733
:103ED000FEE701684A69D24352050FD46FF480624D
:103EE0004A61002140F8301F202242738173026929
:103EF00042F0040202610173012070470020704704
:103F0000F8B50446C06A1E460D461746082807D075
:103F1000012805D010F5803F02D0206B122804D173
:103F20002068016841F480710160134600224FF05F
:103F300001112046009600F05DF840B1206800684D
:103F4000C00502D54FF4007020640320F8BD20693D
:103F5000B0F5804F0ED00620216800EAD51040F061
:103F6000F000086133463A460B49204600F08AF8D3
:103F700078B902E005F0FE0000E0E8B221680861CF
:103F8000054933463A46891F204600F07BF8002851
:103F9000DCD00120F8BD00000800010070B5164615
:103FA0000D4604461EE02046FFF793FF08B10120AE
:103FB00070BD681C16D0FEF7F3FE801BA84200D827
:103FC00085B920684069C04340070BD5002044F8FC
:103FD000300F20216173A073216941F0200121611C
:103FE0002073E4E720684069C0434007DBD4002029
:103FF00070BD00002DE9F047984617460D4604466F
:10400000C1F30746DDF820902AE000BFB8F1FF3F7A
:1040100026D0FEF7C5FEA0EB0901414502D8B8F154
:10402000000F1DD12068012E16D0806925EA0000FE
:104030000004000C12D00020B84211D1002044F836
:10404000300F20216173A073216941F020012161AB
:1040500020730120BDE8F0874069E7E70120EBE726
:104060002068012E0AD0806925EA00000004000CB7
:1040700006D00020B842C9D00020EBE74069F3E742
:104080000120F7E72DE9F047984616460D4604460D
:104090004FF000094FF0200AC1F3074723E02068E2
:1040A0004069C043400515D42068016841F400719F
:1040B000016021686FF480604861C4F8309084F832
:1040C0003DA084F83E90216C41F00401216484F805
:1040D0003C9021E0701C06D0FEF762FEA0EB0800C9
:1040E000B04203D816B1012F1FD021E02068012F64
:1040F00015D0806925EA00000004000C18D000BF2C
:1041000044F8309F84F80DA084F80E90216941F0A6
:104110002001216184F80C900120BDE8F0874069FE
:1041200025EA00000004000CEAD12068406901E0A3
:104130002068806925EA00000004000CAFD1ECE79C
:1041400070B516460D4604461EE02046FFF7C1FE38
:1041500008B1012070BD681C16D0FEF721FE801B3F
:10416000A84200D885B920684069C04300060BD535
:10417000002044F8300F20216173A073216941F0C1
:10418000200121612073E4E720684069C0430006F4
:10419000DBD4002070BD0000064B10B51A5C0A424B
:1041A00005D0012901D08A431A54012010BD0020F6
:1041B00010BD00000400002010B528B901210348FB
:1041C000FEF7DCFD012800D0002010BD00000240F9
:1041D0002DE9F05F4A4D002035F8101011B1491E4D
:1041E00025F81010401C10F0FF00F5D04448801F47
:1041F0000178491CC9B2017014297ED34FF0000A1E
:10420000871C80F800A05446461C00F1030900F109
:1042100004084FF0640B305D38552046FFF7CCFFA3
:10422000305518F804200128414604D022F001023C
:104230000A5540B10EE042F001020A553B5D4BB910
:1042400042F0020204E03B5D012B03D142F0040284
:1042500008F8042019F80420052A4AD2DFE802F001
:10426000030B1F363800012843D14FF4FA6025F8BC
:104270001400012020E018B135F8140028B138E00E
:10428000C82025F81400022016E018F804200420A5
:1042900042F0200208F8042025F814B00CE00128B0
:1042A00003D035F8140050B123E018F8042003209F
:1042B00042F0100208F8042009F8040019E018F888
:1042C000042042F0080208F8042007E030B110E0B2
:1042D00020B135F8140020B10BE00EE009F804A07D
:1042E00007E018F8041041F0400108F8041025F820
:1042F00014B0641C14F0FF048DD0BDE8F09F0000E2
:1043000006000020104810B50E49016002214160EE
:1043100000214FF04072C0E902124FF450220261B6
:104320004FF4A0024261017641768176C176017731
:104330004177FEF714FA002803D0BDE81040FDF7DE
:1043400092BF10BD00640040400A002070B586B0E6
:1043500014216846FCF73AFB1D480024016841F02F
:1043600004010160016801F004010591016841F058
:1043700080010160016801F080010591016841F050
:1043800001010160016801F001010591016841F03E
:104390000201016000680F4E00F00200059000224B
:1043A00004213046FEF7F7FC0125CDE900546946AB
:1043B00009480294FEF7EAFB04200090CDE901547D
:1043C000694630460394FEF7E1FB06B070BD00007D
:1043D0003038024000040240000002400D4810B591
:1043E0000B4901600C49416000214FF4804281601B
:1043F000C0E9031241618161C1610162FEF7D6FC2F
:10440000002803D0BDE81040FDF72DBF10BD00000F
:1044100000540040680A0020A086010010B586B054
:1044200000241748009401940294039404941349BF
:1044300005940160A721C0E9011440F2E731C0E909
:10444000031444618461FFF7D7F908B1FDF70BFF4E
:104450004FF48050009069460948FFF759FA08B1B7
:10446000FDF701FF049404A905480594FFF77CF9C2
:10447000002801D0FDF7F7FE06B010BD0000014096
:10448000BC0A00200C4810B50A4901604FF4E13124
:104490004160002181600C22C160C0E90412816189
:1044A000C161FFF7A3FC002803D0BDE81040FDF771
:1044B000DABE10BD00100140040B0020FEE7FEE74D
:1044C00010B50021074C0A46002004EBC1131A5412
:1044D000401CC0B28028FAD3491CC9B20829F3D3C2
:1044E00010BD000040060020F0B50B4424E0044657
:1044F00085181DE07F2C19D8002917DB3F2915DC12
:10450000CE1701EB56764FEAE60C0D4F26F0070664
:1045100007EBCC172744A1EB060E97F800C0012645
:1045200006FA0EF62CEA060C87F800C0641C24B2CA
:10453000A542DFDC491C09B28B42D8DCF0BD00008B
:104540004006002010B5AE2000F0BCF9D52000F0E8
:10455000B9F9802000F0B6F9A82000F0B3F93F20A7
:1045600000F0B0F9D32000F0ADF9002000F0AAF976
:10457000402000F0A7F9A12000F0A4F9C82000F025
:10458000A1F9DA2000F09EF9122000F09BF98120B9
:1045900000F098F9CF2000F095F9D92000F092F9B9
:1045A000F12000F08FF9DB2000F08CF9302000F0D2
:1045B00089F9A42000F086F9A62000F083F98D2067
:1045C00000F080F9142000F07DF9AF2000F07AF9B6
:1045D000FFF776FFBDE8104000F060B90FB470B58A
:1045E000C0B014460D46064648AA68464799FBF7F0
:1045F00083FF23466A462946304600F093F840B0D0
:1046000070BC5DF814FB10B50C4640F0B00000F033
:1046100059F9102040EA141000F054F904F00F008A
:10462000BDE8104000F04EB908B5082B0DD0062BA0
:104630000AD10A4B02EB420203EB4202C03A00925B
:104640000823062200F00EF808BD054B03EB02120A
:10465000A2F50072102300920822F3E7B656000874
:10466000C65000082DE9F04F1F4616460C468246FC
:104670000025FFF739FF7F1EF81707EB5070012167
:10468000DFF89CB001EBE00745E000203FE000BF11
:104690000AEB00037F2B38D8E11704EB5171CA10E5
:1046A00021F00701611A002C03DA521E083112B200
:1046B00009B202EB0509B9F1070F10D80BEBC91EBF
:1046C0001EF8032015FB06F8DDF824C0844418F812
:1046D0000CC00CFA01FC42EA0C020EF8032009F1AE
:1046E0000102072A11D80BEBC91202EB030898F854
:1046F000803015FB06FC099AC1F1080102441CF840
:104700000220CA40134388F88030401CC0B2B04237
:10471000BED36D1CEDB2AF42B7DCBDE8F08F000038
:10472000400600202DE9FF4F002583B09B469046B0
:104730002C46AA46DFF8C09056E010068DF80420FB
:1047400005F101050DD40398ADB220448DF805A004
:1047500000B25B460499FFF767FF04EB0B0084B2DD
:1047600042E0A8B218F80010002941D0401C8DF892
:10477000051085B28DF806A0002606E0384601A98E
:10478000FCF74CF968B1761CB6B2C6EBC60000EB7C
:10479000800101EB0900074618A1FCF73FF900284A
:1047A000ECD1BBF1080F03D0BBF1060F1CD111E017
:1047B000C6EBC60000EB800101EB0900C01C0090B5
:1047C00003981023204400B21A460499FFF74AFFC9
:1047D000103408E003980623204400B23F220499D5
:1047E000FFF722FFA41DA4B218F80520002AA4D1C7
:1047F00007B0BDE8F08F0000F0580008000000008E
:104800002DE9F04790B06C46164689468246A04690
:10481000082A02D90826002521E00025C6F108074C
:104820000BE000BFA4EB0800C0F1400118A2204635
:10483000FBF78EFE6D1C0444EDB2AF42F2DC0025A6
:104840001AE0701E85420AD1A4EB0800C0F14001B5
:1048500019F805300FA22046FBF77AFE0AE0A4EB18
:104860000800C0F1400119F805300AA22046FBF704
:104870006FFE04446D1CEDB2B542E2D308236A46D4
:1048800051460020FFF74EFF10B0BDE8F087000052
:1048900030300000253032580000000070B5084D5F
:1048A000002400212046FFF7AEFE05EBC410802156
:1048B00000F01AF8641CE4B2082CF2D370BD0000BA
:1048C000400600201CB500218DF804108DF805006D
:1048D000481E0090022301AA78210248FEF72AFB15
:1048E0001CBD0000680A0020F8B506460C46481CAE
:1048F000FBF734FD050014D04020287022463146D5
:10490000681CFCF71EF84FF0FF300090631C2A462D
:1049100078210448FEF70EFB2846BDE8F840FBF777
:104920004CBDF8BD680A0020704700F06DBA000069
:104930002DE9F04107460B4815460E46007808B9A8
:1049400000F062FAEFF31184202080F311882A46E8
:104950003146384600F008F8E1B281F31188BDE82D
:10496000F08100008801002070B50E46144900EB6C
:10497000400001EBC0051446E86A183520B1012853
:104980000FD0022805D113E0284600F071FAA042AA
:1049900001D2002411E022463146284600F0A0FA58
:1049A0000BE0284600F064FAA042F4D20446F2E795
:1049B0003146284600F067FA0446204670BD0000E4
:1049C0008801002070B505460C460846FBF79AFFA3
:1049D000024621462846BDE87040FFF7A9BF704750
:1049E000FEF772BB30B593B030216846FBF7EEFF9F
:1049F00014210CA8FBF7EAFF1D480025016841F0CF
:104A000080510160006800F08050119019480168E1
:104A100041F4804101600068022400F4804011905C
:104A20000120039010200490009406940820CDE902
:104A30000750A820CDE9090404200B906846FEF732
:104A4000C7FC08B172B6FEE70CA90F2081E831005F
:104A50004FF4A0500F904FF48050109005210CA8F7
:104A6000FEF7CCFB002801D072B6FEE713B030BDD4
:104A700040380240007000400248016841F4700173
:104A80000160704788ED00E00148FEF7B0BF00000C
:104A9000BC0A0020F0B50268274B284D284E294F4C
:104AA000294C4FF0804C984209D0604507D0A8426D
:104AB00005D0B04203D0B84201D0A04204D122F0C8
:104AC000700E4A6842EA0E0298421BD0604519D027
:104AD000A84217D0B04215D0B84213D0A04211D08E
:104AE0001A4DA8420ED01A4DA8420BD0194DA8421B
:104AF00008D0194DA84205D0184DA84202D0184D33
:104B0000A84203D122F44075CA682A434D6922F0B5
:104B100080022A438D68C5620D688562984201D083
:104B2000A04201D109690163016841F004010160FB
:104B3000012141610260F0BD00000140000400401D
:104B400000080040000C004000040140004001400B
:104B5000004401400048014000180040001C004093
:104B60000020004010B5846842EA032224F47F4408
:104B70000A432243826010BD826822F070020A4319
:104B800042F007018160704710B5036A046A24F09F
:104B900001040462846924F0F00444EA021423F05E
:104BA0000A020A438461026210BD10B5036A046AF6
:104BB00024F010040462846923F0A00324F47044F8
:104BC00044EA023243EA01118261016210BD10B56C
:104BD000806B0021C185FEF7C7FF10BD01680C3155
:104BE00051E8002F22F4907241E80023002BF5D108
:104BF0000168143151E8002F22F0010241E800233E
:104C0000002BF5D1016B012909D101680C3151E864
:104C1000002F22F0100241E80023002BF5D12021C3
:104C200080F8421000210163704708B590F84210E7
:104C3000222901D0022008BD82684FF480539A4295
:104C400001D1016921B1816A9A421BD04AB10AE0BF
:104C50000268816A5268C2F308020A80816A891C6C
:104C600008E0026972B10268526802F07F020A70BD
:104C7000816A491C8162C18D491E0904090CC185E4
:104C800003D01BE002685268F1E70168CA6822F0AD
:104C90002002CA600168CA6822F48072CA60016892
:104CA0004A6922F001024A61202180F84210002165
:104CB0004163026B012A03D0FFF708F9002008BD09
:104CC000016301680C3151E8002F22F0100241E825
:104CD0000023002BF5D101680A68D20602D50A68C4
:104CE00049680091818DFEF73EFFE7E770B5044605
:104CF00000680169E26821F44051114301612169B2
:104D0000A068E26908436169114308432168CA68E1
:104D100049F20C639A430243CA6020684169A26960
:104D200021F440711143416131492068884202D029
:104D30003049884202D1FEF70BFB01E0FEF7F8FA9A
:104D4000E2690023192164253226B2F5004F62681A
:104D500028D0A0FB0101930F9200FBF755FB014601
:104D6000B0FBF5F06FF01802504301EB800006EB4A
:104D70000010B0FBF5F000F0F002B1FBF5F002EB33
:104D80000012B1FBF5F06FF01803584301EB8000FF
:104D900006EB0010B0FBF5F000F00F0021681044A6
:104DA000886070BDA0FB010192185B41FBF72CFBF2
:104DB0000146B0FBF5F00201B1FBF5F06FF018030E
:104DC000584301EB800006EBC000B0FBF5F000F0AB
:104DD000F80002EB4002B1FBF5F0584301EB800014
:104DE00006EBC000B0FBF5F000F00700D6E70000CE
:104DF00000100140001401400148FEF7B7BE00005A
:104E0000040B0020FEE7000010B5124C03202061C7
:104E1000606111A0A06104F1A800E0614FF480601E
:104E200020620020A06260620BA12166E06204F5AE
:104E30009561616610212067C4E91A10606709A1B5
:104E4000E01DFBF73BFD08A12046FBF737FD2020C6
:104E5000A07110BD880100205465726D696E616C8F
:104E6000000000005254540053454747455200008B
:104E70000269C1688A4203D88068401A104400E081
:104E8000501A401E70472DE9F047C46817468946FE
:104E900006464FF000083069A04201D9051B02E028
:104EA000B168201A0D1AB0686D1E001BA84200D808
:104EB0000546BD4200D33D4670682A462044494617
:104EC000FBF73FFDB0687F1B2C44A844A944A042D7
:104ED00000D10024F460002FDDD14046BDE8F0870A
:104EE0002DE9F04104468846D4E90207C51BE16874
:104EF000606816460844B54206D94146FBF721FDD5
:104F0000B819E060BDE8F0812A464146FBF719FD7B
:104F1000761B08EB050132466068FBF712FDE66080
:104F2000F0E703B401984100009850EAC12018BF8F
:104F300004204A0D18BF40F0010040F2FF72B2EBAE
:104F4000515F08BF40F00200012808BF052002B0F1
:104F500070470907090E002804DB00F1E02080F803
:104F60000014704700F00F0000F1E02080F8141DDD
:104F7000704730380A2801D201207047002070475E
:104F8000FEF7AAF8FFF72EFDFFF7E0F9FFF7BAF9F1
:104F9000FFF724FAFFF742FAFFF774FAFFF7D2FAA5
:104FA00000210FA308220846FFF718FBFFF776FC45
:104FB000FDF7EAF80F48FEF76BFC0FA000F032F89F
:104FC00011A000F02FF8164C4FF4FA75042120467A
:104FD000FDF7D9FE2846FDF7C7FDFDF7F1F8F5E727
:104FE0002020202043414E5F544553542020202050
:104FF00000000000BC0A002048656C6C6F2C205239
:105000005454210D0A0000002D2D2D2D7379737439
:1050100065726D207374617274210D0A00000000C6
:10502000000402400FB410B50B4CC0B0207818B982
:10503000FFF77BFC0120207043AB4FF48071684682
:10504000429AFBF76BFA69460020FFF7BBFC40B0C1
:1050500010BC5DF814FB00007401002010B500299D
:105060000AD00878002807D005487844FBF7D6FC1A
:10507000002801D0002010BD0248784410BD000077
:10508000B20A0000AA0A000010B500290AD0087868
:10509000002807D005487844FBF7C0FC002801D061
:1050A000002010BD0248784410BD0000A20A000094
:1050B0009A0A00004FF04070E1EE100A7047FCF7CA
:1050C00041B8FCF775B900000000000000000000C6
:1050D000000000000000000000F8000000000000D8
:1050E00000333000000000160E00160E0000000015
:1050F00000000000000040C07840C0784000043F3D
:1051000004043F040400007088FC0830000000180C
:1051100020FF211E0000F008F000E0180000002130
:105120001C031E211E0000F00888700000001E21D4
:10513000232419272110000000160E000000000093
:10514000000000000000000000E018040200000061
:1051500000071820400000020418E0000000004092
:10516000201807000000404080F08040400002020C
:10517000010F01020200000000F000000000010128
:10518000011F01010100000000000000000000B04C
:10519000700000000000000000000000000000019E
:1051A00001010101010100000000000000000030C9
:1051B0003000000000000000000080601804006063
:1051C00018060100000000E010080810E000000FC1
:1051D000102020100F00001010F800000000002028
:1051E000203F202000000070080808887000003070
:1051F0002824222130000030088888483000001818
:10520000202020110E000000C02010F80000000730
:105210000424243F240000F80888880808000019A6
:10522000212020110E0000E0108888180000000FD7
:10523000112020110E0000380808C83808000000AE
:10524000003F000000000070880808887000001C03
:10525000222121221C0000E010080810E0000000BC
:10526000312222110F00000000C0C0000000000029
:10527000003030000000000000C0C000000000004E
:1052800080B0700000000000804020100800000185
:105290000204081020004040404040404000040408
:1052A00004040404040000081020408000000020D2
:1052B000100804020100007048080808F00000000F
:1052C000003036010000C030C828E810E0000718A0
:1052D000272423140B000000C038E0000000203C0D
:1052E00023020227382008F8888888700000203FB1
:1052F000202020110E00C0300808080838000718C8
:1053000020202010080008F808080810E000203FBE
:10531000202020100F0008F88888E8081000203F9F
:1053200020202320180008F88888E8081000203F73
:10533000200003000000C0300808083800000718EB
:105340002020221E020008F808000008F808203F6C
:10535000210101213F20000808F808080000002072
:10536000203F2020000000000808F8080800C08046
:1053700080807F00000008F888C028180800203FBF
:1053800020012638200008F8080000000000203F17
:1053900020202020300008F8F800F8F80800203F0E
:1053A000003F003F200008F830C00008F808203F08
:1053B000200007183F00E01008080810E0000F1058
:1053C000202020100F0008F808080808F000203FEF
:1053D000210101010000E01008080810E0000F188A
:1053E000242438504F0008F8888888887000203FAF
:1053F0002000030C302000708808080838000038AE
:10540000202121221C00180808F8080818000000B4
:10541000203F2000000008F808000008F808001FDE
:10542000202020201F000878880000C838080000CD
:1054300007380E010000F80800F80008F800033CE7
:105440000700073C030008186880806818082030AF
:105450002C03032C30200838C800C838080000008E
:10546000203F2000000010080808C8380800203835
:10547000262120201800000000FE02020200000089
:10548000007F40404000000C30C0000000000000E1
:1054900000010638C00000020202FE0000000040C9
:1054A00040407F0000000020100804081020000089
:1054B00000000000000000000000000000008080EC
:1054C00080808080808000020408000000000000CE
:1054D00000000000000000008080808000000019B3
:1054E000242222223F2008F8008080000000003F94
:1054F000112020110E000000008080800000000EAE
:10550000112020201100000000808088F800000E8B
:10551000112020103F200000808080800000001FAC
:10552000222222221300008080F088888818002020
:10553000203F202000000000808080808000006BE1
:1055400094949493600008F8008080800000203FCD
:10555000210000203F2000809898000000000020DB
:10556000203F20200000000000809898000000C02C
:105570008080807F000008F8000080808000203F4D
:1055800024022D302000000808F800000000002050
:10559000203F202000008080808080808000203F8D
:1055A00020003F20003F008080008080000000201D
:1055B0003F2100203F200000808080800000001FED
:1055C000202020201F00808000808000000080FFBD
:1055D000A12020110E000000008080808000000EBD
:1055E000112020A0FF80808080008080800020200B
:1055F0003F21200001000000808080808000003377
:10560000242424241900008080E080800000000011
:10561000001F202000008080000000808000001F0C
:10562000202020103F2080808000008080800001AA
:105630000E300806010080800080008080800F30DE
:105640000C030C300F000080800080808000002060
:10565000312E0E312000808080000080808080818B
:105660008E701806010000808080808080000021FC
:10567000302C2221300000000000807C020200005B
:105680000000003F404000000000FF00000000005C
:105690000000FF0000000002027C800000000040CB
:1056A000403F00000000008040408000008000007B
:1056B0000000000101000000000000000000002FB9
:1056C000000000000700070000147F147F1400246E
:1056D0002A7F2A120023130864620036495522509B
:1056E00000000007000000001C22410000004122D1
:1056F0001C000014083E08140008083E08080000BA
:1057000000A06000000808080808000060600000B1
:10571000002010080402003E5149453E0000427F2F
:105720004000004261514946002141454B3100187B
:1057300014127F10002745454539003C4A4949303D
:1057400000017109050300364949493600064949F7
:10575000291E000036360000000056360000000802
:1057600014224100001414141414000041221408DF
:10577000000201510906003E4955592E007C1211C4
:10578000127C007F49494936003E41414122007F59
:105790004141221C007F49494941007F0909090113
:1057A000003E4149497A007F0808087F0000417F98
:1057B0004100002040413F01007F08142241007F4A
:1057C00040404040007F020C027F007F0408107FB1
:1057D000003E4141413E007F09090906003E41511A
:1057E000215E007F091929460046494949310001D7
:1057F000017F0101003F4040403F001F2040201F2B
:10580000003F4038403F00631408146300070870ED
:10581000080700615149454300007F4141000002F3
:1058200004081020000041417F000004020102042E
:105830000040404040400000010204000020545459
:105840005478007F484444380038444444200038A9
:105850004444487F00385454541800087E0901021B
:105860000018A4A4A47C007F080404780000447DF0
:105870004000004080847D00007F1028440000002C
:10588000417F4000007C04180478007C0804047800
:1058900000384444443800FC2424241800182424EC
:1058A00018FC007C080404080048545454200004E8
:1058B0003F444020003C4040207C001C2040201CF5
:1058C000003C4030403C004428102844001CA0A06C
:1058D000A07C004464544C440000087F4100000058
:1058E000007F00000000417F080000080408100845
:1058F000A3AC000000000000000000000000000059
:105900000000000000583800000000000000000007
:10591000000000A1A3000000000000000000000043
:1059200000000000000000001824241800000000FF
:10593000000000000000C4E300008060F807402081
:10594000180F08C80808281800010000FF00100CF4
:105950000340807F0001061800BAC3001010F01F3A
:1059600010F000808282E2928A8680004022150830
:105970001661000040807F0000000000CAC00020C7
:105980002020FE2020FF202020FF202020200000BB
:1059900000007F404047444444474040400000BD31
:1059A000E700000000FE929292FE929292FE0000AA
:1059B000000008080484621E010001FE02040408BD
:1059C0000800000000FF010101310909090989717E
:1059D00001010101FFFF80808080808096818080AE
:1059E00080808080FF0000000000000000010203B2
:1059F00004060708090000000001020304303132E8
:105A000033343536373839414243444546403058BF
:105A1000003031323334353637383961626364658A
:105A2000664030780004000008000000000000001C
:105A30000200010000100000000000000000000053
:105A400030313233343536373839616263646566F4
:105A5000787000303132333435363738394142438B
:105A6000444546585000000002400000000000A0DD
:105A70000000000005400000000000C80000000019
:105A80000C4000000000409C000000001940000095
:105A90000020BCBE0000000034400000BFC91B8EC7
:105AA00000000004B5400000504BCFD06607E2CFA5
:105AB000010000006C4100003E8251AADFEEA734D5
:105AC00001000000D9420000DCB5A0E23A301F9787
:105AD000FFFFFFFFB4450000FD25A0C8E9A3C14FAB
