:020000040800F2
:10000000B8160020DD0200089B4900085542000890
:1000100099490008D5200008955500080000000007
:10002000000000000000000000000000D34D0008A8
:10003000AD210008000000001D4D0008D54D00084E
:10004000F7020008F7020008F7020008F7020008AC
:10005000F7020008F7020008F7020008F70200089C
:10006000F7020008F7020008F7020008F70200088C
:10007000F7020008F7020008F7020008F70200087C
:10008000F7020008F7020008F7020008E520000860
:10009000D9200008F7020008F7020008F70200085C
:1000A000F70200087D4E0008F7020008F70200087A
:1000B000F7020008F7020008F7020008F70200083C
:1000C000F7020008F7020008F7020008F70200082C
:1000D000F702000869550008F7020008F702000857
:1000E000F7020008F7020008F7020008F70200080C
:1000F000F7020008F7020008F7020008F7020008FC
:10010000F7020008F7020008F7020008F7020008EB
:10011000F7020008F7020008F7020008F7020008DB
:10012000F7020008F7020008F1200008F7020008B3
:10013000F7020008F7020008F7020008F7020008BB
:10014000F7020008F7020008F7020008F7020008AB
:10015000F7020008F7020008FD200008F702000877
:10016000F7020008F7020008F7020008F70200088B
:10017000F7020008F7020008F7020008000000007C
:10018000F7020008F702000800F002F800F096F805
:100190000AA090E8000C82448344AAF10107DA45E2
:1001A00001D100F08BF8AFF2090EBAE80F0013F09E
:1001B000010F18BFFB1A43F0010318472461000028
:1001C00044610000103A24BF78C878C1FAD85207B9
:1001D00024BF30C830C144BF04680C6070470000C1
:1001E0000023002400250026103A28BF78C1FBD840
:1001F000520728BF30C148BF0B6070476E2900F01E
:10020000DC84702900F05982662905F0468365294F
:1002100005F04383672905F04083612905F03F839A
:1002200003681B0A28BF41F08001692900F0CA81D8
:10023000642900F0C781752900F0C4816F2900F09E
:10024000CA85782900F02582E92900F06585E4292E
:1002500000F06285F52900F05F85EF2900F0C78581
:10026000F82900F024820368DB0928BF41F08001EF
:10027000632900F0E684732900F0EB84E32901F0A0
:10028000ED81F32901F0F281002070471FB505F0E0
:10029000FFFA9DE8030000F0EFFB01F041FA0400D3
:1002A0000020002105F0DEFA401C606000200021E3
:1002B00005F0C2FAE0601FBD10B510BD01F002FAF2
:1002C0001146FFF7E3FF05F023FA01F0DFFA03B46C
:1002D000FFF7F2FF03BC01F00FFB00000948804765
:1002E00009480047FEE7FEE7FEE7FEE7FEE7FEE718
:1002F000FEE7FEE7FEE7FEE704480549054A064B30
:10030000704700006D4E000889010008B80D0020FC
:10031000B8160020B8120020B812002070B50646AA
:1003200000F08EFB056806F10B0020F00704B442D4
:100330009CBF002070BD2B466A68BAB11068A0420D
:1003400010D304F1080188423CBF5068586007D3BD
:100350005168101941601168091B016058601460F0
:10036000101D70BD13465268002AE7D12146284669
:1003700000F06EFB0028DED170BD70B50446051F8D
:1003800000F05EFB0068002C14BF446870BD002CB8
:1003900018BFAC423CBF20466468F8D301680A1815
:1003A000AA4218BF456003D12A680546114401607E
:1003B00028684119A1421CBF6C6070BD616869600A
:1003C00021680844286070BD53EA020C00F069807F
:1003D0002DE9F04B4FF00006002B1FBFB3FA83F559
:1003E00003FA05F424FA05F65E4012BF1643B2FA8A
:1003F00082F502FA05F4C5F120051EBF22FA05FCBC
:1004000044EA0C04203556EA044C4FEA144418BF61
:10041000641C4FF000084FF00009904271EB030C90
:1004200039D3002919BFB1FA81F701FA07F6B0FAFA
:1004300080F700FA07F6C7F120071EBF20FA07FC75
:1004400046EA0C062037B6FBF4FCA7EB0507103F85
:1004500007F01F0BCBF120060CFA0BFB2CFA06F66B
:1004600044BFB3460026202FA4BF5E464FF0000BCA
:100470005BEA060C08BF4FF0010B19EB0B09ABFB55
:10048000027C48EB0608C01B06FB02CC0BFB03CC2E
:1004900071EB0C01C1E70B46024641464846BDE8F8
:1004A000F08B13B54FF000004FF00001AFF3008068
:1004B000BDE81C40704700007CB51D4616460C0088
:1004C000009001D02044401E074B7B442A466946D9
:1004D0000190304600F08BFB05461CB100206946B8
:1004E00000F098FB28467CBD510700000FB47CB596
:1004F0000C0009AA009001D02044401E084B7B4408
:1005000069460190089800F072FB05461CB1002076
:10051000694600F07FFB28467CBC5DF814FB0000B8
:100520001D07000070B5044685690068C10601D545
:10053000302600E02026C00707D070BDD4E9012195
:1005400030469047206A401C20626D1EF6D570BD73
:1005500070B5044685690078C00707D170BDD4E93D
:10056000012120209047206A401C20626D1EF6D594
:1005700070BD70B50C460546012A05D02878800666
:1005800000D5EA69002302E0012305E05B1C9342E9
:1005900002D2E05C0028F9D1A869E618C01AA86167
:1005A000286A184428622846FFF7BCFF04E0D5E912
:1005B000012114F8010B9047B442F8D32846FFF705
:1005C000C7FF70BD2DE9F04106460024106875296B
:1005D000314616A510D000F085FA002802DA404214
:1005E00013A507E031688A0701D512A502E0490783
:1005F00004D511A5012401E000F07DFA00210A22B2
:1006000006F1240709E0B0FBF2FCB0FBF2F302FBB9
:100610001C00303078541846491C0028F3D123467A
:100620002A463046BDE8F04100F06EBA00000000F6
:100630002D0000002B00000020000000F0B40D464B
:100640000188090502D5214C7C4402E01F4C7C4402
:100650000E34002100F1240608E002F00F07120911
:10066000E75D42EA03721B097754491C52EA03070B
:10067000F3D102780023120704D5702D06D009B1FA
:10068000022311342246F0BC00F03EBA012310349C
:10069000F8E770B504460D462146106800F02BFAC5
:1006A000024629462046BDE870400023C6E7D21D19
:1006B00022F00703D3E90023C0E70368126843F080
:1006C000200303600823C3610023B7E7955B0000A4
:1006D0002DE9F05F894604464FF0000ADFF874B157
:1006E000FB44C0F820A02046E1688847002874D069
:1006F000252806D0D4E901219047206A401C2062B9
:10070000F1E700265F462046E16888472028054635
:1007100007DB312D05D2781910F8200C08B10643FB
:10072000F1E7B00701D526F00406C4F81CA00027A5
:10073000C4F818A02A2D09D0284604F0E2FF38B3E7
:1007400004EB8708303DC8F8185019E059F8041B2D
:10075000204604EB87029161E1688847012F054636
:1007600018D1E069002820DA26F020061DE0D8F82C
:10077000180000EB800005EB40003038C8F8180086
:100780002046E1688847054604F0BBFF0028EED10B
:10079000012F0AD02E2D08D12046E16888477F1C02
:1007A0000546022F46F02006C4DBA069002803DAC4
:1007B000404246F00106A061F00701D026F0100685
:1007C0006C2D0BD0682D09D04C2D39D06A2D35D029
:1007D000742D35D07A2D33D016E038E0E1682F46FD
:1007E00020468847B842054609D16C2F26D04FF4E1
:1007F0008060E168064320468847054604E06C2F88
:100800001AD04FF4807006430DB3A5F141001928AA
:1008100002D8203546F400664A462946204626601E
:100820004E46FFF7EBFC80B101280BD0F61D26F0F9
:10083000070000F1080956E74020E4E78020D8E7E8
:100840000020D6E706F104094DE7284652E7206A62
:10085000BDE8F09F255B000040EA0103024630B589
:100860009B0710D14FF0013400E008C208C91D1BDE
:100870009D4315EAC41FF8D013F0FF0102F8011BD5
:100880000DD01B0AF8E711F8013B002B02F8013BE1
:1008900005D011F8013B002B02F8013BF3D130BD2C
:1008A00010B5431C02E010F8011B71B18107FAD1A9
:1008B0004FF0013202C88C1A8C4314EAC211F9D0ED
:1008C000C01A0A0603D0C01E10BDC01A10BD0A040B
:1008D00001D0801E10BD0902FCD0401E10BD032AAD
:1008E00040F2308010F0030C00F0158011F8013B4D
:1008F000BCF1020F624498BF11F801CB00F8013B34
:1009000038BF11F8013BA2F1040298BF00F801CBF7
:1009100038BF00F8013B11F0030300F07382083A7E
:10092000C0F0088051F8043B083A51F804CBA0E825
:100930000810F5E7121D5CBF51F8043B40F8043B7A
:10094000AFF30080D20724BF11F8013B11F801CBAF
:1009500048BF11F8012B24BF00F8013B00F801CB80
:1009600048BF00F8012B70474FF0000200B5134656
:1009700094469646203922BFA0E80C50A0E80C50BF
:10098000B1F12001BFF4F7AF090728BFA0E80C5070
:1009900048BF0CC05DF804EB890028BF40F8042B69
:1009A00008BF704748BF20F8022B11F0804F18BFD6
:1009B00000F8012B704700004FF0013C50F8042B69
:1009C00051F8043B9A4221D1A2EB0C03934313EA62
:1009D000CC1317D150F8042B51F8043B9A4215D18F
:1009E000A2EB0C03934313EACC130BD150F8042B66
:1009F00051F8043B9A4209D1A2EB0C03934313EA4A
:100A0000CC13DBD04FF00000704700BFD01A01BA02
:100A1000B1FA81F101F0180122FA01F0CB40C1F1E5
:100A20002001DBB2C0B2C01A2CFA01F3D11A9143F3
:100A300011EAC311E6D17047704770477047000054
:100A4000004870475C0D0020704770477047704742
:100A500038B504460A4600206946AFF300800028F6
:100A600008BF38BD02460099204600F001FA012077
:100A700038BD012000F01EBEF8B5AFF3008005467A
:100A800000200C46102000BF0646A819A0420DD930
:100A9000324669460020AFF30080070008BF00F02F
:100AA00009FE0098A04218BF0546C419FFF7C8FF09
:100AB00005600746F01D20F007004619284600F0A3
:100AC0000AF8B44208BFF8BDA21B31463868BDE839
:100AD000F84000F0CDB900210160C0E90110704775
:100AE0001020704709684A0501D540B27047C90512
:100AF000FCD500B2704709684A0501D5C0B27047FD
:100B0000C905FCD580B270472DE9F0470D469946DE
:100B10009246044600F124080168880604D5E0697D
:100B200021F01001216000E00120A84201DD471BF7
:100B300000E00027A1697A1902EB0900081AA061F8
:100B40002078C00602D42046FFF7ECFC002608E01F
:100B5000D4E901211AF806009047206A401C761C4F
:100B600020624E45F4DB2078C0060AD52046FFF708
:100B7000D9FC06E0D4E9012130209047206A401CCE
:100B80002062381EA7F10107F4DC07E0D4E9012157
:100B900018F805009047206A401C2062281EA5F125
:100BA0000105F3DC2046FFF7D3FC2078000602D5D0
:100BB0000220BDE8F0870120FBE711680268006AA7
:100BC000530501D508700AE0D30501D5088006E079
:100BD000130603D5C217C1E9000200E00860012036
:100BE0007047000001694A1C02610878704700B52F
:100BF0008FB0CDE901310021059105497944CDE956
:100C0000031011466846FFF763FD0FB000BD0000FA
:100C1000E5FFFFFF0A6802F8010B0A607047D1E99F
:100C200000239A4202D2531C0B601070704710B51B
:100C3000436913B1AFF3008001E0FFF79AFC012094
:100C400010BD127800F124010A7000224A700122BE
:100C5000EDE711684FF0FF32E9E700002DE9FF5F93
:100C600015468A460446DFF8AC80F8440027D8E9E8
:100C700000103E46CDE9001010E03AF816106A4622
:100C800002A800F0F7FC411C07D02178890603D5A3
:100C9000E269391891420DD80744761C2078800605
:100CA00002D5E069B84205DDAE42E6DB3AF816004F
:100CB0000028E2D1A069C01BA0612046FFF732FCEA
:100CC000D8E90010CDE90010002017E03AF818101C
:100CD0006A4602A800F0CEFCB0F1FF3F81460BD07F
:100CE00000250DF1080B05E0D4E901211BF80500F2
:100CF00090476D1C4D45F7D308F10100B042804686
:100D0000E4DB206A384420622046FFF721FCBDE87E
:100D1000FF9F0000AE5500002DE9F0418046D21D36
:100D200022F007020025D2E90002F52915A614D009
:100D3000011E72F1000106DA0023D0EB030063EB21
:100D4000020211A608E0D8F800108B0701D50FA603
:100D500002E0490701D50EA601251146002408F13D
:100D6000240704E000F09EF830323A55641C50EA43
:100D70000102F7D12B46324621464046BDE8F041FC
:100D8000FFF7C2BE000000002D0000002B00000095
:100D90002000000030B4002100F1240408E002F03B
:100DA0000705D208303542EA4372DB086554491C16
:100DB00052EA0305F3D10468002310A2250707D5E2
:100DC000A40600D421B1C46901230DA2641EC4612C
:100DD00030BCFFF799BE10B5044621461068FFF7F6
:100DE0008AFE02462046BDE810400023D2E7D21D0D
:100DF00022F00701D1E90023CCE700000000000049
:100E00003000000010B5203AC0F00B80B1E8185057
:100E1000203AA0E81850B1E81850A0E81850BFF4E4
:100E2000F5AF5FEA027C24BFB1E81850A0E8185083
:100E300044BF18C918C0BDE810405FEA827C24BFD7
:100E400051F8043B40F8043B08BF7047D20728BF65
:100E500031F8023B48BF11F8012B28BF20F8023BB4
:100E600048BF00F8012B704700487047540D002020
:100E7000034640688C46002818BF88423CBF0346A2
:100E80004068F8D318681844884207D00CF1030072
:100E900020F00700001D411A521A0146081D0A6081
:100EA000FFF76BBA30B5B0F10A024FEA900E71F15C
:100EB00000034EEA817EB0EB0E0061EB91014FEA38
:100EC000101E4EEA017E10EB0E0041EB11114FEAAD
:100ED000102E4EEA016E10EB0E0041EB11214FEA8D
:100EE000104E4EEA014E10EB0E0041EB114140183E
:100EF00041F100014FEAD00040EA41704FEAD101D0
:100F000010EB80054FEA810444EA907444EB01043D
:100F10006D1944EB0404521BA3414FF0000348BF7A
:100F20000A3200D530BD401C41F1000130BD704790
:100F30002DE9FF4F0C461E464FF0FF378BB0D2E92C
:100F40000001DDF860800A908A46C1F30A5505B9B0
:100F50003D46002108464FF00000BAF1000F00F4B2
:100F6000400005DA00EB80004FF4400101EA500038
:100F70004FEA9059B9F1010F00DDB9460A9850EADD
:100F80004A000ED044F61050A5F2FF3545432F1409
:100F9000B8F1000F1ED07542291E1EDDC9F10002F6
:100FA0001CE0B8F1010F4FF0000001D0302103E048
:100FB000F24305E02154401CB042FBDB30460022E6
:100FC000002121540B99C1F80880C1E900200FB01D
:100FD000BDE8F08FBD1B6D1CDEE74A4600DA6942B2
:100FE00006A800F0E1FB06AB93E8070003AB83E83B
:100FF000070050460A9900F0A5FC8DE80700A0F50F
:1010000000501F3800900398002D0ADD42F21F01A6
:101010004A460844002303A90390684600F00EFFE7
:1010200009E0A0F500504A461F38002303A90390A9
:10103000684600F018FF8DE807000004000C03D09C
:101040004FF0FF30410800E01046B8F1000F03D028
:101050000022009215461EE0751E05D4FFF722FF00
:10106000303262556D1EF9D5B3460122084302D0D5
:1010700000227F1C04E02078302801D100227F1E4E
:10108000002A099784D01DE0112D07DAFFF70AFF27
:10109000303262556D1C50EA0102F5D1084302D08E
:1010A0000098C8B10EE00021681E05E0235C625C78
:1010B00063542254401E491C8142F7DBAB46A81BF7
:1010C000401E0990002004F80B000B98099AC0F804
:1010D0000880C0E9002B7AE711264FF0000857E797
:1010E0002DE9F04F88460446D21D22F0070191B049
:1010F000D1E90001CDE90A0104F0DBFA02460B98C0
:10110000C00F01D02D2007E02068810701D52B20DA
:1011100002E0202101EAC000032A099001D0072A39
:1011200005DB03464146204600F0FEFA0BE120783D
:10113000800601D5E06900E00620B8F1650F814620
:1011400006D0B8F1660F18D0B8F1670F70D131E052
:101150000020B9F1110F009001DB112301E009F12A
:1011600001030AAA01A90CA8FFF7E2FEDDE90C7051
:10117000002609F10105834647E001204B46009017
:101180004FF000470AAA01A90CA8FFF7D1FEDDE93C
:101190000DB00C995D46002610B909F101000D183B
:1011A000B9EB050003D4C0F1FF3609F10105A5EB49
:1011B00009002BE0B9F1010F01DA4FF0010900201D
:1011C000B9F1110F0090484601DD112300E00346FC
:1011D0000AAA01A90CA8FFF7ABFEDDE90C704D4689
:1011E00000268346207800070AD4AB4500DA5D4626
:1011F00001A8012D04DD411911F8011C302907D087
:101200004F4502DA17F1040F04DA012082460FE09D
:101210006D1EEEE7002F02DCED1B3E4403E0781C60
:10122000A84200DD7D1CB81B00F1010A4FF0004709
:101230002078000703D4AA4501DB4FF0FF3A0021D4
:10124000B7F1004F0DF143088DF8431024D0022070
:101250002B23002F01DA7F422D230A21021EA0F149
:10126000010000DC5FB197FBF1FC97FBF1F201FBA1
:101270001C7C17460CF1300C08F801CDEEE7A8F104
:10128000010003702188090501D5452100E0652191
:10129000A0F1010800F8011C09980FA9A1EB0807AB
:1012A000FF1D00B10120411901EBEA70A16938442A
:1012B000081A401EA0612078C00602D42046FFF71D
:1012C00031F9099828B1D4E901219047206A401CDE
:1012D00020622078C00622D52046FFF723F91EE0C1
:1012E000002E04DBB34502DD01A8805D00E0302064
:1012F000D4E901219047206A401C2062761CAAF1A3
:1013000001005FEA000A0AD100F00AFAC068016829
:10131000405CD4E901219047206A401C2062281ECD
:10132000A5F10105DCDC07E0D4E9012118F8010B87
:101330009047206A401C2062381EA7F10107F3DCA9
:101340002046FFF705F9032011B041E62DE9F04FE3
:1013500004460D46D21D22F0070089B0D0E900975F
:101360004846394604F0A5F90246F80F01D02D236E
:1013700007E02068810701D52B2302E0202101EA44
:10138000C0038DF820300BB1012000E00020032ABB
:10139000824601D0072A04DB2946204600F0C4F922
:1013A0003FE12078800601D40D2500E0E569C7F310
:1013B0000A560D2D49DA00214FEA175B08464FF017
:1013C0000000002F00F4400007DA00EB80004FF42B
:1013D000400100EBD07001EA60008115012901DDB8
:1013E0004FF0FF3100224FEA850CBCF1180F06D3F5
:1013F0001346ACF118004FF08052C24003E04FF4A6
:10140000801323FA0CF30CF10C0CBCF1200F04D365
:10141000ACF1200C09FA0CF001E007FA0CF00029FD
:101420004FF0004801DD18B90FE00ED140450CD354
:1014300019EB02095F4121B9404502D19F4329EAD6
:101440000209BBEB175F00D0761C2088000502D58F
:101450007B48784402E07A487844193808AA302357
:1014600002F80A30037C0AF10101002E0AF1020A97
:1014700053546A4602DC4FF0300101E04FF0310175
:101480004FF001088DF8001002D0A6F2FF3603E0FD
:1014900059EA470100D06B4E002D02DC2178090784
:1014A00004D54FF002082E218DF80110C44600210A
:1014B0000BE0C7F303433F01C35C491C6D1E02F8F8
:1014C0000830052908F1010801DA002DF1DC0021BE
:1014D0000CE000EB1973491C1B786D1E082902F8FB
:1014E00008304FEA091908F1010801DA002DF0DC93
:1014F00021688B0602D516E0A8F10108E04505DD5C
:1015000002EB080313F8013C302BF5D0B8F1000FC3
:1015100009DD02EB080313F8013C2E2B03D1090768
:1015200001D4A8F10108002D05DD3E2102F80810C4
:101530006D1E08F10108407C002E02F8080008F139
:10154000010804DA2D20764202F8080002E02B2080
:1015500002F808000A214FF47A70864208F1010867
:101560000BDB96FBF0F3303302F8083096FBF0F318
:1015700008F1010800FB136601E0642E0CDB642017
:1015800096FBF0F3303302F8083096FBF0F308F1E5
:10159000010800FB136601E00A2E06DB96FBF1F062
:1015A000303002F8080008F1010896FBF1F001FB69
:1015B0001060303002F80800A16908F1010808EB5A
:1015C000050202EB0A00081AA0612078C00602D4C6
:1015D0002046FEF7A7FF216A08AE01EB0A00206251
:1015E00004E0D4E9012116F8010B9047BAF1010A91
:1015F000F7D22078C00602D52046FEF793FF6E464C
:1016000009E016F8010B3E280FD0D4E901219047DC
:10161000206A401C2062B8F10108F2D22046FEF791
:1016200097FF09B00320BDE8F08F206A28442062AC
:1016300003E0D4E90121302090476D1EEBD3F8E799
:10164000E14D000002FCFFFF10B5436913B1AFF399
:10165000008001E0FFF702FB012010BD128800F1BD
:10166000240182840022C2840122EDE711684FF038
:10167000FF32E9E770B516460C46054600F048F81B
:10168000036893F80101012806D0FF2C0FD8185DDC
:1016900068B101202C7070BDD3F807013246214695
:1016A00003F2071303442846BDE8704018474FF083
:1016B000FF3070BD10B500F0F7F8BDE8104000F045
:1016C000EEB870477546FFF7CFFBAE46050069469A
:1016D000534620F00700854618B020B5FEF70CFEF3
:1016E000BDE820404FF000064FF000074FF0000823
:1016F0004FF0000B21F00701AC46ACE8C009ACE8A4
:10170000C009ACE8C009ACE8C0098D4670470000CC
:1017100010B500F005F8001D10BD00BF49410000E4
:1017200000487047740D00202DE9F0411F46044623
:1017300003260168072A01F4006004DB08B116A53E
:1017400005E016A503E008B115A500E015A521F0F8
:1017500010002060A069C01EA0610FB1401EA061F2
:101760002046FEF7DFFE4FB1D4E90121384690470D
:10177000206A401C2062C01C206206E0206AFAE752
:10178000D4E9012115F8010B9047761EF8D22046C6
:10179000FEF7DEFEBDE8F0814E414E006E616E0048
:1017A000494E4600696E66002DE9F04781461646AF
:1017B0008AB0354878440DC88DE80D003248784429
:1017C000801C03AC0DC884E80D0041F69B30084432
:1017D000372190FBF1F290FBF1F5A5F1800501FBBB
:1017E00012041B3C02D56442012000E00020DFF817
:1017F00098A080460027FA44AAF1BE0A0EE0E0074E
:101800000AD03246684607EB470101230AEB810103
:1018100000F029FB8DE8070064107F1C002CEED13E
:10182000194F7F44AE3F19E0E80715D007EB0410CD
:101830000DF1180A90E80E008AE80E00C068F04228
:1018400001D1981908903246012306A903A800F097
:101850000AFB03AB83E807006D10641C002DE3D185
:101860004FF0010332466946B8F1000F03A802D0D9
:1018700000F0E4FA01E000F0F6FAC9E90001C9F865
:1018800008200AB0BDE8F087104B000010B50446F0
:10189000AFF300802046BDE81040FEF718BD0028D9
:1018A00001D000F029B8704710B5012805D00021FB
:1018B00003A000F027F8012010BD09A1F8E70000FF
:1018C00053494752544D454D3A204F7574206F6629
:1018D0002068656170206D656D6F72790000000091
:1018E0003A2048656170206D656D6F727920636F75
:1018F000727275707465640001491820ABBEFEE712
:101900002600020070B505460C460A2000E06D1C5A
:1019100000F011F835B128780028F8D102E0641CF5
:1019200000F009F814B120780028F8D1BDE8704023
:101930000A20AFF3008008B569468DF80000032047
:10194000ABBE08BD5FEA400C08BF91F0000F4FEA44
:101950008C234FEAC12243EA51514FEA1C5018BF71
:1019600000F5F0404FEA300018BF41F000415FEA57
:101970006C5C00F02980BCF1FF3F08BF40F0804064
:101980007047130C06BF12044FF0100C4FF0000C00
:10199000130E04BF12020CF1080C130F04BF120146
:1019A0000CF1040C930F04BF92000CF1020CD30F46
:1019B00004BF52000CF1010C11464FF00002A0F1DF
:1019C0001F00A0EB0C00704711F0004F08BF7047DC
:1019D00031F000413FF4D5AF0B0C06BF09044FF0C6
:1019E000100C4FF0000C0B0E04BF09020CF1080C98
:1019F0000B0F04BF09010CF1040C8B0F04BF89000D
:101A00000CF1020CCB0F04BF49000CF1010CCCF11E
:101A10002003A0EB0C0022FA03F302FA0CF241EAD5
:101A2000030100F10100704720F07F4C80EA0300C1
:101A300023F07F47ACEB070303F57C5300F0004035
:101A400003F1FF032DE980494FEA154B09B44FEA32
:101A5000144325EA0B4E24EA03480FF2042606EB52
:101A6000132749083E785FEA320203FB0667C7F591
:101A7000000707FB06F64FEA54374FEAD64606F151
:101A8000020607FB066CCCF1005C4FEA1C472CEA0F
:101A9000074C07FB06F40CFB06F504EB15464FEA72
:101AA000961634BF00204FF000404FEAD13706FBB6
:101AB00007FC4FEA1C4C0CFB0BF7D21B03FB0CF78B
:101AC00061EB07010CFB0EF7B0EB074072EB17421E
:101AD0000CFB08F734BFA2EB0742B2EB074261EB05
:101AE00017414FEA0C444FEA910706FB07FC4FEA07
:101AF0001C4C0CFB0BF7B0EBC74072EB573203FBEF
:101B00000CF734BFA2EBC742B2EBC74261EB5731CF
:101B10000CFB0EF7B0EBC70072EB57720CFB08F72B
:101B200034BFA2EBC702B2EBC70261EB5771039F50
:101B30004FEA816141EA921104EBCC044FEAD137BC
:101B40004FEA826206FB07FC42EA90124FEA80608D
:101B50004FEA1C4C0CFB0BF7D21B03FB0CF761EBA1
:101B600007010CFB0EF7B0EB074072EB17420CFBC2
:101B700008F734BFA2EB0742B2EB074261EB174113
:101B80004FEA8C554FEA910704EB9C2406FB07FCB7
:101B90004FEA1C4C0CFB0BF7B0EBC74072EB573213
:101BA00003FB0CF734BFA2EBC742B2EBC74261EBB9
:101BB00057310CFB0EF7B0EBC70072EB57720CFB02
:101BC00008F734BFA2EBC702B2EBC70261EB577153
:101BD00015EB4C254FEA816141EA92114FEA82628E
:101BE0004FEAD13742EA901206FB07FC44F10004A9
:101BF0004FEA80604FEA1C4C0CFB0BF7D21B03FB37
:101C00000CF761EB07010CFB0EF7B0EB074072EB32
:101C100017420CFB08F734BFA2EB0742B2EB0742B6
:101C200061EB174115EB1C154FEA813141EA9241F6
:101C30004FEA823242EA90424FEA80304FEA0C7615
:101C400044F1000448EA03434EEA0B484FF0000E0B
:101C5000B2EB080C71EB030724BF624639464EEB2A
:101C60000E0E4FF0000B0018524149414BEB0B0B8D
:101C7000B2EB080C71EB03077BF1000B24BF62464B
:101C800039464EEB0E0E4FF0000B00185241494101
:101C90004BEB0B0BB2EB080C71EB03077BF1000B6A
:101CA00024BF624639464EEB0E0E51EA020718BFBA
:101CB00046F0010616EB0E7655F1000254F10001D4
:101CC00003D5BDE88901BDE80088BDE88901BDE80C
:101CD0000048B619524141EB0101A3F101037047DD
:101CE00080807F7E7D7C7B7A797877767675747359
:101CF000727171706F6E6E6D6C6C6B6A6A69686818
:101D0000676666656464636362616160605F5F5EAD
:101D10005E5D5D5C5C5B5B5A5A5959585857575623
:101D20005655555554545353525252515150505088
:101D30004F4F4F4E4E4D4D4D4C4C4C4B4B4B4A4ADA
:101D40004A4949494848484747474746464645451E
:101D50004544444444434343434242424241414157
:101D6000002B9C4630D477002BD01CB54FEA3707A8
:101D700003B44FF010004FF01001BAF1000F06D07D
:101D8000BCF1000FDCBF40F0080040F008014FF04C
:101D900000000FBCBDE810400BF1010BBBF1010FBF
:101DA00008BF5FEA170722BF12F1010211F101011A
:101DB0004FF0004143F1000300F0004043EA00000F
:101DC0007047F9D35708D0E746EA064613F1400FAB
:101DD0004FEA16461FDD13F1200FDFBF16430A46F8
:101DE000002120335B42BED0C3F1200746EA0646FD
:101DF00002FA07F74FEA164646EA0706C3F120073C
:101E000022FA03F201FA07F721FA03F14FF0000377
:101E100042EA0702A7E746EA020646EA06464FEA12
:101E2000164646EA0106BCBF46EA0646360C4FF0A7
:101E300000034FF000024FF0000194E72DE9804CC1
:101E40009A46934670B491E8380007C831EA400CCE
:101E500048BF34EA430C03D5FFF7E6FDFFF780FFE8
:101E6000F0BCBDE8008C2DE9804C9A46934670B4D6
:101E700091E8380007C810F0804F08BF13F0804F7A
:101E800003D100F005F8FFF76BFFF0BCBDE8008C54
:101E900020F07F4780EA030023F07F4C07EB0C0320
:101EA000A3F57C5300F00040A3F1FE0392F0000F75
:101EB00000F0B38095F0000F00F077802DE9014924
:101EC0004FEA11404FEA144621EA004800FB06FCA5
:101ED00024EA064708FB06F607FB08F800FB07F7AD
:101EE00018EB06484CEB164C4FEA124B18EB074820
:101EF0004FEA15464CEB174022EA0B4E0BFB06FC53
:101F000025EA06470EFB06F607FB0EFE0BFB07F75E
:101F10001EEB064E4CEB164C4FF000061EEB074E28
:101F20004CEB174B18EB0B0840F1000018EB0E0BB5
:101F300058EB000840F100008F1A4FF000013CBF41
:101F4000C943661B14BFB5EB040C00213CBFC94359
:101F5000F61B4FEA17444EEA8E0E27EA04454FEA75
:101F60001C4704FB07622CEA074C05FB07F70CFB38
:101F700005F604FB0CFC16EB074642EB174216EB8A
:101F80000C4642EB1C421BEB060658EB0202414199
:101F900046EA9E0601D5BDE80189B619524141EBDA
:101FA0000101A3F10103BDE801894FEA14454FEA9D
:101FB000114724EA054621EA074C05FB07F406FB16
:101FC00007F70CFB06F105FB0CFC11EB074144EB9A
:101FD00017444FEA124711EB0C4144EB1C4422EA30
:101FE000074C05FB07F206FB07F70CFB06F605FBA3
:101FF0000CFC16EB074642EB174216EB0C4642EB85
:102000001C456A1854F1000148BF7047B619524187
:1020100041EB0101A3F10103704795F0000F37D0A8
:102020004FEA11424FEA144721EA024624EA074CDC
:1020300002FB07F106FB07F70CFB06F402FB0CFCA6
:1020400014EB074441EB17414FEA154714EB0C44DE
:1020500041EB1C4125EA074C02FB07F506FB07F79D
:102060000CFB06F602FB0CFC16EB074645EB17458E
:1020700016EB0C4645EB1C42121951F1000148BF0A
:102080007047B619524141EB0101A3F101037047BA
:102090004FEA14454FEA114724EA054621EA074C66
:1020A00005FB07F106FB07F70CFB06F24FF00006F5
:1020B00005FB0CFC12EB074241EB174112EB0C4203
:1020C00051EB1C4148BF7047921841EB0101A3F14D
:1020D00001037047FEE70000014800F0E5B800008A
:1020E000EC080020014800F0DFB80000EC080020F8
:1020F000014800F0AFBB0000940C0020014800F044
:10210000A9BB0000F40C002001681823CAB2103AE1
:10211000B2FBF3F2054B6FF30901032A9B5CC36525
:1021200000D9091D8165084670470000C16100089B
:1021300010B5014600208B698A6A4FF0C07453B114
:10214000B3F5005F15D072B1012A0CD0022A0AD073
:10215000032A09D104E01AB1012A06D0022A03D1C8
:10216000C96AC90100D5012010BDC96AA142FAD0CF
:1021700010BD002AF7D0012AF2D0022AF3D0032A98
:10218000F3D010BD30B50468256825F4802525609E
:10219000046863608368402B036803D0996000681B
:1021A000C26030BD9A600068C16030BD704772B6D1
:1021B000FEE7704770B590F82040012C05D0022C46
:1021C00003D0416A41F4802128E0046809B32469FE
:1021D000A40720D04FF4D874056804EB01142D59DE
:1021E00015F00405956005682D591AD0ED08556065
:1021F00005682C5904F00204D4604FF4DA740568C1
:1022000004EB01142E5906F00F06082E0CD30825F6
:102210000DE0E468DCE7416A41F40011416201200D
:1022200070BD6D0D1560E3E72D5905F00F051561C3
:1022300005682D59C5F30725956105682C59240CAF
:1022400054614FF4DC72046802EB0112A4581C7054
:102250000468A458240A5C700468A458240C9C7078
:102260000468A258120EDA704FF4DE72046802EBB2
:102270000112A4581C710468A458240A5C710468F3
:10228000A458240C9C710468A258120EDA710068DC
:1022900029B1016941F020010161002070BDC168D0
:1022A00041F02001C160F8E72DE9F05F05460068C4
:1022B00000244669D0F804908768D0F80CB0D0F8B4
:1022C00010A0D0F81880F10748D0F90714D00121E8
:1022D0008160B80703D5284600F05AFA0CE0780769
:1022E00002D54FF4006407E0380702D54FF480545C
:1022F00002E0284600F04BFAF80516D529684FF49D
:1023000080708860B80503D5284600F043FA0CE0D9
:10231000780502D544F4005407E0380502D544F4AA
:10232000804402E0284600F034FAF80316D5296804
:102330004FF480308860B80303D5284600F02CFAAB
:102340000CE0780302D544F4004407E0380302D5DA
:1023500044F4803402E0284600F01DFA300707D527
:102360005FEACB6004D52968102044F40074C8608B
:1023700070074FF0080707D55FEA0B7004D528688F
:10238000C760284600F060F9B00706D52868C06825
:10239000800702D0284600F059F9700607D55FEA99
:1023A000CA6004D52968102044F480640861B0062E
:1023B00007D55FEA0A7004D528680761284600F04F
:1023C000E3F9F00606D528680069800702D02846A0
:1023D00000F0DBF9B00308D55FEAC96005D52968CC
:1023E00010204860284600F0D1F9F00307D55FEAD5
:1023F000097004D528684760284600F0CEF93004FB
:1024000046D55FEA497040D5F00504D55FEAC8704B
:1024100001D044F00104B00504D55FEA887001D50D
:1024200044F00204700504D55FEA487001D544F019
:102430000404300529D518F0700F26D008F070007C
:10244000402815D006DC102809D020280AD03028D2
:1024500016D10AE050280ED0602811D10EE044F0C9
:1024600008040DE044F010040AE044F0200407E002
:1024700044F0400404E044F0800401E044F480743B
:102480002868816921F07001816129680420486011
:10249000002C05D0686A204368622846FFF789FE51
:1024A000BDE8F09F70B5040003D094F8200010B18F
:1024B00004E0012070BD204600F082F82068016829
:1024C00041F00101016000F053FC0546052604E0DF
:1024D00000F04EFC401B0A2811D820684068C00755
:1024E000F6D02068016821F00201016000F040FC94
:1024F00005460BE000F03CFC401B0A2806D9606A48
:1025000040F40030606284F82060D2E720684068C0
:102510008007EFD4207E0128206801683DD021F09B
:1025200080010160607E01282068016838D021F0B8
:1025300040010160A07E01282068016833D021F0AD
:1025400020010160E07E0128206801682ED041F062
:1025500010010160207F01282068016829D021F046
:1025600008010160607F01282068016824D021F003
:1025700004010160D4E902010843D4E904121143C3
:1025800008436168491E08432168C86100206062F1
:10259000012084F82000002070BD41F08001C0E7D8
:1025A00041F04001C5E741F02001CAE721F01001E8
:1025B000CFE741F00801D4E741F00401D9E700007A
:1025C00010B586B0044614216846FEF7CDF91B49C4
:1025D000206888422FD11A480021026842F0007218
:1025E0000260006800F0007005901548103802681D
:1025F00042F0080202600068022200F00800059024
:102600000320CDE90210CDE90002092004906946BB
:102610000C4800F0A3FA00221146132000F0C6FD7A
:10262000132000F0B5FD00221146142000F0BEFD7D
:10263000142000F0ADFD06B010BD000000640040A5
:1026400040380240000C02407047000030B593B0A3
:102650000021019101AB03AA0291FFF7ABFD08B184
:10266000FFF7A5FD079A059838B125A0DDF81010F1
:1026700003F0C6F8069818B111E02CA00399F7E70B
:1026800035A003F0BDF8002401AD05E0295D34A0BC
:1026900003F0B6F8641CE4B20798A042F6D832A062
:1026A00003F0AEF80598002804D00498009003D1F8
:1026B0002EA302E00398F9E72DA32EA24FF02001EC
:1026C0000AA8FDF713FF08230AAA1021022002F02E
:1026D00023FA2BA220210AA8079BFDF707FF082356
:1026E0000AAA2021022002F017FA079801A9C2B213
:1026F000302002F07FFA02F0CBFA13B030BD0000B8
:1027000043414E206D657373616765207265636533
:10271000697665643A2045787449443D30782530BF
:10272000385820444C433D256400000043414E206E
:102730006D6573736167652072656365697665644D
:102740003A2053746449443D30782530335820444E
:102750004C433D2564000000446174613D0000006D
:1027600025303258200000000D0A00005354440068
:102770004558540049443A202573202530365800E6
:102780004C656E3A2564000070477047704770478B
:102790007047704770477047704770472DE9F041A8
:1027A0000446876D00F0E4FA064694F835000025EB
:1027B000022806D08020606584F834500120BDE8EE
:1027C000F0812068016821F01601016020684169EC
:1027D00021F080014161206C08B9A06C20B1206813
:1027E000016821F0080101602068016821F0010101
:1027F00001600CE000F0BCFA801B052807D92020FE
:102800006065032084F8350084F83450D7E72068E9
:102810000068C007EED194F85C103F208840B86093
:10282000012084F8350084F834500020C7E790F880
:102830003510022903D08021416501207047052110
:1028400080F835100068016821F001010160002066
:10285000704700002DE9F84304464FF00009CDF819
:10286000009063484FF41651A56D0068B0FBF1F776
:102870002E6894F85C10082000FA01F131420FD064
:1028800021680A6852070BD50A6822F004020A6020
:1028900094F85C108840A860606D40F001006065AD
:1028A00094F85C104FF0010808FA01F0304208D0AB
:1028B00021684969090604D5A860606D40F00200EE
:1028C000606594F85C1004208840304208D021688C
:1028D0000968890704D5A860606D40F00400606550
:1028E00094F85C1010208840304218D021680968A4
:1028F000090714D5A86020680168490304D5006859
:10290000000308D5A16C07E00168C90503D401687C
:1029100021F008010160216C09B12046884794F834
:102920005C1020208840304231D021680968C906F7
:102930002DD5A86094F8350005282068016806D0D8
:10294000490347D5006800031DD4616C1CE021F0E9
:10295000160101602068416921F080014161206C0D
:1029600008B9A06C20B12068016821F0080101605D
:1029700094F85C103F208840A86084F8358084F883
:102980003490216D1FE0E16B09B120468847606DEE
:1029900000282BD0606DC00714D0052084F83500C6
:1029A0002068016821F0010101600098401C00903E
:1029B000B84203D820680068C007F6D184F8358093
:1029C00084F83490E16C002910D001B02046BDE8B5
:1029D000F04308470168C905D5D4016821F010010A
:1029E000016084F8358084F83490CCE7BDE8F88342
:1029F000300000202DE9F041044600F0B9F9064608
:102A00005CB1022084F83500002584F83450206839
:102A1000016821F0010101600DE00120BDE8F081B5
:102A200000F0A6F9801B052805D920206065032049
:102A300084F83500F2E720680068C007F0D122680A
:102A4000116820480140D4E901031843D4E9033652
:102A50003343184363691843A3691843E369184370
:102A6000236A18430843616A042903D1D4E90B138C
:102A700019430843106020684069666A20F0070126
:102A800030460E43012704280CD1A06A0643E06AB1
:102A900040B12046FFF74CFB20B14020606584F830
:102AA0003570BAE7206846612046FFF72DFB94F8A1
:102AB0005C203F2191408160656584F8357000207D
:102AC000ACE700003F8010F02DE9F0410446866D30
:102AD00090F83400002501280DD0012084F834003E
:102AE00094F835700020012F07D084F834000225B7
:102AF0002846BDE8F0810220FBE7022784F8357004
:102B000060652046FFF73EFB94F85C103F2088404C
:102B1000B0602068016841F016010160206C20B1AE
:102B20002068016841F0080101602068016841F0F7
:102B300001010160DCE7000070B5044600F018F9FF
:102B40000546601C02D004480078044400F010F9E7
:102B5000401BA042FAD370BD240000202DE9F84F9D
:102B6000DFF8BCA10022012503264FF00F090AF16E
:102B7000040BAAF1040E00BF0B6805FA02F423400F
:102B8000A34270D10F7907F00307012F01D0022F64
:102B900016D187684FEA420806FA08FC27EA0C07B4
:102BA000D1F80CC00CFA08FC4CEA070CC0F808C0BD
:102BB0004768A7430C79C4F3001494403C43446035
:102BC0000C79E443A4070AD0C4684FEA420C06FA21
:102BD0000CF7BC438F6807FA0CF72743C7600C79E2
:102BE00004F00304022C12D1D40800EB840CDCF8AE
:102BF00020405707FF0E09FA07F824EA0804D1F825
:102C0000108008FA07F848EA0408CCF82080046825
:102C10004FEA420C06FA0CF7BC430F7907F00307A2
:102C200007FA0CF7274307604C6814F4403F70D054
:102C30003C4C276847F480472760246822F003074C
:102C400004F480440094384C07EB040CDCF808488A
:102C500097074FEA177809FA08F7BC43334FB84291
:102C600002D1002724E054E0314FB84201D10127BE
:102C70001EE0304FB84201D1022719E02E4FB84272
:102C800001D1032714E02D4FB84201D104270FE0F2
:102C90002B4FB84201D105270AE02A4FB84201D193
:102CA000062705E0284FB84201D1072700E0082792
:102CB00007FA08F72743CCF80878DAF800405746B7
:102CC000D1F804C09C435FEACC2C00D51C433C6087
:102CD000DBF800405F46D1F804C09C435FEA8C2CCF
:102CE00000D51C433C60DEF800407746D1F804C0B4
:102CF0009C435FEA8C3C00D51C433C60084F083F76
:102D00003C68D1F804C09C435FEACC3C00D51C432E
:102D10003C60521C102AFFF42FAFBDE8F88F000072
:102D2000083C0140443802400030014000000240AD
:102D30000004024000080240000C02400010024063
:102D40000014024000180240001C024000690840C4
:102D500000D001207047426921EA02030A4043EA99
:102D60000241816170470AB1816170470904FBE744
:102D700001488068704700002400002070B50400FE
:102D800025D094F83D00002520B984F83C50204619
:102D900000F04EF9242084F83D002068016821F0FD
:102DA000010101602068016841F400410160206870
:102DB000016821F40041016000F0C4FA4D4A6168E5
:102DC000914201D84C4900E04C49884201D201208F
:102DD00070BD4B492368B0FBF1F15E6826F03F06F9
:102DE0000E435E606368934206D94FF4967359436D
:102DF0004FF47A73B1FBF3F12368491C1E6A26F085
:102E00003F06314319626168914210D84900401E63
:102E1000B0FBF1F2521CC2F30B02042A01D20420CF
:102E200022E0B0FBF1F0401CC0F30B001CE0A268F4
:102E3000F2B301EBC10303EB0116431EB3FBF6F340
:102E40005B1C43F480431B0549D092B301EBC102E4
:102E500002EB0111401EB0FBF1F0401CC0F30B006F
:102E600040F4804040F400402168CA694CF6FF738A
:102E70009A431043C861D4E90710014320680268EF
:102E800022F0C00211430160D4E90301014320682C
:102E9000826848F2FF339A4311438160D4E9050107
:102EA00008432168CA6822F0FF021043C86001E0AD
:102EB0000EE016E02068016841F001010160256420
:102EC000202084F83D00256384F83E50002070BD2A
:102ED00001EB4106431EB3FBF6F35B1CB3E7012095
:102EE000C2E701EB4101401EB0FBF1F0401CC0F312
:102EF0000B00B7E7A086010080841E0000093D009A
:102F000040420F002DE9F84F1F4690468A4604467E
:102F1000DDF82890FFF72CFF054694F83D002028A7
:102F20007FD11923012240492046009501F024FA5F
:102F3000002876D194F83C00012872D0012084F852
:102F40003C0020680168C90703D1016841F0010114
:102F500001602068016821F400610160212084F88B
:102F60003D00102084F83E0000262664C4F824802A
:102F70006785608D20852D48E0622B464A46514684
:102F8000204601F07FF990B920684169806900907E
:102F900036E02A464946204601F094FA50B1206CAA
:102FA000042804D12068016841F400710160012007
:102FB000BDE8F88F606A216800780861606A401C8B
:102FC0006062618D491E6185218D491E89B221850E
:102FD00022685369DB435B070BD451B10078106161
:102FE000606A401C6062608D401E6085208D401EBE
:102FF00020852A464946204601F092F90028CED184
:10300000208D0028C5D154F83D0B016841F40071B2
:103010000160202004F81E09E67766770020C7E7E4
:10302000FFE70220C4E70000020010000000FFFFDD
:10303000F0B587B0044614216846FDF795FC276873
:10304000234CDFF888C000222149122303250426DF
:1030500020481034674518D10F6847F002070F6009
:10306000096802AF01F002010591C021CDE900130A
:1030700087E864006946FFF771FD206840F400109E
:103080002060206800F400101CE0DFF84CC06745A9
:1030900019D10F6847F002070F60096802AF01F00D
:1030A000020105914FF44061CDE9001387E8640007
:1030B0006946FFF753FD206840F4800020602068D7
:1030C00000F48000059007B0F0BD000000540040FF
:1030D0003038024000040240005800400248816835
:1030E0000278114481607047240000200B4810B51D
:1030F000016841F400710160016841F48061016080
:10310000016841F480710160032000F06FF80F2026
:1031100000F006F800F024F8002010BD003C02404A
:1031200070B50D4D04464FF47A712878B1FBF0F07C
:103130000A490968B1FBF0F000F00AFB48B9102C0D
:1031400007D200222146501E00F030F800206C60AB
:1031500070BD012070BD0000240000203000002060
:103160000A4808B5016841F480410160006800F434
:10317000804000900548001F016841F080510160C7
:10318000006800F08050009008BD00004438024004
:10319000002809DB00F01F02012191404009800056
:1031A00000F1E020C0F8001170470000F0B40E4BB1
:1031B0001B680C46C3F30223C3F10705042D00D995
:1031C0000425191D072901D2002300E0DB1E01267A
:1031D00006FA05F1491E214099409E40761E164090
:1031E0003143F0BC02F07DBA0CED00E0064900F07E
:1031F000070208684FF6FF03184040EA0220034A1E
:1032000010430860704700000CED00E00000FA0574
:103210002DE9F0470E46050065D0DFF81481D8F897
:103220000000F7B200F00700B04207D288F8007043
:10323000D8F8000000F00700B04254D128683D4C97
:10324000810712D5400703D5206840F4E050206084
:103250002878000703D5206840F46040206020688B
:10326000A96820F0F000084320602878C0072DD01E
:10327000304968680839012812D0022813D0032881
:1032800011D00968890700292DDA216821F003018E
:1032900001432160FFF76CFD814641F2883A0EE060
:1032A00009688903EFE709688901ECE7FFF760FD2A
:1032B000A0EB0901514502D90320BDE8F087206841
:1032C000696800F00C00B0EB810FEFD1D8F8001066
:1032D000404601F00701B14207D90770006800F0CD
:1032E0000700B04201D00120E7E72878400705D564
:1032F0002068E96820F4E05008432060287800073F
:1033000006D52068296920F4604040EAC1002060A9
:1033100000F038F82168084AC1F30311515CC84035
:103320000649086006480068FFF7FAFE0020C4E777
:10333000003C024008380240C9610008300000200B
:10334000280000200448054900680968044AC1F3C0
:103350008221515CC840704730000020083802408C
:10336000D96100080448054900680968044AC1F3A6
:103370004231515CC840704730000020083802409C
:10338000D9610008154810B5006810F00C02144807
:1033900013D04110042A0FD0082A0ED10F4C241F3D
:1033A0002268236802F03F025B0207D52068C0F361
:1033B0008810A0FB010106E0084610BD2168C1F39A
:1033C0008811A1FB00010023FCF7FEFF2168C1F377
:1033D0000141491C4900B0FBF1F010BD0838024022
:1033E0000024F4002DE9F84F04006ED02078DFF8B7
:1033F0004C93C007A9F104054AD009F10400016803
:10340000C1F38101012908D00068C0F381000228BE
:103410000AD1D9F80000400206D52868800337D5C4
:1034200060680028E1D033E06068B0F5803F10D0DC
:10343000B0F5A02F286810D020F4803028602868CC
:1034400020F4802028606068A8B1FFF791FC064650
:103450000DE0286840F48030F4E740F480202860D4
:10346000F7E700BFFFF784FC801B642873D8286847
:103470008003F7D50CE0FFF77BFC064605E000BFB4
:10348000FFF776FC801B6428F0D828688003F7D407
:103490002078DFF8AC8280074FF0000A3ED5A748BD
:1034A000001D016811F00C0F08D00068C0F3810006
:1034B00002280BD1D9F80000400207D42868800701
:1034C00016D5E068012800D112E033E1E068B8B118
:1034D0000120C8F80000FFF74BFC064605E000BFDE
:1034E000FFF746FC801B0228C0D828688007F7D564
:1034F0002868216920F0F80040EAC10028600DE04A
:10350000C8F800A0FFF734FC064604E0FFF730FCE3
:10351000801B02281FD828688007F7D4207800076E
:1035200022D5864F87486169703771B101210160EA
:10353000FFF71EFC064604E0FFF71AFC801B02287A
:1035400009D838688007F7D50EE0C0F800A0FFF76B
:103550000FFC064605E082E0FFF70AFC801B02280C
:103560007DD838688007F7D42078400768D5DFF821
:10357000CCB100270BF13C0BDBF80000C0000BD4F2
:10358000DBF8001041F08051CBF80010DBF80000B0
:10359000012700F0805000906B4E3068C00510D4B9
:1035A000306840F480703060FFF7E2FB009005E087
:1035B000FFF7DEFB0099401A022850D83068C0059A
:1035C000F6D55E4EA0686C3601280FD0052830680D
:1035D00010D020F001003060306820F0040030602E
:1035E000A068B8B1FFF7C4FB00900FE0306840F06E
:1035F0000100F4E740F004003060F7E7FFF7B8FBA4
:103600000099411A41F28830814266D830688007BB
:10361000F4D50EE0FFF7ACFB009007E0FFF7A8FB46
:103620000099411A41F28830814256D830688007AB
:10363000F4D42FB1DBF8001021F08051CBF800104A
:10364000A069C8B33D49091D0968C1F38101022978
:103650004AD00228504607D0C8F8600000E03CE09D
:10366000FFF786FB04463BE04746C8F86000FFF7DB
:103670007FFB064605E000BFFFF77AFB801B0228B0
:103680002BD828688001F7D4D4E907010843A16A40
:103690002E4A490802EB0141626A41EA821108435D
:1036A00094F82C1040EA0161C9F800100120386636
:1036B000FFF75EFB044606E03EE000BFFFF758FB65
:1036C000001B022809D828688001F7D534E000BF24
:1036D000FFF74EFB001B022802D90320BDE8F88F3C
:1036E00028688001F4D427E00128F7D0D9F8000039
:1036F000E26900F4800191421CD1226A00F03F018E
:10370000914217D147F6C071626A0140B1EB821F46
:1037100010D1A26A4FF0FF3300F4403103EB5202A4
:10372000B1EB024F06D194F82C1000F07060B0EBB2
:10373000016F01D00120D1E70020CFE7043802401B
:1037400000004742800E4742007000400000FFFF2B
:1037500010B5401EB0F1807F01D3012010BD4FF0A5
:10376000E02460610F21601701F0BBFF0020A06121
:1037700007202061002010BD7047704770B590F899
:103780003C20012A32D0012480F83C40022280F8FB
:103790003D2003685A689D6822F070060A6832432B
:1037A0005A60134B02689A4214D0B2F1804F11D084
:1037B000104B9A420ED0104B9A420BD00F4B9A42AC
:1037C00008D00F4B9A4205D00E4B9A4202D00E4BB6
:1037D0009A4204D1496825F080031943916080F82A
:1037E0003D40002180F83C10084670BD022070BDAD
:1037F000000001400004004000080040000C0040B0
:1038000000040140004001400018004010B50400D1
:1038100003D094F83D0010B107E0012010BD002056
:1038200084F83C00204600F01FF8022084F83D0098
:10383000211D206801F028FB012084F8460084F84F
:103840003E0084F83F0084F8400084F8410084F88A
:10385000420084F8430084F8440084F8450084F86A
:103860003D00002010BD000008B5006811498842E5
:1038700012D11148016841F0010101600068002285
:1038800000F00100009011461920FFF78FFCBDE801
:1038900008401920FFF77CBCB0F1804F09D10648E1
:1038A000001F016841F001010160006800F00100A3
:1038B000009008BD000001404438024090F83D10DF
:1038C000012901D001207047022180F83D100168D4
:1038D000CA6842F00102CA6000681149884214D0E7
:1038E000B0F1804F11D00F4988420ED00E49884266
:1038F0000BD00E49884208D00D49884205D00D49A9
:10390000884202D00C49884204D1816801F0070145
:10391000062903D0016841F00101016000207047D1
:10392000000001400004004000080040000C00407E
:1039300000040140004001400018004070B50446FA
:1039400090F83C000025012817D0012684F83C603F
:10395000022084F83D002068826822F0770222F479
:103960007F4282600868502838D00DDC20284FD074
:1039700005DC90B3102811D14AE0022070BD302838
:1039800046D040280AD13BE060282FD070280DD0C7
:10399000B0F5805F03D0B0F5005F12D0012584F848
:1039A0003D60002084F83C00284670BDCB68D1E91A
:1039B0000121206801F0D0FA2068816841F0770188
:1039C00009E0CB68D1E90121206801F0C5FA20683F
:1039D000816841F480418160E1E719E0CA68496883
:1039E000206801F08DFB5021206806E0CA68496814
:1039F000206801F096FB6021206801F0B7FACEE75D
:103A0000CA684968206801F07BFB40212068F4E720
:103A1000226801461046F0E770472DE9F041044660
:103A20000068C66805694FF00007A90713D5B107FC
:103A300011D5F91E01610120207720688069800777
:103A4000204602D0FFF7E8FF04E000F0A7F8204688
:103A500000F039F92777680716D5700714D5216863
:103A60006FF004000861022020772068806910F45C
:103A7000407F204602D0FFF7CFFF04E000F08EF831
:103A8000204600F020F92777280715D5300713D5F1
:103A900021686FF008000861042020772068C06961
:103AA0008007204602D0FFF7B7FF04E000F076F869
:103AB000204600F008F92777E80616D5F00614D559
:103AC00021686FF010000861082020772068C06925
:103AD00010F4407F204602D0FFF79EFF04E000F084
:103AE0005DF8204600F0EFF82777E80708D0F007E8
:103AF00006D021686FF001000861204600F0E4F86C
:103B0000280608D5300606D521686FF080000861C8
:103B10002046FFF731FE680608D5700606D52168F5
:103B20006FF040000861204600F0EEF8A8060AD5C4
:103B3000B00608D521686FF0200008612046BDE876
:103B4000F041FFF71ABEBDE8F081000010B586B065
:103B5000044614216846FCF707FF2068B0F1804F47
:103B600015D10C480021026842F001020260006891
:103B700000F0010005900E2000900220CDE9010127
:103B80000120CDE9031069460348FEF7E7FF06B0C0
:103B900010BD00003038024000000240704770B590
:103BA000044690F83C0000260D4601280FD0012065
:103BB00084F83C006AB1042A1DD0082A2FD00C2AB0
:103BC0003FD00126002084F83C00304670BD022022
:103BD00070BD206801F0D2F92068816941F00801C8
:103BE00081612068816921F0040181612068816917
:103BF0002A69114311E0206801F0F0F92068816919
:103C000041F4006181612068816921F480618161F2
:103C1000206881692A6941EA02218161D2E720682E
:103C200001F012FA2068C16941F00801C161206801
:103C3000C16921F00401C1612068C1692A69114389
:103C400011E0206801F034FA2068C16941F4006194
:103C5000C1612068C16921F48061C1612068C169C6
:103C60002A6941EA0221C161ACE710B5040003D022
:103C700094F83D0010B107E0012010BD002084F849
:103C80003C00204600F01EF8022084F83D00211D73
:103C9000206801F0F9F8012084F8460084F83E001D
:103CA00084F83F0084F8400084F8410084F8420022
:103CB00084F8430084F8440084F8450084F83D000B
:103CC000002010BD7047704710B5094900680968A9
:103CD00088420CD100F03EFC0821002000F01EFCC0
:103CE000012804D1BDE8104002A001F089BD10BD3B
:103CF000BC0900204B45595F3120707265737365B4
:103D000064210D0A000000007047704710B504469A
:103D10000068406994F84110C0F3C010212911D106
:103D200080B12068143050E8001F21F0800140E885
:103D30000012002AF5D1A06B08B1FEF72FFD204636
:103D400001F0CCFA2068406994F84210C0F380106A
:103D5000222911D180B12068143050E8001F21F0D1
:103D6000400140E80012002AF5D1E06B08B1FEF7EF
:103D700015FD204601F08BFA002010BD70470000B1
:103D800010B500680F4988421BD10F48FFF7BEFFEE
:103D90000E4800684068C0F5807002040C48120CA0
:103DA000028006D00B490C48FCF799FD0B49012015
:103DB0000870BDE810404FF480720649024800F0D8
:103DC000F5B910BD001001404C0C0020940C0020EF
:103DD000220000204C0A00204C0B00202000002074
:103DE000F8B5016804460868CA684B6910F00F0FFF
:103DF0004FF0000559D003F0010602F490773743E5
:103E000065D0C10705D0D10503D5616C41F0010132
:103E10006164410705D5D90703D0616C41F0020107
:103E20006164810705D5D90703D0616C41F00401B5
:103E30006164010707D502F02001314303D0616CB2
:103E400041F008016164616C00293AD0800604D514
:103E5000900602D5204601F04FFA20684069616C57
:103E6000C0F38010090700D460B3204601F00FFAB8
:103E700020684069400621D52068143050E8001FB2
:103E800021F0400140E80012002AF5D1E06BA8B112
:103E900072490165E06BFEF7CAFC002811D0E06BA7
:103EA000016D01B0BDE8F040084783060FD59306C9
:103EB0000DD52046BDE8F84001F01EBA2046FFF7B8
:103EC0005DFFF8BD2046FFF759FF6564F8BD266B1E
:103ED0002023012E7ED1C6067CD5D6067AD5086869
:103EE0004868009048694FF0020640064DD5E26BE5
:103EF000106840684FF480770004000C3AD0A18D20
:103F0000814237D9E085D069B8422DD020680C3085
:103F100050E8001F21F4807140E80012002AF5D11A
:103F20002068143050E8001F21F0010140E8001221
:103F3000002AF5D12068143050E8001F21F040011C
:103F400040E80012002AF5D184F842302563206849
:103F50000C3050E8001F21F0100140E80012002A48
:103F6000F5D1E06BFEF71AFC6663A08DE18D401A77
:103F700081B206E0A18D8142A8D1D069B842A5D115
:103F800066632046FFF7C1FEF8BDA08DE18D401AA3
:103F900081B2E08D0028F7D00029F5D020680C30E0
:103FA00050E8002F22F4907240E80027002FF5D14E
:103FB0002068143050E8002F22F0010240E800276A
:103FC000002FF5D184F84230256320680C3050E88A
:103FD000002F00E006E022F0100240E80023002B52
:103FE000F3D1CDE705062BD5150629D594F8410068
:103FF0002128C9D1A068B0F5805F01D12069B0B196
:10400000206A411C2162216800784860E08C401ED3
:104010000004000CE084B7D12068C16821F0800161
:10402000C1602068C16841F04001C160F8BD206AEC
:104030000088C0F308004860206A801C2062E5E721
:104040004006F3D55006F1D5CA68204622F040025A
:10405000CA6084F8413000F0FBF8F8BD4751000811
:1040600070B5040004D094F84100002510B106E0BA
:10407000012070BD84F84050204600F023F8242031
:1040800084F841002068C16821F40051C1602046D5
:1040900001F094F92068016921F4904101612068E0
:1040A000416921F02A0141612068C16841F4005151
:1040B000C1606564202084F8410084F84200656393
:1040C000002070BD2DE9F04186B0064614216846F7
:1040D000FCF74AFC30493068884259D12F48002407
:1040E000016841F010010160006800F010000590C7
:1040F0002A481438016841F00101016000686946EE
:1041000000F0010005904FF4C06000900220CDE95E
:10411000010403200390072004902148FEF71EFDB0
:10412000214D20484FF000672860C5E901744FF425
:104130008068C5E903486C61AC61EC612C6228467B
:104140006C62FEF757FC08B1FEF731F8F563AE6319
:10415000154D144860357830E5E802074020A5E8A1
:104160001101114845F814496030AC61EC612C62D2
:104170006C62FEF73FFC08B1FEF719F8B563002248
:1041800011462520AE63FFF711F82520FFF700F850
:1041900006B0BDE8F0810000001001404438024044
:1041A0000000024040640240940C002090F842302D
:1041B000202B01D00220704721B11AB100230363E4
:1041C00001F082B9012070477047704770B504460E
:1041D00090F84100202801D0022070BD01B3FAB14F
:1041E0002162A284E28400206064212384F84130AB
:1041F000A56B144BEB63A56B134B2B64A56B134B97
:10420000EB64A36B186520681346A56B021D284656
:10421000FEF75AFC30B110206064202084F8410081
:10422000012070BD21686FF04000086020681430E4
:1042300050E8001F41F0800140E80012002AF5D14B
:10424000002070BD435200088552000855510008F7
:1042500070477047FEE701684A69D24352050FD4A0
:104260006FF480624A61002140F8301F20224273BF
:104270008173026942F004020261017301207047F8
:1042800000207047F8B50446C06A1E460D46174622
:10429000082807D0012805D010F5803F02D0206BF8
:1042A000122804D12068016841F48071016013462E
:1042B00000224FF001112046009600F05DF840B159
:1042C00020680068C00502D54FF400702064032008
:1042D000F8BD2069B0F5804F0ED00620216800EAB5
:1042E000D51040F0F000086133463A460B492046AD
:1042F00000F08AF878B902E005F0FE0000E0E8B2CC
:1043000021680861054933463A46891F204600F076
:104310007BF80028DCD00120F8BD00000800010077
:1043200070B516460D4604461EE02046FFF793FF83
:1043300008B1012070BD681C16D0FEF719FD801B66
:10434000A84200D885B920684069C04340070BD512
:10435000002044F8300F20216173A073216941F0DF
:10436000200121612073E4E720684069C0434007D1
:10437000DBD4002070BD00002DE9F04798461746B9
:104380000D460446C1F30746DDF820902AE000BF41
:10439000B8F1FF3F26D0FEF7EBFCA0EB0901414549
:1043A00002D8B8F1000F1DD12068012E16D0806907
:1043B00025EA00000004000C12D00020B84211D100
:1043C000002044F8300F20216173A073216941F06F
:1043D0002001216120730120BDE8F0874069E7E7F3
:1043E0000120EBE72068012E0AD0806925EA000051
:1043F0000004000C06D00020B842C9D00020EBE732
:104400004069F3E70120F7E72DE9F04798461646A3
:104410000D4604464FF000094FF0200AC1F307474C
:1044200023E020684069C043400515D42068016836
:1044300041F40071016021686FF480604861C4F844
:10444000309084F83DA084F83E90216C41F0040146
:10445000216484F83C9021E0701C06D0FEF788FCB3
:10446000A0EB0800B04203D816B1012F1FD021E005
:104470002068012F15D0806925EA00000004000C97
:1044800018D000BF44F8309F84F80DA084F80E9037
:10449000216941F02001216184F80C900120BDE8E0
:1044A000F087406925EA00000004000CEAD120688A
:1044B000406901E02068806925EA00000004000CE2
:1044C000AFD1ECE770B516460D4604461EE0204617
:1044D000FFF7C1FE08B1012070BD681C16D0FEF7C1
:1044E00047FC801BA84200D885B920684069C043BA
:1044F00000060BD5002044F8300F20216173A07313
:10450000216941F0200121612073E4E720684069BE
:10451000C0430006DBD4002070BD0000064B10B580
:104520001A5C0A4205D0012901D08A431A5401209D
:1045300010BD002010BD00000400002010B528B9F7
:1045400001210348FEF702FC012800D0002010BD25
:10455000000002402DE9F05F4A4D002035F81010B0
:1045600011B1491E25F81010401C10F0FF00F5D0C5
:104570004448801F0178491CC9B2017014297ED3B8
:104580004FF0000A871C80F800A05446461C00F13A
:10459000030900F104084FF0640B305D38552046E4
:1045A000FFF7CCFF305518F804200128414604D00D
:1045B00022F001020A5540B10EE042F001020A5514
:1045C0003B5D4BB942F0020204E03B5D012B03D19D
:1045D00042F0040208F8042019F80420052A4AD2FF
:1045E000DFE802F0030B1F363800012843D14FF4F7
:1045F000FA6025F81400012020E018B135F8140005
:1046000028B138E0C82025F81400022016E018F878
:104610000420042042F0200208F8042025F814B0F9
:104620000CE0012803D035F8140050B123E018F84D
:104630000420032042F0100208F8042009F80400C6
:1046400019E018F8042042F0080208F8042007E0F6
:1046500030B110E020B135F8140020B10BE00EE0CD
:1046600009F804A007E018F8041041F0400108F828
:10467000041025F814B0641C14F0FF048DD0BDE8BC
:10468000F09F000006000020104810B50E490160A0
:104690000221416000214FF04072C0E902124FF444
:1046A000502202614FF4A002426101764176817688
:1046B000C17601774177FDF7F5FE002803D0BDE80C
:1046C0001040FDF774BD10BD00640040EC080020F0
:1046D0000D4808B5016841F48001016000680022BE
:1046E00000F48000009011463A20FEF75FFD3A206A
:1046F000FEF74EFD002211464620FEF757FDBDE8AD
:1047000008404620FEF744BD3038024070B586B000
:1047100014216846FCF728F921480024016841F07B
:1047200004010160016801F004010591016841F094
:1047300080010160016801F080010591016841F08C
:1047400001010160016801F001010591016841F07A
:1047500002010160016801F002010591016841F068
:104760000801016000680F4E00F00800059000226B
:1047700004213046FEF7F7FA0125CDE900546946D9
:1047800009480294FEF7EAF904200090CDE90154AB
:10479000694630460394FEF7E1F906B070BD0000AB
:1047A0003038024000040240000002400D4810B5BD
:1047B0000B4901600C49416000214FF48042816047
:1047C000C0E9031241618161C1610162FEF7D6FA5D
:1047D000002803D0BDE81040FDF7E9BC10BD000083
:1047E0000054004014090020A08601000D4810B5B7
:1047F0000B4901600C49416000214FF48042816007
:10480000C0E9031241618161C1610162FEF7B6FA3C
:10481000002803D0BDE81040FDF7C9BC10BD000062
:104820000058004068090020A086010010B586B03D
:1048300000241748009401940294039404941349AB
:1048400005940160A721C0E9011440F2E731C0E9F5
:10485000031444618461FEF7D9FF08B1FDF7A7FC9A
:104860004FF48050009069460948FFF767F808B197
:10487000FDF79DFC049404A905480594FEF77EFF0E
:10488000002801D0FDF793FC06B010BD00000140E8
:10489000BC09002010B58EB0002407940894099438
:1048A0000A940B941C2168460C94FCF75DF825488B
:1048B0004FF0804101605321C0E901146321C0E938
:1048C00003148461FEF7A2FF08B1FDF770FC4FF4FA
:1048D0008050079007A91B48FFF730F808B1FDF793
:1048E00066FC1848FFF7C1F908B1FDF760FC0B94AE
:1048F0000BA914480C94FEF741FF08B1FDF757FCD3
:104900006020CDE900040294042269460D48049415
:10491000FFF745F908B1FDF74AFC08226946094846
:10492000FFF73DF908B1FDF742FC0C226946054846
:10493000FFF735F908B1FDF73AFC0248FFF706F931
:104940000EB010BD040A002010B5114C0F480C2108
:1049500020604FF4E13060600020A060E060C4E9B6
:104960000401A061E0612046FFF77AFB08B1FDF782
:104970001EFC2068C16841F01001C160BDE8104014
:104980004FF4807203490248FFF710BC0010014049
:104990004C0C00204C0A0020FEE7FEE7F0B50B446B
:1049A00024E0044685181DE07F2C19D8002917DB68
:1049B0003F2915DCCE1701EB56764FEAE60C0D4F7A
:1049C00026F0070607EBCC172744A1EB060E97F855
:1049D00000C0012606FA0EF62CEA060C87F800C085
:1049E000641C24B2A542DFDC491C09B28B42D8DC2E
:1049F000F0BD0000EC04002010B50C4640F0B00003
:104A000000F05AF9102040EA141000F055F904F0B3
:104A10000F00BDE8104000F04FB9000008B5082BAA
:104A20000DD0062B0AD10A4B02EB420203EB4202E5
:104A3000C03A00920823062200F00EF808BD054B8C
:104A400003EB0212A2F50072102300920822F3E792
:104A5000925E0008A25800082DE9F04F1F46164646
:104A60000C4682460025FFF799FF7F1EF81707EBDB
:104A700050700121DFF89CB001EBE00745E0002019
:104A80003FE000BF0AEB00037F2B38D8E11704EBAF
:104A90005171CA1021F00701611A002C03DA521E6D
:104AA000083112B209B202EB0509B9F1070F10D8AB
:104AB0000BEBC91E1EF8032015FB06F8DDF824C019
:104AC000844418F80CC00CFA01FC42EA0C020EF8FF
:104AD000032009F10102072A11D80BEBC91202EBDE
:104AE000030898F8803015FB06FC099AC1F108010B
:104AF00002441CF80220CA40134388F88030401C4E
:104B0000C0B2B042BED36D1CEDB2AF42B7DCBDE85F
:104B1000F08F0000EC0400202DE9FF4F002583B04A
:104B20009B4690462C46AA46DFF8C09056E01006F9
:104B30008DF8042005F101050DD40398ADB2204491
:104B40008DF805A000B25B460499FFF767FF04EB00
:104B50000B0084B242E0A8B218F80010002941D03E
:104B6000401C8DF8051085B28DF806A0002606E0E1
:104B7000384601A9FBF720FF68B1761CB6B2C6EB38
:104B8000C60000EB800101EB0900074618A1FBF706
:104B900013FF0028ECD1BBF1080F03D0BBF1060FC7
:104BA0001CD111E0C6EBC60000EB800101EB09004F
:104BB000C01C009003981023204400B21A460499A8
:104BC000FFF74AFF103408E003980623204400B2A0
:104BD0003F220499FFF722FFA41DA4B218F8052074
:104BE000002AA4D107B0BDE8F08F0000CC60000817
:104BF000000000002DE9F04790B06C46164689464B
:104C00008246A046082A02D90826002521E0002570
:104C1000C6F108070BE000BFA4EB0800C0F140019B
:104C200018A22046FBF762FC6D1C0444EDB2AF42B3
:104C3000F2DC00251AE0701E85420AD1A4EB0800C0
:104C4000C0F1400119F805300FA22046FBF74EFCD9
:104C50000AE0A4EB0800C0F1400119F805300AA2EF
:104C60002046FBF743FC04446D1CEDB2B542E2D391
:104C700008236A4651460020FFF74EFF10B0BDE8FA
:104C8000F08700003030000025303258000000006E
:104C900070B5084D002400212046FFF7ADFE05EB5E
:104CA000C410802100F01AF8641CE4B2082CF2D37E
:104CB00070BD0000EC0400201CB500218DF804102C
:104CC0008DF80500481E0090022301AA78210248B1
:104CD000FEF718F91CBD000014090020F8B50646BF
:104CE0000C46481CFBF71AFB050014D04020287026
:104CF00022463146681CFBF7F2FD4FF0FF30009072
:104D0000631C2A4678210448FEF7FCF82846BDE8D3
:104D1000F840FBF732BBF8BD14090020704700F0E3
:104D20003BBC00002DE9F04107460B4815460E46F6
:104D3000007808B900F030FCEFF31184202080F3F4
:104D400011882A463146384600F008F8E1B281F36E
:104D50001188BDE8F08100003400002070B50E46D7
:104D6000144900EB400001EBC0051446E86A183511
:104D700020B101280FD0022805D113E0284600F009
:104D80003FFCA04201D2002411E0224631462846D1
:104D900000F06EFC0BE0284600F032FCA042F4D29A
:104DA0000446F2E73146284600F035FC044620462A
:104DB00070BD00003400002070B505460C46084662
:104DC000FBF76EFD024621462846BDE87040FFF71E
:104DD000A9BF7047FEF782B930B593B0302168465D
:104DE000FBF7C2FD14210CA8FBF7BEFD1D480025F2
:104DF000016841F080510160006800F0805011901E
:104E00001948016841F4804101600068022400F4FF
:104E10008040119001200090000401908001CDE9B4
:104E2000064004200890A820CDE9090407200B9033
:104E30006846FEF7D7FA08B172B6FEE70CA90F2054
:104E400081E831004FF4A0500F904FF48050109043
:104E500005210CA8FEF7DCF9002801D072B6FEE7A8
:104E600013B030BD40380240007000400248016875
:104E700041F470010160704788ED00E00148FEF7E1
:104E8000CCBD0000BC090020F0B50268274B284DBE
:104E9000284E294F294C4FF0804C984209D060454C
:104EA00007D0A84205D0B04203D0B84201D0A042FA
:104EB00004D122F0700E4A6842EA0E0298421BD0DA
:104EC000604519D0A84217D0B04215D0B84213D0CF
:104ED000A04211D01A4DA8420ED01A4DA8420BD0B4
:104EE000194DA84208D0194DA84205D0184DA84226
:104EF00002D0184DA84203D122F44075CA682A4353
:104F00004D6922F080022A438D68C5620D68856272
:104F1000984201D0A04201D109690163016841F0C2
:104F200004010160012141610260F0BD0000014007
:104F30000004004000080040000C00400004014054
:104F4000004001400044014000480140001800407A
:104F5000001C00400020004010B5846842EA032293
:104F600024F47F440A432243826010BD826822F009
:104F700070020A4342F0070181607047F0B5036A8E
:104F8000026A22F00102026242688469124E24F031
:104F900073050C682C4323F002058B682B430D4DE1
:104FA000A84201D0B04205D123F00807CB683B43AB
:104FB00023F00403A84201D0B04205D14D6922F488
:104FC000407215438A692A4342608461496841639B
:104FD0000362F0BD0000014000040140F0B5026A28
:104FE000036A23F010030362436884690D6824F4A4
:104FF000E64444EA05248D6822F0200242EA0512C4
:105000000F4D104EA84201D0B04206D1CF6822F019
:10501000800242EA071222F04002A84201D0B042C8
:1050200007D14D6923F4406343EA85038D6943EA60
:10503000850343608461496881630262F0BD0000BA
:105040000000014000040140F0B5026A036A23F445
:10505000807303624368C46922F4007224F073050C
:105060000C68124E2C438D6842EA05220E4DA84270
:1050700001D0B04206D1CF6822F4006242EA072292
:1050800022F48062A84201D0B04207D14D6923F4D6
:10509000405343EA05138D6943EA05134360C46135
:1050A0004968C1630262F0BD000001400004014094
:1050B00030B5046A026A22F4805202624268C3690F
:1050C0000D6823F4E64343EA05238D6824F4005475
:1050D00044EA0534084DA84202D0084DA84204D144
:1050E0004D6922F4804242EA85124260C3614968F8
:1050F0000164046230BD0000000001400004014072
:1051000010B5036A046A24F001040462846924F07F
:10511000F00444EA021423F00A020A4384610262A2
:1051200010BD10B5036A046A24F010040462846997
:1051300023F0A00324F4704444EA023243EA01114C
:105140008261016210BD10B5806B0021C185FEF740
:1051500015FE10BD70B5846B2068406994F841104D
:10516000C0F3C0100025212904D118B1E5842046E0
:1051700000F0B4F82068406994F84210C0F3801041
:10518000222904D118B1E585204600F080F8606C32
:1051900040F0100060642046FEF7F0FD70BD10B5D1
:1051A0000146806B096809684FF00002C9052ED4DA
:1051B000C28501680C3151E8003F23F4807341E857
:1051C0000034002CF5D10168143151E8003F23F080
:1051D000010341E80034002CF5D10168143151E895
:1051E000003F23F0400341E80034002CF5D120219A
:1051F00080F84210016B012909D101680C3151E896
:10520000003F23F0100341E80034002CF5D1426345
:10521000016B012902D0FEF7D7FF10BD818DFEF78B
:1052200074FD10BD10B5806B01214163016B012934
:1052300002D0FEF7CAFF10BD818D4908FEF765FD5B
:1052400010BD10B50146806B09680968C90516D400
:105250000021C1840168143151E8002F22F080023E
:1052600041E80023002BF5D101680C3151E8002FF3
:1052700042F0400241E80023002BF5D110BDFEF7BB
:10528000E7FF10BD10B5806BFEF7E3FF10BD0168AE
:105290000C3151E8002F22F4907241E80023002BDA
:1052A000F5D10168143151E8002F22F0010241E8E4
:1052B0000023002BF5D1016B012909D101680C31C4
:1052C00051E8002F22F0100241E80023002BF5D115
:1052D000202180F8421000210163704701680C31E1
:1052E00051E8002F22F0C00241E80023002BF5D145
:1052F000202180F84110704708B590F8421022290B
:1053000001D0022008BD82684FF480539A4201D137
:10531000016921B1816A9A421BD04AB10AE0026850
:10532000816A5268C2F308020A80816A891C08E017
:10533000026972B10268526802F07F020A70816AE3
:10534000491C8162C18D491E0904090CC18503D025
:105350001BE002685268F1E70168CA6822F0200287
:10536000CA600168CA6822F48072CA6001684A692A
:1053700022F001024A61202180F84210002141639D
:10538000026B012A03D0FEF71FFF002008BD016356
:1053900001680C3151E8002F22F0100241E800238F
:1053A000002BF5D101680A68D20602D50A6849685F
:1053B0000091818DFEF7A9FCE7E7000070B5044677
:1053C00000680169E26821F44051114301612169DB
:1053D000A068E26908436169114308432168CA680B
:1053E00049F20C639A430243CA6020684169A2698A
:1053F00021F440711143416131492068884202D053
:105400003049884202D1FDF7ADFF01E0FDF79AFF78
:10541000E2690023192164253226B2F5004F626843
:1054200028D0A0FB0101930F9200FAF7CDFF0146AF
:10543000B0FBF5F06FF01802504301EB800006EB73
:105440000010B0FBF5F000F0F002B1FBF5F002EB5C
:105450000012B1FBF5F06FF01803584301EB800028
:1054600006EB0010B0FBF5F000F00F0021681044CF
:10547000886070BDA0FB010192185B41FAF7A4FFA0
:105480000146B0FBF5F00201B1FBF5F06FF0180337
:10549000584301EB800006EBC000B0FBF5F000F0D4
:1054A000F80002EB4002B1FBF5F0584301EB80003D
:1054B00006EBC000B0FBF5F000F00700D6E70000F7
:1054C000001001400014014038B581620446828515
:1054D000002013466064222284F84220E56B1F4AB4
:1054E000EA63E56B1E4A2A64E56B1E4AEA64E26BD6
:1054F00010650A462168E06B091DFDF7E5FA30B139
:1055000010206064202084F84200012038BD20680B
:10551000016840680090206948B120680C3050E86C
:10552000001F41F4807140E80012002AF5D1206884
:10553000143050E8001F41F0010140E80012002A39
:10554000F5D12068143050E8001F41F0400140E8D8
:105550000012002AF5D1002038BD00009F5100083C
:105560002552000855510008094808B5006802682E
:10557000C168D20607D5C90605D501684068009004
:105580000348FEF7FDFBBDE808400148FEF728BCD4
:105590004C0C0020FEE7000010B5124C03202061E7
:1055A000606111A0A06104F1A800E0614FF4806087
:1055B00020620020A06260620BA12166E06204F517
:1055C0009561616610212067C4E91A10606709A11E
:1055D000E01DFBF741F908A12046FBF73DF920202B
:1055E000A07110BD340000205465726D696E616C4D
:1055F00000000000525454005345474745520000F4
:105600000269C1688A4203D88068401A104400E0E9
:10561000501A401E70472DE9F047C4681746894666
:1056200006464FF000083069A04201D9051B02E090
:10563000B168201A0D1AB0686D1E001BA84200D870
:105640000546BD4200D33D4670682A46204449467F
:10565000FBF745F9B0687F1B2C44A844A944A0423D
:1056600000D10024F460002FDDD14046BDE8F08772
:105670002DE9F04104468846D4E90207C51BE168DC
:10568000606816460844B54206D94146FBF727F93B
:10569000B819E060BDE8F0812A464146FBF71FF9E2
:1056A000761B08EB050132466068FBF718F9E660E7
:1056B000F0E703B401984100009850EAC12018BFF8
:1056C00004204A0D18BF40F0010040F2FF72B2EB17
:1056D000515F08BF40F00200012808BF052002B05A
:1056E00070470907090E002804DB00F1E02080F86C
:1056F0000014704700F00F0000F1E02080F8141D46
:10570000704730380A2801D20120704700207047C6
:10571000FDF7ECFCFFF760FBFEF7F8FFFEF7D8FFA4
:10572000FEF7B2FFFFF742F8FFF780F8FFF70CF93A
:10573000FFF75CF8FFF7AEF80D48FEF7BFF80DA0D5
:1057400000F05EF80FA000F05BF816221349144831
:10575000FEF73CFD134C4FF47A7500BF00F024F8BF
:1057600004212046FDF7F7FA2846FDF7E5F9F5E7AD
:10577000BC09002048656C6C6F2C20525454210DDC
:105780000A0000002D2D2D2D7379737465726D2024
:105790007374617274210D0A00000000090000207A
:1057A0004C0C00200004024070B50D4D28780028F4
:1057B00015D00020287069880AA000F021F8002484
:1057C0000B4E04E0315D0BA000F01AF8641C6888F1
:1057D0008442F7DBBDE8704008A000F011B870BD4E
:1057E0002000002052656376205B25645D3A20002E
:1057F0004C0B002025303258200000000D0A00001C
:105800000FB410B50B4CC0B0207818B9FFF787FA69
:105810000120207043AB4FF480716846429AFAF73A
:105820004BFE69460020FFF7C7FA40B010BC5DF898
:1058300014FB00000800002010B500290AD00878E9
:10584000002807D005487844FBF7B6F8002801D0B7
:10585000002010BD0248784410BD0000BA0A0000C4
:10586000B20A000010B500290AD00878002807D035
:1058700005487844FBF7A0F8002801D0002010BDAF
:105880000248784410BD0000AA0A0000A20A0000E5
:105890004FF04070E1EE100A7047FBF721BCFBF7B8
:1058A00055BD0000000000000000000000000000E6
:1058B0000000000000F8000000000000003330008D
:1058C000000000160E00160E000000000000000090
:1058D000000040C07840C0784000043F04043F040A
:1058E0000400007088FC08300000001820FF211E12
:1058F0000000F008F000E018000000211C031E2149
:105900001E0000F00888700000001E2123241927C3
:105910002110000000160E00000000000000000032
:105920000000000000E0180402000000000718203A
:10593000400000020418E0000000004020180700AA
:105940000000404080F0804040000202010F010250
:105950000200000000F0000000000101011F010131
:105960000100000000000000000000B07000000016
:105970000000000000000000000000010101010122
:1059800001010000000000000000003030000000B5
:10599000000000000000806018040060180601008C
:1059A000000000E010080810E000000F1020201098
:1059B0000F00001010F8000000000020203F202001
:1059C0000000007008080888700000302824222198
:1059D000300000300888884830000018202020114E
:1059E0000E000000C02010F8000000070424243F2F
:1059F000240000F8088888080800001921202011D8
:105A00000E0000E0108888180000000F11202011FF
:105A10000E0000380808C83808000000003F0000E9
:105A200000000070880808887000001C22212122D4
:105A30001C0000E010080810E000000031222211D4
:105A40000F00000000C0C000000000000030300067
:105A50000000000000C0C0000000000080B0700026
:105A6000000000008040201008000001020408101F
:105A7000200040404040404040000404040404042E
:105A800004000008102040800000002010080402DC
:105A90000100007048080808F000000000303601DE
:105AA0000000C030C828E810E0000718272423149D
:105AB0000B000000C038E0000000203C2302022759
:105AC000382008F8888888700000203F20202011A6
:105AD0000E00C030080808083800071820202010E1
