:020000040800F2
:10000000B8160020A101000883330008292C00083D
:1000100081330008F1090008993F00080000000042
:10002000000000000000000000000000BB370008D6
:10003000C90A00080000000005370008BD370008A5
:10004000BB010008BB010008BB010008BB010008A0
:10005000BB010008BB010008BB010008BB01000890
:10006000BB010008BB010008BB010008BB01000880
:10007000BB010008BB010008BB010008BB01000870
:10008000BB010008BB010008BB010008010A000811
:10009000F5090008BB010008BB010008BB0100080E
:1000A000BB01000865380008BB010008BB0100085F
:1000B000BB010008BB010008BB010008BB01000830
:1000C000BB010008BB010008BB010008BB01000820
:1000D000BB0100086D3F0008BB010008BB01000820
:1000E000BB010008BB010008BB010008BB01000800
:1000F000BB010008BB010008BB010008BB010008F0
:10010000BB010008BB010008BB010008BB010008DF
:10011000BB010008BB010008BB010008BB010008CF
:10012000BB010008BB0100080D0A0008BB01000864
:10013000BB010008BB010008BB010008BB010008AF
:10014000BB010008BB010008BB010008BB0100089F
:10015000BB010008BB010008190A0008BB01000828
:10016000BB010008BB010008BB010008BB0100087F
:10017000BB010008BB010008BB0100080000000033
:10018000BB010008BB010008DFF810D000F0A6FB9F
:1001900000480047716B0008AFF30080B8160020DC
:1001A0000648804706480047FEE7FEE7FEE7FEE711
:1001B000FEE7FEE7FEE7FEE7FEE7FEE7553800084C
:1001C000890100082DE9F05F0546002092469B4614
:1001D00088460646814640241BE02846414647465D
:1001E000224600F0ACFA53465A46C01A914110D349
:1001F00011461846224600F093FA2D1A67EB0108C3
:100200004F4622460120002100F08AFA17EB000930
:100210004E41201EA4F10104DFDC484631462A4647
:100220004346BDE8F09F2DE9F0410024061B25461A
:1002300071F1000605DA01240027D0EB070067EB17
:100240000101161E73F1000605DA0027D2EB070242
:10025000012567EB0303FFF7B5FF86460E461746F9
:100260009C46AC4204D00025D0EB050E65EB0106A0
:1002700024B10020D2EB000760EB030C704631463E
:100280003A466346BDE8F08140EA01039B0703D08C
:1002900009E008C9121F08C0042AFAD203E011F8C5
:1002A000013B00F8013B521EF9D27047D2B201E087
:1002B00000F8012B491EFBD270470022F6E710B56B
:1002C00013460A4604461946FFF7F0FF204610BDC4
:1002D000421C10F8011B0029FBD1801A704710B591
:1002E000002200E0521C835C8C5CA34201D1002BF5
:1002F000F8D1D8B2E1B2401A10BD30B504460020A2
:10030000034600E05B1C934203D2E05CCD5C401BE3
:10031000F8D030BD034611F8012B00F8012B002A5C
:10032000F9D1184670472DE9FE4F804681EA030057
:10033000C00F0C46009021F0004123F00045B8EBBF
:100340000200A94105D24046214690461C460B4674
:10035000024623F00040104347D0270DC7F30A00A0
:10036000C3F30A510290401A019040286BDAC3F39C
:10037000130040F4801B0098924620B10023D2EB7A
:10038000030A63EB0B0B01985946C0F1400250463B
:1003900000F0C6F906460D4650465946019A00F04F
:1003A000DEF910EB08006141002487EA115284EA6B
:1003B000E7731A4340D0009A62B3019A012A4FEAC8
:1003C000075215DC001B61EB02014FF0004202EA0C
:1003D0000752CDE90042001C41F5801132462B4600
:1003E00000F015FA03B0BDE8F08F40462146F9E76A
:1003F000001B61EB0201001C41F5801300185B41FA
:100400002018A2F5001747EB030140EAD570B61992
:100410006D4111E06D084FEA360645EAC0754FEAB6
:100420000752001B61EB0201001C41F580114908D5
:100430004FEA30000019514132462B4603B0BDE867
:10044000F04F00F0D5B90098012240000023D0EB16
:10045000020263EBE073009821464FEAE074B8EBC8
:10046000000061EB0401E9E783F000435BE781F002
:10047000004158E72DE9FE4F81EA030404F00044EF
:1004800021F0004100944FF0000B23F0004350EAAC
:1004900001045ED052EA03045BD0C3F30A54C1F3F3
:1004A0000A552C44A4F2F3340194A0FB0254C1F386
:1004B000130141F48011C3F3130343F4801301FBD0
:1004C000024400FB034E840A970A44EA815447EA37
:1004D0008357A4FB076802958D0A05FB07854FEA41
:1004E000932C04FB0C542705029D4FEA065847EA5B
:1004F0001637B5EB08056EEB070C870E920E47EA30
:10050000811742EA8312A7FB0201B6EB0B0164EBF1
:1005100000042B0D43EA0C335E1844EB1C50DA4602
:100520005146E7FB0201C5F313044FEA0B3343EADC
:1005300014534FEA0432019C43EA0603A4F10C046D
:100540000294009CCDE900B400F061F903B0BDE86D
:10055000F08F00200146F9E72DE9F04D81EA030410
:1005600004F0004B21F0004514464FF0000A23F040
:10057000004150EA050220D054EA01021DD0C5F323
:100580000A570246C5F31303C1F31300C1F30A5619
:1005900040F4801543F48013A7EB0608101BD646E1
:1005A00008F2FD3873EB050002D308F1010801E001
:1005B00092185B41B8F1000F03DA00200146BDE854
:1005C000F08D00204FF48011064684460EE0171B84
:1005D00073EB050705D3121B63EB050306434CEAD7
:1005E000010C49084FEA300092185B4150EA0107BC
:1005F000EDD152EA030012D082EA040083EA050139
:10060000084305D0101BAB4106D20122002306E0AF
:1006100000224FF0004302E06FF0010253101AEB8A
:1006200006004CEB085110EB0A0041EB0B01BDE852
:10063000F04D00F0DDB800F0004230F000400AD08C
:10064000C10D01F56071C0F3160042EA0151C20804
:1006500040071143704700200146704730B5041E23
:1006600071F1000404DB4FF00044404264EB0101EF
:10067000141E73F1000405DB1C464FF00043524288
:1006800063EB04038B4208BF824230BD30B5041EC9
:1006900071F1000404DB4FF00044404264EB0101BF
:1006A000141E73F1000405DB1C464FF00043524258
:1006B00063EB0403994208BF904230BD01F0004350
:1006C00030B421F0004150EA010206D00A0DA2F533
:1006D0006072C1F31301002A02DC30BC00207047B5
:1006E000440F44EAC104C100E01830BC00EBC25022
:1006F00000F047B830B50B46014600202022012407
:1007000009E021FA02F59D4205D303FA02F5491BDF
:1007100004FA02F52844151EA2F10102F1DC30BDF5
:10072000202A04DB203A00FA02F1002070479140B1
:10073000C2F1200320FA03F3194390407047202AA6
:1007400004DB203A21FA02F00021704721FA02F37B
:10075000D040C2F120029140084319467047202A38
:1007600006DBCB17203A41FA02F043EAE07306E0D9
:1007700041FA02F3D040C2F12002914008431946E9
:1007800070470029A8BF7047401C490008BF20F0EF
:100790000100704710B4B0FA80FC00FA0CF050EA87
:1007A000010404BF10BC704749B1CCF1200421FA08
:1007B00004F411FA0CF118BF012121430843A3EB03
:1007C0000C01CB1D4FEA00614FEA102042BF002010
:1007D00010BC704700EBC35010440029A4BF10BCEC
:1007E0007047401C490008BF20F0010010BC704752
:1007F00010B5141E73F1000408DA401C41F1000129
:1008000092185B411A4301D120F0010010BD2DE97F
:10081000F04D92469B4611B1B1FA81F202E0B0FA76
:1008200080F220329046FFF77BFF04460F4640EAF5
:100830000A0041EA0B0153465A46084313D01146B9
:1008400053EA010019D0C8F140025046FFF777FF84
:1008500005460E46504659464246FFF761FF08439B
:1008600005D0012004E020463946BDE8F08D002087
:10087000054346EAE0762C4337430A986305E40AC9
:10088000A0EB08000022FD0A44EA47540A3002D5D2
:1008900000200146E9E7010510196941DDE9084535
:1008A00000196941BDE8F04DA2E7C1F30A52C1F356
:1008B000130140F2FF3341F480119A4202DA002022
:1008C0000146704740F233439A42A2F2334202DCBF
:1008D0005242FFF734BFFFF723BF0000064C074D1D
:1008E00006E0E06840F0010394E807009847103400
:1008F000AC42F6D3FFF74CFC6893000888930008DD
:100900002DE9F04D00231A461B1A8A4103DB002013
:100910000146BDE8F08DC1F30A52C1F3130141F461
:1009200080154FF0000BD10702D100186D41521E07
:100930000027044640F2FF11384601EB620A3E46AA
:100940008046024600204FF48011FFF7F8FEC219DE
:100950007141BB1846EB0100B4EB030C75EB000CC6
:1009600004D3E41A65EB000517460E46241908F176
:1009700001006D4180463428E3DDF91946EB06009D
:10098000091BA84103D24FF0FF32134601E00022B9
:1009900013461BEB070046EB0A51BDE8F04DFFF78D
:1009A00027BF000010B5642800D96420642900D94D
:1009B0006421642A00D96422034B1C68A063186870
:1009C000C1631868026410BD480A002010B50421F4
:1009D000064801F0FFFD0821044801F0FBFDBDE8D9
:1009E00010400C21014801F0F5BD0000480A00202C
:1009F000FEE70000014800F0E5B8000030090020E3
:100A0000014800F0DFB8000030090020014800F084
:100A1000AFBB0000D80C0020014800F0A9BB0000CB
:100A2000380D002001681823CAB2103AB2FBF3F265
:100A3000054B6FF30901032A9B5CC36500D9091DAF
:100A400081650846704700001186000810B5014610
:100A500000208B698A6A4FF0C07453B1B3F5005F10
:100A600015D072B1012A0CD0022A0AD0032A09D16A
:100A700004E01AB1012A06D0022A03D1C96AC901C9
:100A800000D5012010BDC96AA142FAD010BD002ACC
:100A9000F7D0012AF2D0022AF3D0032AF3D010BDF6
:100AA00030B50468256825F48025256004686360F6
:100AB0008368402B036803D099600068C26030BD32
:100AC0009A600068C16030BD704772B6FEE770473B
:100AD00070B590F82040012C05D0022C03D0416A5B
:100AE00041F4802128E0046809B32469A40720D0D8
:100AF0004FF4D874056804EB01142D5915F0040562
:100B0000956005682D591AD0ED08556005682C5977
:100B100004F00204D4604FF4DA74056804EB0114A5
:100B20002E5906F00F06082E0CD308250DE0E468B8
:100B3000DCE7416A41F400114162012070BD6D0D96
:100B40001560E3E72D5905F00F05156105682D596E
:100B5000C5F30725956105682C59240C54614FF4A1
:100B6000DC72046802EB0112A4581C700468A458DB
:100B7000240A5C700468A458240C9C700468A25871
:100B8000120EDA704FF4DE72046802EB0112A45800
:100B90001C710468A458240A5C710468A458240CCD
:100BA0009C710468A258120EDA71006829B10169BB
:100BB00041F020010161002070BDC16841F02001B9
:100BC000C160F8E72DE9F05F05460068002446693A
:100BD000D0F804908768D0F80CB0D0F810A0D0F806
:100BE0001880F10748D0F90714D001218160B807B7
:100BF00003D5284600F05AFA0CE0780702D54FF4E6
:100C0000006407E0380702D54FF4805402E028461C
:100C100000F04BFAF80516D529684FF4807088600B
:100C2000B80503D5284600F043FA0CE0780502D554
:100C300044F4005407E0380502D544F4804402E04F
:100C4000284600F034FAF80316D529684FF48030AE
:100C50008860B80303D5284600F02CFA0CE078032E
:100C600002D544F4004407E0380302D544F480344C
:100C700002E0284600F01DFA300707D55FEACB6096
:100C800004D52968102044F40074C86070074FF040
:100C9000080707D55FEA0B7004D52868C7602846A7
:100CA00000F060F9B00706D52868C068800702D058
:100CB000284600F059F9700607D55FEACA6004D5E6
:100CC0002968102044F480640861B00607D55FEA03
:100CD0000A7004D528680761284600F0E3F9F00699
:100CE00006D528680069800702D0284600F0DBF9A5
:100CF000B00308D55FEAC96005D5296810204860AF
:100D0000284600F0D1F9F00307D55FEA097004D551
:100D100028684760284600F0CEF9300446D55FEADF
:100D2000497040D5F00504D55FEAC87001D044F0A1
:100D30000104B00504D55FEA887001D544F00204CF
:100D4000700504D55FEA487001D544F0040430050D
:100D500029D518F0700F26D008F07000402815D063
:100D600006DC102809D020280AD0302816D10AE045
:100D700050280ED0602811D10EE044F008040DE098
:100D800044F010040AE044F0200407E044F040047A
:100D900004E044F0800401E044F480742868816930
:100DA00021F070018161296804204860002C05D081
:100DB000686A204368622846FFF789FEBDE8F09F15
:100DC00070B5040003D094F8200010B104E00120B5
:100DD00070BD204600F082F82068016841F00101F2
:100DE000016000F04BFC0546052604E000F046FCDF
:100DF000401B0A2811D820684068C007F6D0206838
:100E0000016821F00201016000F038FC05460BE0AA
:100E100000F034FC401B0A2806D9606A40F4003018
:100E2000606284F82060D2E7206840688007EFD4D1
:100E3000207E0128206801683DD021F080010160FA
:100E4000607E01282068016838D021F040010160EF
:100E5000A07E01282068016833D021F020010160C4
:100E6000E07E0128206801682ED041F01001016069
:100E7000207F01282068016829D021F00801016045
:100E8000607F01282068016824D021F004010160FE
:100E9000D4E902010843D4E904121143084361680C
:100EA000491E08432168C86100206062012084F85F
:100EB0002000002070BD41F08001C0E741F04001FA
:100EC000C5E741F02001CAE721F01001CFE741F06A
:100ED0000801D4E741F00401D9E7000010B586B05D
:100EE000044614216846FFF7E8F91B492068884248
:100EF0002FD11A480021026842F000720260006897
:100F000000F00070059015481038026842F00802A1
:100F100002600068022200F0080005900320CDE97D
:100F20000210CDE900020920049069460C4800F047
:100F3000A3FA00221146132000F0BEFD132000F09A
:100F4000ADFD00221146142000F0B6FD142000F083
:100F5000A5FD06B010BD000000640040403802400E
:100F6000000C02407047000030B593B000210191A1
:100F700001AB03AA0291FFF7ABFD08B1FFF7A5FD96
:100F8000079A059838B125A0DDF8101006F032FE5A
:100F9000069818B111E02CA00399F7E735A006F0E8
:100FA00029FE002401AD05E0295D34A006F022FEF3
:100FB000641CE4B20798A042F6D832A006F01AFEEC
:100FC0000598002804D00498009003D12EA302E0D5
:100FD0000398F9E72DA32EA24FF020010AA803F0F1
:100FE0006BF808230AAA1021022002F089FA2BA22A
:100FF00020210AA8079B03F05FF808230AAA2021F2
:10100000022002F07DFA079801A9C2B2302002F056
:10101000E5FA02F031FB13B030BD000043414E2031
:101020006D65737361676520726563656976656474
:101030003A2045787449443D30782530385820446A
:101040004C433D256400000043414E206D657373A1
:101050006167652072656365697665643A205374DB
:101060006449443D30782530335820444C433D2575
:1010700064000000446174613D0000002530325876
:10108000200000000D0A000053544400455854004D
:1010900049443A2025732025303658004C656E3A75
:1010A000256400007047704770477047704770476D
:1010B00070477047704770472DE9F0410446876DCF
:1010C00000F0DCFA064694F835000025022806D028
:1010D0008020606584F834500120BDE8F0812068EC
:1010E000016821F0160101602068416921F080014A
:1010F0004161206C08B9A06C20B12068016821F022
:10110000080101602068016821F0010101600CE024
:1011100000F0B4FA801B052807D920206065032061
:1011200084F8350084F83450D7E720680068C00799
:10113000EED194F85C103F208840B860012084F81C
:10114000350084F834500020C7E790F835100229A4
:1011500003D08021416501207047052180F83510BA
:101160000068016821F00101016000207047000063
:101170002DE9F84304464FF00009CDF8009063488C
:101180004FF41651A56D0068B0FBF1F72E6894F886
:101190005C10082000FA01F131420FD021680A6882
:1011A00052070BD50A6822F004020A6094F85C101A
:1011B0008840A860606D40F00100606594F85C10A4
:1011C0004FF0010808FA01F0304208D0216849695F
:1011D000090604D5A860606D40F00200606594F8CF
:1011E0005C1004208840304208D0216809688907D3
:1011F00004D5A860606D40F00400606594F85C1050
:1012000010208840304218D021680968090714D599
:10121000A86020680168490304D50068000308D568
:10122000A16C07E00168C90503D4016821F0080139
:101230000160216C09B12046884794F85C10202099
:101240008840304231D021680968C9062DD5A86090
:1012500094F8350005282068016806D0490347D571
:10126000006800031DD4616C1CE021F016010160D0
:101270002068416921F080014161206C08B9A06CAF
:1012800020B12068016821F00801016094F85C1029
:101290003F208840A86084F8358084F83490216D20
:1012A0001FE0E16B09B120468847606D00282BD014
:1012B000606DC00714D0052084F8350020680168EF
:1012C00021F0010101600098401C0090B84203D851
:1012D00020680068C007F6D184F8358084F834901F
:1012E000E16C002910D001B02046BDE8F04308476A
:1012F0000168C905D5D4016821F01001016084F8A6
:10130000358084F83490CCE7BDE8F88330000020C5
:101310002DE9F041044600F0B1F906465CB1022027
:1013200084F83500002584F834502068016821F0E5
:10133000010101600DE00120BDE8F08100F09EF99F
:10134000801B052805D920206065032084F835001E
:10135000F2E720680068C007F0D1226811682048D1
:101360000140D4E901031843D4E903363343184359
:1013700063691843A3691843E3691843236A184350
:101380000843616A042903D1D4E90B1319430843C4
:10139000106020684069666A20F0070130460E43FD
:1013A000012704280CD1A06A0643E06A40B1204618
:1013B000FFF74CFB20B14020606584F83570BAE738
:1013C000206846612046FFF72DFB94F85C203F2102
:1013D00091408160656584F835700020ACE70000BD
:1013E0003F8010F02DE9F0410446866D90F83400FE
:1013F000002501280DD0012084F8340094F83570C0
:101400000020012F07D084F8340002252846BDE8CB
:10141000F0810220FBE7022784F8357060652046E2
:10142000FFF73EFB94F85C103F208840B0602068D6
:10143000016841F016010160206C20B1206801684C
:1014400041F0080101602068016841F0010101607C
:10145000DCE7000070B5044600F010F90546601C9A
:1014600002D004480078044400F008F9401BA04270
:10147000FAD370BD240000202DE9F84FDFF8BCA19D
:101480000022012503264FF00F090AF1040BAAF1EF
:10149000040E00BF0B6805FA02F42340A34270D18A
:1014A0000F7907F00307012F01D0022F16D18768AB
:1014B0004FEA420806FA08FC27EA0C07D1F80CC0EC
:1014C0000CFA08FC4CEA070CC0F808C04768A743B0
:1014D0000C79C4F3001494403C4344600C79E44319
:1014E000A4070AD0C4684FEA420C06FA0CF7BC43C2
:1014F0008F6807FA0CF72743C7600C7904F00304E0
:10150000022C12D1D40800EB840CDCF820405707E1
:10151000FF0E09FA07F824EA0804D1F8108008FA47
:1015200007F848EA0408CCF8208004684FEA420C27
:1015300006FA0CF7BC430F7907F0030707FA0CF71C
:10154000274307604C6814F4403F70D03C4C276838
:1015500047F480472760246822F0030704F480449E
:101560000094384C07EB040CDCF8084897074FEA66
:10157000177809FA08F7BC43334FB84202D1002765
:1015800024E054E0314FB84201D101271EE0304F32
:10159000B84201D1022719E02E4FB84201D10327EA
:1015A00014E02D4FB84201D104270FE02B4FB84271
:1015B00001D105270AE02A4FB84201D1062705E0EC
:1015C000284FB84201D1072700E0082707FA08F79B
:1015D0002743CCF80878DAF800405746D1F804C021
:1015E0009C435FEACC2C00D51C433C60DBF80040F8
:1015F0005F46D1F804C09C435FEA8C2C00D51C43A5
:101600003C60DEF800407746D1F804C09C435FEAB6
:101610008C3C00D51C433C60084F083F3C68D1F827
:1016200004C09C435FEACC3C00D51C433C60521C88
:10163000102AFFF42FAFBDE8F88F0000083C0140EE
:1016400044380240003001400000024000040240E3
:1016500000080240000C024000100240001402404A
:1016600000180240001C02400069084000D0012020
:1016700070470AB1816170470904FBE7014880683F
:10168000704700002400002070B5040025D094F8B5
:101690003D00002520B984F83C50204600F04EF96A
:1016A000242084F83D002068016821F001010160D8
:1016B0002068016841F4004101602068016821F45C
:1016C0000041016000F0C4FA4D4A6168914201D8BE
:1016D0004C4900E04C49884201D2012070BD4B4981
:1016E0002368B0FBF1F15E6826F03F060E435E60B2
:1016F0006368934206D94FF4967359434FF47A7353
:10170000B1FBF3F12368491C1E6A26F03F06314302
:1017100019626168914210D84900401EB0FBF1F295
:10172000521CC2F30B02042A01D2042022E0B0FBB7
:10173000F1F0401CC0F30B001CE0A268F2B301EB17
:10174000C10303EB0116431EB3FBF6F35B1C43F42A
:1017500080431B0549D092B301EBC10202EB01119A
:10176000401EB0FBF1F0401CC0F30B0040F4804081
:1017700040F400402168CA694CF6FF739A43104355
:10178000C861D4E9071001432068026822F0C00252
:1017900011430160D4E9030101432068826848F2E3
:1017A000FF339A4311438160D4E90501084321685E
:1017B000CA6822F0FF021043C86001E00EE016E0A4
:1017C0002068016841F0010101602564202084F84F
:1017D0003D00256384F83E50002070BD01EB4106BA
:1017E000431EB3FBF6F35B1CB3E70120C2E701EB3A
:1017F0004101401EB0FBF1F0401CC0F30B00B7E705
:10180000A086010080841E0000093D0040420F00B8
:101810002DE9F84F1F4690468A460446DDF8289089
:10182000FFF72CFF054694F83D0020287FD11923AF
:10183000012240492046009501F088FA002876D11F
:1018400094F83C00012872D0012084F83C00206804
:101850000168C90703D1016841F0010101602068F6
:10186000016821F400610160212084F83D0010200E
:1018700084F83E0000262664C4F824806785608DC5
:1018800020852D48E0622B464A465146204601F00D
:10189000E3F990B9206841698069009036E02A46F2
:1018A0004946204601F0F8FA50B1206C042804D1D2
:1018B0002068016841F4007101600120BDE8F88FE3
:1018C000606A216800780861606A401C6062618D0E
:1018D000491E6185218D491E89B22185226853697F
:1018E000DB435B070BD451B100781061606A401C88
:1018F0006062608D401E6085208D401E20852A46D6
:101900004946204601F0F6F90028CED1208D002866
:10191000C5D154F83D0B016841F4007101602020ED
:1019200004F81E09E67766770020C7E7FFE7022084
:10193000C4E70000020010000000FFFFF0B587B010
:10194000044614216846FEF7B8FC2768234CDFF8EC
:1019500088C0002221491223032504262048103480
:10196000674518D10F6847F002070F60096802AF9A
:1019700001F002010591C021CDE9001387E8640060
:101980006946FFF779FD206840F400102060206868
:1019900000F400101CE0DFF84CC0674519D10F6857
:1019A00047F002070F60096802AF01F002010591DC
:1019B0004FF44061CDE9001387E864006946FFF702
:1019C0005BFD206840F480002060206800F4800007
:1019D000059007B0F0BD00000054004030380240D0
:1019E0000004024000580040024881680278114417
:1019F00081607047240000200B4810B5016841F455
:101A000000710160016841F480610160016841F486
:101A100080710160032000F06FF80F2000F006F8DD
:101A200000F024F8002010BD003C024070B50D4DC0
:101A300004464FF47A712878B1FBF0F00A4909683E
:101A4000B1FBF0F000F00AFB48B9102C07D20022DD
:101A50002146501E00F030F800206C6070BD01205F
:101A600070BD000024000020300000200A4808B5A6
:101A7000016841F480410160006800F480400090FA
:101A80000548001F016841F080510160006800F0C6
:101A90008050009008BD000044380240002809DB57
:101AA00000F01F02012191404009800000F1E02078
:101AB000C0F8001170470000F0B40E4B1B680C46D4
:101AC000C3F30223C3F10705042D00D90425191D12
:101AD000072901D2002300E0DB1E012606FA05F1EA
:101AE000491E214099409E40761E16403143F0BC6D
:101AF00002F02EBB0CED00E0064900F0070208687A
:101B00004FF6FF03184040EA0220034A10430860E2
:101B1000704700000CED00E00000FA052DE9F047E9
:101B20000E46050065D0DFF81481D8F80000F7B242
:101B300000F00700B04207D288F80070D8F8000023
:101B400000F00700B04254D128683D4C810712D5FF
:101B5000400703D5206840F4E05020602878000753
:101B600003D5206840F4604020602068A96820F018
:101B7000F000084320602878C0072DD030496868FD
:101B80000839012812D0022813D0032811D009687F
:101B9000890700292DDA216821F003010143216022
:101BA000FFF76CFD814641F2883A0EE0096889032F
:101BB000EFE709688901ECE7FFF760FDA0EB090199
:101BC000514502D90320BDE8F0872068696800F01C
:101BD0000C00B0EB810FEFD1D8F80010404601F0B7
:101BE0000701B14207D90770006800F00700B04252
:101BF00001D00120E7E72878400705D52068E9688B
:101C000020F4E050084320602878000706D52068BB
:101C1000296920F4604040EAC100206000F038F8F3
:101C20002168084AC1F30311515CC84006490860A5
:101C300006480068FFF7FAFE0020C4E7003C0240B7
:101C400008380240198600083000002028000020D3
:101C50000448054900680968044AC1F38221515CBF
:101C6000C84070473000002008380240298600082C
:101C70000448054900680968044AC1F34231515CCF
:101C8000C84070473000002008380240298600080C
:101C9000154810B5006810F00C02144813D041101C
:101CA000042A0FD0082A0ED10F4C241F2268236863
:101CB00002F03F025B0207D52068C0F38810A0FB4A
:101CC000010106E0084610BD2168C1F38811A1FB9F
:101CD00000010023FEF776FA2168C1F30141491C97
:101CE0004900B0FBF1F010BD083802400024F400B8
:101CF0002DE9F84F04006ED02078DFF84C93C00730
:101D0000A9F104054AD009F104000168C1F3810179
:101D1000012908D00068C0F3810002280AD1D9F84F
:101D20000000400206D52868800337D56068002887
:101D3000E1D033E06068B0F5803F10D0B0F5A02F5F
:101D4000286810D020F480302860286820F4802093
:101D500028606068A8B1FFF791FC06460DE028688E
:101D600040F48030F4E740F480202860F7E700BFBB
:101D7000FFF784FC801B642873D828688003F7D59C
:101D80000CE0FFF77BFC064605E000BFFFF776FCA2
:101D9000801B6428F0D828688003F7D42078DFF807
:101DA000AC8280074FF0000A3ED5A748001D0168AD
:101DB00011F00C0F08D00068C0F3810002280BD18D
:101DC000D9F80000400207D42868800716D5E068DB
:101DD000012800D112E033E1E068B8B10120C8F871
:101DE0000000FFF74BFC064605E000BFFFF746FC8E
:101DF000801B0228C0D828688007F7D52868216989
:101E000020F0F80040EAC10028600DE0C8F800A00A
:101E1000FFF734FC064604E0FFF730FC801B022885
:101E20001FD828688007F7D42078000722D5864F6E
:101E300087486169703771B101210160FFF71EFCAD
:101E4000064604E0FFF71AFC801B022809D8386810
:101E50008007F7D50EE0C0F800A0FFF70FFC06469C
:101E600005E082E0FFF70AFC801B02287DD8386875
:101E70008007F7D42078400768D5DFF8CCB1002779
:101E80000BF13C0BDBF80000C0000BD4DBF80010BA
:101E900041F08051CBF80010DBF80000012700F082
:101EA000805000906B4E3068C00510D4306840F40C
:101EB00080703060FFF7E2FB009005E0FFF7DEFB8B
:101EC0000099401A022850D83068C005F6D55E4EF9
:101ED000A0686C3601280FD00528306810D020F09B
:101EE00001003060306820F004003060A068B8B1B4
:101EF000FFF7C4FB00900FE0306840F00100F4E70A
:101F000040F004003060F7E7FFF7B8FB0099411A92
:101F100041F28830814266D830688007F4D50EE0FF
:101F2000FFF7ACFB009007E0FFF7A8FB0099411A10
:101F300041F28830814256D830688007F4D42FB1FE
:101F4000DBF8001021F08051CBF80010A069C8B375
:101F50003D49091D0968C1F3810102294AD00228BF
:101F6000504607D0C8F8600000E03CE0FFF786FB71
:101F700004463BE04746C8F86000FFF77FFB064693
:101F800005E000BFFFF77AFB801B02282BD82868EA
:101F90008001F7D4D4E907010843A16A2E4A490811
:101FA00002EB0141626A41EA8211084394F82C1065
:101FB00040EA0161C9F8001001203866FFF75EFBB6
:101FC000044606E03EE000BFFFF758FB001B022876
:101FD00009D828688001F7D534E000BFFFF74EFB31
:101FE000001B022802D90320BDE8F88F2868800171
:101FF000F4D427E00128F7D0D9F80000E26900F412
:10200000800191421CD1226A00F03F01914217D118
:1020100047F6C071626A0140B1EB821F10D1A26A1B
:102020004FF0FF3300F4403103EB5202B1EB024FAB
:1020300006D194F82C1000F07060B0EB016F01D065
:102040000120D1E70020CFE70438024000004742DA
:10205000800E4742007000400000FFFF10B5401E98
:10206000B0F1807F01D3012010BD4FF0E02460610A
:102070000F21601702F06CF80020A061072020619A
:10208000002010BD7047704770B590F83C20012AC1
:1020900032D0012480F83C40022280F83D200368C1
:1020A0005A689D6822F070060A6832435A60134BE2
:1020B00002689A4214D0B2F1804F11D0104B9A426C
:1020C0000ED0104B9A420BD00F4B9A4208D00F4BB8
:1020D0009A4205D00E4B9A4202D00E4B9A4204D13E
:1020E000496825F080031943916080F83D40002144
:1020F00080F83C10084670BD022070BD0000014011
:102100000004004000080040000C004000040140B2
:10211000004001400018004010B5040003D094F8BE
:102120003D0010B107E0012010BD002084F83C0004
:10213000204600F01FF8022084F83D00211D206891
:1021400001F096FB012084F8460084F83E0084F8F4
:102150003F0084F8400084F8410084F8420084F88D
:10216000430084F8440084F8450084F83D000020D2
:1021700010BD000008B500681149884212D111480D
:10218000016841F0010101600068002200F00100D7
:10219000009011461920FFF78FFCBDE80840192078
:1021A000FFF77CBCB0F1804F09D10648001F0168E1
:1021B00041F001010160006800F00100009008BDDD
:1021C000000001404438024090F83D10012901D040
:1021D00001207047022180F83D100168CA6842F072
:1021E0000102CA6000681149884214D0B0F1804FE2
:1021F00011D00F4988420ED00E4988420BD00E49AB
:10220000884208D00D49884205D00D49884202D045
:102210000C49884204D1816801F00701062903D0E6
:10222000016841F001010160002070470000014099
:102230000004004000080040000C00400004014081
:10224000004001400018004070B5044690F83C0082
:102250000025012817D0012684F83C60022084F86C
:102260003D002068826822F0770222F47F4282607B
:102270000868502838D00DDC20284FD005DC90B3FA
:10228000102811D14AE0022070BD302846D04028E5
:102290000AD13BE060282FD070280DD0B0F5805FC8
:1022A00003D0B0F5005F12D0012584F83D60002016
:1022B00084F83C00284670BDCB68D1E90121206834
:1022C00001F04BFB2068816841F0770109E0CB68A1
:1022D000D1E90121206801F040FB2068816841F4C8
:1022E00080418160E1E719E0CA684968206801F02F
:1022F00009FC5021206806E0CA684968206801F09E
:1023000012FC6021206801F032FBCEE7CA68496800
:10231000206801F0F7FB40212068F4E722680146BD
:102320001046F0E770472DE9F04104460068C668A2
:1023300005694FF00007A90713D5B10711D5F91E9C
:10234000016101202077206880698007204602D043
:10235000FFF7E8FF04E000F0A7F8204600F039F9A5
:102360002777680716D5700714D521686FF0040029
:102370000861022020772068806910F4407F2046A1
:1023800002D0FFF7CFFF04E000F08EF8204600F007
:1023900020F92777280715D5300713D521686FF066
:1023A00008000861042020772068C0698007204663
:1023B00002D0FFF7B7FF04E000F076F8204600F007
:1023C00008F92777E80616D5F00614D521686FF0CE
:1023D00010000861082020772068C06910F4407F51
:1023E000204602D0FFF79EFF04E000F05DF8204693
:1023F00000F0EFF82777E80708D0F00706D021684B
:102400006FF001000861204600F048F9280608D561
:10241000300606D521686FF0800008612046FFF77E
:1024200031FE680608D5700606D521686FF04000B9
:102430000861204600F052F9A8060AD5B00608D572
:1024400021686FF0200008612046BDE8F041FFF7E9
:102450001ABEBDE8F081000010B586B00446142114
:102460006846FDF72AFF2068B0F1804F15D10C486F
:102470000021026842F001020260006800F00100E1
:1024800005900E2000900220CDE901010120CDE948
:10249000031069460348FEF7EFFF06B010BD0000C9
:1024A0003038024000000240704770B5044690F892
:1024B0003C0000260D4601280FD0012084F83C0086
:1024C0006AB1042A1DD0082A2FD00C2A3FD0012639
:1024D000002084F83C00304670BD022070BD2068AA
:1024E00001F04EFA2068816941F00801816120689D
:1024F000816921F004018161206881692A691143A1
:1025000011E0206801F06CFA2068816941F40061F3
:1025100081612068816921F480618161206881691D
:102520002A6941EA02218161D2E7206801F08EFA2E
:102530002068C16941F00801C1612068C16921F0CA
:102540000401C1612068C1692A69114311E0206852
:1025500001F0B0FA2068C16941F40061C1612068EE
:10256000C16921F48061C1612068C1692A6941EAB9
:102570000221C161ACE710B5040003D094F83D001E
:1025800010B107E0012010BD002084F83C00204677
:1025900000F01EF8022084F83D00211D206801F0A3
:1025A00067F9012084F8460084F83E0084F83F0073
:1025B00084F8400084F8410084F8420084F8430025
:1025C00084F8440084F8450084F83D00002010BDE4
:1025D0007047704710B50446022249B104290ED055
:1025E000082913D094F84100012816D0012010BD0D
:1025F00094F83E000128F9D184F83E200FE094F8C9
:102600003F000128F2D184F83F2008E094F8400010
:102610000128EBD184F8402001E084F84120012218
:10262000206801F08DF916492068164A884201D0C9
:10263000904203D1436C43F40043436420688842D2
:1026400013D0B0F1804F10D00F4988420DD00F4900
:1026500088420AD00E49884207D0904205D00D49E1
:10266000884202D00C49884204D1816801F00701F8
:10267000062903D0016841F001010160002010BD6E
:102680000000014000040140000400400008004038
:10269000000C0040004001400018004010B50949FE
:1026A0000068096888420CD100F03EFC0821002037
:1026B00000F01EFC012804D1BDE8104002A005F086
:1026C00099BA10BD000A00204B45595F3120707245
:1026D0006573736564210D0A000000007047704740
:1026E00010B504460068406994F84110C0F3C0106A
:1026F000212911D180B12068143050E8001F21F049
:10270000800140E80012002AF5D1A06B08B1FEF765
:10271000D3FC204601F0E4FA2068406994F84210A6
:10272000C0F38010222911D180B12068143050E804
:10273000001F21F0400140E80012002AF5D1E06BB3
:1027400008B1FEF7B9FC204601F0A3FA002010BD45
:102750007047000010B500680F4988421BD10F4830
:10276000FFF7BEFF0E4800684068C0F580700204A5
:102770000C48120C028006D00B490C48FDF784FD72
:102780000B4901200870BDE810404FF480720649E3
:10279000024800F0F5B910BD00100140900C002077
:1027A000D80C002022000020900A0020900B00206E
:1027B00020000020F8B5016804460868CA684B6923
:1027C00010F00F0F4FF0000559D003F0010602F48E
:1027D0009077374365D0C10705D0D10503D5616C2B
:1027E00041F001016164410705D5D90703D0616C4F
:1027F00041F002016164810705D5D90703D0616CFE
:1028000041F004016164010707D502F02001314362
:1028100003D0616C41F008016164616C00293AD019
:10282000800604D5900602D5204601F067FA20689C
:102830004069616CC0F38010090700D460B3204682
:1028400001F027FA20684069400621D5206814303D
:1028500050E8001F21F0400140E80012002AF5D1A5
:10286000E06BA8B172490165E06BFEF76EFC0028D1
:1028700011D0E06B016D01B0BDE8F0400847830660
:102880000FD593060DD52046BDE8F84001F036BAC5
:102890002046FFF75DFFF8BD2046FFF759FF65644E
:1028A000F8BD266B2023012E7ED1C6067CD5D60628
:1028B0007AD508684868009048694FF002064006DB
:1028C0004DD5E26B106840684FF480770004000C2F
:1028D0003AD0A18D814237D9E085D069B8422DD058
:1028E00020680C3050E8001F21F4807140E800128D
:1028F000002AF5D12068143050E8001F21F00101B2
:1029000040E80012002AF5D12068143050E8001F7A
:1029100021F0400140E80012002AF5D184F842304D
:10292000256320680C3050E8001F21F0100140E8BA
:102930000012002AF5D1E06BFEF7BEFB6663A08DA6
:10294000E18D401A81B206E0A18D8142A8D1D06903
:10295000B842A5D166632046FFF7C1FEF8BDA08D41
:10296000E18D401A81B2E08D0028F7D00029F5D022
:1029700020680C3050E8002F22F4907240E80027C5
:10298000002FF5D12068143050E8002F22F001020A
:1029900040E80027002FF5D184F8423025632068F5
:1029A0000C3050E8002F00E006E022F0100240E872
:1029B0000023002BF3D1CDE705062BD5150629D52D
:1029C00094F841002128C9D1A068B0F5805F01D1F9
:1029D0002069B0B1206A411C2162216800784860FA
:1029E000E08C401E0004000CE084B7D12068C16870
:1029F00021F08001C1602068C16841F04001C160E0
:102A0000F8BD206A0088C0F308004860206A801C76
:102A10002062E5E74006F3D55006F1D5CA682046A6
:102A200022F04002CA6084F8413000F0FBF8F8BDA3
:102A30004B3B000870B5040004D094F84100002519
:102A400010B106E0012070BD84F84050204600F02F
:102A500023F8242084F841002068C16821F4005143
:102A6000C160204601F0ACF92068016921F4904171
:102A700001612068416921F02A0141612068C16833
:102A800041F40051C1606564202084F8410084F85D
:102A900042006563002070BD2DE9F04186B0064616
:102AA00014216846FDF709FC30493068884259D145
:102AB0002F480024016841F010010160006800F017
:102AC000100005902A481438016841F001010160A6
:102AD0000068694600F0010005904FF4C060009066
:102AE0000220CDE90104032003900720049021482F
:102AF000FEF7C2FC214D20484FF000672860C5E971
:102B000001744FF48068C5E903486C61AC61EC6105
:102B10002C6228466C62FEF7FBFB08B1FDF7D5FF7F
:102B2000F563AE63154D144860357830E5E802076B
:102B30004020A5E81101114845F814496030AC6106
:102B4000EC612C626C62FEF7E3FB08B1FDF7BDFFA0
:102B5000B563002211462520AE63FEF7ADFF2520A8
:102B6000FEF79CFF06B0BDE8F081000000100140B8
:102B7000443802400000024040640240D80C00206B
:102B800090F84230202B01D00220704721B11AB1B9
:102B90000023036301F09AB9012070477047704722
:102BA00070B5044690F84100202801D0022070BD85
:102BB00001B3FAB12162A284E2840020606421237F
:102BC00084F84130A56B144BEB63A56B134B2B645E
:102BD000A56B134BEB64A36B186520681346A56BBC
:102BE000021D2846FEF7FEFB30B110206064202055
:102BF00084F84100012070BD21686FF0400008603A
:102C00002068143050E8001F41F0800140E80012B5
:102C1000002AF5D1002070BD473C0008893C00081F
:102C2000593B000870477047FEE701684A69D24384
:102C300052050FD46FF480624A61002140F8301FC2
:102C4000202242738173026942F00402026101731F
:102C50000120704700207047F8B50446C06A1E4640
:102C60000D461746082807D0012805D010F5803FEB
:102C700002D0206B122804D12068016841F48071D1
:102C80000160134600224FF001112046009600F02B
:102C90005DF840B120680068C00502D54FF40070AF
:102CA00020640320F8BD2069B0F5804F0ED00620C7
:102CB000216800EAD51040F0F000086133463A463A
:102CC0000B49204600F08AF878B902E005F0FE00D2
:102CD00000E0E8B221680861054933463A46891F99
:102CE000204600F07BF80028DCD00120F8BD000071
:102CF0000800010070B516460D4604461EE0204649
:102D0000FFF793FF08B1012070BD681C16D0FEF7D5
:102D1000B5FC801BA84200D885B920684069C04333
:102D200040070BD5002044F8300F20216173A073B9
:102D3000216941F0200121612073E4E720684069A6
:102D4000C0434007DBD4002070BD00002DE9F047F0
:102D5000984617460D460446C1F30746DDF8209015
:102D60002AE000BFB8F1FF3F26D0FEF787FCA0EBBA
:102D70000901414502D8B8F1000F1DD12068012E8C
:102D800016D0806925EA00000004000C12D0002053
:102D9000B84211D1002044F8300F20216173A07394
:102DA000216941F02001216120730120BDE8F087F5
:102DB0004069E7E70120EBE72068012E0AD080692F
:102DC00025EA00000004000C06D00020B842C9D05B
:102DD0000020EBE74069F3E70120F7E72DE9F04732
:102DE000984616460D4604464FF000094FF0200A5B
:102DF000C1F3074723E020684069C043400515D46C
:102E00002068016841F40071016021686FF48060FE
:102E10004861C4F8309084F83DA084F83E90216C5D
:102E200041F00401216484F83C9021E0701C06D03C
:102E3000FEF724FCA0EB0800B04203D816B1012F26
:102E40001FD021E02068012F15D0806925EA0000FD
:102E50000004000C18D000BF44F8309F84F80DA087
:102E600084F80E90216941F02001216184F80C90D2
:102E70000120BDE8F087406925EA00000004000C4D
:102E8000EAD12068406901E02068806925EA0000F5
:102E90000004000CAFD1ECE770B516460D460446B1
:102EA0001EE02046FFF7C1FE08B1012070BD681C7E
:102EB00016D0FEF7E3FB801BA84200D885B9206836
:102EC0004069C04300060BD5002044F8300F202194
:102ED0006173A073216941F0200121612073E4E74F
:102EE00020684069C0430006DBD4002070BD0000AC
:102EF000064B10B51A5C0A4205D0012901D08A435D
:102F00001A54012010BD002010BD00000400002054
:102F100010B528B901210348FEF7A6FB012800D00F
:102F2000002010BD000002402DE9F05F4A4D002056
:102F300035F8101011B1491E25F81010401C10F082
:102F4000FF00F5D04448801F0178491CC9B20170C8
:102F500014297ED34FF0000A871C80F800A0544645
:102F6000461C00F1030900F104084FF0640B305DCA
:102F700038552046FFF7CCFF305518F804200128BB
:102F8000414604D022F001020A5540B10EE042F061
:102F900001020A553B5D4BB942F0020204E03B5D81
:102FA000012B03D142F0040208F8042019F8042090
:102FB000052A4AD2DFE802F0030B1F363800012849
:102FC00043D14FF4FA6025F81400012020E018B135
:102FD00035F8140028B138E0C82025F81400022084
:102FE00016E018F80420042042F0200208F804201B
:102FF00025F814B00CE0012803D035F8140050B1C6
:1030000023E018F80420032042F0100208F80420FE
:1030100009F8040019E018F8042042F0080208F842
:10302000042007E030B110E020B135F8140020B1E1
:103030000BE00EE009F804A007E018F8041041F0D6
:10304000400108F8041025F814B0641C14F0FF04C3
:103050008DD0BDE8F09F000006000020104810B59C
:103060000E4901600221416000214FF04072C0E929
:1030700002124FF4502202614FF4A0024261017625
:1030800041768176C17601774177FDF799FE002878
:1030900003D0BDE81040FDF718BD10BD006400402E
:1030A000300900200D4808B5016841F48001016035
:1030B0000068002200F48000009011463A20FEF7DC
:1030C000FBFC3A20FEF7EAFC002211464620FEF700
:1030D000F3FCBDE808404620FEF7E0BC3038024073
:1030E00070B586B014216846FDF7E7F8264800243D
:1030F000016841F004010160016801F004010591DB
:10310000016841F080010160016801F080010591D2
:10311000016841F001010160016801F001010591C0
:10312000016841F002010160016801F002010591AE
:10313000016841F0080101600068144E00F00800C9
:103140000590002204213046FEF793FA0125CDE9CF
:10315000005469460E480294FEF78EF90420009050
:10316000CDE90154694630460394FEF785F92803FA
:1031700000904FF40410CDE9010569463046FEF792
:103180007BF906B070BD00003038024000040240F8
:10319000000002400D4810B50B4901600C49416028
:1031A00000214FF480428160C0E9031241618161D6
:1031B000C1610162FEF768FA002803D0BDE8104043
:1031C000FDF783BC10BD00000054004058090020EA
:1031D000A08601000D4810B50B4901600C49416003
:1031E00000214FF480428160C0E903124161816196
:1031F000C1610162FEF748FA002803D0BDE8104023
:10320000FDF763BC10BD000000580040AC09002071
:10321000A086010010B586B00024174800940194E0
:10322000029403940494134905940160A721C0E912
:10323000011440F2E731C0E9031444618461FEF7F0
:103240006BFF08B1FDF741FC4FF4805000906946D8
:103250000948FEF7F9FF08B1FDF737FC049404A90B
:1032600005480594FEF710FF002801D0FDF72DFC5E
:1032700006B010BD00000140000A002010B58EB05D
:1032800000240794089409940A940B941C2168461E
:103290000C94FDF712F825484FF08041016053214E
:1032A000C0E901146321C0E903148461FEF734FF0F
:1032B00008B1FDF70AFC4FF48050079007A91B489E
:1032C000FEF7C2FF08B1FDF700FC1848FFF753F9FD
:1032D00008B1FDF7FAFB0B940BA914480C94FEF708
:1032E000D3FE08B1FDF7F1FB6020CDE900040294A4
:1032F000042269460D480494FFF7D7F808B1FDF79A
:10330000E4FB082269460948FFF7CFF808B1FDF74A
:10331000DCFB0C2269460548FFF7C7F808B1FDF74A
:10332000D4FB0248FFF798F80EB010BD480A002001
:1033300010B5114C0F480C2120604FF4E130606053
:103340000020A060E060C4E90401A061E0612046C3
:10335000FFF770FB08B1FDF7B8FB2068C16841F0CA
:103360001001C160BDE810404FF48072034902486B
:10337000FFF706BC00100140900C0020900A0020CE
:10338000FEE7FEE7F0B50B4424E0044685181DE097
:103390007F2C19D8002917DB3F2915DCCE1701EB4C
:1033A00056764FEAE60C0D4F26F0070607EBCC17D2
:1033B0002744A1EB060E97F800C0012606FA0EF688
:1033C0002CEA060C87F800C0641C24B2A542DFDC9E
:1033D000491C09B28B42D8DCF0BD0000300500204A
:1033E00010B50C4640F0B00000F05AF9102040EA49
:1033F000141000F055F904F00F00BDE8104000F083
:103400004FB9000008B5082B0DD0062B0AD10A4B86
:1034100002EB420203EB4202C03A0092082306226A
:1034200000F00EF808BD054B03EB0212A2F5007286
:10343000102300920822F3E7E2820008F27C0008E1
:103440002DE9F04F1F4616460C4682460025FFF731
:1034500099FF7F1EF81707EB50700121DFF89CB031
:1034600001EBE00745E000203FE000BF0AEB00036E
:103470007F2B38D8E11704EB5171CA1021F00701F6
:10348000611A002C03DA521E083112B209B202EBA3
:103490000509B9F1070F10D80BEBC91E1EF8032060
:1034A00015FB06F8DDF824C0844418F80CC00CFAAB
:1034B00001FC42EA0C020EF8032009F10102072A7E
:1034C00011D80BEBC91202EB030898F8803015FBFA
:1034D00006FC099AC1F1080102441CF80220CA4006
:1034E000134388F88030401CC0B2B042BED36D1C7C
:1034F000EDB2AF42B7DCBDE8F08F00003005002030
:103500002DE9FF4F002583B09B4690462C46AA46E6
:10351000DFF8C09056E010068DF8042005F1010593
:103520000DD40398ADB220448DF805A000B25B46DF
:103530000499FFF767FF04EB0B0084B242E0A8B2E6
:1035400018F80010002941D0401C8DF8051085B2F4
:103550008DF806A0002606E0384601A9FCF7BFFE5C
:1035600068B1761CB6B2C6EBC60000EB800101EB79
:103570000900074618A1FCF7B2FE0028ECD1BBF108
:10358000080F03D0BBF1060F1CD111E0C6EBC6003B
:1035900000EB800101EB0900C01C00900398102390
:1035A000204400B21A460499FFF74AFF103408E09D
:1035B00003980623204400B23F220499FFF722FF1C
:1035C000A41DA4B218F80520002AA4D107B0BDE8B4
:1035D000F08F00001C850008000000002DE9F04776
:1035E00090B06C46164689468246A046082A02D903
:1035F0000826002521E00025C6F108070BE000BFE2
:10360000A4EB0800C0F1400118A2204600F054FDD0
:103610006D1C0444EDB2AF42F2DC00251AE0701ECE
:1036200085420AD1A4EB0800C0F1400119F8053029
:103630000FA2204600F040FD0AE0A4EB0800C0F114
:10364000400119F805300AA2204600F035FD044477
:103650006D1CEDB2B542E2D308236A465146002004
:10366000FFF74EFF10B0BDE8F087000030300000DB
:10367000253032580000000070B5084D00240021AC
:103680002046FFF7ADFE05EBC410802100F01AF8CC
:10369000641CE4B2082CF2D370BD00003005002099
:1036A0001CB500218DF804108DF80500481E00900F
:1036B000022301AA78210248FEF7AAF81CBD0000E7
:1036C00058090020F8B506460C46481C03F09CFA41
:1036D000050014D04020287022463146681CFCF7B3
:1036E000D3FD4FF0FF300090631C2A467821044838
:1036F000FEF78EF82846BDE8F84002F09FBFF8BDFF
:1037000058090020704700F049BC00002DE9F04145
:1037100007460B4815460E46007808B900F03EFCF7
:10372000EFF31184202080F311882A463146384671
:1037300000F008F8E1B281F31188BDE8F0810000E3
:103740007800002070B50E46144900EB400001EBF4
:10375000C0051446E86A183520B101280FD00228A8
:1037600005D113E0284600F04DFCA04201D2002410
:1037700011E022463146284600F07CFC0BE028464A
:1037800000F040FCA042F4D20446F2E7314628465D
:1037900000F043FC0446204670BD00007800002085
:1037A00070B505460C460846FCF792FD02462146D8
:1037B0002846BDE87040FFF7A9BF7047FEF714B96F
:1037C00030B593B030216846FCF777FD14210CA882
:1037D000FCF773FD1D480025016841F08051016030
:1037E000006800F0805011901948016841F4804150
:1037F00001600068022400F48040119001200090D4
:10380000000401908001CDE9064004200890A82022
:10381000CDE9090407200B906846FEF769FA08B164
:1038200072B6FEE70CA90F2081E831004FF4A050DA
:103830000F904FF48050109005210CA8FEF76EF900
:10384000002801D072B6FEE713B030BD4038024008
:10385000007000400248016841F470010160704747
:1038600088ED00E00148FEF75EBD0000000A002080
:10387000F0B50268274B284D284E294F294C4FF0B0
:10388000804C984209D0604507D0A84205D0B0428C
:1038900003D0B84201D0A04204D122F0700E4A6891
:1038A00042EA0E0298421BD0604519D0A84217D0B8
:1038B000B04215D0B84213D0A04211D01A4DA84240
:1038C0000ED01A4DA8420BD0194DA84208D0194D60
:1038D000A84205D0184DA84202D0184DA84203D1E5
:1038E00022F44075CA682A434D6922F080022A43B7
:1038F0008D68C5620D688562984201D0A04201D1F1
:1039000009690163016841F004010160012141611D
:103910000260F0BD000001400004004000080040CB
:10392000000C004000040140004001400044014000
:103930000048014000180040001C004000200040EA
:1039400010B501F01F030121046A99408C43046201
:10395000016A9A401143016210BD10B5846842EAC1
:10396000032224F47F440A432243826010BD82680C
:1039700022F070020A4342F00701816070470000A4
:10398000F0B5036A026A22F00102026242688469A9
:10399000124E24F073050C682C4323F002058B684B
:1039A0002B430D4DA84201D0B04205D123F00807AA
:1039B000CB683B4323F00403A84201D0B04205D1B9
:1039C0004D6922F4407215438A692A43426084613A
:1039D000496841630362F0BD0000014000040140FA
:1039E000F0B5026A036A23F0100303624368846936
:1039F0000D6824F4E64444EA05248D6822F0200290
:103A000042EA05120F4D104EA84201D0B04206D135
:103A1000CF6822F0800242EA071222F04002A84258
:103A200001D0B04207D14D6923F4406343EA8503D6
:103A30008D6943EA8503436084614968816302625A
:103A4000F0BD00000000014000040140F0B5026A32
:103A5000036A23F4807303624368C46922F400722A
:103A600024F073050C68124E2C438D6842EA05223F
:103A70000E4DA84201D0B04206D1CF6822F40062B8
:103A800042EA072222F48062A84201D0B04207D164
:103A90004D6923F4405343EA05138D6943EA051346
:103AA0004360C4614968C1630262F0BD0000014027
:103AB0000004014030B5046A026A22F480520262B6
:103AC0004268C3690D6823F4E64343EA05238D6821
:103AD00024F4005444EA0534084DA84202D0084DAD
:103AE000A84204D14D6922F4804242EA8512426024
:103AF000C36149680164046230BD000000000140F8
:103B00000004014010B5036A046A24F00104046251
:103B1000846924F0F00444EA021423F00A020A4300
:103B20008461026210BD10B5036A046A24F01004B7
:103B30000462846923F0A00324F4704444EA02324E
:103B400043EA01118261016210BD10B5806B002152
:103B5000C185FEF7FDFD10BD70B5846B206840691E
:103B600094F84110C0F3C0100025212904D118B1E8
:103B7000E584204600F0B4F82068406994F84210CB
:103B8000C0F38010222904D118B1E585204600F049
:103B900080F8606C40F0100060642046FEF7D8FDAD
:103BA00070BD10B50146806B096809684FF00002CE
:103BB000C9052ED4C28501680C3151E8003F23F4B9
:103BC000807341E80034002CF5D10168143151E8CC
:103BD000003F23F0010341E80034002CF5D10168D7
:103BE000143151E8003F23F0400341E80034002C39
:103BF000F5D1202180F84210016B012909D101681B
:103C00000C3151E8003F23F0100341E80034002C50
:103C1000F5D14263016B012902D0FEF7BFFF10BD51
:103C2000818DFEF75CFD10BD10B5806B01214163F5
:103C3000016B012902D0FEF7B2FF10BD818D49084A
:103C4000FEF74DFD10BD10B50146806B096809688F
:103C5000C90516D40021C1840168143151E8002F30
:103C600022F0800241E80023002BF5D101680C31DD
:103C700051E8002F42F0400241E80023002BF5D12B
:103C800010BDFEF7CFFF10BD10B5806BFEF7CBFF68
:103C900010BD01680C3151E8002F22F4907241E808
:103CA0000023002BF5D10168143151E8002F22F0D8
:103CB000010241E80023002BF5D1016B012909D154
:103CC00001680C3151E8002F22F0100241E8002376
:103CD000002BF5D1202180F84210002101637047AC
:103CE00001680C3151E8002F22F0C00241E80023A6
:103CF000002BF5D1202180F84110704708B590F8CD
:103D00004210222901D0022008BD82684FF480535E
:103D10009A4201D1016921B1816A9A421BD04AB10C
:103D20000AE00268816A5268C2F308020A80816A66
:103D3000891C08E0026972B10268526802F07F02D1
:103D40000A70816A491C8162C18D491E0904090CEF
:103D5000C18503D01BE002685268F1E70168CA68B8
:103D600022F02002CA600168CA6822F48072CA6028
:103D700001684A6922F001024A61202180F842105C
:103D800000214163026B012A03D0FEF707FF0020E8
:103D900008BD016301680C3151E8002F22F01002C8
:103DA00041E80023002BF5D101680A68D20602D54C
:103DB0000A6849680091818DFEF791FCE7E70000F1
:103DC00070B5044600680169E26821F4405111436E
:103DD00001612169A068E2690843616911430843F0
:103DE0002168CA6849F20C639A430243CA6020689A
:103DF0004169A26921F44071114341613149206850
:103E0000884202D03049884202D1FDF731FF01E0FB
:103E1000FDF71EFFE2690023192164253226B2F561
:103E2000004F626828D0A0FB0101930F9200FCF7BD
:103E3000C9F90146B0FBF5F06FF01802504301EBF1
:103E4000800006EB0010B0FBF5F000F0F002B1FBD3
:103E5000F5F002EB0012B1FBF5F06FF018035843D8
:103E600001EB800006EB0010B0FBF5F000F00F0056
:103E700021681044886070BDA0FB010192185B416D
:103E8000FCF7A0F90146B0FBF5F00201B1FBF5F03B
:103E90006FF01803584301EB800006EBC000B0FB45
:103EA000F5F000F0F80002EB4002B1FBF5F05843EA
:103EB00001EB800006EBC000B0FBF5F000F007005E
:103EC000D6E70000001001400014014038B58162BF
:103ED00004468285002013466064222284F8422032
:103EE000E56B1F4AEA63E56B1E4A2A64E56B1E4ACE
:103EF000EA64E26B10650A462168E06B091DFDF774
:103F000071FA30B110206064202084F84200012052
:103F100038BD2068016840680090206948B1206879
:103F20000C3050E8001F41F4807140E80012002A74
:103F3000F5D12068143050E8001F41F0010140E83D
:103F40000012002AF5D12068143050E8001F41F01B
:103F5000400140E80012002AF5D1002038BD0000E1
:103F6000A33B0008293C0008593B0008094808B554
:103F700000680268C168D20607D5C90605D5016880
:103F8000406800900348FEF7E5FBBDE808400148A3
:103F9000FEF710BC900C0020FEE7000010B5124C9C
:103FA00003202061606111A0A06104F1A800E0611C
:103FB0004FF4806020620020A06260620BA1216645
:103FC000E06204F59561616610212067C4E91A106A
:103FD000606709A1E01DFCF79DF908A12046FCF7E8
:103FE00099F92020A07110BD780000205465726DF1
:103FF000696E616C000000005254540053454747FD
:10400000455200000269C1688A4203D88068401A9C
:10401000104400E0501A401E70472DE9F047C46874
:104020001746894606464FF000083069A04201D97C
:10403000051B02E0B168201A0D1AB0686D1E001B46
:10404000A84200D80546BD4200D33D4670682A46C6
:1040500020444946FCF718F9B0687F1B2C44A8445B
:10406000A944A04200D10024F460002FDDD14046D5
:10407000BDE8F0872DE9F04104468846D4E90207FF
:10408000C51BE168606816460844B54206D941463A
:10409000FCF7FAF8B819E060BDE8F0812A4641461D
:1040A000FCF7F2F8761B08EB050132466068FCF776
:1040B000EBF8E660F0E700000FB47CB50C0009AD4A
:1040C00001D0611E00E00021CDE90001064B6A46E7
:1040D0002946089800F0F0FD002C02D0009A00213B
:1040E00011707CBC5DF814FBBF5300087CB50C005C
:1040F0001D461646014601D0601E00E00020CDE9B5
:104100000010064B6A462946304600F0D5FD002CCB
:1041100002D0009A002111707CBD0000BF5300083E
:1041200003B401984100009850EAC12018BF042050
:104130004A0D18BF40F0010040F2FF72B2EB515F30
:1041400008BF40F00200012808BF052002B07047F8
:104150000907090E002804DB00F1E02080F80014B4
:10416000704700F00F0000F1E02080F8141D704748
:1041700070B5C1482DED020B2DED0E8B82B0119D57
:1041800025F000449FEDBEDB9FEDBFEB84423EDB9C
:10419000A4F140511098A1F17F6108430FD0BC48B1
:1041A000844202DC28D1109830B39DED100B02B090
:1041B000BDEC0E8B02B0BDE8704000F071BC9DED0F
:1041C000100B53EC1D2B51EC100BFCF753F99DED2C
:1041D000100B41EC180B53EC1E2B51EC100BFCF7A1
:1041E00049F953EC182BFCF79EF841EC100B02B088
:1041F000BDEC0E8B02B070BD012000F095FC02B04A
:10420000BDEC0E8B02B0BDE8704000F05DBCA14873
:104210009FEDA18B844256DA9DED100BB4F1795FCE
:104220000ADA51EC100BFFF77BFF042808BF00F0FF
:104230005BFC9DED100BDAE753EC102B51EC100BEF
:10424000FCF718F941EC190B95480621B0EE490A24
:10425000F0EE690A784400F0A7FB53EC192B51ECFF
:10426000100BFCF707F941EC1A0B8E48B0EE490A27
:10427000F0EE690A0421784400F096FB53EC192B08
:1042800051EC100BFCF7F6F853EC182BFCF74BF83D
:1042900041EC100B51EC1A0B53EC102BFCF75CF9B2
:1042A000CDE900019DED000B53EC102B9DED100BA3
:1042B00051EC100BFCF7DEF89DED101B53EC112BAD
:1042C000FCF731F8D2E09DED100B51EC100B02F031
:1042D000A9F953EC182BFCF7CAF89FED730BCDE945
:1042E000000153EC102B9DED000B51EC100BFCF773
:1042F000C1F841EC190B6E480621B0EE490AF0EE08
:10430000690A784400F050FB53EC192B51EC100B68
:10431000FCF7B0F841EC1B0B6648B0EE490AF0EE32
:10432000690A0421784400F03FFB53EC192B51EC4F
:10433000100BFCF79FF853EC182BFBF7F4FF41EC44
:104340001C0B51EC190B03F09DFC41EC180B5A4867
:104350009FED5BABA04222DC53EC1C2B51EC1B0B02
:10436000FCF7FAF8CDE900019DED000B51EC180BBC
:1043700053EC102BFCF77EF853EC182BFBF7D3FF14
:1043800053EC1A2BFCF776F853EC1D2BFCF76CF86A
:1043900053EC1E2BFCF76BF841EC100B5FE08DED3E
:1043A000008B002000909DED000B51EC180B53EC9E
:1043B000102BFBF7B8FF9DED000B41EC1E0B53ECEF
:1043C000102B51EC100BFCF755F853EC192BFCF7A4
:1043D0004EF853EC1E2BFCF7BFF841EC190B53ECD5
:1043E0001C2B51EC1B0BFCF7B7F841EC1B0B53ECEF
:1043F0001A2B51EC190BFCF73DF853EC1D2BFCF775
:1044000036F841EC190B53EC1A2B51EC180BFCF756
:1044100031F853EC1B2BFCF72DF853EC192BFCF760
:1044200023F89DED000B41EC180B53EC1A2B51ECCB
:10443000100BFCF71FF89FED249B53EC192BFCF796
:1044400016F841EC100B51EC180B53EC102BFCF749
:104450000BF853EC192BFCF70AF841EC100B002D6C
:104460003FF7C5AE51EC100B81F0004141EC100B51
:10447000BDE60000000000000000F03F000000006A
:10448000075C143326A6913C182D4454FB21F93FB8
:104490000000F07F0000E03F000000000000F03F5F
:1044A000205000002E500000000000000000E03FFF
:1044B000724F0000804F00003333EF3F00000000D8
:1044C0000000000000000040182D4454FB21E93F8B
:1044D00070B59B482DED020B2DED068B079D25F049
:1044E0000044A04218DC9748844202DC0AD10698B6
:1044F00040B19DED060BBDEC068B02B0BDE87040EF
:1045000000F0CEBA002DCCBF9FED8F0B9FED900B2E
:10451000BDEC068B02B070BD8F48A04215DD8F4800
:10452000A042D8BF4FF0FF3458DD9DED060B51EC93
:10453000100BFFF7F5FD042808BF00F0D5FA9DED3C
:10454000060BBDEC068B02B070BD9DED060B51EC69
:10455000100B02F067F8CDE9060181489FED828BD0
:10456000A0423CDD8248A0421FDD00249FED82ABCB
:104570009DED060B53EC1A2B51EC100BFBF7D3FE01
:104580009DED060B41EC190B53EC1A2B51EC100B63
:10459000FBF770FF53EC182BFBF766FF53EC192B5E
:1045A000FBF7DAFFCDE9060149E09DED060B01249A
:1045B00053EC182B51EC100BFBF7B5FE9DED060BE1
:1045C00041EC190B53EC182B51EC100BFBF74CFF83
:1045D00053EC192BFBF7C0FFCDE906012FE068482B
:1045E000A0421FDD02249FED689B9DED060B53EC5E
:1045F000192B51EC100BFBF73DFF53EC182BFBF77D
:1046000092FE9DED060B41EC180B53EC192B51EC6F
:10461000100BFBF729FF53EC182BFBF79DFFCDE99F
:1046200006010CE09DED060B032453EC102B9FEDCF
:10463000580B51EC100BFBF78FFFCDE906019DEDF8
:10464000060B53EC102B51EC100BFBF713FF41EC56
:10465000180B53EC182BFBF70DFF41EC190B4E48D0
:104660000621B0EE490AF0EE690A784400F09CF9A0
:1046700053EC182B51EC100BFBF7FCFE41EC180B24
:104680004648B0EE490AF0EE690A0521784400F088
:104690008BF953EC192B51EC100BFBF7EBFE41ECB3
:1046A000100B51EC180B53EC102B002C0EDAFBF70F
:1046B0003AFE9DED061B53EC112BFBF7DBFE9DED47
:1046C000061B53EC112BFBF7D2FE35E0FBF72BFE5C
:1046D0009DED061B53EC112BFBF7CCFE41EC100BB0
:1046E0002F48784400EBC40090ED001B51EC100BF8
:1046F00053EC112BFBF7B8FE9DED061B53EC112B71
:10470000FBF7B2FE41EC100B2648784400EBC400E6
:1047100090ED001B51EC100B53EC112BFBF7A7FE97
:1047200041EC100B002DA2BFBDEC068B02B070BD9A
:1047300051EC100B81F0004141EC100B01E700003F
:10474000000010440000F07F182D4454FB21F93F75
:10475000182D4454FB21F9BF0000DC3F0000203E2F
:104760000000F33F00000000000000000000F03FE8
:104770000000E63F000000000000000000000040D4
:104780000080034000000000000000000000F83F2F
:10479000000000000000F0BFC24C0000784C000098
:1047A000024C0000BA4B000070B56F4E2DED040BAB
:1047B0002DED048B82B0DDF824C0DDE907235C42D7
:1047C0002CF000411C4341EAD474069D22F00040C5
:1047D000B44205D86C422C4340EAD474B4420BD99D
:1047E0009DED081B9DED060B02B0BDEC048B04B0E3
:1047F000BDE8704000F05EB9ACF14054A4F17F64B4
:104800001C430BD0022404EAAC7444EAD27405437E
:104810009FED578B9FED582B07D015E09DED060BB4
:1048200051EC100B00F01EFE42E0002C11BF012CD9
:104830009DED060B02B0BDEC048B04BF04B070BD4F
:10484000022C38D0032C3BD00B439FED4D1B9FED2A
:104850004E0B0AD0B14218D1B04209D121F08041AB
:1048600020F08040099107900FE0002A15DA10E04F
:10487000474B7B44002C08BF93ED000B0DD0012C5F
:1048800010D0022C17D0032C1AD0B0421DD1002A10
:1048900003DAB0EE410AF0EE610A02B0BDEC048B1F
:1048A00004B070BD93ED000B51EC100B81F0004192
:1048B00041EC100BF1E7B0EE480AF0EE680AECE7C5
:1048C000B0EE420AF0EE620AE7E7401A00159FEDEB
:1048D000329B3C28C8BF8DED000B17DCBCF1000FEC
:1048E000BCBF10F13C0F8DED009B0FDB9DED080B65
:1048F00053EC102B9DED060B51EC100BFBF72CFE2F
:1049000001F090FE00F0AEFDCDE90001B4B1012C44
:1049100010D0022C9FED220B53EC102B9DED000BC1
:1049200051EC100B19D0FBF79FFD53EC182BFBF744
:104930009BFDBDE7019880F0004001909DED000BCC
:1049400053EC192B51EC100BFBF788FE04BF02202F
:1049500000F0EAF89DED000B9FE7FBF785FD53ECB7
:10496000182BFBF784FDA3E70000F07F0000000098
:10497000182D4454FB210940182D4454FB2109C033
:10498000182D4454FB21F9BF182D4454FB21F93F45
:10499000EA4A0000000000000000000000000000E3
:1049A000075C143326A6A13C70B504462DED028B9E
:1049B0004D1E00EBC500B0EE408AF0EE608A90ED2F
:1049C000000B35F0060017D053EC182B51EC100BF0
:1049D000FBF750FD41EC100B6D1E04EBC50090ED94
:1049E000001B51EC100B53EC112BFBF79CFC41EC22
:1049F000100B35F00600E7D1022D36D0042D1CD067
:104A0000062D1CBFBDEC028B70BD53EC182B51EC76
:104A1000100BFBF72FFD94ED0A1B53EC112BFBF74A
:104A200082FC53EC182BFBF725FD94ED081B53EC8F
:104A3000112BFBF778FC41EC100B53EC182B51ECCD
:104A4000100BFBF717FD94ED061B53EC112BFBF736
:104A50006AFC53EC182BFBF70DFD94ED040B53ECA3
:104A6000102BFBF760FC41EC100B53EC182B51ECB6
:104A7000100BFBF7FFFC94ED021B53EC112BFBF723
:104A800052FC53EC182BFBF7F5FC94ED001B53EC98
:104A9000112BFBF748FCBDEC028B41EC100B70BDF9
:104AA00010B553EC102B51EC100BFBF73CFC41EC18
:104AB000100B10BD10B553EC112B51EC100BFBF784
:104AC00032FC41EC100B10BD9FED050B10B553EC03
:104AD000102B51EC100BFBF73FFD41EC100B10BD00
:104AE00000000000000000009FED050B10B553EC26
:104AF000102B51EC100BFBF7BDFC41EC100B10BD63
:104B0000000000000000001002E008C8121F08C1E9
:104B1000002AFAD170477047002001E001C1121F3E
:104B2000002AFBD17047000001490860704700006F
:104B3000740000202DE9FF5F82B00021DDE9043020
:104B4000020DDDF840B0034318D044F61050A2F235
:104B5000FF3242431514119801281FD0A5EB0B001A
:104B6000401C5FEA000A4FF000064E4FDFF8389114
:104B7000B046504615D5CAF1000413E0119801243F
:104B80004AA3012801D16FEA0B010298119AC0E9EA
:104B90000031C0E9024206B0BDE8F09FCBF1000051
:104BA000DFE704460021404A491842EB0450CDE9B2
:104BB000001012E0E00707D032463B464046494627
:104BC000FBF758FC8046894632463B46104619465C
:104BD000FBF750FC06460F466410002CEAD1DDE9D5
:104BE0000401DDE90023BAF1000F06DAFBF742FC0D
:104BF00042464B46FBF73EFC05E0FBF7ADFC424668
:104C00004B46FBF7A9FC04460E460022284BFBF757
:104C10003DFD03D84FF0FF30014607E00022254B51
:104C200020463146FBF77FFBFBF73FFE102409E0EF
:104C3000002C0ADB0A220023FBF7C4FA039B303264
:104C40001A55641E50EA0102F2D1641C039AC4F1A1
:104C500011031444119A012A03D0012208430DD1F3
:104C60000AE0084304D000204FF0110B119072E7C6
:104C7000A3EB0B056D1E0DE05B4504DD4FF000025C
:104C800005F1010504E003DA4FF00002A5F101058A
:104C9000002AECD002981199C0E90231C0E9004520
:104CA00079E70000000014400000F03F30000000F1
:104CB0000000F0430000E03F2DE9FF4F95B09A4619
:104CC000884606460025EEE1252877D100242746B0
:104CD000F94A0121039400E0044316F8013F203B08
:104CE00001FA03F01042F7D130782A2811D06FF082
:104CF0002F033078A0F13002092A16D8039A44F025
:104D0000020402EB820203EB42021044761C039081
:104D1000EFE758F8042B0392002A03DA504244F4D8
:104D20000054039044F00204761C30782E2816D1EB
:104D300016F8010F44F004042A280DD06FF02F025A
:104D40003078A0F13003092B09D807EB870302EB79
:104D50004303C718761CF3E758F8047B761C3078B9
:104D60006C280FD006DC4C2817D068280DD06A2894
:104D700014D104E0742810D07A280FD10DE044F447
:104D800000140AE044F4801401E044F44014727802
:104D9000824202D104F58014761C761C3078662895
:104DA0000BD013DC582877D009DC002875D04528B3
:104DB000F6D04628F4D047281AD193E118E06328AA
:104DC00035D0642879D0652812D18BE1702873D052
:104DD00008DC6728F1D069286FD06E280DD06F28C5
:104DE00006D1ACE073282CD0752874D0782853D025
:104DF0005246179990476D1C54E1C4F302500228A3
:104E000009D003280DD0D8F8001004280DD00D606B
:104E100008F1040846E1D8F80010EA17C1E9005289
:104E2000F6E7D8F800100D80F2E70D70F0E718F8FB
:104E3000041B8DF8001000208DF80100EB460120C6
:104E400003E058F804BB4FF0FF3061074FF000015A
:104E500002D40DE009F101018946B9420FDA81451A
:104E6000F8DB1BF809100029F4D108E009F1010171
:104E700089468142FADB1BF809100029F6D1039814
:104E80005346A0EB090721463846179A00F080FAEE
:104E9000284400EB090507E044E008E10DE01BF8B9
:104EA000010B524617999047B9F10109F7D25346C1
:104EB00021463846179AF2E039E00A21C4F302523B
:104EC0004FF0000B0091022A06D058F8040BC117CE
:104ED000032A09D00AE023E008F1070020F00702C6
:104EE000F2E80201904605E000B2C117042A01D1A0
:104EF00040B2C117002906DA0A460021404261EBA0
:104F000002012D2202E0220504D52B228DF8042077
:104F1000012203E0E20701D02022F7E7914657E0A3
:104F20000A2100E010214FF0000B00910BE010214E
:104F30004FF0000B44F004040827009103E0082020
:104F40004FF0000B0090C4F30252022A05D058F82B
:104F5000040B0021032A08D008E008F1070020F024
:104F60000702F2E80201904603E080B2042A00D171
:104F7000C0B24FF0000922072AD53278702A07D034
:104F8000DDF800C08CF0100C5CEA0B0C05D00EE0D4
:104F900040228DF80420012208E050EA010306D0E7
:104FA00030238DF804308DF8052002229146009BB5
:104FB00083F0080353EA0B030AD150EA010201D13E
:104FC000620705D530228DF804204FF001097F1EBD
:104FD0003278582A04D039A20C920CAA02920BE023
:104FE0003BA2F9E75B46009AFBF7ECF80C9B9B5C55
:104FF000029A521E0292137050EA0102F2D10298F4
:1050000004A9081A00F1200B600702D524F48034AB
:1050100000E001275F4502DDA7EB0B0000E0002068
:1050200000EB0B01009003984944401A0390E00301
:1050300006D453462146179A039800F0A9F905446F
:10504000002706E001A85246C05D179990476D1CE5
:105050007F1C4F45F6DBE0030CD553462146179ADB
:10506000039800F095F9054404E030205246179962
:1050700090476D1C0099481E00900029F5DC08E05F
:105080000298029952460078491C0291179990475C
:105090006D1CBBF10001ABF1010BF1DC5BE100F039
:1050A00065F90544761C307800287FF40DAE19B000
:1050B0002846BDE8F08F0000092801003031323366
:1050C0003435363738396162636465660000000044
:1050D000303132333435363738394142434445462E
:1050E00000000000600700D4062708F1070020F048
:1050F0000700F0E80223804603F0004C5FEA0C0052
:1051000001D097A009E0200501D596A005E0E007B1
:1051100001D095A001E0AFF24C001390307823F05D
:10512000004365280CD006DC452809D046281DD050
:1051300047287FD13BE0662818D067287AD136E02F
:105140000021112F01DB112000E0781CCDE90001C6
:1051500004A90CA8FFF7EEFCDDE90D010C9A4FF055
:10516000000B07F10109109200914EE04FF0004052
:105170000097CDE9011004A90CA8FFF7DBFCDDE9DD
:105180000D020C9B0F994FF0000B9146109300926B
:1051900011B9791C00EB0109B7EB090003D4C0F188
:1051A000FF3B07F10109A9EB0700019042E0012F45
:1051B00000DA01270021112F01DD112000E038461F
:1051C000CDE9000104A90CA8FFF7B4FCDDE90D014D
:1051D0000C9A00914FF0000BB946109221070FD4A2
:1051E000009A4A4503DA914601E0A9F10109B9F1B3
:1051F000010F05DD109AA9F10101515C3029F4D0AD
:10520000B84202DA10F1040F03DA0121CDE90110EE
:1052100010E0002803DC8344A9EB000102E0411CFC
:10522000494500DD8946A0EB0B00401C01904FF082
:1052300000400290200705D40198484502DB4FF05A
:10524000FF30019000208DF84B0002980DF14B07C4
:10525000B0F1004F25D002200C902B200D90029829
:1052600000280CDA404202902D200D9007E00A2120
:105270000298FBF73FFA3031029007F8011D0C99B4
:10528000481E0C900029F2DC02980028EFD1791E0C
:105290000D980870307800F0200040F0450007F8C5
:1052A000020D11A8C01BC01D02901398007800B118
:1052B000012000EB0901019801EBE0710298014423
:1052C0000398401A401E0390E00306D4534621463B
:1052D000179A039800F05CF805441398007818B109
:1052E0005246179990476D1CE00323D5534621463B
:1052F000179A039800F04CF805441BE0BBF1000F2F
:1053000007DB0098584504DD1098179910F80B003A
:1053100001E0179930205246904701980BF1010B9C
:10532000401E05F10105019004D12E205246179927
:1053300090476D1CB9F10001A9F10109DEDC05E01F
:1053400017F8010B5246179990476D1C0299481E99
:1053500002900029F4DC53462146179A03989EE6F2
:105360002D0000002B000000200000002DE9F0417E
:10537000044600251E461746880404D405E0394635
:105380002020B0476D1C641EF9D52846BDE8F08189
:105390002DE9F041044600251E469046C80301D57C
:1053A000302700E02027880404D505E04146384630
:1053B000B0476D1C641EF9D52846BDE8F0814A68E7
:1053C000002A06D00A68531C0B6010704868401E03
:1053D00048607047FEB506460D460024684601F059
:1053E00055F900229FED1B1A6B46012156F82270D9
:1053F00055F82200381A00D5404200EE100A03EB9F
:105400008200B8EEC00AD0ED000A20EE010AF5EEE7
:10541000C00AF1EE10FA0DD0C0EE201AB7EE000A65
:105420000D4F31EEC00AB0EEC00A10EE100AB842BD
:1054300007DC09E010EE100A084F3844084FB84264
:1054400002D301FA02F00443521C032ACEDB2046A9
:10545000FEBD000000008037295C0F3E666666C115
:105460009A99D90010B541EC100BFFF731F851ECC7
:10547000100B10BD70B50C462DED0C8B8EB0054693
:105480000CA902A816460BABCDE9000103AA09A995
:1054900007A800F04FFD00287ED1BDF80800C00528
:1054A0007AD59DED030AF8EEC00A9FED480AB0EEEA
:1054B00000CA60EE809ADDED040AF8EEE00A69EEBB
:1054C0008CCA20EE808ADDED050AF8EEE00A60EE77
:1054D000808ADDED060AF8EEE00A20EE809AB8EE4A
:1054E000000A28EE00BA2BEE090A0CEEA80A10EE0C
:1054F000100AFBF7A0F841EC100BFEF739FE9FED08
:1055000034AB51EC100B53EC1A2BFAF7B3FFFBF74B
:10551000D5F82BEE080A28EE8CDAF7EE000A2860A0
:105520000DEE680A30EE200A10EE100AFBF783F841
:105530002DEE090A41EC1B0B0CEE880A10EE100A46
:10554000FBF779F841EC100BB0EE4B1AF0EE6B1A4A
:10555000FFF72AF953EC1A2B51EC100BFAF78AFFDC
:10556000FBF7ACF829EEA90A206008EE080A08EE5D
:10557000E80A09EE490A10EE100AFBF75CF828EE7B
:10558000280A41EC1B0B09EE890A20EE0C0A10EEEA
:10559000100AFBF750F800E015E041EC100BB0EEFC
:1055A0004B1AF0EE6B1AFFF7FFF853EC1A2B51EC85
:1055B000100BFAF75FFFFBF781F8306000200EB0A8
:1055C000BDEC0C8B70BD0120F9E7000000008030BD
:1055D0006666666666A64C4070B5002001F0C4FDA4
:1055E0000446782002F054FA0444782001F0E8FCE4
:1055F0000444642002F00CFA044400F091FC051904
:105600001348044601F090FA0646E01C01F08CFABB
:1056100046EAC006A01D01F087FA46EA801080B273
:1056200000F040FE441940F2731000F051FB0444B6
:10563000642000F09FFD0444012002F00FF90444AF
:1056400000F061FA204410F0FF0000D0012070BD8E
:10565000600000207CB514460D4606466B460622C7
:105660003B21682000F012FA00280BD1BDF8001091
:1056700049BA3180BDF8021049BA2980BDF804103A
:1056800049BA21807CBD10B5040004D0FBF7F6FFB9
:105690002060002010BD012010BD7CB514460D46D1
:1056A00006466B4606224321682000F0EFF90028E9
:1056B0000BD1BDF8001049BA3180BDF8021049BACB
:1056C0002980BDF8041049BA21807CBD38B5044654
:1056D0006B4602224121682000F0D8F900281CD135
:1056E000BDF80010DFED0D0A49BA09B200EE101A3C
:1056F0009FED0B1AB8EEC00A30EE600AC0EE010A48
:10570000B3EE030A30EE800ADFED060A20EE200A2F
:10571000BDEEC00A10EE101A218038BD00400244D0
:105720000000AA430000C84270B5114D4FF48064D8
:10573000002221462846FBF79CFF00F01BF80122BF
:10574000D60231462846FBF794FF00F013F80022FA
:1057500031462846FBF78DFF00F00CF80122214668
:105760002846FBF786FFBDE8704000F003B8000054
:105770000010024008B50020009000BF401C0090BF
:105780003C28FAD308BD000010B586B01421684645
:10579000FAF793FD1448016841F0100101600168B7
:1057A00001F010010591016841F0100101600068ED
:1057B0000E4C00F0100005904FF4006000900120A6
:1057C000019002900220039069462046FBF754FEA8
:1057D000201500901120019069462046FBF74CFEF1
:1057E00000F0A4F806B010BD3038024000100240AE
:1057F00070B50C4C012291022046FBF73AFFFFF7EF
:10580000B9FF0122D50229462046FBF732FFFFF7F8
:10581000B1FF002229462046FBF72BFFBDE8704070
:10582000FFF7A8BF001002402DE9F0470024164EF4
:10583000804625464FF480694FF400676006040EE9
:10584000012239463046FBF714FFFFF793FF494624
:105850003046FBF709FF08B1641CE4B20022394668
:105860003046FBF706FFFFF785FF6D1CEDB2082DF4
:10587000E4D3B8F1000F04D0FFF756FF2046BDE88F
:10588000F087FFF7B5FFF9E7001002402DE9F0417E
:10589000144F002405464FF48068FE14280601D5F5
:1058A000012200E0002241463846FBF7E2FEFFF706
:1058B00061FF012231463846FBF7DBFEFFF75AFF56
:1058C000002231463846FBF7D4FE6806641C050EFC
:1058D000E4B2082CE2D341463846BDE8F04101224B
:1058E000FBF7C7BE0010024070B501220E4D9402B6
:1058F00021462846FBF7BDFE0122D6023146284646
:10590000FBF7B7FEFFF736FF002221462846FBF7DC
:10591000B0FEFFF72FFF002231462846FBF7A9FE15
:10592000BDE87040FFF726BF0010024070B50D4D76
:105930004FF48064002221462846FBF79AFEFFF7C9
:1059400019FF0122D1022846FBF793FEFFF712FF51
:10595000012221462846FBF78CFEBDE87040FFF788
:1059600009BF0000001002402DE9F0410122164E4F
:1059700000249702254639463046FBF77AFEFFF7AA
:10598000F9FE4FF40068012241463046FBF771FEF4
:10599000FFF7F0FE07E0641CE4B2FA2C03D9FFF72E
:1059A000C5FF012505E039463046FBF75DFE0028BE
:1059B000F1D1002241463046FBF75BFEFFF7DAFEED
:1059C0002846BDE8F08100000010024010B588B004
:1059D00014216846FAF771FC2A48016841F0040175
:1059E00001600068284C00F004000690012000903F
:1059F000019002900220039069462046FBF73CFD8F
:105A0000002201212046FBF734FEFFF7BDFE00F027
:105A1000FEF8032000F0C1F8002000F0B8F83220B2
:105A200000F0DAF800223821682000F02DF9002279
:105A30006A21682000F028F900222321682000F064
:105A400023F980223721682000F01EF905AA75216C
:105A5000682000F054F89DF81400702802D001204E
:105A600008B010BD01226B21682000F00DF9002262
:105A70006C21682000F008F9322000F0ADF8002019
:105A8000EEE7000030380240000802402DE9F04106
:105A90001D4614460F460646FFF726FF7006000E09
:105AA000FFF7F4FEFFF760FF012812D03846FFF73A
:105AB000EDFEFFF759FF01280BD0FFF715FF01207E
:105AC00000EB4600C0B2FFF7E1FEFFF74DFF0128F3
:105AD0000FD1FFF72BFF0220BDE8F081012C01D987
