:020000040800F2
:10000000D808002005010008AF230008791F000868
:100010005D230008C5060008912C000800000000C0
:10002000000000000000000000000000C9280008D7
:10003000350700080000000003280008CB2800084E
:100040001F0100081F0100081F0100081F01000810
:100050001F0100081F0100081F0100081F01000800
:100060001F0100081F0100081F0100081F010008F0
:100070001F0100081F0100081F0100081F010008E0
:100080001F0100081F0100081F010008792C00084B
:10009000852C00081F0100081F0100081F0100082F
:1000A0001F010008312900081F0100081F01000876
:1000B0001F0100081F0100081F0100081F010008A0
:1000C0001F0100081F0100081F0100081F01000890
:1000D0001F0100086D2C00081F0100081F01000807
:1000E0001F0100081F0100081F010008DFF810D0E1
:1000F00000F0D6FA00480047E53B0008AFF3008067
:10010000D80800200648804706480047FEE7FEE77B
:10011000FEE7FEE7FEE7FEE7FEE7FEE7FEE7FEE7B7
:100120002D290008ED000008202A04DB203A21FADE
:1001300002F00021704721FA02F3D040C2F1200200
:100140009140084319467047D2B201E000F8012BF4
:10015000491EFBD270470022F6E710B513460A4647
:1001600004461946FFF7F0FF204610BD10B50022E7
:1001700000E0521C835C8C5CA34201D1002BF8D1BF
:10018000D8B2E1B2401A10BD30B504460020034693
:1001900000E05B1C934203D2E05CCD5C401BF8D0D6
:1001A00030BD2DE9FE4F804681EA0300C00F0C46AA
:1001B000009021F0004123F00045B8EB0200A94176
:1001C00005D24046214690461C460B46024623F087
:1001D0000040104347D0270DC7F30A00C3F30A516C
:1001E0000290401A019040286BDAC3F3130040F4E8
:1001F000801B0098924620B10023D2EB030A63EBE8
:100200000B0B01985946C0F14002504600F0B1F97D
:1002100006460D4650465946019A00F0B9F910EBD2
:1002200008006141002487EA115284EAE7731A4307
:1002300040D0009A62B3019A012A4FEA075215DCB6
:10024000001B61EB02014FF0004202EA0752CDE9C8
:100250000042001C41F5801132462B4600F0B9F9EE
:1002600003B0BDE8F08F40462146F9E7001B61EB83
:100270000201001C41F5801300185B412018A2F513
:10028000001747EB030140EAD570B6196D4111E044
:100290006D084FEA360645EAC0754FEA0752001B63
:1002A00061EB0201001C41F5801149084FEA300062
:1002B0000019514132462B4603B0BDE8F04F00F023
:1002C00079B90098012240000023D0EB020263EBD1
:1002D000E073009821464FEAE074B8EB000061EB50
:1002E0000401E9E783F000435BE781F0004158E750
:1002F0002DE9FE4F81EA030404F0004421F000419F
:1003000000944FF0000B23F0004350EA01045ED04C
:1003100052EA03045BD0C3F30A54C1F30A552C44D8
:10032000A4F2F3340194A0FB0254C1F3130141F48D
:100330008011C3F3130343F4801301FB024400FB59
:10034000034E840A970A44EA815447EA8357A4FB80
:10035000076802958D0A05FB07854FEA932C04FB7D
:100360000C542705029D4FEA065847EA1637B5EBAD
:1003700008056EEB070C870E920E47EA811742EADA
:100380008312A7FB0201B6EB0B0164EB00042B0DFB
:1003900043EA0C335E1844EB1C50DA465146E7FB47
:1003A0000201C5F313044FEA0B3343EA14534FEA37
:1003B0000432019C43EA0603A4F10C040294009C5D
:1003C000CDE900B400F005F903B0BDE8F08F0020DE
:1003D0000146F9E72DE9F04D81EA030404F0004BF2
:1003E00021F0004514464FF0000A23F0004150EA86
:1003F000050220D054EA01021DD0C5F30A57024677
:10040000C5F31303C1F31300C1F30A5640F480157A
:1004100043F48013A7EB0608101BD64608F2FD38FC
:1004200073EB050002D308F1010801E092185B416B
:10043000B8F1000F03DA00200146BDE8F08D00207E
:100440004FF48011064684460EE0171B73EB050738
:1004500005D3121B63EB050306434CEA010C490864
:100460004FEA300092185B4150EA0107EDD152EAA1
:10047000030012D082EA040083EA0501084305D094
:10048000101BAB4106D20122002306E000224FF0F0
:10049000004302E06FF0010253101AEB06004CEB30
:1004A000085110EB0A0041EB0B01BDE8F04D00F0E4
:1004B00081B8000030B5041E71F1000404DB4FF078
:1004C0000044404264EB0101141E73F1000405DB9B
:1004D0001C464FF00043524263EB0403994208BFAD
:1004E000904230BD30B50B46014600202022012449
:1004F00009E021FA02F59D4205D303FA02F5491BF2
:1005000004FA02F52844151EA2F10102F1DC30BD07
:100510002DE9F05F0546002092469B468846064638
:10052000814640241BE02846414647462246FFF7C5
:10053000FBFD53465A46C01A914110D31146184646
:10054000224600F016F82D1A67EB01084F462246A6
:100550000120002100F00DF817EB00094E41201E8C
:10056000A4F10104DFDC484631462A464346BDE893
:10057000F09F202A04DB203A00FA02F100207047A5
:100580009140C2F1200320FA03F3194390407047D1
:10059000202A06DBCB17203A41FA02F043EAE07347
:1005A00006E041FA02F3D040C2F120029140084334
:1005B0001946704710B5141E73F1000408DA401C88
:1005C00041F1000192185B411A4301D120F0010072
:1005D00010BD2DE9F04D92469B4611B1B1FA81F262
:1005E00002E0B0FA80F220329046FFF7C2FF0446E4
:1005F0000F4640EA0A0041EA0B0153465A460843B7
:1006000013D0114653EA010019D0C8F140025046F8
:10061000FFF78AFD05460E46504659464246FFF70B
:10062000A8FF084305D0012004E020463946BDE874
:10063000F08D0020054346EAE0762C4337430A98C4
:100640006305E40AA0EB08000022FD0A44EA4754CF
:100650000A3002D500200146E9E701051019694179
:10066000DDE9084500196941BDE8F04DA2E7C1F395
:100670000A52C1F3130140F2FF3341F480119A4250
:1006800002DA00200146704740F233439A42A2F258
:10069000334202DC5242FFF747BDFFF76ABF00005A
:1006A000064C074D06E0E06840F0010394E80700BF
:1006B00098471034AC42F6D3FFF71CFDC045000844
:1006C000E0450008FEE7000000B58BB000200121E6
:1006D000CDE9060104900590D020089100900420F7
:1006E0004FF6F871CDE9010103906946024800F028
:1006F00037F80BB000BD00001C0000200C4910B5FD
:100700004FF080408860084600F01AFA08B100F007
:1007100012F8FFF7D9FF064800F08AFB08B100F095
:100720000AF8BDE810400221014800F006B80000B8
:100730001C000020704772B6FEE790F82020012AC6
:1007400007D0022A05D0416A41F48021416201208C
:100750007047006842690A43426100207047000008
:1007600010B590F820300268012B07D0022B05D07D
:10077000416A41F480214162012010BDD2F800029B
:1007800040F00100C2F80002087D00F01F030120C4
:100790009840D2F81C328343C2F81C32CB69B3B9FB
:1007A000D2F80C328343C2F80C328C894B6864F364
:1007B0001F434C6902EBC404C4F840320C890B6837
:1007C00064F31F434C6902EBC404C4F84432CB69A0
:1007D000012B16D1D2F80C320343C2F80C320C882C
:1007E0004B6864F31F434C6902EBC404C4F8403205
:1007F0000C89CB6864F31F434C6902EBC404C4F852
:1008000044328B69002BD2F804320FD053EA000334
:10081000C2F804320B69002BD2F8143208D003431B
:10082000C2F81432096A012904D008E08343EFE7D3
:100830008343F5E7D2F81C120143C2F81C12D2F828
:10084000000220F00100C2F80002002010BD704735
:1008500070B590F82040012C05D0022C03D0416ADD
:1008600041F4802128E0046809B32469A40720D05A
:100870004FF4D874056804EB01142D5915F00405E4
:10088000956005682D591AD0ED08556005682C59FA
:1008900004F00204D4604FF4DA74056804EB011428
:1008A0002E5906F00F06082E0CD308250DE0E4683B
:1008B000DCE7416A41F400114162012070BD6D0D19
:1008C0001560E3E72D5905F00F05156105682D59F1
:1008D000C5F30725956105682C59240C54614FF424
:1008E000DC72046802EB0112A4581C700468A4585E
:1008F000240A5C700468A458240C9C700468A258F4
:10090000120EDA704FF4DE72046802EB0112A45882
:100910001C710468A458240A5C710468A458240C4F
:100920009C710468A258120EDA71006829B101693D
:1009300041F020010161002070BDC16841F020013B
:10094000C160F8E72DE9F05F0546006800244669BC
:10095000D0F804908768D0F80CB0D0F810A0D0F888
:100960001880F10748D0F90714D001218160B80739
:1009700003D5284600F089FA0CE0780702D54FF439
:10098000006407E0380702D54FF4805402E028469F
:1009900000F07AFAF80516D529684FF4807088605F
:1009A000B80503D5284600F072FA0CE0780502D5A8
:1009B00044F4005407E0380502D544F4804402E0D2
:1009C000284600F063FAF80316D529684FF4803002
:1009D0008860B80303D5284600F05BFA0CE0780382
:1009E00002D544F4004407E0380302D544F48034CF
:1009F00002E0284600F04CFA300707D55FEACB60EA
:100A000004D52968102044F40074C86070074FF0C2
:100A1000080707D55FEA0B7004D52868C760284629
:100A200000F062F9B00706D52868C068800702D0D8
:100A3000284600F05BF9700607D55FEACA6004D566
:100A40002968102044F480640861B00607D55FEA85
:100A50000A7004D528680761284600F0E5F9F00619
:100A600006D528680069800702D0284600F0DDF925
:100A7000B00308D55FEAC96005D529681020486031
:100A8000284600F0D3F9F00307D55FEA097004D5D2
:100A900028684760284600F0FDF9300446D55FEA33
:100AA000497040D5F00504D55FEAC87001D044F024
:100AB0000104B00504D55FEA887001D544F0020452
:100AC000700504D55FEA487001D544F00404300590
:100AD00029D518F0700F26D008F07000402815D0E6
:100AE00006DC102809D020280AD0302816D10AE0C8
:100AF00050280ED0602811D10EE044F008040DE01B
:100B000044F010040AE044F0200407E044F04004FC
:100B100004E044F0800401E044F4807428688169B2
:100B200021F070018161296804204860002C05D003
:100B3000686A204368622846FFF789FEBDE8F09F97
:100B400070B5040003D094F8200010B104E0012037
:100B500070BD204600F082F82068016841F0010174
:100B6000016000F01BFB0546052604E000F016FBC3
:100B7000401B0A2811D820684068C007F6D02068BA
:100B8000016821F00201016000F008FB05460BE05E
:100B900000F004FB401B0A2806D9606A40F40030CC
:100BA000606284F82060D2E7206840688007EFD454
:100BB000207E0128206801683DD021F0800101607D
:100BC000607E01282068016838D021F04001016072
:100BD000A07E01282068016833D021F02001016047
:100BE000E07E0128206801682ED041F010010160EC
:100BF000207F01282068016829D021F008010160C8
:100C0000607F01282068016824D021F00401016080
:100C1000D4E902010843D4E904121143084361688E
:100C2000491E08432168C86100206062012084F8E1
:100C30002000002070BD41F08001C0E741F040017C
:100C4000C5E741F02001CAE721F01001CFE741F0EC
:100C50000801D4E741F00401D9E7000010B586B0DF
:100C60000021009101910291039100681B49884283
:100C700032D11B48C16941F00071C161C16901F005
:100C800000710491816941F0040181618069154C12
:100C900000F0040004904FF4006000906946204684
:100CA00000F07AF9A0140090022001900320039034
:100CB0006946204600F070F900221146132000F02A
:100CC000D9FA132000F0C8FA00221146142000F0CF
:100CD000D1FA142000F0C0FA06B010BD0064004044
:100CE00000100240000801407047000030B593B08A
:100CF0000021019101AB03AA0291FFF7A9FD08B100
:100D0000FFF719FD079A059838B125A0DDF81010F6
:100D100002F0AAFA069818B111E02CA00399F7E79F
:100D200035A002F0A1FA002401AD05E0295D34A050
:100D300002F09AFA641CE4B20798A042F6D832A0F6
:100D400002F092FA0598002804D00498009003D18C
:100D50002EA302E00398F9E72DA32EA24FF0200165
:100D60000AA802F091FA08230AAA1021022001F031
:100D70004FFC2BA220210AA8079B02F085FA08232A
:100D80000AAA2021022001F043FC079801A9C2B25F
:100D9000302001F0ABFC01F0F7FC13B030BD0000D7
:100DA00043414E206D6573736167652072656365AD
:100DB000697665643A2045787449443D3078253039
:100DC000385820444C433D256400000043414E20E8
:100DD0006D657373616765207265636569766564C7
:100DE0003A2053746449443D3078253033582044C8
:100DF0004C433D2564000000446174613D000000E7
:100E000025303258200000000D0A000053544400E1
:100E10004558540049443A2025732025303658005F
:100E20004C656E3A256400007047704770470000BB
:100E300070B5044690F82000012804D0606A40F4A0
:100E40000020606218E0022084F820002068016819
:100E500021F00101016000F0A1F905460EE000BF9C
:100E600000F09CF9401B0A2808D9606A40F4003061
:100E70006062052084F82000012070BD2068406871
:100E8000C007EDD1606270BD704770477047704712
:100E900070477047704710B590F821100022022962
:100EA00005D00421816380F82020012010BD016855
:100EB0000B6823F00E030B6001680B6823F001033D
:100EC0000B6090F84030C46B012101FA03F36360BA
:100ED00080F8211080F82020104610BD10B590F841
:100EE00021100024022903D00421816301243DE064
:100EF00001680A6822F00E020A6001680A6822F09E
:100F000001020A601A4A0168914201D1012121E0DF
:100F1000174A1432914201D110211BE0144A2832A1
:100F2000914201D1891515E0114A3C32914201D11B
:100F300089140FE00E4A5032914202D14FF48031B1
:100F400008E00B4A6432914202D14FF4801101E073
:100F50004FF08071064A083A5160012180F8211053
:100F6000002180F82010416B01B18847204610BD58
:100F70000800024070B5044600F010F90546601CF8
:100F800002D004480078044400F008F9401BA04255
:100F9000FAD370BD080000202DE9F84FDFF8B891B2
:100FA0000024A9F1040B23460F2709F1040AABF131
:100FB000040EC9E00125A5402A40AA427DD1674E12
:100FC000D1F804C0ACEB0608B44532D014DCBCF157
:100FD000030F3AD009DCBCF1000F2AD0BCF1010F9D
:100FE0001CD0BCF1020F31D11DE0BCF1110F17D0A4
:100FF000BCF1120F2AD119E0B8F5881F19D006DC10
:10100000B8F5803F15D0B8F5801F1FD111E0B8F5B5
:10101000001F0ED0B8F5041F18D10AE0CB6815E008
:10102000CB681B1D12E0CB6808330FE0CB680C3394
:101030000CE08B682BB1012B4FF0080303D0456106
:1010400004E0042302E0056100E00023FF2A01D848
:10105000064601E000F104064FEA840501D9A5F136
:101060002005D6F8008007FA05FC28EA0C0803FAE8
:1010700005F548EA0508C6F800804D68ED0062D520
:10108000374DAE6946F00106AE61AD6924F0030646
:1010900005F001050095334D06EB050CDCF8085012
:1010A000A607360F07FA06F825EA0805DFF8B88024
:1010B000404503D14FF0000817E044E0DFF8AC8072
:1010C000404502D14FF001080FE0DFF8A480404511
:1010D00002D14FF0020808E0DFF89880404502D1C5
:1010E0004FF0030801E04FF0040808FA06F848EA58
:1010F0000508CCF808804D68D9F80060ED024D462F
:1011000001D5164300E096432E604D68DAF8006082
:10111000AD02554601D5164300E096432E604D685A
:10112000DBF80060AD035D4601D5164300E0964351
:101130002E604D68DEF80060ED03754601D516435C
:1011400000E096432E60641C0D682A46E5407FF45B
:1011500031AFBDE8F88F0000080401400000111015
:10116000001002400000014000080140000C014056
:1011700000100140001401408068084000D00120A8
:101180007047C26821EA02030A4043EA0241016152
:1011900070470AB1016170470904FBE701488068A4
:1011A000704700000800002002488168027811445E
:1011B0008160704708000020074810B5016841F0C1
:1011C00010010160032000F075F80F2000F006F810
:1011D00000F024F8002010BD0020024070B50D4D35
:1011E00004464FF47A712878B1FBF0F00A49096897
:1011F000B1FBF0F000F0DCFA48B9102C07D2002265
:101200002146501E00F036F800206C6070BD0120B1
:1012100070BD000008000020140000200C4808B534
:10122000816941F001018161816901F00101009151
:10123000C16941F08051C161C06900F080500090E7
:101240000448416821F0E06141F00071416008BD4F
:101250000010024000000140002809DB00F01F02DE
:10126000012191404009800000F1E020C0F8001108
:1012700070470000F0B40E4B1B680C46C3F302230A
:10128000C3F10705042D00D90425191D072901D232
:10129000002300E0DB1E012606FA05F1491E21406D
:1012A00099409E40761E16403143F0BC02F018B8BB
:1012B0000CED00E0064900F0070208684FF6FF0356
:1012C000184040EA0220034A1043086070470000BB
:1012D0000CED00E00000FA052DE9F0470F4605008F
:1012E00061D0434E306800F00700B84209D2306840
:1012F00020F0070038433060306800F00700B84243
:1013000051D128683B4C810712D5400703D560684E
:1013100040F4E06060602878000703D5606840F41E
:10132000605060606068A96820F0F0000843606069
:101330002878C00728D06868012810D021680228C2
:1013400010D0890700292EDA616821F003010143DA
:101350006160FFF723FF804641F288390DE0216884
:101360008903EFE78901EDE7FFF718FFA0EB08011C
:10137000494502D90320BDE8F0876068696800F03C
:101380000C00B0EB810FEFD1306800F00700B842DD
:101390000BD9306820F0070038433060306800F027
:1013A0000700B84201D00120E5E72878400705D5BD
:1013B0006068E96820F4E06008436060287800070E
:1013C00006D56068296920F4605040EAC100606079
:1013D00000F038F86168084AC1F30311515CC84055
:1013E0000649086006480068FFF7F8FE0020C2E7DB
:1013F0000020024000100240A54500081400002013
:101400000C0000200448054900684968044AC1F3FB
:101410000221515CC84070471400002000100240B7
:10142000B54500080448054900684968044AC1F305
:10143000C221515CC84070471400002000100240D7
:10144000B54500080E4A51680E4801F00C03042B04
:1014500011D0082B0FD10C48C1F38343C903C05CE2
:101460000AD55168084AC1F34041921E515C054AB1
:101470005043B0FBF1F07047044948437047000007
:101480000010024000127A009545000800093D0056
:101490002DE9F84F040070D02078C04DC00749D026
:1014A0006868C0F38100012807D06868C0F3810034
:1014B000022809D16868C00306D52868800339D599
:1014C00060680028E7D035E06068B0F5803F0BD059
:1014D00010B1B0F5A02F11D0286820F4803028601A
:1014E000286820F4802002E0286840F480302860DA
:1014F000606890B1FFF752FE06460AE0286840F4A3
:1015000080202860F0E700BFFFF748FE801B6428BA
:1015100073D828688003F7D50CE0FFF73FFE064636
:1015200005E000BFFFF73AFE801B6428F0D828686A
:101530008003F7D420789A4E80074FF001094FF0CE
:10154000000839D5686810F00C0F07D06868C0F340
:101550008100022809D16868C00306D42868800782
:1015600014D52069012808D110E02069B0B1C6F86F
:101570000090FFF713FE074605E00AE1FFF70EFEB5
:10158000C01B0228C4D828688007F7D5286861697D
:1015900020F0F80040EAC10028600DE0C6F80080A5
:1015A000FFF7FCFD074604E0FFF7F8FDC01B02282B
:1015B00023D828688007F7D4207800072CD57948ED
:1015C000A169D9B1C0F80090FFF7E8FD074604E033
:1015D000FFF7E4FDC01B02280FD8686A8007F7D523
:1015E00071484FF4FA510068B0FBF1F0009000BF71
:1015F0000098411E0091FAD20EE080E0C0F8008011
:10160000FFF7CCFD074604E0FFF7C8FDC01B02282A
:1016100075D8686A8007F7D42078400760D5E869F4
:101620000027C00008D4E86940F08050E861E8690C
:10163000012700F0805000905C480168C90513D470
:101640000168834641F480710160FFF7A7FD82467F
:1016500006E000BFFFF7A2FDA0EB0A0064284ED809
:10166000DBF80000C005F5D5E06801280AD008B114
:10167000052813D0286A20F001002862286A20F08B
:10168000040002E0286A40F001002862E06841F2AC
:10169000883B98B1FFF782FD82460BE0286A40F054
:1016A00004002862EEE700BFFFF778FDA0EB0A0117
:1016B00059455AD8286A8007F6D50CE0FFF76EFD29
:1016C000824605E0FFF76AFDA0EB0A0159454CD8B8
:1016D000286A8007F6D41FB1E86920F08050E861DD
:1016E000E06988B36968C1F38101022944D0022806
:1016F000C6F8608004D0FFF751FD044638E034E0BE
:10170000FFF74CFD074604E0FFF748FDC01B022829
:101710002BD828688001F7D4206AB0F5803F05D126
:101720006868A16820F4003008436860D4E90801C3
:101730000843696821F4741108436860C6F8609032
:10174000FFF72CFD044606E025E000BFFFF726FD6D
:10175000001B022809D828688001F7D51BE000BFCC
:10176000FFF71CFD001B022802D90320BDE8F88FFB
:1017700028688001F4D40EE00128F7D06868226A56
:1017800000F48031914204D1616A00F47010884203
:1017900001D00120EAE70020E8E700000010024045
:1017A00000004242800442421400002000700040C9
:1017B00010B5401EB0F1807F01D3012010BD4FF065
:1017C000E02460610F21601701F08AFD0020A06114
:1017D00007202061002010BD7047704770B590F859
:1017E0003C20012A26D0012480F83C40022280F8C7
:1017F0003D2003685A689D6822F070060A683243EB
:101800005A600D4B02689A4208D0B2F1804F05D061
:101810000A4B9A4202D00A4B9A4204D1496825F0F9
:1018200080031943916080F83D40002180F83C100E
:10183000084670BD022070BD002C0140000400402D
:101840000008004010B5040003D094F83D0010B12A
:1018500007E0012010BD002084F83C00204600F085
:101860001FF8022084F83D00211D206801F066F871
:10187000012084F8460084F83E0084F83F0084F894
:10188000400084F8410084F8420084F8430084F862
:10189000440084F8450084F83D00002010BD00009D
:1018A00008B500680B49884212D10B48816941F4A0
:1018B000006181618069002200F40060009011469F
:1018C0001920FFF7D7FCBDE808401920FFF7C4BC7A
:1018D00008BD0000002C01400010024090F83D10AF
:1018E000012901D001207047022180F83D100168D4
:1018F000CA6842F00102CA6000680B49884208D0F9
:10190000B0F1804F05D00949884202D00849884289
:1019100004D1816801F00701062903D0016841F074
:101920000101016000207047002C014000040040CC
:101930000008004070B5044690F83C0000250128DE
:1019400017D0012684F83C60022084F83D0020680E
:10195000826822F0770222F47F4282600868502871
:1019600038D00DDC20284FD005DC90B3102811D1E1
:101970004AE0022070BD302846D040280AD13BE022
:1019800060282FD070280DD0B0F5805F03D0B0F55F
:10199000005F12D0012584F83D60002084F83C00EF
:1019A000284670BDCB68D1E90121206801F002F81A
:1019B0002068816841F0770109E0CB68D1E9012115
:1019C000206800F0F7FF2068816841F48041816061
:1019D000E1E719E0CA684968206800F0FDFF50217E
:1019E000206806E0CA684968206801F006F86021AE
:1019F000206800F0E9FFCEE7CA684968206800F077
:101A0000EBFF40212068F4E7226801461046F0E72A
:101A100070472DE9F04104460068C66805694FF03B
:101A20000007A90713D5B10711D5F91E01610120DF
:101A30002077206880698007204602D0FFF7E8FF02
:101A400004E000F07EF8204600F07CF82777680775
:101A500016D5700714D521686FF0040008610220C4
:101A600020772068806910F4407F204602D0FFF77D
:101A7000CFFF04E000F065F8204600F063F8277718
:101A8000280715D5300713D521686FF008000861C5
:101A9000042020772068C0698007204602D0FFF725
:101AA000B7FF04E000F04DF8204600F04BF8277730
:101AB000E80616D5F00614D521686FF0100008610D
:101AC000082020772068C06910F4407F204602D0AB
:101AD000FFF79EFF04E000F034F8204600F032F8F3
:101AE0002777E80708D0F00706D021686FF00100DB
:101AF0000861204600F028F8280608D5300606D5EB
:101B000021686FF0800008612046FFF765FE6806D7
:101B100008D5700606D521686FF0400008612046A0
:101B200000F02CF8A8060AD5B00608D521686FF099
:101B3000200008612046BDE8F041FFF74EBEBDE839
:101B4000F08170477047000010B50A4900680968C5
:101B500088420DD100F0A0FA0821002000F080FAA0
:101B6000012805D10102BDE810400348FFF709BB79
:101B700010BD000044000020000C01407047704779
:101B800070470000F8B5016804460868CA684B69E8
:101B900010F00F0F4FF0000559D003F0010602F4CA
:101BA0009077374365D0C10705D0D10503D5616C67
:101BB00041F001016164410705D5D90703D0616C8B
:101BC00041F002016164810705D5D90703D0616C3A
:101BD00041F004016164010707D502F0200131439F
:101BE00003D0616C41F008016164616C00293AD056
:101BF000800604D5900602D5204600F03FFF2068FD
:101C00004069616CC0F38010090700D460B32046BE
:101C100000F00DFF20684069400621D5206814308F
:101C200050E8001F21F0400140E80012002AF5D1E1
:101C3000E06BA8B16D494163E06BFFF74FF90028F5
:101C400011D0E06B416B01B0BDE8F040084783065E
:101C50000FD593060DD52046BDE8F84000F00EBF25
:101C60002046FFF78DFFF8BD2046FFF789FF65642A
:101C7000F8BD266B2023012E7CD1C6067AD5D60668
:101C800078D508684868009048694FF00206400619
:101C900040D5E16B086840680004000CE8D0A28DD4
:101CA0008242E5D9E085886920282DD020680C3053
:101CB00050E8001F21F4807140E80012002AF5D19D
:101CC0002068143050E8001F21F0010140E80012A4
:101CD000002AF5D12068143050E8001F21F040019F
:101CE00040E80012002AF5D184F8423025632068CC
:101CF0000C3050E8001F21F0100140E80012002ACB
:101D0000F5D1E06BFFF7C7F86663A08DE18D401A4F
:101D100081B22AE0A08DE18D401A81B2E08D0028C9
:101D2000A6D00029A4D022680C3252E8000F20F47B
:101D3000907042E80007002FF5D12068143050E879
:101D4000002F22F0010240E80027002FF5D184F88F
:101D50004230256320680C3050E8002F22F010023A
:101D600040E80023002BF5D166632046FFF707FF0C
:101D7000F8BDFFE705062BD5150629D594F84100D7
:101D80002128F5D1A068B0F5805F01D12069B0B1FC
:101D9000206A411C2162216800784860E08C401E66
:101DA0000004000CE084E3D12068C16821F08001C8
:101DB000C1602068C16841F04001C160D8E7206A75
:101DC0000088C0F308004860206A801C2062E5E7B4
:101DD0004006CDD55006CBD5CA68204622F0400239
:101DE000CA6084F8413000F0C6F8C1E71F2A000835
:101DF00070B5040004D094F84100002510B106E04D
:101E0000012070BD84F84050204600F023F82420C3
:101E100084F841002068C16821F40051C160204667
:101E200000F08EFE2068016921F490410161206874
:101E3000416921F02A0141612068C16841F40051E3
:101E4000C1606564202084F8410084F84200656325
:101E5000002070BD30B585B0002400940194029438
:101E600003940068184988422CD11848816941F4CC
:101E700080418161816901F480410491816941F06F
:101E8000040181618069124D00F0040004904FF458
:101E900000700090022001900320039069462846BC
:101EA000FFF77AF82815CDE9000469462846029420
:101EB000FFF772F8002211462520FFF7DBF92520F5
:101EC000FFF7CAF905B030BD0038014000100240EC
:101ED0000008014070472DE9F843044690F841009E
:101EE000984616460D46202802D00220BDE8F88309
:101EF00085B17EB100206064212084F84100FFF7A5
:101F00004DF9A6848146E684A0682027B0F5805F5D
:101F100002D003E00120E9E7206910B12E46002538
:101F20000EE000260CE08021204600F065FEA8B9F6
:101F3000C6B116F8010B21684860E08C401EE084B1
:101F4000E08C4B464FF00002CDF800800028EAD12B
:101F50004FF04001204600F04FFE40B184F8417040
:101F60000320C3E735F8020BC0F30800E3E784F869
:101F700041700020BAE77047FEE70000124810B534
:101F8000816986B041F00401816180690F4C00F0E5
:101F9000040004900820009011200190012002907C
:101FA000039069462046FEF7F7FF1020009069462F
:101FB0002046FEF7F1FF012000F042F8012000F07A
:101FC00047F806B010BD00000010024000080140B4
:101FD00010B5012000F03CF8012000F031F800209D
:101FE00000F036F8BDE81040002000F029B810B528
:101FF000002000F02DF8012000F022F8BDE810408C
:10200000012000F025B870B500240646802525FA89
:1020100004F0304000D0012000F01AF8012000F058
:102020000FF8002000F00CF8641CE4B2082CEED38A
:10203000012000F005F8BDE870400020AFF30080FB
:10204000024608210148FFF7A4B80000000801403B
:10205000024610210148FFF79CB80000000801402B
:10206000064B10B51A5C0A4205D0012901D08A43FB
:102070001A54012010BD002010BD000004000020F3
:1020800010B528B901210348FFF776F8012800D0E0
:10209000002010BD000801402DE9F05F4A4D0020EE
:1020A00035F8101011B1491E25F81010401C10F021
:1020B000FF00F5D04448801F0178491CC9B2017067
:1020C00014297ED34FF0000A871C80F800A05446E4
:1020D000461C00F1030900F104084FF0640B305D69
:1020E00038552046FFF7CCFF305518F8042001285A
:1020F000414604D022F001020A5540B10EE042F000
:1021000001020A553B5D4BB942F0020204E03B5D1F
:10211000012B03D142F0040208F8042019F804202E
:10212000052A4AD2DFE802F0030B1F3638000128E7
:1021300043D14FF4FA6025F81400012020E018B1D3
:1021400035F8140028B138E0C82025F81400022022
:1021500016E018F80420042042F0200208F80420B9
:1021600025F814B00CE0012803D035F8140050B164
:1021700023E018F80420032042F0100208F804209D
:1021800009F8040019E018F8042042F0080208F8E1
:10219000042007E030B110E020B135F8140020B180
:1021A0000BE00EE009F804A007E018F8041041F075
:1021B000400108F8041025F814B0641C14F0FF0462
:1021C0008DD0BDE8F09F000006000020104810B53B
:1021D0000E4901600821416000214FF04072C0E9C2
:1021E00002124FF48032026112014261017641769F
:1021F0008176C17601774177FEF7A2FC002803D0F3
:10220000BDE81040FEF797BA10BD00000064004022
:102210001C000020F0B585B00025244800950195EC
:1022200002950395816941F010018161816901F096
:1022300010010491816941F020018161816901F0FF
:1022400020010491816941F004018161816901F0FB
:1022500004010491816941F0080181618069144F92
:1022600000F008004FF4C076049000223146384652
:10227000FEF78FFF7814CDE900050124694602942A
:102280000C48FEF789FECDE90045022569460A485B
:102290000295FEF781FECDE9006469463846CDE936
:1022A0000245FEF779FE05B0F0BD000000100240C7
:1022B000000C0140001001400008014010B586B03C
:1022C0000024174800940194029403940494134941
:1022D000059401604721C0E9011440F2E731C0E9EB
:1022E000031444618461FFF7ADFA08B1FEF723FAE5
:1022F0004FF48050009069460948FFF71BFB08B176
:10230000FEF719FA049404A905480594FFF766FA44
:10231000002801D0FEF70FFA06B010BD002C0140D6
:10232000440000200C4810B50A4901604FF4E13127
:102330004160002181600C22C160C0E9041281610A
:10234000C161FFF755FD002803D0BDE81040FEF73E
:10235000F2B910BD003801408C000020FEE70020DB
:1023600000F098BA012000F095BA00002DE9F04184
:10237000002507462E464FF0800800BF28FA06F4D5
:1023800014EA070000D0012000F08CFA012000F0D0
:1023900093FA00F079FA00B12543002000F08CFA9E
:1023A000761CF6B2082EE9D32846BDE8F081FEE798
:1023B00010B50021074C0A46002004EBC1131A5443
:1023C000401CC0B28028FAD3491CC9B20829F3D3F3
:1023D00010BD0000D4000020F0B50B4424E00446FA
:1023E00085181DE07F2C19D8002917DB3F2915DC43
:1023F000CE1701EB56764FEAE60C0D4F26F0070696
:1024000007EBCC172744A1EB060E97F800C0012676
:1024100006FA0EF62CEA060C87F800C0641C24B2FB
:10242000A542DFDC491C09B28B42D8DCF0BD0000BC
:10243000D400002010B5AE2000F0BAF9D52000F08D
:10244000B7F9802000F0B4F9A82000F0B1F93F20DE
:1024500000F0AEF9D32000F0ABF9002000F0A8F9AD
:10246000402000F0A5F9A12000F0A2F9C82000F05A
:102470009FF9DA2000F09CF9122000F099F98120F0
:1024800000F096F9CF2000F093F9D92000F090F9F0
:10249000F12000F08DF9DB2000F08AF9302000F007
:1024A00087F9A42000F084F9A62000F081F98D209E
:1024B00000F07EF9142000F07BF9AF2000F078F9ED
:1024C000FFF776FFBDE8104000F05EB90FB470B5BD
:1024D000C0B014460D46064648AA6846479900F023
:1024E000EDFE23466A462946304600F091F840B09A
:1024F00070BC5DF814FB10B50C4640F0B00000F065
:1025000057F9102040EA141000F052F904F00F00BF
:10251000BDE8104000F04CB908B5082B0DD0062BD3
:102520000AD10A4B02EB420203EB4202C03A00928C
:102530000823062200F00EF808BD054B03EB02123B
:10254000A2F50072102300920822F3E7644200080B
:10255000743C00082DE9F04F1F4616460D46824692
:102560000024FFF739FF7F1EF81707EB5070012199
:10257000DFF898B001EBE00743E000203DE000BF4A
:102580000AEB00037F2B36D8E91705EB5171CA100F
:1025900021F00701691A002D03DA521E083112B228
:1025A00009B202EB0409B9F1070F0ED8099A04FB2E
:1025B00006F802440BEBC91E18F802201EF803C0EF
:1025C0008A404CEA020C0EF803C009F10102072A06
:1025D00011D80BEBC91202EB0308099A04FB06FCA5
:1025E000024498F880301CF80220C1F10801CA406A
:1025F000134388F88030401CC0B2B042C0D3641C82
:10260000E4B2A742B9DCBDE8F08F0000D40000209E
:102610002DE9FF4F002583B09B4690462C46AA46E5
:10262000DFF8C09056E010068DF8042005F1010592
:102630000DD40398ADB220448DF805A000B25B46DE
:102640000499FFF769FF04EB0B0084B242E0A8B2E3
:1026500018F80010002941D0401C8DF8051085B2F3
:102660008DF806A0002606E0384601A9FDF77EFD9C
:1026700068B1761CB6B2C6EBC60000EB800101EB78
:102680000900074618A1FDF771FD0028ECD1BBF148
:10269000080F03D0BBF1060F1CD111E0C6EBC6003A
:1026A00000EB800101EB0900C01C0090039810238F
:1026B000204400B21A460499FFF74CFF103408E09A
:1026C00003980623204400B23F220499FFF724FF19
:1026D000A41DA4B218F80520002AA4D107B0BDE8B3
:1026E000F08F00009E440008000000002DE9F04734
:1026F00090B06C46164689468246A046082A02D902
:102700000826002521E00025C6F108070BE000BFE0
:10271000A4EB0800C0F1400118A2204600F0B4FD6F
:102720006D1C0444EDB2AF42F2DC00251AE0701ECD
:1027300085420AD1A4EB0800C0F1400119F8053028
:102740000FA2204600F0A0FD0AE0A4EB0800C0F1B3
:10275000400119F805300AA2204600F095FD044416
:102760006D1CEDB2B542E2D308236A465146002003
:10277000FFF74EFF10B0BDE8F087000030300000DA
:10278000253032580000000070B5084D00240021AB
:102790002046FFF7B0FE05EBC410802100F019F8C9
:1027A000641CE4B2082CF2D370BD0000D4000020F9
:1027B00010B50446FFF70CFC7820FFF724FC00203E
:1027C000FFF721FC2046FFF71EFCBDE81040FFF795
:1027D0000EBC70B50D460646FFF7FAFB7820FFF7F2
:1027E00012FC4020FFF70FFC002404E0305DFFF7EF
:1027F0000AFC641CE4B2AC42F8D3BDE87040FFF7B9
:10280000F6BB704770B586B01C48002502958169FB
:1028100041F004018161816901F004010491816941
:1028200041F0080181618069012400F008000490F2
:102830004FF48050CDE90004694611480394FEF737
:10284000ABFB80200F4E009069463046FEF7A4FB9C
:102850002020009069463046FEF79EFB4020CDE9DF
:102860000005694602943046FEF796FB012000F011
:1028700011F8002000F020F806B070BD00100240F2
:10288000000C01400008014040210148FEF774BCE3
:102890000008014002464FF480510148FEF779BC20
:1028A000000C014008B1012200E000228021014813
:1028B000FEF76FBC00080140024620210148FEF7E8
:1028C00068BC0000000801407047FEF76DBC30B5E1
:1028D0008FB028216846FDF73EFC14210AA8FDF7B9
:1028E0003AFC01210804CDE90010002402940225DD
:1028F0000491CDE907504FF4E01009906846FEF7C7
:10290000C7FD08B172B6FEE70F20CDE90A054FF406
:102910008060CDE90C4002210AA80E94FEF7DCFC91
:10292000002801D072B6FEE70FB030BD704700003E
:102930000148FFF76EB8000044000020F0B50268BF
:10294000194B1A4C1A4D4FF08047984205D0B842A7
:1029500003D0A04201D0A84203D122F070064A68F9
:102960003243984205D0B84203D0A04201D0A842D9
:1029700003D122F44074CA6822434C6922F08002D9
:10298000224302608A68C2620A688262984201D168
:1029900009690163012141610169C90703D0016926
:1029A00021F001010161F0BD002C01400004004054
:1029B0000008004010B5846842EA032224F47F44F2
:1029C0000A432243826010BD826822F070020A43EB
:1029D00042F007018160704710B5036A046A24F071
:1029E00001040462846924F0F00444EA021423F030
:1029F0000A020A438461026210BD10B5036A046AC8
:102A000024F010040462846923F0A00324F47044C9
:102A100044EA023243EA01118261016210BD10B53D
:102A2000406A0021C185C184FFF7AAF810BD016882
:102A30000C3151E8002F22F4907241E80023002B62
:102A4000F5D10168143151E8002F22F0010241E86C
:102A50000023002BF5D1016B012909D101680C314C
:102A600051E8002F22F0100241E80023002BF5D19D
:102A7000202180F8421000210163704708B590F8CA
:102A80004210222901D0022008BD82684FF48053F1
:102A90009A4201D1016921B1816A9A421BD04AB19F
:102AA0000AE00268816A5268C2F308020A80816AF9
:102AB000891C08E0026972B10268526802F07F0264
:102AC0000A70816A491C8162C18D491E0904090C82
:102AD000C18503D01BE002685268F1E70168CA684B
:102AE00022F02002CA600168CA6822F48072CA60BB
:102AF00001684A6922F001024A61202180F84210EF
:102B000000214163026B012A03D0FFF7E3F90020A3
:102B100008BD016301680C3151E8002F22F010025A
:102B200041E80023002BF5D101680A68D20602D5DE
:102B30000A6849680091818DFFF721F8E7E70000F6
:102B400070B5044600680169E26821F44051114300
:102B500001612169A0680843616908432168CA6866
:102B600041F20C639A430243CA6020684169A2693A
:102B700021F44071114341611E492068884202D10D
:102B8000FEF750FC01E0FEF73DFC00EBC00101EB5D
:102B90000012606864218000B2FBF0F3B3FBF1F334
:102BA0006FF018067343B2FBF0F5B2FBF0F605EBDD
:102BB0008305322303EB0515B5FBF1F5B6FBF1F602
:102BC00005F0F00505EB0615B2FBF0F6B2FBF0F0F0
:102BD000B0FBF1F06FF01802504306EB800003EBFE
:102BE0000010B0FBF1F0216800F00F00284488606D
:102BF00070BD0000003801402DE9F84398461746A3
:102C00000D460446089E24E0701C22D0FEF7C6FA4A
:102C1000A0EB0800B0421AD8CEB12068C1684907BD
:102C200017D5802D15D0402D13D00168C943090751
:102C30000FD401680025406800902046FFF7F7FE9A
:102C40000820606484F840500120BDE8F883032028
:102C5000FBE72068006835EA000004D00020B84295
:102C6000D2D00020F1E70120F9E700000148FEF78B
:102C700089BF00008C0000200148FDF763BE000002
:102C80001C0000200148FDF75DBE00001C00002074
:102C9000FEE770B515460E46044600F0DBFAFFF776
:102CA0005EFB0220FFF762FBC4F30740FFF75EFB09
:102CB000C4F30720FFF75AFBE0B2FFF757FB0024ED
:102CC00004E0305DFFF752FB641CA4B2AC42F8D3C1
:102CD000FFF748FBBDE8704000F0A6BA70B5154696
:102CE0000E460446FFF73BFB0320FFF73FFBC4F310
:102CF0000740FFF73BFBC4F30720FFF737FBE0B2C9
:102D0000FFF734FB002404E0FF20FFF72FFB3055D2
:102D1000641CAC42F8D3BDE87040FFF723BB70B52C
:102D20000C460546FFF71BFB9F20FFF71FFBFF200C
:102D3000FFF71CFB2870FF20FFF718FB4FF6FF7111
:102D400001EA00202080FF20FFF710FB21880843C4
:102D50002080BDE87040FFF705BB10B5044600F0C9
:102D600079FAFFF7FCFA2020FFF700FBC4F30740D5
:102D7000FFF7FCFAC4F30720FFF7F8FAE0B2FFF719
:102D8000F5FAFFF7EFFABDE8104000F04DBA000089
:102D9000F0B5ADF5037D64A000F066FA81A980A8C6
:102DA000FFF7BDFFBDF804229DF8001266A000F0F9
:102DB0005BFA9DF80012EF2901D06EA008E0BDF883
:102DC0000412A1F58040173805D0012805D072A063
:102DD00000F04AFA04E079A000E082A000F044FA92
:102DE0008BA000F041FA0020FFF7B7FF4FF4807787
:102DF00039466846FDF7AFF9102269460020FFF713
:102E00006DFF8BA000F030FA00256C4693A0615D49
:102E100000F02AFA6D1C102DF8D34AA000F024FA15
:102E200039466846FDF797F9102269464FF47F60EE
:102E3000FFF754FF8BA000F017FA002587A0615D13
:102E400000F012FA6D1C102DF8D33EA000F00CFA21
:102E5000002040AE3054401CFF28FBD98EA000F06B
:102E600003FA3A4640A90020FFF713FF39466846A7
:102E7000FDF771F93A4669460020FFF72FFF91A050
:102E800000F0F2F9002575A0615D00F0EDF96D1C10
:102E9000FF2DF8D92BA000F0E7F93A46694640A883
:102EA000FDF772F900283BD091A000BF00F0DCF9DB
:102EB0005FF0000000F00F01A0313154401CFF28EA
:102EC000F8D995A000F0D0F9A14D3A4640A928467E
:102ED000FFF7DFFE39466846FDF73DF93A46694699
:102EE0002846FFF7FBFE9BA000F0BEF900255BA083
:102EF000615D00F0B9F96D1CFF2DF8D911A000F04B
:102F0000B3F93A46694640A8FDF73EF950B19EA094
:102F100000F0AAF9A7A000F0A7F90DF5037DF0BD18
:102F2000ACA0C3E7B5A0F3E73D3D3D3D20573235AA
:102F30005131323820546573742053746172742097
:102F40003D3D3D3D0D0A0000573235513634204A93
:102F5000454445432049443A204D49443D30782575
:102F60003032582C204449443D3078253034580DB7
:102F70000A000000556E6B6E6F776E204D616E75A6
:102F800066616374757265722049443A2030782511
:102F90003032580D0A000000556E6B6E6F776E2050
:102FA00057696E626F6E6420466C6173682C2044B2
:102FB00049443D3078253034580D0A004465746525
:102FC000637465643A2057323551363420283634DC
:102FD0004D2D626974202F20384D2D42797465295A
:102FE0000D0A000044657465637465643A205732C5
:102FF000355131323820283132384D2D62697420F4
:103000002F2031364D2D42797465290D0A000000BC
:10301000457261736520536563746F72206174201B
:103020003078303030303030202E2E2E0D0A000017
:103030005265616420536563746F722048656164F2
:10304000206166746572204572617365202830784E
:10305000303030303030293A2000000025303258EE
:10306000200000005265616420536563746F722014
:103070005461696C20616674657220457261736584
:103080002028307830464630207E20307830464642
:1030900046293A2000000000506167652050726F99
:1030A0006772616D203235362062797465732061F4
:1030B00074203078303030303030202E2E2E0D0AF3
:1030C0000000000052656164206261636B206669E4
:1030D000727374203235362062797465732028301B
:1030E00078303030303030293A200D0A00000000AE
:1030F000506167652050726F6772616D205665720E
:103100006966792061742030783030303030303A60
:10311000204641494C0D0A00506167652050726F8E
:103120006772616D20323536206279746573206173
:1031300074204C4153542050414745202830784654
:10314000464646303029202E2E2E0D0A0000000063
:1031500000FFFF0052656164206261636B206C6157
:1031600073742070616765206669727374203235EC
:10317000362062797465732028307846464646309A
:1031800030293A200D0A0000506167652050726FA7
:103190006772616D20566572696679206174204C92
:1031A00041535420504147453A204641494C0D0A6D
:1031B000000000003D3D3D3D205732355131323851
:1031C000205465737420456E64203D3D3D3D0D0ADD
:1031D00000000000506167652050726F6772616D7A
:1031E00020566572696679206174203078303030FD
:1031F0003030303A20504153530D0A00506167651A
:103200002050726F6772616D205665726966792011
:103210006174204C41535420504147453A2050415D
:1032200053530D0A0000000010B5FFF798F8052071
:10323000FFF79CF8064C01E0641E04D0FF20FFF766
:1032400095F8C007F8D1BDE81040FFF78BB8000033
:10325000A086010010B5FFF782F80620FFF786F878
:10326000BDE81040FFF77EB80FB4054B10B503A9B9
:10327000044A029800F016F910BC5DF814FB000037
:10328000CD3B0008180000200FB47CB50C0009AD40
:1032900001D0611E00E00021CDE90001064B6A4625
:1032A0002946089800F0FEF8002C02D0009A002170
:1032B00011707CBC5DF814FBAB3B000837B51446BD
:1032C0000846064B6A46214600F0ECF8044669467B
:1032D000002000F075FC20463EBD0000C13B000808
:1032E0000907090E002804DB00F1E02080F8001433
:1032F000704700F00F0000F1E02080F8141D7047C7
:1033000002E008C8121F08C1002AFAD170477047AE
:10331000002001E001C1121F002AFBD1704700000C
:103320002DE9FF5F82B00021DDE90430020DDDF8F8
:1033300040B0034318D044F61050A2F2FF3242438B
:103340001514119801281FD0A5EB0B00401C5FEA53
:10335000000A4FF000064E4FDFF83891B046504655
:1033600015D5CAF1000413E0119801244AA30128DD
:1033700001D16FEA0B010298119AC0E90031C0E94E
:10338000024206B0BDE8F09FCBF10000DFE7044643
:103390000021404A491842EB0450CDE9001012E0E8
:1033A000E00707D032463B4640464946FCF7A0FFBF
:1033B0008046894632463B4610461946FCF798FF40
:1033C00006460F466410002CEAD1DDE90401DDE970
:1033D0000023BAF1000F06DAFCF78AFF42464B469B
:1033E000FCF786FF05E0FCF7F5FF42464B46FCF78D
:1033F000F1FF04460E460022284BFDF75BF803D888
:103400004FF0FF30014607E00022254B20463146B1
:10341000FCF7C7FEFDF72BF9102409E0002C0ADBAE
:103420000A220023FDF774F8039B30321A55641EFC
:1034300050EA0102F2D1641C039AC4F1110314444E
:10344000119A012A03D0012208430DD10AE0084352
:1034500004D000204FF0110B119072E7A3EB0B0585
:103460006D1E0DE05B4504DD4FF0000205F1010526
:1034700004E003DA4FF00002A5F10105002AECD0C8
:1034800002981199C0E90231C0E9004579E70000CE
:10349000000014400000F03F300000000000F04346
:1034A0000000E03F2DE9FF4F95B09A46884606465A
:1034B0000025EEE1252877D100242746F94A01218D
:1034C000039400E0044316F8013F203B01FA03F0A7
:1034D0001042F7D130782A2811D06FF02F033078BE
:1034E000A0F13002092A16D8039A44F0020402EB34
:1034F000820203EB42021044761C0390EFE758F877
:10350000042B0392002A03DA504244F4005403903F
:1035100044F00204761C30782E2816D116F8010FDC
:1035200044F004042A280DD06FF02F023078A0F167
:103530003003092B09D807EB870302EB4303C718B5
:10354000761CF3E758F8047B761C30786C280FD093
:1035500006DC4C2817D068280DD06A2814D104E066
:10356000742810D07A280FD10DE044F400140AE03A
:1035700044F4801401E044F440147278824202D191
:1035800004F58014761C761C307866280BD013DC8A
:10359000582877D009DC002875D04528F6D0462871
:1035A000F4D047281AD193E118E0632835D0642875
:1035B00079D0652812D18BE1702873D008DC672898
:1035C000F1D069286FD06E280DD06F2806D1ACE0FD
:1035D00073282CD0752874D0782853D05246179968
:1035E00090476D1C54E1C4F30250022809D003280F
:1035F0000DD0D8F8001004280DD00D6008F1040893
:1036000046E1D8F80010EA17C1E90052F6E7D8F809
:1036100000100D80F2E70D70F0E718F8041B8DF82C
:10362000001000208DF80100EB46012003E058F85F
:1036300004BB4FF0FF3061074FF0000102D40DE0F2
:1036400009F101018946B9420FDA8145F8DB1BF81F
:1036500009100029F4D108E009F1010189468142ED
:10366000FADB1BF809100029F6D103985346A0EBAA
:10367000090721463846179A00F080FA284400EBE3
:10368000090507E044E008E10DE01BF8010B524694
:1036900017999047B9F10109F7D2534621463846A8
:1036A000179AF2E039E00A21C4F302524FF0000BFE
:1036B0000091022A06D058F8040BC117032A09D03A
:1036C0000AE023E008F1070020F00702F2E8020117
:1036D000904605E000B2C117042A01D140B2C117DB
:1036E000002906DA0A460021404261EB02012D2240
:1036F00002E0220504D52B228DF80420012203E0EC
:10370000E20701D02022F7E7914657E00A2100E0C6
:1037100010214FF0000B00910BE010214FF0000B37
:1037200044F004040827009103E008204FF0000B48
:103730000090C4F30252022A05D058F8040B00216D
:10374000032A08D008E008F1070020F00702F2E899
:103750000201904603E080B2042A00D1C0B24FF0CB
:10376000000922072AD53278702A07D0DDF800C078
:103770008CF0100C5CEA0B0C05D00EE040228DF8AA
:103780000420012208E050EA010306D030238DF81E
:1037900004308DF8052002229146009B83F0080337
:1037A00053EA0B030AD150EA010201D1620705D5A1
:1037B00030228DF804204FF001097F1E3278582AFC
:1037C00004D039A20C920CAA02920BE03BA2F9E7BA
:1037D0005B46009AFCF79CFE0C9B9B5C029A521E77
:1037E0000292137050EA0102F2D1029804A9081A59
:1037F00000F1200B600702D524F4803400E001279B
:103800005F4502DDA7EB0B0000E0002000EB0B01A1
:10381000009003984944401A0390E00306D45346AD
:103820002146179A039800F0A9F90544002706E0FD
:1038300001A85246C05D179990476D1C7F1C4F45EB
:10384000F6DBE0030CD553462146179A039800F0A7
:1038500095F9054404E030205246179990476D1CB5
:103860000099481E00900029F5DC08E002980299B2
:1038700052460078491C0291179990476D1CBBF184
:103880000001ABF1010BF1DC5BE100F065F90544EF
:10389000761C307800287FF40DAE19B02846BDE8BC
:1038A000F08F0000092801003031323334353637CB
:1038B000383961626364656600000000303132337C
:1038C000343536373839414243444546000000001C
:1038D000600700D4062708F1070020F00700F0E891
:1038E0000223804603F0004C5FEA0C0001D097A051
:1038F00009E0200501D596A005E0E00701D095A0DC
:1039000001E0AFF24C001390307823F000436528BB
:103910000CD006DC452809D046281DD047287FD189
:103920003BE0662818D067287AD136E00021112FB5
:1039300001DB112000E0781CCDE9000104A90CA8EE
:10394000FFF7EEFCDDE90D010C9A4FF0000B07F1DB
:103950000109109200914EE04FF000400097CDE930
:10396000011004A90CA8FFF7DBFCDDE90D020C9B9C
:103970000F994FF0000B91461093009211B9791CEA
:1039800000EB0109B7EB090003D4C0F1FF3B07F1DD
:103990000109A9EB0700019042E0012F00DA01279D
:1039A0000021112F01DD112000E03846CDE9000192
:1039B00004A90CA8FFF7B4FCDDE90D010C9A0091F5
:1039C0004FF0000BB946109221070FD4009A4A45D8
:1039D00003DA914601E0A9F10109B9F1010F05DD12
:1039E000109AA9F10101515C3029F4D0B84202DAF1
:1039F00010F1040F03DA0121CDE9011010E00028D5
:103A000003DC8344A9EB000102E0411C494500DDD1
:103A10008946A0EB0B00401C01904FF00040029043
:103A2000200705D40198484502DB4FF0FF30019094
:103A300000208DF84B0002980DF14B07B0F1004FBC
:103A400025D002200C902B200D90029800280CDA33
:103A5000404202902D200D9007E00A210298FCF7C9
:103A600041FD3031029007F8011D0C99481E0C9061
:103A70000029F2DC02980028EFD1791E0D98087019
:103A8000307800F0200040F0450007F8020D11A842
:103A9000C01BC01D02901398007800B1012000EBFC
:103AA0000901019801EBE071029801440398401A62
:103AB000401E0390E00306D453462146179A03980C
:103AC00000F05CF805441398007818B15246179935
:103AD00090476D1CE00323D553462146179A03985F
:103AE00000F04CF805441BE0BBF1000F07DB009829
:103AF000584504DD1098179910F80B0001E017994C
:103B000030205246904701980BF1010B401E05F101
:103B10000105019004D12E205246179990476D1C43
:103B2000B9F10001A9F10109DEDC05E017F8010B8C
:103B30005246179990476D1C0299481E0290002921
:103B4000F4DC53462146179A03989EE62D000000A8
:103B50002B000000200000002DE9F0410446002564
:103B60001E461746880404D405E039462020B04795
:103B70006D1C641EF9D52846BDE8F0812DE9F041A1
:103B8000044600251E469046C80301D5302700E0B4
:103B90002027880404D505E041463846B0476D1C0F
:103BA000641EF9D52846BDE8F0814A68002A06D08F
:103BB0000A68531C0B6010704868401E48607047CC
:103BC0000A68531C0B6010707047000013B54FF06B
:103BD000FF33012269460248FEF77DF900981CBDBB
:103BE0008C000020FDF7E8FAFEF771FEFEF712FBED
:103BF000FEF7ECFAFEF762FBFEF794FB1148FDF7C7
:103C00006DFEFEF7BBF9FEF7FDFDFEF713FC00218C
:103C10000DA308220846FEF759FCFEF7B5FDFFF795
:103C2000B7F8FCF76BFD0CA0FFF71EFB104C4FF430
:103C3000FA7580212046FDF7A4FA2846FDF79AF987
:103C4000F7E7000044000020202020204D595F5459
:103C500045535420202020002D2D2D2D7379737471
:103C600065726D207374617274210D0A000000008A
:103C7000000C0140000000000000000000000000F7
:103C800000000000000000F8000000000000003309
:103C90003000000000160E00160E000000000000AC
:103CA0000000000040C07840C0784000043F040499
:103CB0003F040400007088FC08300000001820FF5A
:103CC000211E0000F008F000E018000000211C0395
:103CD0001E211E0000F00888700000001E21232411
:103CE00019272110000000160E000000000000003F
:103CF00000000000000000E01804020000000007BF
:103D00001820400000020418E000000000402018C5
:103D100007000000404080F0804040000202010F98
:103D200001020200000000F0000000000101011F7C
:103D300001010100000000000000000000B0700060
:103D40000000000000000000000000000001010170
:103D500001010101000000000000000000303000FF
:103D600000000000000000008060180400601806D9
:103D70000100000000E010080810E000000F102013
:103D800020100F00001010F8000000000020203F5D
:103D900020200000007008080888700000302824E7
:103DA0002221300000300888884830000018202088
:103DB00020110E000000C02010F8000000070424AD
:103DC000243F240000F808888808080000192120F2
:103DD00020110E0000E0108888180000000F11204C
:103DE00020110E0000380808C83808000000003F05
:103DF000000000000070880808887000001C222164
:103E000021221C0000E010080810E0000000312210
:103E100022110F00000000C0C000000000000030B0
:103E200030000000000000C0C0000000000080B0B2
:103E30007000000000008040201008000001020413
:103E4000081020004040404040404000040404046A
:103E50000404040000081020408000000020100826
:103E600004020100007048080808F000000000305B
:103E700036010000C030C828E810E00007182724E9
:103E800023140B000000C038E0000000203C230297
:103E90000227382008F8888888700000203F2020FA
:103EA00020110E00C030080808083800071820202C
:103EB0002010080008F808080810E000203F202023
:103EC00020100F0008F88888E8081000203F202004
:103ED0002320180008F88888E8081000203F2000F8
:103EE00003000000C0300808083800000718202030
:103EF000221E020008F808000008F808203F2101EF
:103F000001213F20000808F8080800000020203F99
:103F10002020000000000808F8080800C080808009
:103F20007F00000008F888C028180800203F200102
:103F30002638200008F8080000000000203F20205C
:103F40002020300008F8F800F8F80800203F003F73
:103F5000003F200008F830C00008F808203F20008B
:103F600007183F00E01008080810E0000F1020209C
:103F700020100F0008F808080808F000203F210171
:103F800001010000E01008080810E0000F182424C8
:103F900038504F0008F8888888887000203F20003B
:103FA000030C3020007088080808380000382021F1
:103FB00021221C00180808F8080818000000203FFB
:103FC0002000000008F808000008F808001F202062
:103FD00020201F000878880000C838080000073833
:103FE0000E010000F80800F80008F800033C070084
:103FF000073C0300081868808068180820302C03EC
:10400000032C30200838C800C83808000000203FC2
:104010002000000010080808C838080020382621B1
:1040200020201800000000FE020202000000007FB5
:1040300040404000000C30C00000000000000001C3
:104040000638C00000020202FE00000000404040AE
:104050007F0000000020100804081020000000006D
:104060000000000000000000000000008080808050
:104070008080808000020408000000000000000032
:1040800000000000000080808080000000192422D1
:1040900022223F2008F8008080000000003F11200D
:1040A00020110E000000008080800000000E112012
:1040B00020201100000000808088F800000E1120F0
:1040C00020103F200000808080800000001F2222FE
:1040D00022221300008080F0888888180020203F6A
:1040E000202000000000808080808000006B94947D
:1040F0009493600008F8008080800000203F210039
:1041000000203F2000809898000000000020203F01
:1041100020200000000000809898000000C08080EF
:10412000807F000008F8000080808000203F24028B
:104130002D302000000808F8000000000020203F7B
:10414000202000008080808080808000203F200030
:104150003F20003F008080008080000000203F2141
:1041600000203F200000808080800000001F202071
:1041700020201F00808000808000000080FFA120A0
:1041800020110E000000008080808000000E1120B1
:1041900020A0FF80808080008080800020203F2140
:1041A00020000100000080808080800000332424F3
:1041B00024241900008080E0808000000000001F9F
:1041C000202000008080000000808000001F202050
:1041D00020103F20808080000080808000010E3011
:1041E0000806010080800080008080800F300C0372
:1041F0000C300F0000808000808080000020312E75
:104200000E312000808080000080808080818E7050
:104210001806010000808080808080000021302C02
:104220002221300000000000807C0202000000001B
:10423000003F404000000000FF00000000000000C0
:10424000FF0000000002027C800000000040403FB0
:10425000000000000080404080000080000000005E
:10426000000101000000000000000000002F00001D
:1042700000000700070000147F147F1400242A7F29
:104280002A120023130864620036495522500000A8
:104290000007000000001C224100000041221C0019
:1042A0000014083E08140008083E0808000000A09A
:1042B0006000000808080808000060600000002096
:1042C00010080402003E5149453E0000427F400074
:1042D000004261514946002141454B3100181412FA
:1042E0007F10002745454539003C4A4949300001C7
:1042F0007109050300364949493600064949291E16
:104300000000363600000000563600000008142277
:104310004100001414141414000041221408000277
:1043200001510906003E4955592E007C1211127C9C
:10433000007F49494936003E41414122007F4141C9
:10434000221C007F49494941007F09090901003EBB
:104350004149497A007F0808087F0000417F4100F9
:10436000002040413F01007F08142241007F40406F
:104370004040007F020C027F007F0408107F003E57
:104380004141413E007F09090906003E4151215E3D
:10439000007F091929460046494949310001017F3A
:1043A0000101003F4040403F001F2040201F003FD0
:1043B0004038403F00631408146300070870080782
:1043C00000615149454300007F414100000204085B
:1043D0001020000041417F0000040201020400405F
:1043E0004040404000000102040000205454547832
:1043F000007F484444380038444444200038444452
:10440000487F00385454541800087E0901020018EF
:10441000A4A4A47C007F080404780000447D40002C
:10442000004080847D00007F102844000000417F10
:104430004000007C04180478007C080404780038EC
:104440004444443800FC242424180018242418FC74
:10445000007C0804040800485454542000043F44DD
:104460004020003C4040207C001C2040201C003CA0
:104470004030403C004428102844001CA0A0A07CF0
:10448000004464544C440000087F41000000007F59
:1044900000000000417F0800000804081008A3ACD9
:1044A000000000000000000000000000000000000C
:1044B000000000583800000000000000000000006C
:1044C00000A1A300000000000000000000000000A8
:1044D0000000000000001824241800000000000064
:1044E00000000000C4E300008060F8074020180FBF
:1044F00008C80808281800010000FF00100C03403D
:10450000807F0001061800BAC3001010F01F10F0E1
:1045100000808282E2928A8680004022150816611D
:10452000000040807F0000000000CAC00020202062
:10453000FE2020FF202020FF20202020000000005F
:104540007F404047444444474040400000BDE700AE
:10455000000000FE929292FE929292FE00000000F5
:1045600008080484621E010001FE02040408080019
:10457000000000FF010101310909090989710101E8
:104580000101FFFF80808080808096818080808014
:104590008080FF010202030405060708090A0B0CCC
:1045A0000D0E0F10100000000000000000010203BB
:1045B00004060708090000000001020304000000CF
:1045C000E0450008000000201C0000000033000847
:1045D000FC4500081C000020BC0800001033000847
:1045E00000000000000000000100000010000000BA
:0C45F0000000000000127A000000000033
:04000005080000ED02
:00000001FF
